:020000040800F2
:10000000B00D00206D480008B9180008BB180008A2
:10001000BD180008BF180008C11800080000000043
:10002000000000000000000000000000C3180008ED
:10003000C518000800000000C7180008AD17000828
:100040008748000887480008874800088748000854
:10005000874800082D0F0008310F0008350F0008F1
:100060008748000855180008874800088748000896
:1000700087480008011800088748000887480008DA
:10008000874800088748000800000000C9170008DA
:100090008748000887480008874800088748000804
:1000A00087480008874800088748000887480008F4
:1000B0008748000800000000874800080000000092
:1000C00087480008000000008748000887480008AB
:1000D000874800088748000887480008000000009B
:1000E0000000000000000000874800088748000862
:1000F00087480008874800088748000887480008A4
:100100008748000800000000000000008748000841
:1001100000000000000000000000000000000000DF
:1001200000000000000000000000000000000000CF
:1001300000000000000000000000000000000000BF
:1001400000000000000000000000000000000000AF
:1001500000000000000000008748000887480008F1
:100160008748000887480008DFF80CD005F0D8F869
:10017000004800477D010008B00D0020DFF814841E
:100180000120C8F8080001F079FA01F09DFADFF8C3
:1001900008044FF47A710068B0FBF1F0411E0020B2
:1001A000B0EB116F07D1E64AF0235160E5490B70BF
:1001B00090600720106000F0B1FF50B300F0AAFF7C
:1001C00000F0C8FF00F0F8FF4FF090404FF40041FE
:1001D000012203F081F9DC4F04210122A7F58060A0
:1001E00003F07AF901F06AF901F0BCF800F03CFE86
:1001F00098F8000000F0AEFD03F0B0F8082460B2FB
:10020000002807D4E5480470642001F049FB013C54
:10021000F5E7FEE7E1490020087001F03BFB00F044
:100220005DFA012802D103F099F8F8E70A200A24C0
:1002300001F036FB4FF090404FF40041002203F0F4
:100240004BF9DFF868B3C8F8084001F023FBD8F891
:1002500020108842F9D301F01DFB0530C822C8F8F0
:100260002000D8F80C000130B0FBF2F1C8F80C0007
:1002700001FB120000224FF400516428384638BFB9
:10028000012203F029F998F80C00C00708BF01F01B
:1002900035FCD8F8140018B100F0A4F9C8F8100023
:1002A00098F80000D8F8106060B3304604F052FEB1
:1002B0000646D8F818000D4604F04CFEB84B002254
:1002C00004F0A1FD0C46B9460746B64900203A465F
:1002D00023468A4604F01FFD32462B4604F021FDDA
:1002E00004F090FEA8F80400384621460022534648
:1002F0004F4604F06FFC32462B4604F012FD04F02A
:1003000081FEA2E0002E304600D5704204F01DFEB2
:1003100004F097FEA44B00224FF0000904F001FD09
:100320009F4B002204F06FFD9E4B002204F052FC14
:1003300004F09AFE054606F1310063280AD3BBF9A2
:10034000020041428E42C8BF31468642C8BF0146C4
:10035000C1F10009D8F8181001F13100632801D269
:1003600000200EE0BBF9022050428142C8BF08467F
:100370009142C8BF104604F0DFFD0146284604F054
:10038000B9FB8B4C04F004FE04F0D6FD0146204678
:1003900004F0AAFB874D294604F0ACFB864904F023
:1003A000DBFB294604F04EFB064604F0F1FD8349D1
:1003B00051F820508249304604F0A2FD0FFA89F628
:1003C000804916F57A7FD8BF0E46B6F57A7FA8BF6A
:1003D0004FF47A76E8B1304604F0AEFD0146284687
:1003E00004F088FB2146054604F08AFD764C00287F
:1003F0001CBF0025CCF27A452846214604F080FD3A
:10040000002808BF2546284604F0C2FDA8F80400CD
:100410001CE03046A8F8046004F08EFD294604F084
:100420009BFB2146054604F06BFD674C00281CBF72
:100430000025CCF27A452846214604F061FD0028CB
:1004400008BF2546284604F0A3FD064636B23046CE
:1004500000F070F95D485E490568284604F042FDE9
:10046000B0B9002000F0FAF8D8F8100010F1320FFF
:100470004FF00000B8BF01209BF801100139B1FA1C
:1004800081F14909084004461CBF0424052018E0F6
:100490005049284604F026FD20B9012000F0DEF87E
:1004A00003240DE04C49284604F01CFD20B902202D
:1004B000022400F0D3F803E0032000F0CFF8012479
:1004C000062046490C703549087000F007F90128EC
:1004D00002D007E002F042FF00F000F90128F9D055
:1004E00000F080F8002E00D57642322E14D8B8F8ED
:1004F000040001B280EAE130A0EBE13080B23328A1
:100500000AD2D8F81C00364901308842C8F81C00CD
:1005100028BF00F067F802E00020C8F81C000120A6
:1005200098F8021088F8030098F80100C0B2084358
:100530000CD19BF80000400608D4012009E000BF60
:1005400010E000E023ED00E000080048002088F8FB
:10055000030000F0E9F89BF800004FF40041C0F3FD
:10056000C0024FF0904002F0B7FF9BF800004FF43C
:100570000041C0F300124FF0904002F0ADFF9BF934
:100580000000B0F1FF3FD8BF00F02CF802F0E6FE0B
:100590005BE600BF14010020780000203C01002031
:1005A00000408F400000F03F0000E0BF000000204E
:1005B00000007AC4000034430000FA44806100085F
:1005C0000000B44218FCFFFF00007A44080000203D
:1005D00000000C42000004420000F0413D010020F8
:1005E0008138010070B51A4C606900280CD04FF0BA
:1005F0000501C8BF6FF0040140180146606148BFA3
:1006000041420A2909D970BD20690028014600D558
:1006100041420B2901D3606170BD0E4D0026082EAA
:1006200005D864202E7001F03BF90136F7E700266B
:1006300000202E7000F078F80020267000F07AF884
:1006400005480421002202F047FF02F087FEFCE784
:10065000140100203C01002000040048FEB50446BF
:100660001B480078800600D4FEBD1A4800F108013E
:100670000291411D0191C11C032C009110D116491A
:100680003222C968B1FBF2F303FB121100221929CF
:100690004FF4807138BF012202F01EFF012500E0F7
:1006A00002256E460127E4B268B20028DCD4EAB223
:1006B00056F82200121BB2FA82F200F00F0120F06D
:1006C000FF00520907FA01F102F006FF013DEBE7D6
:1006D00000000020000400481401002038464FF4B8
:1006E000804102F001BF000090FBF1F202FB11001B
:1006F000084490FBF1F202FB110000B2704700BF0A
:10070000401A062100B290FBF1F101EB4101A0EB90
:1007100041000449002848BF063080B231F910007A
:10072000704700BF4C61000801490870704700BF66
:1007300038010020F8B5054614480078012821D07A
:1007400008BB13484FF47A410068B0FBF1F004B2E3
:10075000204604F0FFFB064628460F4604F0FAFB4D
:100760000C4B002204F04FFB32463B4604F0D9FA12
:1007700004F048FC6542A842C8BF05468442B8BFA1
:10078000254600E0AD0004488562F8BD1401002054
:100790007800002000408F403801002005490A7889
:1007A000824205D0087004490A6B02FA00F0C8645E
:1007B000704700BF04000020380100202DE9F04FF1
:1007C00087B0DFF8C46300200690CDE90400B6F9D5
:1007D0000E00B0F57A7F0DDADFF8B0130130F0814A
:1007E000B6F85E00B1F902201044022290FBF2F04C
:1007F0004880C6E1B5896420B5FBF0F101FB1050DB
:1008000018BBDFF888A3DAF8040004F01AFC80466D
:10081000B6F85C00894604F0AEFBDD4B002204F024
:1008200080FADC4ADC4B04F07CFADC4ADC4B044600
:100830000F464046494604F074FA22463B4604F00F
:10084000C9F904F011FCCAF80400D649726D681C9D
:10085000B0810968914206D9326D01F57A71C6E915
:100860001512002101E0316D013131653179CE4D34
:1008700059B1737980B24FF47A52B0FBF2F201337E
:10088000B2FBF3F404FB1322D2B3002228464FF448
:10089000007102F021FEDFF8F4A2B6F85E10BAF99A
:1008A0000200081A04F056FBC04AC14B04F039FAA2
:1008B00004F0DAFBBF4920F00040CAF8080004F059
:1008C0002DFBBD4F28B9307818B1BC4800780128FD
:1008D00023D100209AF80010C6E90A00B070306BEE
:1008E0000E2904D00E218AF800108103F16400283B
:1008F00000D5404263281AD8384603F06AFB16E058
:10090000C900B0FBF1F202FB11000028C3D1F0785E
:10091000B0FA80F04209F270B8E7384603F054FBB1
:100920009AF80100FFF73AFFA5480078B070A54C8F
:100930004FF090400121A047B0714FF0904002214C
:10094000A047F07128464FF40061A047B179F279D1
:1009500030729D4C01EB8000202100EB4200707052
:100960002846A047B27928460821A047327A28466F
:100970004FF48071A04770789449095C0728717220
:1009800000D028B9384607B0BDE8F04F03F021BBCE
:100990008F48B2890088B2FBF0F303FB102008B146
:1009A000F06A05E0B16AB07800F020FA717AF0627E
:1009B0009AF80020F36C43FA02F41B1B1844F0640D
:1009C0001041306304AA009206AA05AB00F0B4FA05
:1009D000DFF800824FF47A49049A4FF4FA440A256A
:1009E000DFF8F4B1D8F8000000F000F90A220A2973
:1009F000C8BF0A460A38814288BF024638460221EB
:100A0000D847D8F80000059A00F0F0F80A220A2921
:100A1000C8BF0A460A38814288BF024638460121CB
:100A2000D847D8F80000069A00F0E0F80A29C8BFB5
:100A30000D460A38814288BF054638462A460021BD
:100A4000D84796F809B0B57A0621A5EB0B0090FBC4
:100A5000F1F101EB4101A0EB41006049002848BFE2
:100A60000630D6F8388080B231F91000716C0F1A58
:100A70004FEA581077647C289CBF08F10108C6F83B
:100A80003880B06C874209D1B8F57A6F4DD3002019
:100A9000C6E90600306206F1140044E0B8F10B0F1D
:100AA0003DD33B1ADAE90101D6E90724029301910B
:100AB000DAF81010A2EBA2020394B1FBF8F101FBEB
:100AC00003225943B8F57A7FF26138BF9110716102
:100AD00004F0B7FA424A434B04F023F981460198E7
:100AE0000C4604F0AEFA02460B464846214604F096
:100AF00018F904F087FA029A4FF47A5180025143B0
:100B000090FBF1F00399B8F57A7FA1EBE10100FBCE
:100B1000081100FB08F0316238BFC810B061C6F898
:100B2000408006F1380000210160746BA0097C2828
:100B30009CBF01347463012D1AD0BBF1010F17D192
:100B4000204604F002FA0146274804F005F8DAF8D6
:100B50000C103061022DB1FBF4F1716219BF4842F3
:100B6000706280F000403061F4630020706305E043
:100B7000B4F5FA5F22BF002030617062B76486F876
:100B80000AB007B0BDE8F08F380100200400002053
:100B900000C0983FFCA9F1D24D62503F2B8716D977
:100BA000CEF7EF3FF8000020000400483F80C999CD
:100BB0009CC9C93F00007041002C0140F00000209A
:100BC00014010020E9340008D934000878610008D5
:100BD0001800002078000020634200084C610008E3
:100BE0005EBA490C02EB2640ECF9F844B0FBF9F18F
:100BF000B0FBF4F009B2114470470000F8B50F469D
:100C00000999044600201E461546C4E90400A06167
:100C10000898A1620799E1830699A18300F000F981
:100C200004F0CFF9C4E90801384600F0F9F804F0FF
:100C3000AFF92060304600F0F3F8084E314603F07B
:100C400059FF04F0A5F9A060284600F0E9F8314604
:100C500003F082FF04F09CF96060F8BD00007A4464
:100C60002DE9F047DFF8E890A1EB0208C9F8008011
:100C7000036883FB08EC836A23B198451ADA5B4268
:100C8000984517DD4468D0E90457D0E90836C4FB1D
:100C900008575C1BC0E9045776EB070407DB002408
:100CA0005B4264EB0606EC1A77EB060407DAC0E950
:100CB000043606E000230026C0E9043301E02B4699
:100CC0003E468469D0F808A04FEA1E45C9E904638E
:100CD000C9F808C0C9F80CE045EA0C45A8EB0402C5
:100CE0001C0CC9F820508AFB027144EA0644C9F87A
:100CF0000420C9E906173F0C254447EA01416F1853
:100D0000C9E9094113EB0E04B0F91E30C9F82C7083
:100D100046EB0C05CAFB02459F421E4603DCB0F9B8
:100D20001C60B74201DAC9F82C60210C41EA054485
:100D30009C42C9F8304003DCB0F91C309C4202DA16
:100D40001C46C9F83030C0F8188020B2BDE8F087E2
:100D5000980100202DE9F04F85B004461F4804702B
:100D6000C4B31F484FF47A410068B0FBF1F000B201
:100D700004F0E2F807461B48C4EBC40A394600EB0E
:100D80008A0656F8084CA6F1140B9BE8000B84F079
:100D9000004003F0AFFE04F0FBF80546204639465C
:100DA00003F0A8FE04F0F4F8044656F8040C3946A3
:100DB00003F0A0FE0B4F4A465B46CDE9005457F8BE
:100DC0002A10CDE9020108484146FFF717FF36F81F
:100DD000180C388005B0BDE8F08F00BF140100206A
:100DE00078000020180000207007002003280CD88D
:100DF000DFE800F00C020406084802E0064800E0C4
:100E0000034802680348FFF72BBF002108B2704770
:100E10007C01002070070020500100204C010020C0
:100E20004FF08F4103F066BEB0B5C0F38521C4B268
:100E30000846214602F020FF01200021022200FA8C
:100E400004F5284602F00CF8284602F051F8072075
:100E5000042C38BF0620022C38BF052000210122B7
:100E600002F094FB2846B0BDB0B54FF4C06002F06C
:100E70003BFC064C4FF09040A047054D686205488A
:100E8000A047A8620448A047E862B0BD290E000848
:100E900080000020010000480B0400482DE9F84FB5
:100EA0001D4FDFF87890DFF878A0DFF878B00026E3
:100EB0004FF00108032E08BFBDE8F88F07EB86044A
:100EC000606A02F01BF820B387F80380F889B9F84C
:100ED0000000F989411A8AB20B2A17D33982F881A6
:100EE00001219AF8000038714FF09040D84705462C
:100EF0004FF090400221D84705EB40050A484FF4D7
:100F00000061D84705EB80008AF80000606A01F0B4
:100F1000EFFF0136CEE700BF800000204401002033
:100F200039010020E934000800040048FFF7B6BF8B
:100F3000FFF7B4BFFFF7B2BF2DE9FE4FCDE90123A4
:100F4000DFF868E15A4ADFF86CC141420A244FF0E9
:100F500000080091CEF818108EF8038011781CF864
:100F600001508EF801509EF80460BEF80E70BEF875
:100F700010109EF803301BB1631E24061C46EBD1F3
:100F800005EB85024FFA85FB009C4FF0000A5200EA
:100F9000AEF808A08EF80220CBEB0B1200284FEA27
:100FA0008208DEF81C20AEF80680A2EB522202EB8B
:100FB0000109CEF81C9000D5204633284FF00000E0
:100FC00040D31CF80600854211D040B20621ABEB9D
:100FD0000000063090FBF1F101EB4101A0EB410074
:100FE0008EF800000428A4BF06388EF80000324AAC
:100FF000A9F500714FEA5920CEF82000914220D87F
:101000002E490988C91BAEF8121089B2C1EB011133
:10101000890001EB9921B1FBF0F04FF6FE71014020
:10102000AEF8140059290CD89EF9001000FB01FA03
:101030004FF4A5700029AEF808A048BF4FF4C37064
:1010400000E0002040444FF4B472504481B2B1FB40
:10105000F2F303FB12111A4A32F911306343019C77
:10106000DB1323606FF0EF03F02903F1780438BF3E
:101070007823DEF81850AEF80A00AEF80C100B44D6
:101080009BB232F913306B43029DDB1378292B603E
:1010900038BFF0246018DEF8181080B232F9100062
:1010A00048430C99C0130860BDE8FE8F8000002003
:1010B0003901002068610008FF3D0600440100205E
:1010C00054640008B0B500F00F02012320F0FF05C2
:1010D00003FA02F428460022234602F0B5F9284616
:1010E000002101222346BDE8B04002F0D4B9B0B5DA
:1010F00000F00F03012420F0FF059C402846234602
:1011000002F0A2F92846002101222346BDE8B040A2
:1011100002F0C1B94FF4407002F02EBA80B540F62B
:101120001D1002F0BBFB08B102F0C4FB40F6FF70DB
:10113000022102F03BF9012809D140F6FF7002F0CC
:101140001DF9012803D102F011F9012080BD002012
:1011500080BD00BFB0B54FF4E16002F0C5FA134C9A
:10116000204602F0BFFD134A114D4FF400104FF41A
:10117000FA63002112682973B2FBF3F285E80700D5
:10118000204602F06EFE2046294602F0FBFD1320A9
:101190000321002202F0FAF92046012102F0B9FEF3
:1011A0002046BDE8B04002F04DBE00BF0020004028
:1011B000A0090020780000202DE9F843614C40F29E
:1011C0001150A04740F21250A04740F21350A047E0
:1011D00040F21650A0475C4CDFF8708102210022DB
:1011E0004FF480532046C047DFF864912046002129
:1011F00003224FF48053C847564D204602214FF436
:101200008052A84700F0C8FA01224FF48073C0470B
:1012100000F0C6FA4FF48073C84700F0BDFA4FF4EF
:101220008072A8472046022101224FF40053C04794
:101230002046002100224FF40053C84720460221D7
:101240004FF40052A84700F0A7FA01224FF40073B0
:10125000C04700F0A5FA4FF40073C84700F09CFAAD
:101260004FF40072A8472046022101224FF4804328
:10127000C0472046002100224FF48043C847204643
:1012800002214FF48042A84700F086FA01224FF471
:101290008063C04700F084FA4FF48063C84700F0D1
:1012A0007BFA4FF48062A8472046022101224FF4C6
:1012B0000043C0472046002100224FF40043C847A6
:1012C000204602214FF40042A847234FE01C012191
:1012D000B84704F108000121B847601D0121B84753
:1012E0001E4E012106F10E00B847201D0121B8470E
:1012F0001B4D01212846B8474FF090400021B847C8
:1013000030460021B84704F10B000021B847F01C1B
:101310000321B847301D0321B847A01C0121B8475D
:101320002046012100224FF40073C04720460021CF
:1013300003224FF40073C847681C00213A46BDE8F9
:10134000F8431047E9360008000400484934000813
:101350009734000809350008C5100008010000484E
:101360000D0800482DE9F04140F20B6002F0BCF995
:10137000484C204602F0B6FC48484FF4FA41464D2E
:101380004FF0000800682E4685F81480B0FBF1F09D
:10139000C5E903804FF4C00046F8080F204602F06C
:1013A00060FD2046314602F0EDFC3D4E00F0ECF9C8
:1013B00000F0EEF900F0E4F93A4E00F0E5F900F043
:1013C000E7F900F0DDF9384E204602217022B047DF
:1013D000204601217022B047204600217022B047EC
:1013E000324E00F0D1F900F0D3F900F0C9F94FF016
:1013F000007005F118062E4F0221C5F822004FF4A7
:1014000000203246C5F81E002046B847204601217C
:101410003246B847204600213246B8474FF40060B4
:101420003C2145F8280F4FF48040C5E90181C5E90A
:10143000030820462946C5F8148002F0ABFD20467B
:1014400002F005FD1B4D204602210122A84720463F
:1014500001210122A847204600210122A847164D5C
:10146000204602210422A847204601210422A84741
:10147000204600210422A8470D200021002202F06E
:1014800085F82046012102F044FD2046BDE8F041E8
:1014900002F0D8BC002C0140B000002078000020F1
:1014A000A9420008714200082D420008634200086A
:1014B00025400008A1430008E3430008F8B540F2C6
:1014C000096002F011F94FF4A06002F00DF9032059
:1014D00002F072F90920012100220124002502F006
:1014E00055F8002001F026FB29492A484FF44057BF
:1014F000294E02224FF480630F624FF48077C1E9D6
:1015000002400020C1E90435C1E90652C1E9006783
:1015100001F034FB002001F06BFB002001F086FBA2
:101520000020022101F05AFC0020022101F0A4FB5E
:10153000002001F085FB0120022101F05DF900206F
:101540000421022201F076F901200521022201F096
:1015500071F9002001F044F90120012101F0ECF9BA
:1015600001204FF4602101F005FA01F0D7F801F0F5
:10157000E5F801F0C1FA01F093F801F0A5F801F0E7
:10158000B5F84FF480700121BDE8F84001F0FEB8D5
:1015900030070020940100204C2401407047704720
:1015A000704710B5044601F0CFFC302001F090FEEA
:1015B000204601F0FBFCBDE8104001F0D5BC0068FE
:1015C0007047B0B50C46054601F0BEFC302001F076
:1015D0007FFE2846214601F039FDB0FA80F044092B
:1015E00001F0C2FC2046B0BDF8B5064614460D46D3
:1015F000002087B2A74228BFF8BDE959B819FFF704
:10160000E0FF381DF5E710B500239BB2934228BFD9
:1016100010BD1C58CC500433F7E700BFB0B50748E5
:10162000074B00214FF080524FF000640225C0E9C3
:101630000054C0E902320161B0BD00BF580700206C
:101640000008001010B50A480A490088412838BF30
:1016500001F5806101EB802000F100642046FFF776
:10166000A0FF054920461422BDE81040FFF7BCBF8B
:10167000E0F7FF1F00F8FFFF5807002010B50F48E4
:101680000F490088412838BF01F5806101EB8020B7
:101690004FF00061415801310AD00A4C00F100605E
:1016A00014222146FFF7AFFF2068022808BF10BDB3
:1016B000FFF7B4FFBDE81040FFF7C4BFE0F7FF1F1E
:1016C00000F8FFFF5807002010B50848084C0068D4
:1016D0006FF31F30206003F037F9064840F20F2106
:1016E000006801EA9040606010BD00BF002004E087
:1016F000B0000020041002401CB500F0CBF80446F6
:1017000006480190019810B101980138F9E700F0FE
:10171000C1F80349001B08601CBD00BF00A24A04B9
:101720005407002098B191B1F0B5002200240023A5
:10173000C55C0A2D01D00DB903E00134013201333B
:10174000F6E7E5186E1C8E4202D9BDE8F0407047FE
:1017500001190024CC5491B26C1E0A220D230139C8
:101760000DB2002DF1D4475D651E26B20A2F19BFB8
:1017700087552C4682552DB204BF4355023CEEE7F7
:101780002046002100223047204602210022304717
:1017900020460121002230474FF09040022170473F
:1017A0004FF09040002100227047000002488168FD
:1017B00001318160704700BFF00000200148002126
:1017C00041607047F00000200A484168B1F5FA6FA7
:1017D00007D9017811B9084900220A600121017076
:1017E00003E000220131027041600448012102F04F
:1017F000A0BB00BFF000002024010020002000401A
:1018000010B5124C0121204602F089FB88B1104826
:101810004178C1F101020129427011D08168026949
:10182000914207D9C26801F57A71C0E9041200211A
:1018300002E010BDC1680131C160012001F0AEF8C5
:1018400020460121BDE8104002F073BB002C01408E
:10185000F000002080B50020022101F06FFA58B19D
:101860000B488168C269914207D9826901F57A7192
:10187000C0E90712002102E080BD81690131816168
:10188000FEF79CFF00200221BDE8804001F09CBAD9
:10189000F000002001488068704700BFF000002081
:1018A00004498A6813469B1A834228BF704700BFC9
:1018B0008B68F8E7F00000207047FEE7FEE7FEE7E0
:1018C000FEE7704770477047BFB514460022D5B297
:1018D000435D4D5D1DB1AB4219D10132F7E73D2BA0
:1018E00015D100210DF10605092910D00132D3B21E
:1018F000C35C6B540131002BF6D16946284604F0D5
:10190000FBFB0099A94202D02060012000E00020EA
:1019100004B0B0BD2DE9F04190B005460020E84686
:1019200042A13C220F90404603F046F84EA12846C3
:1019300003F06DF8A8B14E484EA12A4603F052FFBD
:1019400005270FAE78B200282BD4FCB2324604EB48
:10195000840008EB40012846FFF7B6FF20BB013F9B
:10196000F0E74DA1424D4C480E1D49695CCE85E81B
:101970005D0005244FA6696160B200280BD4E0B277
:1019800031462A4600EB800008EB4003284603F06E
:1019900029FF013CF0E746483E49006800F5FA603F
:1019A000886010B0BDE8F081052CFAD8354E364974
:1019B0003078C0EBC00001EB80001C38DFE804F099
:1019C00003180E1309200F9803F0E2FA314948601A
:1019D000E7E70F9921F00041C160E2E70F9921F09C
:1019E00000414160DDE70F9921F000418160D8E7B7
:1019F0000F9820F0004003F0CBFA25494870D0E75B
:101A00000F9C0021204603F07BFA204D002818BFD0
:101A100000242046294603F073FA002808BF2C460C
:101A2000204603F0B5FA3070BBE700BF6D61780067
:101A3000000000000000706572696F640000000023
:101A400070000000000000000000690000000000BD
:101A5000000000006400000000000000000064724C
:101A6000697665000000000068656C700000000089
:101A7000A007002072656365697665643A202725B2
:101A800073270A00140100201C00002000004040C1
:101A900070000020CC010020617661696C61626C8D
:101AA000652027636D64273D34322E3137203A009C
:101AB000F80000202573092725732700B0B500F032
:101AC0008DFB002816D40D2801D00A280AD10A4C13
:101AD000E16879B104F1140000254554FFF71AFFBD
:101AE000E560B0BD0449CA683E2A03D8531CCB60E8
:101AF00011440875B0BD00BFCC0100202DE9F043B2
:101B000089B0FFF7DBFFDFF86481594F98F8004098
:101B10003878A04205D157485749542202F085FF32
:101B200040B120463C70FFF715F952485249542203
:101B300002F042FF5148524D04686878A97881420A
:101B40001CBF3C61A8702978F1B100213C6129706B
:101B500098F80010032903D84AA252F8211079609E
:101B600040B20328D8BF03200928A8BF092003F0EA
:101B700002FA484B002203F046F9474A474B03F06C
:101B8000D0F803F071FA686045484FF49679002167
:101B9000C0F8009043480160B868A0424DD204F1FB
:101BA000C800B8607888013078803F48006803F04A
:101BB00048FA04463D480D46006803F042FA3C4AA4
:101BC0003C4B3D4E1B6812683668CDE9004502ACBF
:101BD00084E80702494839A19B100246CDE9063640
:101BE00003F000FE78880A21B0FBF1F101EB8101DE
:101BF000A0EB410008BB98F800801F49C8EBC80063
:101C000001EB8001A1F1180661CE03F01AFA074634
:101C10002846894603F015FA054630460C4603F07F
:101C200010FACDE90401354835A14346CDE90079E4
:101C3000CDE90254024603F0D5FD304C207878B14E
:101C400039A12046224603F0CDFD20464FF4007115
:101C5000FFF768FD00202146002500F045FA2570B9
:101C600009B0BDE8F043FFF7A9BD00BF1401002093
:101C7000CC010020DC0600201C000020F800002021
:101C800070000020F40100000002000000140000B9
:101C90005A000000000022409A9999999999F93FB9
:101CA000240100202C010020080000200C0000204E
:101CB0007C0100204C0100205001002025732535B7
:101CC0002E30326620560925352E303266204109E5
:101CD0006F646F6D3A2025366409746172676574AC
:101CE0003A2025356409726576733A2025356409F2
:101CF000746F727175653A2025356400A007002065
:101D000025730964726976654D64653A20256920FA
:101D10002C207069643A20252E326620252E3366E9
:101D200020252E346600000025730A007047704796
:101D30002DE9F843184D064614468946287853285D
:101D400018BF00F02BF806EB460005EBC000456A13
:101D5000876A00F11808AF420ED900F08DFC28BF49
:101D6000264600F086FCD8F80810F019B144471A4E
:101D700018BF0746A41B00E00026E81BA04238BF9E
:101D800004461CB100F05CFC274426440EB1C8F8A0
:101D900010703046BDE8F8832402002010B5124CC4
:101DA000A821204602F021FE032011492061606134
:101DB0000E48A061E1614FF4806121620021A162BF
:101DC0006162E16220660B4860661020A0662167B0
:101DD000E16661670F2008A1421C08BF10BD0A5CC4
:101DE000013804F8012BF7E72402002024670008DB
:101DF000DC020020CC02002000000000000054544F
:101E00005220524547474553000000002DE9F84352
:101E1000184D0646144689462878532818BFFFF700
:101E2000BDFF06EB460005EBC000C56E076F00F175
:101E30006008AF420ED900F01FFC28BF264600F014
:101E400018FCD8F80810F019B144471A18BF074613
:101E5000A41B00E00026E81BA04238BF04461CB1CA
:101E600000F0EEFB274426440EB1C8F8107030464F
:101E7000BDE8F8832402002010B50B46EFF311846F
:101E80004FF0200181F311881946FFF751FF84F3C9
:101E9000118810BD10B50B46EFF311844FF02001EF
:101EA00081F311881946FFF7B1FF84F3118810BD43
:101EB000F8B50D461D4900F0CAFB486A8A6A01F16F
:101EC0001807904202D1B968013907E03A693B69C5
:101ED000C1431944904224BFBA6811448C420AD9C4
:101EE000621AB9683B691A443A613A698A4203D373
:101EF0003A69521AF8E7B9680E1A7968B442084488
:101F00000CD3294600F0B5FBB96800203544A41B6A
:101F1000F860A1F1010608BFF8BDEEE729462246A8
:101F200002F04AFDF8682044F860F8BD2402002061
:101F300070B50D46104900F08AFB486F01F160064C
:101F4000022813D0012807D020B9304600F016F837
:101F5000A04207D2002407E0304600F00FF8A0426C
:101F600038BF044600F081FB204670BD304629464C
:101F70002246BDE870402BE024020020C2680169BF
:101F800091428FBFD043D2431144806808447047C8
:101F90002DE9F0410446884640681546D4E902160A
:101FA0008F1B3044BA4205D241462A4602F004FD56
:101FB00035440AE041463A4602F0FEFCED1B6068FB
:101FC00008EB07012A4602F0F7FCE560BDE8F08166
:101FD0002DE9F843C76814460D4680464FF00009C6
:101FE000D8F81000F943B84203D9D8F808200144C2
:101FF00003E0D8F8082008448118D8F80400D61B5C
:10200000B14238BF0E462946A64228BF264638446C
:1020100000F02FFBD8F80810F0193544B144471AE6
:1020200018BF0746A41BC8F80C70D9D14846BDE8B4
:10203000F88300BF70B50D46104900F008FBC86A70
:1020400001F11806022813D0012807D020B9304624
:10205000FFF794FFA04207D2002407E03046FFF7C5
:102060008DFFA04238BF044600F0FFFA204670BD45
:10207000304629462246BDE87040A9E724020020E8
:10208000F8B506460A4814460D460078532818BF8E
:10209000FFF784FEEFF311874FF0200181F31188E1
:1020A000304622462946FFF743FF87F31188F8BDE3
:1020B00024020020F8B506460A4814460D4600786A
:1020C000532818BFFFF76AFEEFF311874FF0200186
:1020D00081F31188304622462946FFF7ABFF87F38C
:1020E0001188F8BD24020020B0B5054608460C460C
:1020F00002F086FC024628462146BDE8B040FFF7C4
:10210000D9BF00BFB0B50B4A00EB400002EBC003E3
:10211000D3E908209C6A451CAA1A18BF2A46A24285
:1021200004BF0020B0BD18335C6821540120DA6080
:10213000B0BD00BF2402002070B5114E00F07BFA44
:1021400018BFFFF72BFE05EB4500EFF311824FF0B0
:10215000200181F3118806EBC003D3E908109D6AC2
:10216000461C711A18BF3146A94201D1002004E073
:1021700018335D682C540120D96082F3118870BD3A
:102180002402002070B5144E00F055FA18BFFFF776
:1021900005FE05EB4500EFF311824FF0200181F3BE
:1021A000118806EBC003D3E90810DD6A461C711ADA
:1021B00018BF31461833022D02D11D69A942FCD047
:1021C0001D69A94201D1002003E05D682C54012063
:1021D000D96082F3118870BD24020020E0B50DF1B2
:1021E000070100200122FFF755FE9DF80710012886
:1021F00018BF4FF0FF3108468CBD80B5FFF7EEFFEA
:102200000028FBD480BD00BF10B5064C20785328B1
:1022100018BFFFF7C3FDE06E216F081A18BF012039
:1022200010BD00BF24020020044900EB400001EB78
:10223000C000C16E006F081A704700BF2402002062
:10224000044900EB400001EBC000416A806A081AB3
:10225000704700BF240200202DE9F041154C00F02A
:10226000E3F918BFFFF79AFD04F164030020EFF3D0
:1022700011824FF0200181F31188196821B1616941
:10228000183301308842F8DB616988420CDA00EBD0
:102290004001002304EBC1010F664E668D660B679B
:1022A000CB66C1F8748001E04FF0FF3082F31188F3
:1022B000BDE8F081240200202DE9F041154C00F02A
:1022C000B3F918BFFFF76AFD04F11C030020EFF318
:1022D00011824FF0200181F31188196821B1216921
:1022E000183301308842F8DB216988420CDA00EBB0
:1022F0004001002304EBC1018F61CE610D628B624E
:102300004B62C1F82C8001E04FF0FF3082F311885E
:10231000BDE8F081240200202DE9F041104C00F0CE
:1023200083F918BFFFF73AFD022F84BF4FF0FF304B
:10233000BDE8F08107EB4701069804EBC10101F10C
:102340001803EFF311824FF0200181F311880FB1D0
:1023500000F083F95861002082F31188BDE8F08114
:10236000240200202DE9F041104C00F05DF918BF67
:10237000FFF714FD022F84BF4FF0FF30BDE8F0815E
:1023800007EB4701069804EBC10101F16003EFF38D
:1023900011824FF0200181F311880FB100F05DF937
:1023A0005861002082F31188BDE8F08124020020EA
:1023B00070B50D4E00F03FF918BFFFF7EFFC022D8E
:1023C00084BF4FF0FF3070BD05EB4500EFF3118285
:1023D0004FF0200181F3118806EBC00084610020DA
:1023E00082F3118870BD00BF2402002070B50D4E2D
:1023F00000F021F918BFFFF7D1FC022D84BF4FF088
:10240000FF3070BD05EB4500EFF311824FF0200166
:1024100081F3118806EBC0000466002082F3118866
:1024200070BD00BF2402002070B50D4E00F003F90E
:1024300018BFFFF7B3FC022D84BF4FF0FF3070BD13
:1024400005EB4500EFF311824FF0200181F3118875
:1024500006EBC000C462002082F3118870BD00BF8B
:102460002402002070B50D4E00F0E5F818BFFFF70C
:1024700095FC022D84BF4FF0FF3070BD05EB450089
:10248000EFF311824FF0200181F3118806EBC000B9
:102490004467002082F3118870BD00BF2402002031
:1024A0007CE400BF7CB51E4D04462878532818BF35
:1024B000FFF774FCFF200F2C8DF8060084BF4FF04F
:1024C000FF307CBD1748005D8DF80700EFF31186E3
:1024D0004FF0200181F31188E86A00F00300022820
:1024E00009D111480DF106010222047005F118000E
:1024F000FFF76EFD0DE018352846FFF73FFD022877
:1025000009D309480DF10601022204702846FFF79D
:102510003FFD002001E04FF0FF3086F311887CBDC5
:102520002402002058610008200200202DE9F04715
:10253000234D07460C462878532818BFFFF72EFC7A
:102540000F2F1ED8204602F05BFA05F118098046CD
:10255000EFF3118A4FF0200181F311884846FFF70D
:102560000DFD0646E86A4FF0FF3500F00300DFE896
:1025700000F0020F0B2208F10400864204D200256D
:1025800019E04FF0FF3518E0384600F01DF808E07C
:10259000042E10D3384600F017F8301F804528BFAE
:1025A0008046484621464246FFF712FD054605484B
:1025B000007800F009F88AF311882846BDE8F08712
:1025C0002402002020020020E0B5FF2102228DF825
:1025D00006100549085C0DF106018DF80700034857
:1025E0001830FFF7F5FC8CBD58610008240200206C
:1025F000034900EB400001EBC0001830BEE400BF0F
:1026000024020020074900EB400001EBC002906A61
:10261000516A88429CBF081A70471832401A916864
:1026200008447047240200200746984615460E4687
:1026300020785328704705460C4630785328704759
:10264000D8F804002246C119484602F0B5B900EB9B
:102650004000144601EBC001704700211E605D6020
:10266000C3F808801961D960704730462946224670
:102670008EE4324602F0A0B9D8E90102C119D61B96
:102680004846A6427047000080B540F2093001F08C
:102690004BF840F20930BDE8804001F04DB800BF72
:1026A00004480168C90703D1016841F001010160D4
:1026B000704700BF082401400248016821F0010171
:1026C00001607047082401400748016841F0080193
:1026D000016001680907FCD4016841F00401016050
:1026E00001684907FCD4704708240140024801688A
:1026F00041F480710160704708240140024801687C
:1027000021F480710160704708240140024801688B
:1027100041F400010160704708240140024801684B
:1027200021F400010160704708240140024801685B
:1027300041F080710160704708240140024801683F
:1027400021F0807101607047082401400E4A022880
:10275000136823F4C053136010D0012813D11068FC
:1027600020F4604010604FF4604000EB413011688D
:1027700080B2084310604FF4006001E04FF48050D5
:10278000116808431060704704240140134A89B15E
:10279000C10503D5116841F480711160410503D56D
:1027A000116841F480611160800715D5506840F0D0
:1027B000020010E0C10503D5116821F48071116099
:1027C000410503D5116821F480611160800703D5AC
:1027D000506820F002005060704700BF04240140A0
:1027E000044900280A6822F4006218BF02F500625A
:1027F0000A607047082401400D4A012807D00228CA
:1028000015D10C324FF440106FF4401303E04FF435
:1028100070006FF4700310B5146800EB01510840AC
:1028200023401360116808431060BDE810407047F2
:102830002C240140B0B5B1F1120318BF0B461F495B
:1028400005280AD800EB80001F2500F06EF98D6A7C
:1028500025EA0000204388621AE00B280BD800EB21
:1028600080001F251E3800F060F94D6A25EA00003F
:10287000204348620CE00F280AD800EB80001F2597
:102880003C3800F052F90D6A25EA00002043086246
:10289000092B03D8043103EB430004E0112B0BD8C0
:1028A00003EB43001E380723824003FA00F00B6855
:1028B00023EA000010430860B0BD00BF0C240140B3
:1028C000B0B5144B1F25DC6AC4F30154201A00EB89
:1028D0008000C0F10F0001FA00F405FA00F0DD6A93
:1028E00025EA000020430929D86203D8043301EB0C
:1028F000410004E012290CD801EB41001E3802FA15
:1029000000F1072202FA00F01A6822EA00000843E8
:102910001860B0BD0C240140064A536AC3F301534A
:10292000C01A033003289CBF6FF31F3142F82010F8
:10293000704700BF142401400D4A59B1C10703D0AC
:10294000116841F48011116080070FD5106840F4C0
:1029500000400AE0C10703D0116821F48011116022
:10296000800703D5106820F400401060704700BF56
:1029700008240140012804D002280BD16FF4E04064
:1029800001E06FF46020044A13681840106010687A
:1029900008431060704700BF08240140C107064982
:1029A00003D00A6842F480020A60800703D50868F1
:1029B00040F4001008607047082401400148006896
:1029C00080B270474C24014003280CD80749DFE847
:1029D00000F007020406043102E0083100E00C3187
:1029E000086880B270470020FBE700BF3C2401402C
:1029F00002490968084018BF0120704700240140BF
:102A000000498DE000240140012809D0042805D0A8
:102A100002281CBF00207047202102E0802100E036
:102A20004021054A1368184018BF01205268114020
:102A300018BF0121084070470024014000496FE0A1
:102A400000240140C107094903D00A6842F040024E
:102A50000A60820703D50A6842F020020A60400734
:102A600003D5086840F080000860704704240140E6
:102A7000C107094903D00A6822F040020A608207B0
:102A800003D50A6822F020020A60400703D50868CF
:102A900020F0800008607047042401400649074B7D
:102AA0000A681A400A600A681043054A0860086804
:102AB00010430860704700BF04240140E0FD3FFF61
:102AC0000002C0000749084B0138C0B20A681A402A
:102AD00002280A6005D805A252F820000A681043AF
:102AE0000860704704240140FFFD3FFF00008000A4
:102AF000000040000000C0000248034A0168114085
:102B00000160704704240140E0FD3FFF034A6FF37A
:102B10001F306FF31F315060116070472424014053
:102B20000A6822EA00000860704703FA00F405FA18
:102B300000F070470A4A00EB8001800002EB81013F
:102B40004B6823F001034B6000234B608B60CB602C
:102B50000B610F2101FA00F0116808431060704703
:102B600004000240002101220162C0E90011C0E915
:102B70000221C0E90412C0E90611704770B51B4A72
:102B800000EB80000C6802EB80039C60CC68DC608A
:102B9000CC695C6052F820304C680D690E6A23F4F1
:102BA0007C5323432B43334342F820308B6852F845
:102BB000204024F04004002B08BF403442F820405D
:102BC0004B6952F8204024F08004002B08BF803469
:102BD00042F82040896952F8203023F01003002980
:102BE00018BF103342F8203070BD00BF080002400B
:102BF000034900EB800051F8202042F0200220E140
:102C000008000240034900EB800051F8202022F028
:102C1000200216E108000240034900EB800051F851
:102C2000202042F480420CE108000240034900EBFE
:102C3000800051F8202022F4804202E10800024086
:102C4000034900EB800051F8202042F00102F8E037
:102C500008000240034900EB800051F8202022F0D8
:102C60000102EEE008000240004AE1E010000240EC
:102C7000004ADDE014000240004AD9E00C000240A6
:102C8000024900EB800051F8200070470C00024020
:102C9000034A00EB800052F8203023F44053CCE08C
:102CA00008000240034A00EB800052F8203023F471
:102CB0004063C2E008000240034A00EB800052F883
:102CC000203023F44073B8E008000240034900EBD1
:102CD000800051F8202042F08002B2E0080002405B
:102CE000034900EB800051F8202022F08002A8E088
:102CF00008000240034900EB800051F8202042F018
:102D000040029EE008000240034900EB800051F8B9
:102D1000202022F0400294E008000240064A00EB26
:102D20008000002952F8203023F0100318BF103320
:102D300042F82030704700BF0800024001390729DF
:102D40001DD8CAB28B2323FA02F2D20717D010B5CE
:102D5000144C00EB80030BA2800052F8212044EABF
:102D6000830324689B681A400FA353F82110814005
:102D7000214021FA00F0104018BF012010BD0020B2
:102D8000704700BF0E0000000200000002000000BB
:102D90000400000002000000020000000200000029
:102DA00008000000000002400F00000002000000C8
:102DB0000200000004000000020000000200000009
:102DC0000200000008000000800001FA00F0024943
:102DD0000A6810430860704704000240024A00EB92
:102DE000800052F8203028E008000240044A00EB3E
:102DF000800052F8203023EA010142F82010704789
:102E000008000240800001FA00F003490968084008
:102E100018BF0120704700BF00000240800001FA87
:102E200000F002490A68104308607047040002403D
:102E300000EB800042F820107047194342F8201040
:102E4000704741F82020704704484FF079610160D5
:102E5000002141608160C160016170470004014050
:102E600010B5164B1C6884431C605C6884435C602E
:102E70009C6884439C60DC688443DC6019B1012950
:102E800005D1191D00E019460C6804430C60022AA4
:102E90000CD0C143012A06D072B99A6810439860D9
:102EA000D868084007E09A68114001E0996801433A
:102EB0009960D9680843D86010BD00BF0004014084
:102EC00000493CE000040140004938E004040140AE
:102ED00000492FE00004014000492BE004040140B8
:102EE00002490968084018BF0120704714040140D6
:102EF00001490860704700BF1404014005494A6950
:102F0000024018BF01220968084018BF0120104084
:102F1000704700BF0004014001490860704700BFCE
:102F20001404014000490AE010040140004901E096
:102F3000100401400A6822EA0000086070470A682D
:102F400010430860704700000448C168090603D5B3
:102F50000349016003490160704700BF042002403B
:102F600023016745AB89EFCD0248016841F080013C
:102F7000016070471020024003490A6822F00702EE
:102F800010430860704700BF0020024002480168FB
:102F900041F0010101607047FC20024002480168D5
:102FA00021F0010101607047FC200240B0B50446E9
:102FB00000F016F800B1B0BD084D286840F00200DE
:102FC00028606C60286840F04000286000F008F835
:102FD000296821F002012960B0BD00BF1020024025
:102FE00010B50C490C4A02231068C00707D11068BD
:102FF000C0065ABF106803EA5000032000E0012019
:10300000012803D14C1C00292146EDD1012808BF1D
:10301000042010BD0100F1FF0C20024010B5FFF7A5
:10302000DFFF00B110BD084C206840F004002060B4
:10303000206840F040002060FFF7D2FF216821F0B7
:103040000401216010BD00BF1020024070B50C4685
:103050000546FFF7C5FF00B170BD044E306840F073
:10306000010030602C60FFF7BBFF6CE110200240D4
:1030700070B50C460546FFF7B3FF00B170BD044EB6
:10308000306840F0010030602C80FFF7A9FF5AE162
:103090001020024004488168890503D40349016077
:1030A00003490160704700BF0820024023016745C3
:1030B000AB89EFCD0248016821F4007101607047CF
:1030C000102002400248016841F40051016070473D
:1030D00010200240B0B5154CE06800F00605FFF77F
:1030E0007FFF2DB1022D1CBF0520B0BDBB2500E028
:1030F000A52500B1B0BD00F0FBF80428FAD070B9E6
:10310000206820F020002060206840F0100020603F
:10311000074805706FF01005FFF762FF01E06FF0E0
:103120002005216829402160B0BD00BF1020024069
:1031300000F8FF1F0248006800F00600704700BF5B
:103140001C200240FEB5124D00F0F1F80DF106060C
:103150002946062F02D000F0EDF8FAE76FEA1421B5
:103160008DF80B10E1438DF80A1000B1FEBD094C3B
:1031700000F0BEF800F0CFF8F8D100F0D2F8062F3A
:1031800004D000F0BEF80028F9D000E00020BDE037
:1031900000F8FF1F10200240FEB5104D00F0C7F8E8
:1031A0000DF106062946062F02D000F0C3F8FAE713
:1031B0008DF8064000B1FEBD094C00F099F800F012
:1031C000AAF8F8D100F0ADF8062F04D000F099F875
:1031D0000028F9D000E0002098E000BF00F8FF1FB1
:1031E00010200240FEB5114D00F0A1F80DF10606C9
:1031F0002946062F02D000F09DF8FAE744F0880136
:103200008DF8071000B1FEBD094C00F071F800F018
:1032100082F8F8D100F085F8062F04D000F071F89C
:103220000028F9D000E0002070E000BF00F8FF1F88
:1032300010200240FEB5104D00F079F80DF10606A1
:103240002946062F02D000F075F8FAE7ADF80840DD
:1032500000B1FEBD094C00F04BF800F05CF8F8D16D
:1032600000F05FF8062F04D000F04BF80028F9D0EA
:1032700000E000204AE000BF00F8FF1F10200240DD
:1032800002480068C0F30720704700BF1C200240BE
:1032900001480068000C70471C200240014800688B
:1032A00080B2704720200240004948E010200240D0
:1032B00002490A6822EA00000860704710200240B4
:1032C00002490968084018BF012070470C200240DD
:1032D000004934E00C20024002490968084018BF48
:1032E000012070470C200240004928E00C200240D9
:1032F000206840F020002060206840F040002060FE
:103300006EE6F05D013705F8020B69E6216821F0F1
:1033100010012160FEBD2168002821F020012160FC
:1033200070472068002740F0100020607047044676
:10333000002755E611F8022BF255013770470A684D
:10334000104308607047316821F00101316070BDA1
:1033500001480021016070470030004002484AF6F1
:10336000AA210160704700BF0030004002484CF6BF
:10337000CC410160704700BF0030004010B50949E2
:1033800045F255520A60084ACB681AB1013213F06F
:103390000404F9D15A074FBF00206FF31F300861B2
:1033A000012010BD003000400200F0FF70B5104A4F
:1033B00045F2555313600F4B1C46D5681CB10134C0
:1033C00015F00106F9D1EC0708D15160D1681BB1A5
:1033D000013311F00204F9D1890701D5002070BD35
:1033E0006FF31F3090604AF6AA201060012070BD74
:1033F000003000400200F0FF02490968084018BF91
:10340000012070470C30004000F138404FEAB020F6
:10341000052811D8C1B22F2222FA01F1C9070BD019
:1034200010B506A131F81040204600F07DF9204685
:10343000BDE8104000F080B9704700BF110A120AC1
:10344000130A140A110A160A2DE9F043D0F800E015
:10345000D0F80C8000264FF0030C0027102F14D05A
:1034600023FA07F4E4070DD00CFA06F502FA06F980
:1034700028EA05042EEA050544EA090801FA06F4DB
:1034800045EA040E02360137E8E7C0F800E0C0F86C
:103490000C80BDE8F0830129416814BF99431943AA
:1034A0004160F0B5816800244FF0030C0026102E17
:1034B00004BF8160F0BD23FA06F7FF0705D00CFAC0
:1034C00004F502FA04F7A943394302340136EEE762
:1034D00081617047816270471823002A08BF282342
:1034E000C1507047416170470069084018BF012012
:1034F0007047006980B270474069084018BF0120DA
:103500007047406980B27047F0B5D0F820E0446A57
:1035100000254FF00F0C0027082F0ED022FA07F6D7
:10352000F60707D00CFA05F301FA05F62EEA0303B5
:1035300043EA060E04350137EEE7082500264FF072
:103540000F0C102D0CD022FA05F3DB0705D00CFA76
:1035500006F701FA06F3BC431C4304360135F0E7D5
:10356000C0F820E04462F0BD41F48032C261C16124
:10357000C261C169C06970470249084302490860D5
:10358000704700BF0000FA050CED00E010B5224BBB
:103590001C6804F4E064B4F5E06F02D10023042455
:1035A00023E01C6804F4E064B4F5C06F02D1012389
:1035B00003241AE01C6804F4E064B4F5A06F02D19F
:1035C0000224022311E01C6804F4E064B4F5806F67
:1035D00002D10323012408E01B6803F4E063B3F580
:1035E000407318BF01239C000423A1400F2424FA38
:1035F00003F31A401143094A090140EA020383F820
:1036000000131C21012301EAD00100F01F0003FA7E
:1036100000F0885010BD00BF0CED00E000E100E0BC
:103620001C21012201EAD00100F01F0002FA00F083
:10363000014A8850704700BF80E100E0024A114013
:10364000084302490860704780FFFF1F08ED00E053
:1036500002490A6810430860704700BF10ED00E09F
:1036600002490A6822EA00000860704710ED00E095
:10367000044904280A6822F0040208BF04320A60E0
:10368000704700BF10E000E01348016841F00101FD
:10369000016001688907FCD54168104A1140104A51
:1036A0004160416811400F4A4160416821F4400186
:1036B00041600168114040F243120160C16A21F08B
:1036C0000F01C162016B91430163416B21F0010164
:1036D0004163002181607047001002400C00FF0828
:1036E000FFFFC0F7FFFFF2FE734600F096FA9E461A
:1036F000004A87E200100240734600F08EFA9E46B0
:10370000004A77E200100240734600F086FA9E46B7
:10371000004A77E200100240734600F07EFA9E46AF
:10372000004A67E200100240734600F076FA9E46B7
:10373000004A67E200100240734600F06EFA9E46AF
:10374000004A57E2001002400248016841F480310B
:1037500001607047201002400248016821F4803166
:10376000016070472010024002490A6822F00302FB
:1037700045E200BF041002400248006800F00C005F
:10378000704700BF0410024002490A6822F0F002AC
:1037900035E200BF0410024002490A6822F4E062E8
:1037A0002DE200BF0410024002490A6822F4605270
:1037B00025E200BF04100240134904280A6822F4DD
:1037C00040420A60CA6A22F48072CA621AD8DFE8EC
:1037D00000F003130B0F0700C86A20F4807010E09C
:1037E000086840F4404008E0086840F4804004E085
:1037F000086840F4004000E008680860C86A40F4C7
:103800008070C862704700BF0410024002490A6815
:1038100022F44002E2E100BF0410024008430249E2
:103820000A6822F07742EAE10410024010B5054A26
:10383000054C084313682340136011680843106067
:1038400010BD00BF04100240FFFFC2F702490A6822
:1038500022F00302C2E100BF3010024002490A68B0
:1038600022F04002BAE100BF3010024002490A686B
:1038700022F44072B2E100BF2010024002490A68FF
:1038800022F00F02BBE100BF2C10024002490A687F
:1038900022F01802A2E100BF20100240044A810970
:1038A00000F01F00895821FA00F000F00100704775
:1038B000001002400248016841F0807101607047C9
:1038C0002410024002490968084018BF01207047CF
:1038D0000810024001490A6891E100BF0810024047
:1038E00001490A688BE100BF0810024002490A68DA
:1038F00022EA00000860704708100240B0B50021BD
:1039000000284ED010283DD0B0F5506F18D0B0F53B
:10391000006F2BD0B0F5106F1DD018284FF00000AD
:103920004AD1264A264B00241868013A41F1000585
:10393000002CC0F340603FD1002D0446F4D13BE0A1
:103940001E4A1F4B0024586B00F04DF934D1002D56
:103950000446F8D130E0194A194B0024586A00F0A7
:1039600042F929D1002D0446F8D125E0144B6FF01F
:103970007C420024186A00F036F91DD1002D04465F
:10398000F8D119E00E4B4FF4006200241868013A98
:1039900041F10005C0F3404074B9002D0446F5D153
:1039A0000AE0074B4FF4A0620024186800F01BF9EE
:1039B00002D1002D0446F8D1B0BD00BFFFFF0F00BB
:1039C00000100240734600F028F99E46004A19E1B3
:1039D00000100240734600F020F99E46004A09E1BB
:1039E000001002400C49102807D0B0F5006F11D12B
:1039F000203104206FF0010203E04FF480206FF4C7
:103A0000803210B50B680C68224018430A600860C9
:103A1000BDE81040704700BF001002400C4910285C
:103A200008D0B0F5006F12D120316FF004006FF0B4
:103A3000010203E06FF480206FF4803210B50B6850
:103A40000C68224018400A600860BDE810407047CA
:103A5000001002400248016841F4002101607047F3
:103A6000001002400248016821F400210160704703
:103A7000001002400049C9E0001002400049C5E0C2
:103A8000341002400448054A0168002101600168C1
:103A900011430160704700BF001102404D3C2B1ADA
:103AA00002490A6822F0070298E000BF3411024080
:103AB00002490A6822F0010290E000BF381102407A
:103AC000F0B53D4A01463D4B10681C4600F00C0025
:103AD000082815D1106814682401C0F383404FF002
:103AE000110458BF022420441468E40301D4344C68
:103AF00005E0946A04F00F040134B3FBF4F444438A
:103B0000106830A50629C0F30310285C15681768F3
:103B100084BF0020F0BD24FA00F6C7F3C2202D4F69
:103B20009C46385C26FA00F0DFE801F0041A143DE8
:103B3000061C24002046F0BDD16AC9055CBF26489A
:103B4000F0BD1168C1F38131DFE801F002342E329B
:103B50004008F0BDC5F30220385C26FA00F0F0BD45
:103B60003046F0BDD06A40064FF4004058BF48F2DE
:103B70001200F0BDD16A890715D0D06A00F00300A9
:103B8000012820460FD0D06A00F00300022804BFAD
:103B90004FF40040F0BDD06A614600F003000328F6
:103BA00018BF00210846F0BD0621B0FBF1F0F0BDC2
:103BB000C008F0BD8008F0BD0410024000127A0079
:103BC00000093D00000000000000000001020304A5
:103BD0000607080970610008809FD5000A600A681E
:103BE000104308607047013A41F10005002CC0F312
:103BF00040007047835823EA010181507047104309
:103C00000860704783581943815070470A6822F052
:103C1000F80242EAC0000860704700F01F0101226C
:103C2000800902FA01F1704780B54FF44070FFF748
:103C30007BFD4FF44070BDE88040FFF77DBD00BFC5
:103C400000494BE00000014002490A6822EA0000F6
:103C500008607047000001400248016841F40021FB
:103C600001607047000001400248016821F4002112
:103C700001607047000001408B08032B1AD810B573
:103C80000C2202EA81010F22884002FA01F1CA43A4
:103C90000949DFE803F007020406043102E00831B5
:103CA00000E00C310B681A400A600A681043086093
:103CB000BDE81040704700BF0800014000490DE01A
:103CC0001800014002490968084018BF01207047E8
:103CD00018000140004901E0180001400A68104343
:103CE0000860704710B51C4988422AD01B49884299
:103CF0001ED01B49884221D01A4988421BD01A493C
:103D000088420CD0194988420FD01949884209D0FD
:103D1000B0F1804F18BF10BD4FF4806413E040F243
:103D20000B3410E040F211340DE04FF444740AE01B
:103D300040F2014407E04FF4816404E040F204449F
:103D400001E040F212342046FFF7EEFC2046BDE8C9
:103D50001040FFF7F1BC00BF0048014000040040E4
:103D60000010004000200040002C014000400140B5
:103D70000044014000224FF6FF710273C0E90022A7
:103D80008160704710B50A888262284A904204D048
:103D9000274C40F48063A34218D1036823F07003DA
:103DA00003604B880468234303608B8804682343C3
:103DB000036090428B68C3620AD1136823F4407396
:103DC0001360CB881468234313601DE08B68C362C3
:103DD000B0F1804F0ED0164B98420BD0154B984245
:103DE00008D0154B984205D0144B984202D0144B82
:103DF00098420BD1036823F440730360CB880468B6
:103E000023439042036006D1097B0163416941F07D
:103E10000101416110BD084A9042F5D0084A904224
:103E2000F2D0064A9042EFD0F0E700BF002C0140EC
:103E300000040040002000400040014000480140D4
:103E400000440140016841F00101016070470168D0
:103E500021F0010101607047016841F080010160BB
:103E60007047016821F0800101607047016821F00E
:103E7000020101607047016841F002010160704772
:103E8000026822F06002026002681143016070471C
:103E9000016821F0100101607047016841F01001D4
:103EA00001607047816202B17047416941F00101D0
:103EB0004161704701637047C1627047416270475A
:103EC000406A7047806A80B27047012904D039B9CE
:103ED000016841F0080102E0016821F00801016079
:103EE0007047012904D039B9016841F0040102E0AA
:103EF000016821F004010160704729B1012907D14F
:103F0000816841F0080102E0816821F008018160C8
:103F10007047C2681143C160704700F09DBCC26821
:103F20000A4018BF01220069084018BF0120104054
:103F30007047C943016170470069084018BF0120FC
:103F40007047C94301617047C2681143C16070473F
:103F500000F082BC012904D039B9416841F0080160
:103F600002E0416821F008014160704710B5836CA0
:103F700041F61F741143A3438364826C114381642F
:103F800010BD426911434161704780B5182100F0AE
:103F90002CFD80BDF0B5D1E900340A8901F10C0790
:103FA0004989E0CF23431A4311432943314339431D
:103FB0004164F0BD416C41F4805141647047416CF3
:103FC00021F4805141647047416C41F48041416467
:103FD0007047416C21F4804141647047426C012973
:103FE00022F4004208BF02F5004242647047426872
:103FF000012922F0010208BF013242607047012905
:1040000004D039B9416821F0040102E0416841F06F
:1040100004014160704700218181C0E90011816085
:10402000704700BF032900F2EA80DFE801F002AA2E
:104030004586016A21F001010162816921F00301D5
:1040400081611168036A19430162016A21F002016A
:104050000162D188036A19430162734901444FEA3E
:10406000B121072900F2CB80012303FA01F111F0FD
:10407000E10F00F0C480016A21F00401016291881F
:10408000036A19430162016A21F008010162118982
:10409000036A19430162416821F4807141605189CA
:1040A000436819434160416821F40071416091897E
:1040B0004268114341607047016A21F480710162D6
:1040C000C16921F00301C1611168036A43EA01215A
:1040D0000162016A21F400710162D188036A43EA36
:1040E000012101624C490B1F984240F0888010B5B5
:1040F000036A23F4806303629388046A44EA032317
:104100000362036A23F4006303621389046A44EAC6
:1041100003230362086820F48050086050890B680C
:1041200043EA00100860086820F400500860908995
:104130000A6842EA0010086010BD016A21F480514B
:104140000162C16921F44071C1611168036A43EAE7
:1041500001310162016A21F400510162D188036AD0
:1041600043EA013101622C490B1F984247D108688C
:1041700020F48040086050890A6842EA8010086094
:104180003DE0016A21F010010162816921F4407172
:1041900081611168036A43EA01110162016A21F039
:1041A00020010162D188036A43EA011101621B49BF
:1041B000884225D01A49884221D1016A21F0400164
:1041C00001629188036A43EA01110162016A21F0E8
:1041D000800101621189036A43EA011101620E48FC
:1041E000016821F4806101605189036843EA81011B
:1041F0000160016821F400610160918906E0704767
:104200000848016821F4806101605189026842EA2E
:1042100081010160704700BF042C01400040014053
:10422000002C01400440014000D4FEBF032917D8F0
:10423000DFE801F0020D050A50F8181F01E050F800
:104240001C1F21F0700107E050F81C1F01E050F81E
:10425000181F21F4E041120201600168114301605E
:104260007047032903D8890089B208444263704724
:10427000032917D8DFE801F0020D050A50F8181FCE
:1042800001E050F81C1F21F0080107E050F81C1F46
:1042900001E050F8181F21F400611202016001686A
:1042A00011430160704700BF032917D8DFE801F010
:1042B000020D050A50F8181F01E050F81C1F21F0EC
:1042C000040107E050F81C1F01E050F8181F21F40A
:1042D000806112020160016811430160704700BFF4
:1042E000032917D8DFE801F0020D050A50F8181F5E
:1042F00001E050F81C1F21F0800107E050F81C1F5E
:1043000001E050F8181F21F4004112020160016819
:1043100011430160704700BF03291DD8DFE801F099
:104320000213070D50F8201F21F0020110E050F891
:10433000201F120221F400710AE050F8201F12031E
:1043400021F4005104E050F8201F120121F0200157
:104350000160016811430160704700BF03291DD847
:10436000DFE801F00213070D50F8201F21F00801CB
:1043700010E050F8201F120221F400610AE050F80A
:10438000201F120321F4004104E050F8201F120105
:1043900021F080010160016811430160704700BF96
:1043A00003291DD8DFE801F00213070D50F8201F84
:1043B00021F0010110E050F8201F120221F4807159
:1043C0000AE050F8201F120321F4805104E050F855
:1043D000201F120121F010010160016811430160EA
:1043E000704702290DD0012905D099B950F8201F36
:1043F00021F004010AE050F8201F120121F04001D1
:1044000004E050F8201F120221F48061016001686D
:10441000114301607047002141604FF48031016019
:10442000704700BF032900F27A80F0B5DFE801F0A1
:10443000024A163503464FF0010C53F8204F24F082
:1044400001041C601C6824F00A041C6014881D68A8
:104450002C431C60044654F8185F13E003464FF4E5
:10446000807C53F8204F24F480741C601C6824F472
:1044700020641C6014881D6845EA04241C600446FE
:1044800054F81C5F25F003052560558826683543E0
:10449000256004266FF0F00733E003464FF4805C9C
:1044A00053F8204F24F480541C601C6824F42044EA
:1044B0001C6014881D6845EA04341C60044654F8E6
:1044C0001C5F13E003464FF0100C53F8204F24F00C
:1044D00010041C601C6824F0A0041C6014881D6873
:1044E00045EA04141C60044654F8185F25F440752E
:1044F00025605588266846EA052525600C266FF458
:10450000704725683D402560D588B540266835430D
:1045100025601C6844EA0C041C60BDE8F0409288E9
:10452000AFF30080032917D8DFE801F0020D050A78
:1045300050F8181F01E050F81C1F21F00C0107E093
:1045400050F81C1F01E050F8181F21F440611202BE
:1045500001600168114301607047032984BF002096
:104560007047890089B20844406B7047F0B55588A0
:104570000123012D08BF0223076A1688B6FA86F4C4
:104580006409640000294CD027F010010162016A1F
:1045900021F0A0010162016A41EA061101620146AF
:1045A00051F8186F26F440760E600E6846EA05252D
:1045B0000D600D6825F470450D60D5880E6846EADB
:1045C00005360E60066A46F0100606620E6826F48E
:1045D00040660E6092880E6846EA02260E60066A01
:1045E00026F001060662066A26F00A060662066AD8
:1045F000344304620C6824F003040C600C68234309
:104600000B600B6823F0F0030B600B6843EA0513A3
:104610000B60036A43F001030362086820F00C009A
:104620004BE027F001010162016A21F00A010162F9
:10463000016A31430162014651F8186F26F0030602
:104640000E600E6835430D600D6825F0F0050D60B5
:10465000D5880E6846EA05160E60066A46F0010621
:1046600006620E6826F00C060E6092880E681643ED
:1046700012020E60066A26F010060662066A26F02E
:10468000A0060662066A46EA041404620C6824F472
:1046900040740C600C6844EA03230B600B6823F43D
:1046A00070430B600B6843EA05330B60036A43F009
:1046B00010030362086820F4406008600868104333
:1046C0000860F0BD012904D039B9416841F080018A
:1046D00002E0416821F0800141607047826822F069
:1046E0007002BEE0426822F07002426042681143EC
:1046F00041607047826822F00702B2E0012904D0CD
:1047000039B9816841F0800102E0816821F08001BF
:104710008160704710B58468114324F43F4484607D
:10472000826811438160816841EA0321816010BD84
:1047300010B5846824F0070484608468214340F243
:10474000033481608169A14340F201148161816970
:1047500021438161016A21F00A010162016A21F0AD
:10476000A001016242EA0311026A1143016210BD15
:10477000816821F0070181607047734600F05CF8A2
:104780009E467047F0B5046A602911D124F01004E8
:10479000120110264FF00C0C6FF4704E4FF480771E
:1047A0000462046A24F0A00404626FF440740EE012
:1047B00024F001044FF0040C6FF0F00E01270126E5
:1047C0000462046A24F00A0404626FF00304056AB8
:1047D0002A43026282692240826182693A4382618D
:1047E000826902EA0E02826103FA0CF283691A43BB
:1047F0008261026A3243026200F01EF8F0BD10B519
:104800000446FFF787FFA06820F07700A060A0684B
:1048100040F07700A06010BD10B50446FFF77AFFA6
:10482000A06840F48040A06010BD816821F4804100
:104830008160704701657047826822F07002826073
:10484000826811438160816821F00701816081687D
:1048500041F0070181607047C26822EA0101C1602E
:1048600070478260826811438160704706488047C4
:1048700006480047FEE7FEE7FEE7FEE7FEE7FEE745
:10488000FEE7FEE7FEE7FEE7914800086901000841
:10489000284850F8041C41F0010140F8041C50F86D
:1048A000041C8907FBD50168234A254B1140016090
:1048B000224902680A4001F500310260026822F4D0
:1048C0004002026050F8042C1A4040F2431340F8B2
:1048D000042C826A22F00F028262C26A9A43C26288
:1048E000026B22F001020263002242600268026051
:1048F000026802600268026002681140114A0160A9
:1049000001681143016050F8041C41F0807140F8C7
:10491000041C50F8041C8901FBD5016821F0030137
:104920000160016841F00201016001680907FCD5DE
:10493000704700BF041002400C00FF08FFFFC0F7E3
:10494000FFFFF2FE000004081348016801F00C02AA
:104950001249082A15D1026803681B01C2F3834279
:104960004FF0110358BF02231A440368DB0301D43C
:104970000B4905E0836A03F00F030133B1FBF3F148
:104980005143084A08A311600068C0F30310185C83
:1049900021FA00F0106070470410024000127A0003
:1049A00000093D0078000020000000000000000029
:1049B000010203040607080940EA01039B0703D02C
:1049C00009E008C9121F08C0042AFAD203E011F84E
:1049D000013B00F8013B521EF9D27047D2B201E010
:1049E00000F8012B491EFBD270470022F6E710B5F4
:1049F00013460A4604461946FFF7F0FF204610BD4D
:104A0000421C10F8011B0029FBD1801A704710B519
:104A1000002200E0521C835C8C5CA34201D1002B7D
:104A2000F8D1D8B2E1B2401A10BD30B5044600202A
:104A3000034600E05B1C934203D2E05CCD5C401B6C
:104A4000F8D030BDF0B480EA0102D40F4200B2EBDE
:104A5000410F02D20246084611464A0042D0C30D19
:104A6000DDB2C1F3C752AD1A202D35DAC1F31601FC
:104A700041F4000204B15242C5F1200602FA06F1E7
:104A80002A411044B3EBD05F23D0C4B1012DA0EB79
:104A9000C35009DCF0BC4FF0004202EAC352DBB263
:104AA00000F5000000F081BB400000F1807000EBD9
:104AB000C350A0F1807040EAD170490009E0490874
:104AC00041EAC071A0EBC35000F50000400800EBC4
:104AD000C350F0BC00F060BB6142012202EB410117
:104AE000001BF6E7F0BC704781F00041AAE780F0B8
:104AF0000040A7E780EA010210B502F00043400041
:104B000022D04A001FD0010E01EB1261C0F3560003
:104B1000C2F3560240F4000042F40002A0FB02205F
:104B200000047F39140400D0401C50EA124001D424
:104B30004000491EC2B20C0604EBD010401C4008D5
:104B4000802A02D003E0002010BD20F001000029DF
:104B500000DA0020184310BD30B480EA010202F0F0
:104B6000004530F0004221F0004013D090B1C30D59
:104B7000D40DC2F31601C0F31600E41A41F400018B
:104B800040F400027D34914201D3641C00E04900EE
:104B9000002C02DA30BC002070474FF400000023E4
:104BA000914201D3891A034340084FEA4101F7D1EA
:104BB00051B1914202D14FF0004105E002D24FF0D5
:104BC000010101E06FF0010103EBC450284430BC47
:104BD00000F0E2BA2DE9FE4F804681EA0300C00FE3
:104BE0000C46009021F0004123F00045B8EB020094
:104BF000A94105D24046214690461C460B46024636
:104C000023F00040104347D0270DC7F30A00C3F339
:104C10000A510290401A019040286BDAC3F3130046
:104C200040F4801B0098924620B10023D2EB030A87
:104C300063EB0B0B01985946C0F14002504600F05F
:104C400076FA06460D4650465946019A00F08EFA0D
:104C500010EB08006141002487EA115284EAE773EF
:104C60001A4340D0009A62B3019A012A4FEA0752D0
:104C700015DC001B61EB02014FF0004202EA075213
:104C8000CDE90042001C41F5801132462B4600F070
:104C9000C9FA03B0BDE8F08F40462146F9E7001B92
:104CA00061EB0201001C41F5801300185B412018E4
:104CB000A2F5001747EB030140EAD570B6196D4124
:104CC00011E06D084FEA360645EAC0754FEA075213
:104CD000001B61EB0201001C41F5801149084FEAFD
:104CE00030000019514132462B4603B0BDE8F04F69
:104CF00000F089BA0098012240000023D0EB0202A4
:104D000063EBE073009821464FEAE074B8EB0000D3
:104D100061EB0401E9E783F000435BE781F00041C8
:104D200058E72DE9FE4F81EA030404F0004421F026
:104D3000004100944FF0000B23F0004350EA0104BF
:104D40005ED052EA03045BD0C3F30A54C1F30A55A0
:104D50002C44A4F2F3340194A0FB0254C1F31301D8
:104D600041F48011C3F3130343F4801301FB0244A5
:104D700000FB034E840A970A44EA815447EA8357AA
:104D8000A4FB076802958D0A05FB07854FEA932C63
:104D900004FB0C542705029D4FEA065847EA1637D4
:104DA000B5EB08056EEB070C870E920E47EA8117EC
:104DB00042EA8312A7FB0201B6EB0B0164EB00048D
:104DC0002B0D43EA0C335E1844EB1C50DA46514677
:104DD000E7FB0201C5F313044FEA0B3343EA145314
:104DE0004FEA0432019C43EA0603A4F10C04029446
:104DF000009CCDE900B400F015FA03B0BDE8F08FD7
:104E000000200146F9E72DE9F04D81EA030404F0A2
:104E1000004B21F0004514464FF0000A23F00041FA
:104E200050EA050220D054EA01021DD0C5F30A570A
:104E30000246C5F31303C1F31300C1F30A5640F44D
:104E4000801543F48013A7EB0608101BD64608F222
:104E5000FD3873EB050002D308F1010801E0921858
:104E60005B41B8F1000F03DA00200146BDE8F08D88
:104E700000204FF48011064684460EE0171B73EBAA
:104E8000050705D3121B63EB050306434CEA010C2F
:104E900049084FEA300092185B4150EA0107EDD112
:104EA00052EA030012D082EA040083EA05010843B3
:104EB00005D0101BAB4106D20122002306E00022E0
:104EC0004FF0004302E06FF0010253101AEB0600AE
:104ED0004CEB085110EB0A0041EB0B01BDE8F04D23
:104EE00000F091B9002801DBC0F10040002901DB8E
:104EF000C1F10041814201D8012070470020704774
:104F0000002801DBC0F10040002901DBC1F10041B4
:104F1000814201D20120704700207047002801DB48
:104F2000C0F10040002901DBC1F10041814201D9FB
:104F30000120704700207047C10F80EAE0700844EC
:104F4000CA079623002100F030B9962300221146AB
:104F500000F02BB90EB5C10F80EAE0700844CA0713
:104F6000002140F233438DE80E000A460B4600F064
:104F700059F903B000BD0EB540F233410291002152
:104F8000CDE900110A460B4600F04CF903B000BD14
:104F900000F0004220F00040C10DC0F3160040F4C4
:104FA00000007F2901DA00207047962903DCC1F157
:104FB0009601C84001E096398840002AF4D040426A
:104FC000704710B500F0004420F00040C20DC0F35F
:104FD000160040F400007F2A02DA0020014610BDCE
:104FE0000021962A03DCC2F19602D04002E0963AF4
:104FF00000F09DF8002CF2D00023D0EB030063EB0F
:10500000010110BD70B5C1F30A5201F00045002442
:10501000C1F3130140F2FF3341F480119A4201DAE7
:10502000002070BD40F233439A42A2F2334203DCC7
:10503000524200F08BF800E090402C43F1D0404207
:1050400070BD00F0004230F000400AD0C10D01F503
:105050006071C0F3160042EA0151C20840071143D3
:10506000704700200146704701F0004330B421F042
:10507000004150EA010206D00A0DA2F56072C1F3A8
:105080001301002A02DC30BC00207047440F44EAC0
:10509000C104C100E01830BC00EBC25000F07CB885
:1050A00030B50B46014600202022012409E021FAF8
:1050B00002F59D4205D303FA02F5491B04FA02F5F5
:1050C0002844151EA2F10102F1DC30BD2DE9F05F8C
:1050D0000546002092469B46884606468146402467
:1050E0001BE0284641464746224600F02FF853462B
:1050F0005A46C01A914110D311461846224600F074
:1051000016F82D1A67EB01084F46224601200021B0
:1051100000F00DF817EB00094E41201EA4F1010428
:10512000DFDC484631462A464346BDE8F09F202A48
:1051300004DB203A00FA02F1002070479140C2F1EE
:10514000200320FA03F3194390407047202A04DB20
:10515000203A21FA02F00021704721FA02F3D040F0
:10516000C2F120029140084319467047202A06DB0D
:10517000CB17203A41FA02F043EAE07306E041FA25
:1051800002F3D040C2F12002914008431946704713
:105190000023036000F0FBB80029A8BF7047401C43
:1051A000490008BF20F00100704710B4B0FA80FC3D
:1051B00000FA0CF050EA010404BF10BC704749B17A
:1051C000CCF1200421FA04F411FA0CF118BF0121EA
:1051D00021430843A3EB0C01CB1D4FEA00614FEACA
:1051E000102042BF002010BC704700EBC350104499
:1051F0000029A4BF10BC7047401C490008BF20F024
:10520000010010BC704710B5141E73F1000408DAD9
:10521000401C41F1000192185B411A4301D120F07A
:10522000010010BD2DE9F04D92469B4611B1B1FA37
:1052300081F202E0B0FA80F220329046FFF777FF69
:1052400004460F4640EA0A0041EA0B0153465A461B
:10525000084313D0114653EA010019D0C8F14002A7
:105260005046FFF773FF05460E46504659464246E4
:10527000FFF75DFF084305D0012004E020463946D2
:10528000BDE8F08D0020054346EAE0762C43374325
:105290000A986305E40AA0EB08000022FD0A44EA2C
:1052A00047540A3002D500200146E9E701051019EC
:1052B0006941DDE9084500196941BDE8F04DA2E703
:1052C000C1F30A52C1F3130140F2FF3341F48011DC
:1052D0009A4202DA00200146704740F233439A4274
:1052E000A2F2334202DC5242FFF730BFFFF71FBF8A
:1052F00030B5041E71F1000404DB4FF0004440425D
:1053000064EB0101141E73F1000405DB1C464FF031
:105310000043524263EB0403994208BF904230BD00
:105320001CB509480090094801900546009C06E01C
:10533000E06840F0010394E8070098471034AC425D
:10534000F6D3FAF715FF0000306700085067000831
:105350000FB40B0010B58AB00FA900910E994FF051
:105360000004234ACC60214CCDE9064200D004233E
:105370006FF00042CDE901321E4A089202466B46A8
:10538000002000F0D3F80AB010BC5DF814FBF0B5B3
:1053900085B007464FF0FF300091CDE901011E4670
:1053A000002015460C4604903B466A46314604A848
:1053B000FFF7CEFF04990346601825B109B10246F4
:1053C00000E022462A6000290ED0002B02DD009961
:1053D000814209D00094001BCDE901043B466A4696
:1053E000314604A8FFF7B4FF05B0F0BD65570008CB
:1053F00083570008F9530008C0B24FF4F05100F091
:10540000D1B900002DE9FF4F087883B09946FF28F5
:1054100005D0491C2D2804D00024002008E00020DD
:105420000BE00124F9E700EB800003EB4000491C8E
:105430000B78FF2BF7D104B140420023029314787C
:1054400019461D462D2C01D02B2C04D1521C2D2C7D
:1054500013D000240294AA461478FF2C0FD00A25FA
:10546000A3FB057801FB05814FF0000C03FB0C1139
:10547000521CE3194AEB0101EEE70124EAE78144FB
:1054800053EA010002D019F5C87F06DA039800211B
:10549000C0E9001107B0BDE8F08F0025AE4E2F46E1
:1054A000DFF8B882184600F091F9CDE90001B9F1B2
:1054B000000002DAC9F1000400E004460023A74A14
:1054C0001AEB030B42EB045A12E0E00707D02A461E
:1054D000334638464146FFF724FC074688462A46AD
:1054E000334610461946FFF71CFC05460E4664106D
:1054F000002CEAD1DDE90001B9F1000F5A4653460C
:1055000006DAFFF780FC3A464346FFF77CFC05E0ED
:10551000FFF707FC3A464346FFF703FC029A0AB13D
:1055200081F00041039AC2E90001B3E72DE9FF4F82
:105530001F468DB0D7E901464FF0FF382E20454673
:105540004FF000090B90B9696D1C0E988847396AB5
:10555000824688470028F6D1BAF1FF3F0AD024F4EA
:10556000D064002E11DDBAF12B0F08D0BAF12D0F47
:105570000BD102E0404611B08DE744F48064B96974
:105580006D1C0E9888478246761E6946600501D5D7
:105590002D2000E02B208DF8000001F1010B0DF112
:1055A000200809E0B9696D1C0E98884782460F985B
:1055B00044F40074761E0560002E02DDBAF1300F4F
:1055C000F0D00B998A453ED144F0800406E00F9953
:1055D000681CA9F1010944F400740860B9696D1CE4
:1055E000761E0E98884782463028F0D02BE00B9923
:1055F0008A4505D1200603D444F08004761E18E0C5
:10560000504600F0D5F908B30DF11302761EAAF149
:10561000300044F40074934506D20BF8010B2006C9
:1056200007D5A9F1010003E0200602D409F1010029
:105630008146A00502D50F99681C0860B9696D1CE8
:105640000E9888478246002ED1DC53E0002E51DDB3
:10565000BAF1650F02D0BAF1450F4BD1A00549D57B
:10566000B9696D1C24F44074761E0E9888478246F2
:10567000002E0CDD2B2804D0BAF12D0F07D144F4F5
:105680008074B9696D1C0E9888478246761EE005C5
:1056900001D52D2100E02B2108F8011BCDF82C802D
:1056A00021E00DF12901761E44F4007488450CD2E6
:1056B000AAF1300010F0FF0088F8000002D10B9929
:1056C000884509D908F1010806E0E00501D524481C
:1056D00001E042F20F708146B9696D1C0E9888474F
:1056E00082460F980560002E04DD504600F060F9F8
:1056F0000028D6D1F9690E988847FF208BF8000062
:1057000088F800000020069007904B466A4608A9DA
:1057100006A8FFF777FEA00502D46FF001002AE784
:1057200014F0240F0AD0E00714D1DDE9061238681E
:10573000031D3B600068C0E900120BE0DDE90601D3
:10574000FFF792FC0146E00704D13868021D3A6079
:105750000068016028460EE7000014400000F03F9A
:10576000F1D8FFFF426842B1016811F8013B23B153
:10577000521EC0E90012184670470121C160881E00
:10578000704742685AB1C368016843B983688B4265
:1057900005D0491E521CC0E90012002070474FF08E
:1057A000FF3070477F2801D9002208E0064A02EB4B
:1057B0005002C007127800D1120902F00F02012036
:1057C00090400840704700000C6100080EB540F2A0
:1057D000334202920022CDE900221346FFF722FD58
:1057E00003B000BD0FB4084B10B504A902AA03987A
:1057F00000F0E6F8044602A9002000F078FC2046FC
:1058000010BC5DF814FB0000EF60000802E008C85F
:10581000121F08C1002AFAD170477047002001E02A
:1058200001C1121F002AFBD1704700002DE9FF5F64
:1058300082B00021DDE90430020DDDF840B0034301
:1058400018D044F61050A2F2FF32424315141198BA
:1058500001281FD0A5EB0B00401C5FEA000A4FF0A7
:1058600000064E4FDFF83891B046504615D5CAF1C4
:10587000000413E0119801244AA3012801D16FEA22
:105880000B010298119AC0E90031C0E9024206B04A
:10589000BDE8F09FCBF10000DFE704460021404A5D
:1058A000491842EB0450CDE9001012E0E00707D0A0
:1058B00032463B4640464946FFF733FA8046894622
:1058C00032463B4610461946FFF72BFA06460F466E
:1058D0006410002CEAD1DDE90401DDE90023BAF10E
:1058E000000F06DAFFF71DFA42464B46FFF719FA9A
:1058F00005E0FFF788FA42464B46FFF784FA044674
:105900000E460022284BFFF7F3FC03D84FF0FF3080
:10591000014607E00022254B20463146FFF75AF9A1
:10592000FFF7CEFC102409E0002C0ADB0A2200233A
:10593000FFF7CCFB039B30321A55641E50EA01027C
:10594000F2D1641C039AC4F111031444119A012A80
:1059500003D0012208430DD10AE0084304D00020FF
:105960004FF0110B119072E7A3EB0B056D1E0DE0CC
:105970005B4504DD4FF0000205F1010504E003DAA8
:105980004FF00002A5F10105002AECD00298119910
:10599000C0E90231C0E9004579E700000000144089
:1059A0000000F03F300000000000F0430000E03F46
:1059B00030380A2801D201207047002070470000CB
:1059C0002DE9FF4F95B09B468946064600250FE21C
:1059D000252877D100242746F84A0121059400E0C4
:1059E000044316F8013F203B01FA03F01042F7D1BF
:1059F00030782A2811D06FF02F033078A0F13002D0
:105A0000092A16D8059A44F0020402EB820203EB3D
:105A100042021044761C0590EFE759F8042B0592DA
:105A2000002A03DA504244F40054059044F0020482
:105A3000761C30782E2816D116F8010F44F0040495
:105A40002A280DD06FF02F023078A0F13003092BF7
:105A500009D807EB870302EB4303C718761CF3E76B
:105A600059F8047B761C30786C280FD006DC4C2863
:105A700017D068280DD06A2814D104E0742810D0FB
:105A80007A280FD10DE044F400140AE044F48014A5
:105A900001E044F440147278824202D104F580148B
:105AA000761C761C307866280BD013DC582877D00B
:105AB00009DC002875D04528F6D04628F4D04728C0
:105AC0001AD19DE118E0632835D0642879D0652883
:105AD00012D195E1702873D008DC6728F1D06928CD
