:020000040800F2
:100000007807002015420008CD180008CF18000816
:10001000D1180008D3180008D51800080000000007
:10002000000000000000000000000000D7180008D9
:10003000D918000800000000DB180008911700081C
:100040002F4200082F4200082F4200082F420008CC
:100050002F4200087D0E0008810E0008850E000862
:100060002F42000839180008791800082F420008AC
:100070002F420008E51700082F4200082F42000811
:100080002F4200082F42000800000000AD170008B2
:100090002F4200082F4200082F4200082F4200087C
:1000A0002F4200082F4200082F4200082F4200086C
:1000B0002F420008000000002F420008000000004E
:1000C0002F420008000000002F4200082F420008C5
:1000D0002F4200082F4200082F42000800000000B5
:1000E00000000000000000002F4200082F4200081E
:1000F0002F4200082F4200082F4200082F4200081C
:100100002F42000800000000000000002F420008FD
:1001100000000000000000000000000000000000DF
:1001200000000000000000000000000000000000CF
:1001300000000000000000000000000000000000BF
:1001400000000000000000000000000000000000AF
:1001500000000000000000002F4200082F420008AD
:100160002F4200082F420008DFF80CD004F0F0FC0A
:10017000004800477D01000878070020DFF8D89389
:100180000120C9F8080001F09BFA01F0BFFADFF87E
:10019000CC034FF47A710068B0FBF1F0411E0020EF
:1001A000B0EB116F07D1EA4AF0235160E9490B70B7
:1001B00090600720106000F059FF58B300F052FF24
:1001C00000F070FF00F0A0FF00F063FA012202F0DF
:1001D000B5FBE34C04210122204602F0AFFB4FF4B3
:1001E000964001F077F901F005F901F057F800F0B9
:1001F000E3FD99F8000000F055FD02F0E1FA01F08E
:1002000053FB04F5806500F03FFA012803D102F0AA
:10021000D7FAF8E7FEE70A200A2401F04BFB00F0CA
:1002200038FA002202F08AFBDFF844A3C9F808403C
:1002300001F03AFBD9F820108842F9D301F034FBE1
:100240000530C822C9F82000D9F80C000130B0FBF5
:10025000F2F1C9F80C0001FB120000224FF400512A
:100260006428284638BF012202F068FB99F80C0088
:10027000C00708BF01F060FBD9F8140018B100F006
:1002800093F9C9F8100099F80000D9F8107050B32C
:10029000384604F0F1FA0746D9F81800884604F009
:1002A000EBFAB04B002204F04EFA06460C46AE497B
:1002B0000020324623468B4604F0CDF93A464346A9
:1002C00004F0CFF904F030FBA9F8040030462146D1
:1002D00000225B4604F01EF93A46434604F0C1F999
:1002E00004F022FB9FE0002F384600D5784204F04E
:1002F000BEFA04F038FB9D4B0022002604F0B1F951
:10030000984B002204F01FFA974B002204F002F9E8
:1003100004F03CFB044607F13100632809D3BAF925
:10032000020041428F42C8BF39468742C8BF0146DA
:100330004E42D9F8181001F13100632801D2002093
:100340000EE0BAF9022050428142C8BF08469142ED
:10035000C8BF104604F082FA0146204604F06AF84D
:1003600004F0A8FA04F07AFA01468248804604F0C4
:100370005BF8814C214604F05DF8804904F08CF86C
:10038000214603F0FFFF074604F094FA7C4951F838
:1003900020407C49384604F045FA37B27A4917F5CF
:1003A0007A7FD8BF0F46B7F57A7FA8BF4FF47A7728
:1003B000E8B1384604F052FA0146204604F03AF813
:1003C0004146044604F02EFA704E00281CBF00245B
:1003D000CCF27A442046314604F024FA002808BFC3
:1003E0003446204604F066FAA9F804001CE03846BA
:1003F000A9F8047004F032FA214604F04DF84146A1
:10040000044604F00FFA614E00281CBF0024CCF211
:100410007A442046314604F005FA002808BF3446E5
:10042000204604F047FA07463FB2384600F05CF930
:10043000574858490468204604F002FA08B10020E1
:100440000FE05549204604F0FBF908B1012008E00F
:100450005249204604F0F4F900284FF0030018BF79
:10046000022000F0D1F800F00FF9012802D007E0D7
:1004700002F0A6F900F008F90128F9D000F094F88C
:10048000002F00D57F42322F14D8B9F8040001B2F2
:1004900080EAE130A0EBE13080B233280AD2D9F80B
:1004A0001C003F4901308842C9F81C0028BF00F0F9
:1004B0007BF802E00020C9F81C00012099F8021026
:1004C00089F8030099F80100C0B2084305D19AF8F1
:1004D0000000400601D4012002E0002089F803005A
:1004E00000F0FCF89AF80000810617D41C4C2D4E41
:1004F00000F0010208212046B0479AF800002021B0
:10050000C0F340022046B0479AF800004FF48071D3
:10051000C0F380022046B0479AF80000C0F3C00242
:1005200000F0B7F802F00AFA9AF800004FF4004120
:10053000C0F300124FF0904002F000FA9AF9000068
:10054000B0F1FF3FD8BF00F02FF802F039F96FE6A5
:1005500010E000E023ED00E04401002070000020E6
:100560000004004800408F400000F03F0000E0BF62
:100570000000002000007AC4000034430000FA4468
:10058000C44B00080000B44218FCFFFF00007A448E
:100590000800002000000C42000004420000F0416E
:1005A000813801003D290008B0B5154C606900286C
:1005B0000CD04FF00501C8BF6FF004014018014690
:1005C000606148BF41420A2909D9B0BD20690028AD
:1005D000014600D541420B2901D36061B0BD002026
:1005E000002500F07BF80020257000F07DF805481C
:1005F0000421002202F0A2F902F0E2F8FCE700BFB9
:100600004401002000040048FEB504461B48007861
:10061000800600D4FEBD1A4800F108010291411D78
:100620000191C11C032C009110D116493222C968D6
:10063000B1FBF2F303FB1211002219294FF4807170
:1006400038BF012202F07AF9012500E002256E464A
:100650000127E4B268B20028DCD4EAB256F82200DE
:10066000121BB2FA82F200F00F0120F0FF005209D3
:1006700007FA01F102F062F9013DEBE7000000200A
:10068000000400484401002028464FF4804102F055
:100690005DB94FF090404FF40041704790FBF1F28C
:1006A00002FB1100084490FBF1F202FB110000B2C2
:1006B000704700BF401A062100B290FBF1F101EB38
:1006C0004101A0EB41000449002848BF063080B238
:1006D00031F91000704700BF9E4B000801490870B7
:1006E000704700BF68010020F8B50546144800783F
:1006F000012821D008BB13484FF47A410068B0FBB1
:10070000F1F004B2204604F0B7F8064628460F463A
:1007100004F0B2F80C4B002204F015F832463B46C8
:1007200003F09FFF04F000F96542A842C8BF0546E8
:100730008442B8BF254600E0AD0004484562F8BDDC
:10074000440100207000002000408F40680100201C
:1007500005490A78824205D008700449CA6A02FA3B
:1007600000F08864704700BF04000020680100208A
:100770002DE9F04F87B0D94E00200690CDE9040056
:10078000B6F90A00B0F57A7F0CDAD54901307081EC
:10079000B6F85A00B1F902201044022290FBF2F0A0
:1007A000488097E135896420B5FBF0F101FB1050DA
:1007B00018BBDFF82CA3DAF8040004F0D4F8804664
:1007C000B6F85800894604F068F8C64B002203F0DA
:1007D00048FFC54AC54B03F044FFC54AC54B044614
:1007E0000F464046494603F03CFF22463B4603F095
:1007F00091FE04F0CBF8CAF80400681C316D30811A
:10080000BD480068884206D9F16C00F57A70C6E9E7
:100810001401002001E0F06C0130DFF8C4A2F064A4
:10082000B6F85A10BAF90200081A04F025F8B34ACB
:10083000B34B03F016FF04F0A9F8B24920F00040D2
:10084000CAF8080003F0FCFFAF4F28B9307818B1A0
:10085000AE480078012816D100209AF80010C6E9A9
:100860000900B070F06A0E2904D00E218AF8001039
:100870008103B164002800D5404263280DD8384672
:1008800002F0D9FD09E0384602F0D0FD9AF80100E7
:10089000FFF75EFF9E480078B0709E4C4FF090408E
:1008A0000121A047F0704FF090400221A047307125
:1008B00099484FF40061A047F178327901EB80014B
:1008C00001EB42017170707194497078095C0728DE
:1008D000B17100D028B9384607B0BDE8F04F02F03A
:1008E000AABD8F4832890088B2FBF0F303FB1020C9
:1008F00008B1B06A05E0716AB07800F01FFAB1790A
:10090000B0629AF80020B36C43FA02F41B1B18443F
:10091000B0641041F06204AA009206AA05AB00F090
:10092000B3FADFF800824FF47A49049A4FF4FA449C
:100930000A25DFF8F4B1D8F8000000F0FFF80A2229
:100940000A29C8BF0A460A38814288BF024638468B
:100950000221D847D8F80000059A00F0EFF80A22E3
:100960000A29C8BF0A460A38814288BF024638466B
:100970000121D847D8F80000069A00F0DFF80A29CC
:10098000C8BF0D460A38814288BF054638462A4608
:100990000021D84796F806B0F5790621A5EB0B00A3
:1009A00090FBF1F101EB4101A0EB41005F49002810
:1009B00048BF0630D6F8348080B231F91000316C6F
:1009C0000F1A4FEA581037647C289CBF08F10108C1
:1009D000C6F83480706C874209D1B8F57A6F4DD370
:1009E0000020C6E90500F06106F1100044E0B8F10E
:1009F0000B0F3DD33B1ADAE90101D6E90624029335
:100A00000191DAF81010A2EBA2020394B1FBF8F105
:100A100001FB03225943B8F57A7FB26138BF9110C8
:100A2000316103F0A0FF424A424B03F01AFE8146B7
:100A300001980C4603F097FF02460B4648462146B4
:100A400003F00FFE03F070FF029A4FF47A51800218
:100A5000514390FBF1F00399B8F57A7FA1EBE101E6
:100A600000FB081100FB08F0F16138BFC81070618D
:100A7000C6F83C8006F1340000210160346BA00907
:100A80007C289CBF01343463012D1AD0BBF1010FC7
:100A900017D1204603F0EBFE0146274803F0FCFC8B
:100AA000DAF80C10F060022DB1FBF4F1316219BFDD
:100AB0004842306280F00040F060B4630020306350
:100AC00005E0B4F5FA5F22BF0020F0603062776481
:100AD00086F807B007B0BDE8F08F00BF68010020BE
:100AE0000400002000C0983FFCA9F1D24D62503FA5
:100AF0002B8716D9CEF7EF3F180100203F80C99908
:100B00009CC9C93F00007041002C01401001002029
:100B1000440100204D29000800040048BA4B000899
:100B20001800002070000020C73600089E4B000807
:100B30005EBA490C02EB2640ECF9F844B0FBF9F13F
:100B4000B0FBF4F009B2114470470000F8B50F464D
:100B50000999044600201E461546C4E90400A06118
:100B60000898A1620799E1830699A18300F000F932
:100B700003F0B9FEC4E90801384600F0F9F803F0C3
:100B800099FE2060304600F0F3F8084E314603F03D
:100B900051FC03F08FFEA060284600F0E9F83146D2
:100BA00003F07AFC03F086FE6060F8BD00007A4432
:100BB0002DE9F047DFF8E890A1EB0208C9F80080C2
:100BC000036883FB08EC836A23B198451ADA5B4219
:100BD000984517DD4468D0E90457D0E90836C4FBCE
:100BE00008575C1BC0E9045776EB070407DB0024B9
:100BF0005B4264EB0606EC1A77EB060407DAC0E901
:100C0000043606E000230026C0E9043301E02B4649
:100C10003E468469D0F808A04FEA1E45C9E904633E
:100C2000C9F808C0C9F80CE045EA0C45A8EB040275
:100C30001C0CC9F820508AFB027144EA0644C9F82A
:100C40000420C9E906173F0C254447EA01416F1803
:100C5000C9E9094113EB0E04B0F91E30C9F82C7034
:100C600046EB0C05CAFB02459F421E4603DCB0F969
:100C70001C60B74201DAC9F82C60210C41EA054436
:100C80009C42C9F8304003DCB0F91C309C4202DAC7
:100C90001C46C9F83030C0F8188020B2BDE8F08793
:100CA000C40100202DE9F04F85B004461F480470B0
:100CB000C4B31F484FF47A410068B0FBF1F000B2B2
:100CC00003F0CCFD07461B48C4EBC40A394600EBD1
:100CD0008A0656F8084CA6F1140B9BE8000B84F02A
:100CE000004003F0A7FB03F0E5FD0546204639462A
:100CF00003F0A0FB03F0DEFD044656F8040C394671
:100D000003F098FB0B4F4A465B46CDE9005457F879
:100D10002A10CDE9020108484146FFF717FF36F8CF
:100D2000180C388005B0BDE8F08F00BF44010020EA
:100D300070000020180000203803002003280CD881
:100D4000DFE800F00C020406084802E0064800E074
:100D5000034802680348FFF72BBF002108B2704721
:100D6000A8010020380300207C0100207801002029
:100D70004FF08F4103F05EBBB0B5C0F38521C4B224
:100D80000846214602F0AAF901200021022200FAB9
:100D900004F5284601F096FA284601F0DBFA072010
:100DA000042C38BF0620022C38BF05200021012268
:100DB00001F01EFE2846B0BDB0B54FF4C06001F092
:100DC000C5FE064C4FF09040A047054D68620548AF
:100DD000A047A8620448A047E862B0BD790D0008AA
:100DE00078000020010000480B0400482DE9F84F6E
:100DF0001D4FDFF87890DFF878A0DFF878B0002694
:100E00004FF00108032E08BFBDE8F88F07EB8604FA
:100E1000606A01F0A5FA20B387F80380F889B9F871
:100E20000000F989411A8AB20B2A17D33982F88156
:100E300001219AF8000038714FF09040D8470546DC
:100E40004FF090400221D84705EB40050A484FF487
:100E50000061D84705EB80008AF80000606A01F065
:100E600079FA0136CEE700BF78000020700100203B
:100E7000690100204D29000800040048FFF7B6BFB3
:100E8000FFF7B4BFFFF7B2BF2DE9FE4FCDE9012355
:100E9000DFF868E15A4ADFF86CC141420A244FF09A
:100EA00000080091CEF818108EF8038011781CF815
:100EB00001508EF801509EF80460BEF80E70BEF826
:100EC00010109EF803301BB1631E24061C46EBD1A4
:100ED00005EB85024FFA85FB009C4FF0000A52009B
:100EE000AEF808A08EF80220CBEB0B1200284FEAD8
:100EF0008208DEF81C20AEF80680A2EB522202EB3C
:100F00000109CEF81C9000D5204633284FF0000090
:100F100040D31CF80600854211D040B20621ABEB4D
:100F20000000063090FBF1F101EB4101A0EB410024
:100F30008EF800000428A4BF06388EF80000324A5C
:100F4000A9F500714FEA5920CEF82000914220D82F
:100F50002E490988C91BAEF8121089B2C1EB0111E4
:100F6000890001EB9921B1FBF0F04FF6FE710140D1
:100F7000AEF8140059290CD89EF9001000FB01FAB4
:100F80004FF4A5700029AEF808A048BF4FF4C37015
:100F900000E0002040444FF4B472504481B2B1FBF1
:100FA000F2F303FB12111A4A32F911306343019C28
:100FB000DB1323606FF0EF03F02903F1780438BFEF
:100FC0007823DEF81850AEF80A00AEF80C100B4487
:100FD0009BB232F913306B43029DDB1378292B60EF
:100FE00038BFF0246018DEF8181080B232F9100013
:100FF00048430C99C0130860BDE8FE8F78000020BC
:1010000069010020AA4B0008FF3D06007001002086
:10101000984E0008B0B500F00F02012320F0FF0544
:1010200003FA02F428460022234601F03FFC28463A
:10103000002101222346BDE8B04001F05EBCB0B5FE
:1010400000F00F03012420F0FF059C4028462346B2
:1010500001F02CFC2846002101222346BDE8B040C7
:1010600001F04BBC4FF4407001F0B8BC80B540F6C5
:101070001D1001F045FE08B101F04EFE40F6FF7074
:10108000022101F0C5FB012809D140F6FF7001F0F3
:10109000A7FB012803D101F09BFB012080BD0020AC
:1010A00080BD00BFB0B54FF4E16001F04FFD134CBF
:1010B000204602F049F8134A114D4FF400104FF446
:1010C000FA63002112682973B2FBF3F285E8070086
:1010D000204602F0F8F82046294602F085F8132051
:1010E0000321002201F084FC2046012102F043F993
:1010F0002046BDE8B04002F0D7B800BF0020004055
:101100006803002070000020F8B55C4C40F21150DC
:10111000A04740F21250A04740F21350A04740F2BF
:101120001650A047564C574D022100224FF48053D1
:101130002046A847544E2046002103224FF48053F6
:10114000B047524F204602214FF48052B84700F07A
:101150000BFB01224FF48073A84700F015FB00221F
:101160004FF48073B04700F0FFFA4FF48072B84735
:101170002046022101224FF40053A84720460021B7
:1011800000224FF40053B047204602214FF4005292
:10119000B84700F0E9FA01224FF40073A84700F0C5
:1011A000F3FA00224FF40073B04700F0DDFA4FF479
:1011B0000072B8472046022101224FF48043A8471D
:1011C0002046002100224FF48043B04720460221F0
:1011D0004FF48042B84700F0C7FA01224FF4806311
:1011E000A84700F0D1FA00224FF48063B04700F026
:1011F000BBFA4FF48062B8472046022101224FF427
:101200000043A8472046002100224FF40043B04786
:10121000204602214FF40042B8471D4FE01C012137
:10122000B84704F108000121B847601D0121B84703
:10123000184D012105F10E00B847201D0121B847C6
:10124000154E01213046B84700F09EFAB8472846AF
:101250000021B84704F10B000021B847E81C032126
:10126000B847281D0321B847A01C0121B847701CAE
:1012700000213A46BDE8F840104700BF4D2B00085A
:1012800000040048AD280008FB2800086D2900086C
:1012900015100008010000480D0800482DE9F04134
:1012A00040F20B6001F052FC484C204601F04CFF2C
:1012B00048484FF4FA41464D4FF0000800682E466A
:1012C00085F81880B0FBF1F0C5E904804FF4C00048
:1012D00046F80C0F204601F0F6FF2046314601F09B
:1012E00083FF3D4E00F048FA00F04AFA00F040FA61
:1012F0003A4E00F041FA00F043FA00F039FA384E65
:10130000204602217022B047204601217022B047BA
:10131000204600217022B047324E00F02DFA00F036
:101320002FFA00F025FA4FF0007005F11C062E4F41
:101330000221C5F826004FF400203246C5F82200ED
:101340002046B847204601213246B84720460021B2
:101350003246B8474FF400603C2145F82C0F4FF45B
:101360008040C5E90181C5E9030820462946C5F842
:10137000148002F041F8204601F09BFF1B4D2046EF
:1013800002210122A847204601210122A847204628
:1013900000210122A847164D204602210422A84719
:1013A000204601210422A847204600210422A84704
:1013B0000D200021002201F01BFB2046012101F03D
:1013C000DAFF2046BDE8F04101F06EBF002C01407D
:1013D000A8000020700000200D370008D536000856
:1013E00091360008C736000889340008053800081F
:1013F00047380008F8B540F2096001F0A7FB4FF448
:10140000A06001F0A3FB032001F008FC09200121EA
:1014100000220124002501F0EBFA002000F0BCFDC1
:1014200029492A484FF44057294E02224FF480633D
:101430000F624FF48077C1E902400020C1E9043512
:10144000C1E90652C1E9006700F0CAFD002000F0C2
:1014500001FE002000F01CFE0020022100F0F0FE42
:101460000020022100F03AFE002000F01BFE0120C7
:10147000022100F0F3FB00200421022200F00CFC0A
:1014800001200521022200F007FC002000F0DAFB19
:101490000120012100F082FC01204FF4602100F0C6
:1014A0009BFC00F06DFB00F07BFB00F057FD00F0B3
:1014B00029FB00F03BFB00F04BFB4FF48070012157
:1014C000BDE8F84000F094BBF8020020C001002005
:1014D0004C240140F8B5054600F046F900220423EB
:1014E000002601F0E3F900F04FF90322042301F094
:1014F00004FA4FF0904001210422012701F036FA4E
:1015000000F032F90022082301F0D0F900F03CF994
:101510000322082301F0F1F94FF090400121082245
:1015200001F024FA40F20E6001F010FB4FF4A060CD
:1015300001F00CFB294C204602F0CAFB204629464C
:1015400002F0E0FB2046002102F006FC20460021CC
:1015500002F00AFC2046002102F00EFC2046002189
:1015600002F073FC2046082102F018FC20460421FA
:1015700002F018FC204602F007FC0A20022100229B
:1015800001F036FA022000F007FD15494FF44050F3
:10159000C1E9187004F12400C1E91267C1E9141609
:1015A000C1E9166641F8440F022000F019FD02203F
:1015B00000F050FD022000F06BFD2046402102F0BB
:1015C000A0FD0220022100F03BFE0220012100F0DC
:1015D00085FD0220BDE8F84000F064BD0038014000
:1015E000A80000207047704710B5044600F0DEFEEA
:1015F000302001F09FF8204600F00AFFBDE81040BF
:1016000000F0E4BE00687047B0B50C46054600F037
:10161000CDFE302001F08EF82846214600F048FF2C
:10162000B0FA80F0440900F0D1FE2046B0BDF8B514
:10163000064614460D46002087B2A74228BFF8BDD3
:10164000E959B819FFF7E0FF381DF5E710B5002399
:101650009BB2934228BF10BD1C58CC500433F7E70F
:10166000B0B50748074B00214FF080524FF000649F
:101670000225C0E90054C0E902320161B0BD00BFDB
:10168000240300200008001010B50A480A49008809
:10169000412838BF01F5806101EB802000F1006432
:1016A0002046FFF7A1FF054920461422BDE810405F
:1016B000FFF7BDBFE0F7FF1F00F8FFFF2403002086
:1016C00010B50F480F490088412838BF01F58061E7
:1016D00001EB80204FF00061415801310AD00A4CE3
:1016E00000F1006014222146FFF7B0FF20680228B5
:1016F00008BF10BDFFF7B4FFBDE81040FFF7C4BF3F
:10170000E0F7FF1F00F8FFFF2403002010B5084892
:10171000084C00686FF31F30606002F0E9FD064876
:1017200040F20F21006801EA9040A06010BD00BFA8
:10173000002004E0A8000020041002401CB500F0C6
:10174000B3F8044606480190019810B10198013899
:10175000F9E700F0A9F80349001B08601CBD00BFB1
:1017600000A24A04200300204FF09040022170475D
:101770002046002100223047204602210022304727
:1017800020460121002230474FF090400021704751
:101790000248816801318160704700BF100100205C
:1017A0000148002141607047100100200A4841684B
:1017B000B1F5FA6F07D9017811B9084900220A601A
:1017C0000121017003E000220131027041600448F0
:1017D000012101F0E0BD00BF1001002054010020F4
:1017E0000020004010B5124C0121204601F0C9FD37
:1017F00088B110484178C1F101020129427011D02D
:1018000081680269914207D9C26801F57A71C0E91D
:101810000412002102E010BDC1680131C160012045
:1018200000F0EEFA20460121BDE8104001F0B3BD02
:10183000002C01401001002080B50020022100F0A2
:10184000AFFC58B10B488168C269914207D98269DF
:1018500001F57A71C0E90712002102E080BD8169BB
:1018600001318161FEF784FF00200221BDE8804044
:1018700000F0DCBC1001002010B50A4C0221606AA7
:1018800001306062022000F08BFC50B1A06A013090
:10189000A06200F0ADF802200221BDE8104000F087
:1018A000C5BC10BD1001002001488068704700BF12
:1018B0001001002004498A6813469B1A834228BFFE
:1018C000704700BF8B68F8E7100100207047FEE703
:1018D000FEE7FEE7FEE7704770477047F8B514462D
:1018E0000D4606460027A74208BFF8BDE95D304611
:1018F00002F05CFA304640F2067102F02EFC00283D
:10190000F8D00137EFE770B5002341F22102012939
:10191000BCBF98B270BD0478013983EA042508245D
:101920002EB26B00002E48BF82EA4503013C25061B
:101930001D46F5D10130EAE780B5FFF7B5FF05494F
:101940004968401AB0F5FA7F02D9034801210170B5
:1019500080BD00BF3C01002045010020BFB51D48EF
:101960001F4C0168013101601B480568691C01605A
:10197000002021468DF802004AF6CD30ADF8000077
:101980001648006802F056FD02F094FFADF805001D
:1019900014482146006802F04DFD02F08BFFADF8BF
:1019A000070011482146006802F044FD02F082FF62
:1019B0006C46ADF803000D21CDF809502046FFF725
:1019C000A2FFADF80D00094821460F22FFF786FF60
:1019D000BFBD00BF4C0100201C03002008000020F8
:1019E0000000C8420C0000207401002000380140B3
:1019F00070B5364D3649B5F902000978B0F1FF3FB0
:101A000010DD344C2154411C698058B388B202283F
:101A100013D160780228287027D0012823D008BB72
:101A2000082023E02F291DD1421C6A806FF001029B
:101A30000132904216D10020E3E7687809B2814272
:101A400010DB214431F8026C811E2046FFF75BFF5A
:101A50004FF6FE7186421CBF698070BD481C6880CD
:101A6000A07828B170BD0B2000E00F20687070BD19
:101A7000FFF71AFF6860287802281ED001280AD0D4
:101A8000F0B9154800210170B4F90300134908604A
:101A9000607914490FE010480021104A0170B4F930
:101AA0000300B4F9051010600D480160E0790D499C
:101AB0000870207A0C49087002E0E07AFFF7F2F82B
:101AC000FFF74CFFBDE87040FFF76ABE3C01002005
:101AD000A8000020F801002045010020540100204A
:101AE0005C010020000000207400002080B540F25E
:101AF000093001F04BF840F20930BDE8804001F0B8
:101B00004DB800BF04480168C90703D1016841F01E
:101B100001010160704700BF0824014002480168CC
:101B200021F0010101607047082401400748016865
:101B300041F00801016001680907FCD4016841F027
:101B40000401016001684907FCD470470824014082
:101B50000248016841F48071016070470824014027
:101B60000248016821F48071016070470824014037
:101B70000248016841F400010160704708240140F7
:101B80000248016821F40001016070470824014007
:101B90000248016841F080710160704708240140EB
:101BA0000248016821F080710160704708240140FB
:101BB0000E4A0228136823F4C053136010D0012882
:101BC00013D1106820F4604010604FF4604000EBC7
:101BD0004130116880B2084310604FF4006001E0AA
:101BE0004FF480501168084310607047042401408E
:101BF000134A89B1C10503D5116841F480711160A0
:101C0000410503D5116841F480611160800715D545
:101C1000506840F0020010E0C10503D5116821F4BE
:101C200080711160410503D5116821F48061116054
:101C3000800703D5506820F002005060704700BF55
:101C400004240140044900280A6822F4006218BFF5
:101C500002F500620A607047082401400D4A01281D
:101C600007D0022815D10C324FF440106FF4401306
:101C700003E04FF470006FF4700310B5146800EBCC
:101C80000151084023401360116808431060BDE80B
:101C9000104070472C240140B0B5B1F1120318BFB9
:101CA0000B461F4905280AD800EB80001F2500F0CD
:101CB0006EF98D6A25EA0000204388621AE00B283D
:101CC0000BD800EB80001F251E3800F060F94D6A2C
:101CD00025EA0000204348620CE00F280AD800EBF8
:101CE00080001F253C3800F052F90D6A25EA0000FB
:101CF00020430862092B03D8043103EB430004E0BE
:101D0000112B0BD803EB43001E380723824003FA44
:101D100000F00B6823EA000010430860B0BD00BF6C
:101D20000C240140B0B5144B1F25DC6AC4F30154E8
:101D3000201A00EB8000C0F10F0001FA00F405FA50
:101D400000F0DD6A25EA000020430929D86203D8A3
:101D5000043301EB410004E012290CD801EB4100EF
:101D60001E3802FA00F1072202FA00F01A6822EA8D
:101D7000000008431860B0BD0C240140064A536AB5
:101D8000C3F30153C01A033003289CBF6FF31F3104
:101D900042F82010704700BF142401400D4A59B189
:101DA000C10703D0116841F48011116080070FD57D
:101DB000106840F400400AE0C10703D0116821F424
:101DC00080111160800703D5106820F40040106076
:101DD000704700BF08240140012804D002280BD11D
:101DE0006FF4E04001E06FF46020044A136818408B
:101DF0001060106808431060704700BF082401405D
:101E0000C107064903D00A6842F480020A608007CD
:101E100003D5086840F400100860704708240140AA
:101E20000148006880B270474C24014003280CD858
:101E30000749DFE800F007020406043102E0083138
:101E400000E00C31086880B270470020FBE700BF5B
:101E50003C24014002490968084018BF012070472E
:101E60000024014000498DE000240140012809D0F0
:101E7000042805D002281CBF00207047202102E062
:101E8000802100E04021054A1368184018BF012056
:101E90005268114018BF01210840704700240140DA
:101EA00000496FE000240140C107094903D00A68D6
:101EB00042F040020A60820703D50A6842F020021D
:101EC0000A60400703D5086840F08000086070474A
:101ED00004240140C107094903D00A6822F04002E6
:101EE0000A60820703D50A6822F020020A604007D0
:101EF00003D5086820F08000086070470424014082
:101F00000649074B0A681A400A600A681043054AE6
:101F10000860086810430860704700BF042401404F
:101F2000E0FD3FFF0002C0000749084B0138C0B286
:101F30000A681A4002280A6005D805A252F8200053
:101F40000A6810430860704704240140FFFD3FFF0A
:101F500000008000000040000000C0000248034A6A
:101F6000016811400160704704240140E0FD3FFF1B
:101F7000034A6FF31F306FF31F31506011607047D9
:101F8000242401400A6822EA00000860704703FA2E
:101F900000F405FA00F070470A4A00EB8001800067
:101FA00002EB81014B6823F001034B6000234B607F
:101FB0008B60CB600B610F2101FA00F011680843C0
:101FC0001060704704000240002101220162C0E954
:101FD0000011C0E90221C0E90412C0E906117047EE
:101FE00070B51B4A00EB80000C6802EB80039C601C
:101FF000CC68DC60CC695C6052F820304C680D69BC
:102000000E6A23F47C5323432B43334342F820309E
:102010008B6852F8204024F04004002B08BF403465
:1020200042F820404B6952F8204024F08004002BF5
:1020300008BF803442F82040896952F8203023F0EC
:102040001003002918BF103342F8203070BD00BFC4
:1020500008000240034900EB800051F8202042F0C4
:10206000200220E108000240034900EB800051F803
:10207000202022F0200216E108000240034900EB74
:10208000800051F8202042F480420CE10800024018
:10209000034900EB800051F8202022F4804202E145
:1020A00008000240034900EB800051F8202042F074
:1020B0000102F8E008000240034900EB800051F8FB
:1020C000202022F00102EEE008000240004AE1E098
:1020D00010000240004ADDE014000240004AD9E04E
:1020E0000C000240024900EB800051F820007047CC
:1020F0000C000240034A00EB800052F8203023F429
:102100004053CCE008000240034A00EB800052F844
:10211000203023F44063C2E008000240034A00EB91
:10212000800052F8203023F44073B8E008000240E9
:10213000034900EB800051F8202042F08002B2E019
:1021400008000240034900EB800051F8202022F0F3
:102150008002A8E008000240034900EB800051F82B
:10216000202042F040029EE008000240034900EBBC
:10217000800051F8202022F0400294E00800024044
:10218000064A00EB8000002952F8203023F01003AB
:1021900018BF103342F82030704700BF08000240DB
:1021A000013907291DD8CAB28B2323FA02F2D207BC
:1021B00017D010B5144C00EB80030BA2800052F82E
:1021C000212044EA830324689B681A400FA353F834
:1021D00021108140214021FA00F0104018BF012059
:1021E00010BD0020704700BF0E000000020000007C
:1021F00002000000040000000200000002000000D5
:102200000200000008000000000002400F00000073
:1022100002000000020000000400000002000000B4
:10222000020000000200000008000000800001FA27
:1022300000F002490A681043086070470400024039
:10224000024A00EB800052F8203028E008000240EB
:10225000044A00EB800052F8203023EA010142F8E2
:102260002010704708000240800001FA00F0034986
:102270000968084018BF0120704700BF00000240F5
:10228000800001FA00F002490A68104308607047B4
:102290000400024000EB800042F820107047194310
:1022A00042F82010704741F82020704704484FF052
:1022B00079610160002141608160C1600161704706
:1022C0000004014010B5164B1C6884431C605C6818
:1022D00084435C609C6884439C60DC688443DC606D
:1022E00019B1012905D1191D00E019460C680443F4
:1022F0000C60022A0CD0C143012A06D072B99A6838
:1023000010439860D868084007E09A68114001E0DF
:10231000996801439960D9680843D86010BD00BF2F
:102320000004014000493CE000040140004938E05D
:102330000404014000492FE00004014000492BE063
:102340000404014002490968084018BF0120704791
:102350001404014001490860704700BF14040140A3
:1023600005494A69024018BF01220968084018BFA0
:1023700001201040704700BF00040140014908607F
:10238000704700BF1404014000490AE010040140F6
:10239000004901E0100401400A6822EA00000860D8
:1023A00070470A6810430860704700000448C1681D
:1023B000090603D50349016003490160704700BF66
:1023C0000420024023016745AB89EFCD0248016834
:1023D00041F08001016070471020024003490A6803
:1023E00022F0070210430860704700BF002002403F
:1023F0000248016841F0010101607047FC20024081
:102400000248016821F0010101607047FC20024090
:10241000B0B5044600F016F800B1B0BD084D28680C
:1024200040F0020028606C60286840F0400028609E
:1024300000F008F8296821F002012960B0BD00BF52
:102440001020024010B50C490C4A02231068C00746
:1024500007D11068C0065ABF106803EA5000032075
:1024600000E00120012803D14C1C00292146EDD1B8
:10247000012808BF042010BD0100F1FF0C2002401C
:1024800010B5FFF7DFFF00B110BD084C206840F029
:1024900004002060206840F040002060FFF7D2FF79
:1024A000216821F00401216010BD00BF102002400E
:1024B00070B50C460546FFF7C5FF00B170BD044E70
:1024C000306840F0010030602C60FFF7BBFF6CE12A
:1024D0001020024070B50C460546FFF7B3FF00B16F
:1024E00070BD044E306840F0010030602C80FFF772
:1024F000A9FF5AE11020024004488168890503D4ED
:102500000349016003490160704700BF0820024091
:1025100023016745AB89EFCD0248016821F40071C2
:1025200001607047102002400248016841F40051E8
:102530000160704710200240B0B5154CE06800F013
:102540000605FFF77FFF2DB1022D1CBF0520B0BD92
:10255000BB2500E0A52500B1B0BD00F0FBF80428C4
:10256000FAD070B9206820F020002060206840F088
:1025700010002060074805706FF01005FFF762FF3C
:1025800001E06FF02005216829402160B0BD00BF47
:102590001020024000F8FF1F0248006800F006000B
:1025A000704700BF1C200240FEB5124D00F0F1F84C
:1025B0000DF106062946062F02D000F0EDF8FAE7E5
:1025C0006FEA14218DF80B10E1438DF80A1000B169
:1025D000FEBD094C00F0BEF800F0CFF8F8D100F0D5
:1025E000D2F8062F04D000F0BEF80028F9D000E0A1
:1025F0000020BDE000F8FF1F10200240FEB5104D86
:1026000000F0C7F80DF106062946062F02D000F0AB
:10261000C3F8FAE78DF8064000B1FEBD094C00F0A2
:1026200099F800F0AAF8F8D100F0ADF8062F04D020
:1026300000F099F80028F9D000E0002098E000BFF1
:1026400000F8FF1F10200240FEB5114D00F0A1F868
:102650000DF106062946062F02D000F09DF8FAE794
:1026600044F088018DF8071000B1FEBD094C00F060
:1026700071F800F082F8F8D100F085F8062F04D048
:1026800000F071F80028F9D000E0002070E000BFF1
:1026900000F8FF1F10200240FEB5104D00F079F841
:1026A0000DF106062946062F02D000F075F8FAE76C
:1026B000ADF8084000B1FEBD094C00F04BF800F049
:1026C0005CF8F8D100F05FF8062F04D000F04BF86A
:1026D0000028F9D000E000204AE000BF00F8FF1F0A
:1026E0001020024002480068C0F30720704700BF76
:1026F0001C20024001480068000C70471C2002406A
:102700000148006880B2704720200240004948E03C
:102710001020024002490A6822EA0000086070475F
:102720001020024002490968084018BF0120704784
:102730000C200240004934E00C20024002490968A4
:10274000084018BF012070470C200240004928E0D3
:102750000C200240206840F020002060206840F0FB
:10276000400020606EE6F05D013705F8020B69E677
:10277000216821F010012160FEBD2168002821F0B0
:102780002001216070472068002740F01000206081
:1027900070470446002755E611F8022BF255013721
:1027A00070470A68104308607047316821F00101E2
:1027B000316070BD01480021016070470030004069
:1027C00002484AF6AA210160704700BF003000406D
:1027D00002484CF6CC410160704700BF0030004019
:1027E00010B5094945F255520A60084ACB681AB13A
:1027F000013213F00404F9D15A074FBF00206FF3E0
:102800001F300861012010BD003000400200F0FFC1
:1028100070B5104A45F2555313600F4B1C46D568EE
:102820001CB1013415F00106F9D1EC0708D1516053
:10283000D1681BB1013311F00204F9D1890701D528
:10284000002070BD6FF31F3090604AF6AA20106020
:10285000012070BD003000400200F0FF024909680D
:10286000084018BF012070470C30004000F138408C
:102870004FEAB020052811D8C1B22F2222FA01F167
:10288000C9070BD010B506A131F81040204600F062
:102890007DF92046BDE8104000F080B9704700BFC8
:1028A000110A120A130A140A110A160A2DE9F04332
:1028B000D0F800E0D0F80C8000264FF0030C002781
:1028C000102F14D023FA07F4E4070DD00CFA06F504
:1028D00002FA06F928EA05042EEA050544EA090881
:1028E00001FA06F445EA040E02360137E8E7C0F8BB
:1028F00000E0C0F80C80BDE8F0830129416814BFF6
:10290000994319434160F0B5816800244FF0030CEE
:102910000026102E04BF8160F0BD23FA06F7FF07E2
:1029200005D00CFA04F502FA04F7A943394302343E
:102930000136EEE781617047816270471823002AF3
:1029400008BF2823C15070474161704700690840A3
:1029500018BF01207047006980B270474069084085
:1029600018BF01207047406980B27047F0B5D0F8B9
:1029700020E0446A00254FF00F0C0027082F0ED0EE
:1029800022FA07F6F60707D00CFA05F301FA05F666
:102990002EEA030343EA060E04350137EEE7082565
:1029A00000264FF00F0C102D0CD022FA05F3DB0798
:1029B00005D00CFA06F701FA06F3BC431C430436B3
:1029C0000135F0E7C0F820E04462F0BD41F4803208
:1029D000C261C161C261C169C069704702490843EF
:1029E00002490860704700BF0000FA050CED00E0E6
:1029F00010B5224B1C6804F4E064B4F5E06F02D11A
:102A00000023042423E01C6804F4E064B4F5C06FE0
:102A100002D1012303241AE01C6804F4E064B4F535
:102A2000A06F02D10224022311E01C6804F4E064C8
:102A3000B4F5806F02D10323012408E01B6803F47E
:102A4000E063B3F5407318BF01239C000423A14049
:102A50000F2424FA03F31A401143094A090140EAFA
:102A6000020383F800131C21012301EAD00100F0C6
:102A70001F0003FA00F0885010BD00BF0CED00E00D
:102A800000E100E01C21012201EAD00100F01F005A
:102A900002FA00F0014A8850704700BF80E100E070
:102AA000024A1140084302490860704780FFFF1F37
:102AB00008ED00E002490A6810430860704700BF53
:102AC00010ED00E002490A6822EA00000860704741
:102AD00010ED00E0044904280A6822F0040208BF4F
:102AE00004320A60704700BF10E000E0134801683C
:102AF00041F00101016001688907FCD54168104A75
:102B00001140104A4160416811400F4A41604168DC
:102B100021F4400141600168114040F2431201601C
:102B2000C16A21F00F01C162016B91430163416BE6
:102B300021F00101416300218160704700100240D3
:102B40000C00FF08FFFFC0F7FFFFF2FE734600F026
:102B500096FA9E46004A87E200100240734600F053
:102B60008EFA9E46004A77E200100240734600F05B
:102B700086FA9E46004A77E200100240734600F053
:102B80007EFA9E46004A67E200100240734600F05B
:102B900076FA9E46004A67E200100240734600F053
:102BA0006EFA9E46004A57E2001002400248016851
:102BB00041F48031016070472010024002480168F2
:102BC00021F48031016070472010024002490A68F8
:102BD00022F0030245E200BF0410024002480068F0
:102BE00000F00C00704700BF0410024002490A6860
:102BF00022F0F00235E200BF0410024002490A68E8
:102C000022F4E0622DE200BF0410024002490A688B
:102C100022F4605225E200BF041002401349042848
:102C20000A6822F440420A60CA6A22F48072CA62C8
:102C30001AD8DFE800F003130B0F0700C86A20F46E
:102C4000807010E0086840F4404008E0086840F4F4
:102C5000804004E0086840F4004000E00868086034
:102C6000C86A40F48070C862704700BF0410024018
:102C700002490A6822F44002E2E100BF0410024067
:102C8000084302490A6822F07742EAE10410024050
:102C900010B5054A054C08431368234013601168BA
:102CA0000843106010BD00BF04100240FFFFC2F7D0
:102CB00002490A6822F00302C2E100BF301002405C
:102CC00002490A6822F04002BAE100BF3010024017
:102CD00002490A6822F44072B2E100BF20100240AB
:102CE00002490A6822F00F02BBE100BF2C1002402B
:102CF00002490A6822F01802A2E100BF2010024037
:102D0000044A810900F01F00895821FA00F000F000
:102D100001007047001002400248016841F08071D4
:102D2000016070472410024002490968084018BF3A
:102D3000012070470810024001490A6891E100BF74
:102D40000810024001490A688BE100BF08100240E8
:102D500002490A6822EA0000086070470810024031
:102D6000B0B5002100284ED010283DD0B0F5506FEE
:102D700018D0B0F5006F2BD0B0F5106F1DD018280B
:102D80004FF000004AD1264A264B00241868013A29
:102D900041F10005002CC0F340603FD1002D0446F6
:102DA000F4D13BE01E4A1F4B0024586B00F04DF954
:102DB00034D1002D0446F8D130E0194A194B0024D3
:102DC000586A00F042F929D1002D0446F8D125E0D7
:102DD000144B6FF07C420024186A00F036F91DD1C4
:102DE000002D0446F8D119E00E4B4FF40062002488
:102DF0001868013A41F10005C0F3404074B9002D54
:102E00000446F5D10AE0074B4FF4A062002418688D
:102E100000F01BF902D1002D0446F8D1B0BD00BF6F
:102E2000FFFF0F0000100240734600F028F99E4695
:102E3000004A19E100100240734600F020F99E4656
:102E4000004A09E1001002400C49102807D0B0F5F3
:102E5000006F11D1203104206FF0010203E04FF424
:102E600080206FF4803210B50B680C682240184344
:102E70000A600860BDE81040704700BF00100240C3
:102E80000C49102808D0B0F5006F12D120316FF036
:102E900004006FF0010203E06FF480206FF48032D1
:102EA00010B50B680C68224018400A600860BDE845
:102EB00010407047001002400248016841F40021B0
:102EC00001607047001002400248016821F40021AF
:102ED00001607047001002400049C9E00010024044
:102EE0000049C5E0341002400448054A0168002149
:102EF0000160016811430160704700BF001102408A
:102F00004D3C2B1A02490A6822F0070298E000BFE4
:102F10003411024002490A6822F0010290E000BF29
:102F200038110240F0B53D4A01463D4B10681C4641
:102F300000F00C00082815D1106814682401C0F3B3
:102F400083404FF0110458BF022420441468E40366
:102F500001D4344C05E0946A04F00F040134B3FB4F
:102F6000F4F44443106830A50629C0F30310285C2C
:102F70001568176884BF0020F0BD24FA00F6C7F377
:102F8000C2202D4F9C46385C26FA00F0DFE801F0A5
:102F9000041A143D061C24002046F0BDD16AC90560
:102FA0005CBF2648F0BD1168C1F38131DFE801F054
:102FB00002342E324008F0BDC5F30220385C26FAF8
:102FC00000F0F0BD3046F0BDD06A40064FF400403E
:102FD00058BF48F21200F0BDD16A890715D0D06AF7
:102FE00000F00300012820460FD0D06A00F0030053
:102FF000022804BF4FF40040F0BDD06A614600F0E3
:103000000300032818BF00210846F0BD0621B0FBCD
:10301000F1F0F0BDC008F0BD8008F0BD0410024022
:1030200000127A0000093D000000000000000000CE
:103030000102030406070809B24B0008809FD5006F
:103040000A600A68104308607047013A41F10005C0
:10305000002CC0F340007047835823EA01018150DF
:103060007047104308607047835819438150704778
:103070000A6822F0F80242EAC0000860704700F0D7
:103080001F010122800902FA01F1704780B54FF457
:103090004070FFF77BFD4FF44070BDE88040FFF7C4
:1030A0007DBD00BF00494BE00000014002490A68B5
:1030B00022EA0000086070470000014002480168F1
:1030C00041F400210160704700000140024801689E
:1030D00021F4002101607047000001408B08032BA0
:1030E0001AD810B50C2202EA81010F22884002FA98
:1030F00001F1CA430949DFE803F00702040604317D
:1031000002E0083100E00C310B681A400A600A68DE
:1031100010430860BDE81040704700BF0800014040
:1031200000490DE01800014002490968084018BF35
:103130000120704718000140004901E018000140DB
:103140000A6810430860704710B51C4988422AD0AD
:103150001B4988421ED01B49884221D01A49884207
:103160001BD01A4988420CD0194988420FD01949FE
:10317000884209D0B0F1804F18BF10BD4FF4806471
:1031800013E040F20B3410E040F211340DE04FF444
:1031900044740AE040F2014407E04FF4816404E023
:1031A00040F2044401E040F212342046FFF7EEFC06
:1031B0002046BDE81040FFF7F1BC00BF00480140C9
:1031C000000400400010004000200040002C01409E
:1031D000004001400044014000224FF6FF7102739D
:1031E000C0E900228160704710B50A888262284ACF
:1031F000904204D0274C40F48063A34218D1036866
:1032000023F0700303604B880468234303608B88BA
:1032100004682343036090428B68C3620AD1136839
:1032200023F440731360CB881468234313601DE0BC
:103230008B68C362B0F1804F0ED0164B98420BD012
:10324000154B984208D0154B984205D0144B984224
:1032500002D0144B98420BD1036823F440730360EF
:10326000CB88046823439042036006D1097B016345
:10327000416941F00101416110BD084A9042F5D019
:10328000084A9042F2D0064A9042EFD0F0E700BFE1
:10329000002C01400004004000200040004001409C
:1032A0000048014000440140016841F00101016013
:1032B0007047016821F0010101607047016841F029
:1032C000800101607047016821F080010160704752
:1032D000016821F0020101607047016841F00201BC
:1032E00001607047026822F06002026002681143C8
:1032F00001607047016821F01001016070470168AA
:1033000041F0100101607047816202B1704741696C
:1033100041F001014161704701637047C16270472C
:1033200041627047406A7047806A80B270470129E5
:1033300004D039B9016841F0080102E0016821F0C8
:10334000080101607047012904D039B9016841F0D2
:10335000040102E0016821F004010160704729B115
:10336000012907D1816841F0080102E0816821F05C
:10337000080181607047C2681143C160704700F066
:103380009DBCC2680A4018BF01220069084018BFEE
:10339000012010407047C94301617047006908402F
:1033A00018BF01207047C94301617047C2681143CB
:1033B000C160704700F082BC012904D039B941686E
:1033C00041F0080102E0416821F0080141607047C6
:1033D00010B5836C41F61F741143A3438364826C60
:1033E0001143816410BD426911434161704780B54A
:1033F000182100F0BCFF80BDF0B5D1E900340A8986
:1034000001F10C074989E0CF23431A4311432943B3
:10341000314339434164F0BD416C41F48051416412
:103420007047416C21F4805141647047416C41F414
:10343000804141647047416C21F480414164704790
:10344000426C012922F4004208BF02F500424264A6
:1034500070474268012922F0010208BF0132426030
:103460007047012904D039B9416821F0040102E014
:10347000416841F004014160704700218181C0E949
:1034800000118160704700BF032900F2EA80DFE885
:1034900001F002AA4586016A21F0010101628169F9
:1034A00021F0030181611168036A19430162016A15
:1034B00021F002010162D188036A19430162734954
:1034C00001444FEAB121072900F2CB80012303FA1E
:1034D00001F111F0E10F00F0C480016A21F0040154
:1034E00001629188036A19430162016A21F00801AF
:1034F00001621189036A19430162416821F48071F4
:1035000041605189436819434160416821F4007169
:10351000416091894268114341607047016A21F41A
:1035200080710162C16921F00301C1611168036A00
:1035300043EA01210162016A21F400710162D1882C
:10354000036A43EA012101624C490B1F984240F093
:10355000888010B5036A23F4806303629388046A49
:1035600044EA03230362036A23F4006303621389BA
:10357000046A44EA03230362086820F48050086068
:1035800050890B6843EA00100860086820F4005076
:10359000086090890A6842EA0010086010BD016A5C
:1035A00021F480510162C16921F44071C161116847
:1035B000036A43EA01310162016A21F400510162A8
:1035C000D188036A43EA013101622C490B1F9842FA
:1035D00047D1086820F48040086050890A6842EAB0
:1035E000801008603DE0016A21F0100101628169EC
:1035F00021F4407181611168036A43EA011101629B
:10360000016A21F020010162D188036A43EA0111B5
:1036100001621B49884225D01A49884221D1016A9A
:1036200021F0400101629188036A43EA01110162BD
:10363000016A21F0800101621189036A43EA0111E4
:1036400001620E48016821F48061016051890368BC
:1036500043EA81010160016821F400610160918900
:1036600006E070470848016821F4806101605189D3
:10367000026842EA81010160704700BF042C0140EA
:1036800000400140002C01400440014000D4FEBF36
:10369000032917D8DFE801F0020D050A50F8181FBA
:1036A00001E050F81C1F21F0700107E050F81C1FCA
:1036B00001E050F8181F21F4E04112020160016896
:1036C000114301607047032903D8890089B2084477
:1036D00042637047032917D8DFE801F0020D050A9D
:1036E00050F8181F01E050F81C1F21F0080107E0F6
:1036F00050F81C1F01E050F8181F21F4006112025D
:103700000160016811430160704700BF032917D8A9
:10371000DFE801F0020D050A50F8181F01E050F82B
:103720001C1F21F0040107E050F81C1F01E050F8B5
:10373000181F21F4806112020160016811430160C9
:10374000704700BF032917D8DFE801F0020D050A12
:1037500050F8181F01E050F81C1F21F0800107E00D
:1037600050F81C1F01E050F8181F21F4004112020C
:103770000160016811430160704700BF03291DD833
:10378000DFE801F00213070D50F8201F21F00201BD
:1037900010E050F8201F120221F400710AE050F8E6
:1037A000201F120321F4005104E050F8201F1201E1
:1037B00021F020010160016811430160704700BFE2
:1037C00003291DD8DFE801F00213070D50F8201F70
:1037D00021F0080110E050F8201F120221F40061CE
:1037E0000AE050F8201F120321F4004104E050F8D1
:1037F000201F120121F08001016001681143016066
:10380000704700BF03291DD8DFE801F00213070D40
:1038100050F8201F21F0010110E050F8201F120283
:1038200021F480710AE050F8201F120321F4805126
:1038300004E050F8201F120121F01001016001681E
:1038400011430160704702290DD0012905D099B9B3
:1038500050F8201F21F004010AE050F8201F120147
:1038600021F0400104E050F8201F120221F4806191
:1038700001600168114301607047002141604FF40D
:1038800080310160704700BF032900F27A80F0B5F3
:10389000DFE801F0024A163503464FF0010C53F8F9
:1038A000204F24F001041C601C6824F00A041C60F2
:1038B00014881D682C431C60044654F8185F13E0FC
:1038C00003464FF4807C53F8204F24F480741C602E
:1038D0001C6824F420641C6014881D6845EA0424D4
:1038E0001C60044654F81C5F25F0030525605588CC
:1038F00026683543256004266FF0F00733E0034661
:103900004FF4805C53F8204F24F480541C601C68F2
:1039100024F420441C6014881D6845EA04341C60AB
:10392000044654F81C5F13E003464FF0100C53F8A4
:10393000204F24F010041C601C6824F0A0041C60BC
:1039400014881D6845EA04141C60044654F8185F86
:1039500025F4407525605588266846EA05252560CA
:103960000C266FF4704725683D402560D588B5402A
:103970002668354325601C6844EA0C041C60BDE8D9
:10398000F0409288AFF30080032917D8DFE801F0F8
:10399000020D050A50F8181F01E050F81C1F21F015
:1039A0000C0107E050F81C1F01E050F8181F21F42B
:1039B00040611202016001681143016070470329F0
:1039C00084BF00207047890089B20844406B70476B
:1039D000F0B555880123012D08BF0223076A168818
:1039E000B6FA86F46409640000294CD027F010016F
:1039F0000162016A21F0A0010162016A41EA061137
:103A00000162014651F8186F26F440760E600E6888
:103A100046EA05250D600D6825F470450D60D588D2
:103A20000E6846EA05360E60066A46F01006066223
:103A30000E6826F440660E6092880E6846EA0226FA
:103A40000E60066A26F001060662066A26F00A067D
:103A50000662066A344304620C6824F003040C60B6
:103A60000C6823430B600B6823F0F0030B600B68BA
:103A700043EA05130B60036A43F00103036208681D
:103A800020F00C004BE027F001010162016A21F0F7
:103A90000A010162016A31430162014651F8186F5F
:103AA00026F003060E600E6835430D600D6825F0A4
:103AB000F0050D60D5880E6846EA05160E60066AA8
:103AC00046F0010606620E6826F00C060E6092882B
:103AD0000E68164312020E60066A26F01006066291
:103AE000066A26F0A0060662066A46EA0414046224
:103AF0000C6824F440740C600C6844EA03230B60E7
:103B00000B6823F470430B600B6843EA05330B60CA
:103B1000036A43F010030362086820F44060086001
:103B2000086810430860F0BD012904D039B9416824
:103B300041F0800102E0416821F08001416070475E
:103B4000826822F07002BEE0426822F07002426099
:103B50004268114341607047826822F00702B2E078
:103B6000012904D039B9816841F0800102E08168FF
:103B700021F080018160704710B58468114324F4FE
:103B80003F448460826811438160816841EA032177
:103B9000816010BD10B5846824F0070484608468D7
:103BA000214340F2033481608169A14340F2011452
:103BB0008161816921438161016A21F00A01016209
:103BC000016A21F0A001016242EA0311026A114375
:103BD000016210BD816821F0070181607047734662
:103BE00000F05CF89E467047F0B5046A602911D178
:103BF00024F01004120110264FF00C0C6FF4704EDC
:103C00004FF480770462046A24F0A00404626FF425
:103C100040740EE024F001044FF0040C6FF0F00E3D
:103C2000012701260462046A24F00A0404626FF08A
:103C30000304056A2A430262826922408261826922
:103C40003A438261826902EA0E02826103FA0CF24F
:103C500083691A438261026A3243026200F01EF8ED
:103C6000F0BD10B50446FFF787FFA06820F077008D
:103C7000A060A06840F07700A06010BD10B50446B9
:103C8000FFF77AFFA06840F48040A06010BD816813
:103C900021F480418160704701657047826822F09D
:103CA00070028260826811438160816821F007019F
:103CB0008160816841F0070181607047C26822EA33
:103CC0000101C16070478260826811438160704762
:103CD00010B50A49884206D00949884218BF10BD6C
:103CE00040F2114401E040F20E342046FEF74EFF50
:103CF0002046BDE81040FEF751BF00BF003801402C
:103D000000440040B0B5044611480D46844204D03A
:103D10001048844205D1022000E00620FFF702F996
:103D200000E000202168090405D400EB5500B0FB39
:103D3000F5F080B20AE040004FF6F07100EB55005C
:103D4000B0FBF5F00140C0F342000844E060B0BDB4
:103D50000038014000440040026822F00102026085
:103D6000026822F4C06238E2026822F001020260B6
:103D7000026822F4805230E2026822F001020260FE
:103D8000426822F440522DE2016841F001010160D5
:103D90007047016821F0010101607047026822F05C
:103DA00008021AE2026822F0040216E26FF35F21B1
:103DB00081627047406A6FF35F207047026801F4C8
:103DC000002122F001020260426822F4002209E28E
:103DD0000268072922F00102026025D8DFE801F01D
:103DE00004180C10081C2014416841F480211AE0CA
:103DF000416841F4803116E0416841F4003112E03D
:103E0000416821F400310EE0416821F400410AE0EC
:103E1000416821F4802106E0416821F4803102E00C
:103E2000416841F4004141607047724600F0E6F994
:103E3000964621F4805181607047724600F0DEF9A9
:103E4000964641F4805181607047026822F0010279
:103E50000260026822F40042BFE1026822F001021F
:103E60000260826822F40062B2E1416841F480118C
:103E700041607047416821F4801141607047426899
:103E800022F4C002AEE1016841F4005101607047C4
:103E9000016821F4005101607047026822F00102BC
:103EA0000260026822F4006297E1026801F01001EA
:103EB00022F001020260426822F0100292E10268E0
:103EC00022F001020260426822F07F4242604268B2
:103ED00042EA016141607047416841F4000141607C
:103EE0007047416821F4000141607047426902F067
:103EF0007F4242614269114341617047016821F08C
:103F000001010160416841F48041416070470168EE
:103F100021F001010160416821F480414160704756
:103F2000026801F0200122F00102026042681143A0
:103F300041607047724600F061F9964641F0080111
:103F400081607047724600F059F9964621F00801E9
:103F500081607047016821F001010160416841F40E
:103F6000006141607047016821F001010160416812
:103F700021F400614160704710B5046801F480715C
:103F800024F001040460446824F4E064446044685C
:103F90002143416002F4007142681143416003F41F
:103FA000806142681143416010BD724600F026F9FD
:103FB000964641F0200181607047724600F01EF97C
:103FC000964621F0200181607047724600F016F994
:103FD000964641F0100181607047724600F00EF97C
:103FE000964621F01001816070470268090289B28B
:103FF00022F001020260026922F47F4204E1426978
:1040000022F07F424261426942EA016141617047A8
:10401000026801F0070122F001020260826822F4C6
:1040200060228260826842EA414181607047724644
:1040300000F0E4F8964641F0020181607047724654
:1040400000F0DCF8964621F00201816070470268BA
:1040500001F0040122F001020260826811438160D4
:104060007047026822F001020260026922F0FF023A
:10407000CAE0026822F001020260826822F48072C3
:10408000A6E0026822F001020260826822F4007257
:104090009EE0724600F0B2F8964641F4804181609D
:1040A0007047724600F0AAF8964621F4804181607C
:1040B0007047026801F01F0122F0010202600268ED
:1040C00022F078720260026842EA41510160704752
:1040D000026801F01F0122F001020260026822F46E
:1040E000F8120260026842EA01410160704702680A
:1040F00001F4004122F001020260826822F40042D1
:1041000066E0826822F0400262E0826822F080026B
:104110005EE0724600F072F8964641F4005181600C
:104120007047724600F06AF8964621F400518160AB
:104130007047016841F0020101607047016821F099
:10414000020101607047026801F4401122F001028F
:104150000260826822F440123AE08A0901F01F01ED
:104160001058C84000F00100704701F01F013EE008
:1041700001F01F020123C1F3891103FA02F20B5867
:104180001A430A50704701F01F020123C1F389113D
:1041900003FA02F20B5823EA02020A5070478269BE
:1041A00011438161704701F01F02012303FA02F2FB
:1041B000C1F389131B581A4018BF01228B0DC1F39C
:1041C00004411858C84010407047C1F304410EE044
:1041D0008260826811438160704702600268114307
:1041E000016070474260426811434160704701229C
:1041F00002FA01F1026A114301627047016821F07D
:104200000101016081687047026102691143016127
:10421000704700000648804706480047FEE7FEE773
:10422000FEE7FEE7FEE7FEE7FEE7FEE7FEE7FEE766
:104230003942000869010008284850F8041C41F080
:10424000010140F8041C50F8041C8907FBD50168E3
:10425000234A254B11400160224902680A4001F5BA
:1042600000310260026822F44002026050F8042C1F
:104270001A4040F2431340F8042C826A22F00F02E5
:104280008262C26A9A43C262026B22F00102026336
:1042900000224260026802600268026002680260F6
:1042A00002681140114A016001681143016050F831
:1042B000041C41F0807140F8041C50F8041C890172
:1042C000FBD5016821F003010160016841F00201A2
:1042D000016001680907FCD5704700BF0410024067
:1042E0000C00FF08FFFFC0F7FFFFF2FE000004080C
:1042F0001348016801F00C021249082A15D102681E
:1043000003681B01C2F383424FF0110358BF02231D
:104310001A440368DB0301D40B4905E0836A03F008
:104320000F030133B1FBF3F15143084A08A31160B5
:104330000068C0F30310185C21FA00F010607047A9
:104340000410024000127A0000093D0070000020B5
:104350000000000000000000010203040607080935
:10436000D2B201E000F8012B491EFBD270470022B7
:10437000F6E710B513460A4604461946FFF7F0FF64
:10438000204610BDF0B480EA0102D40F4200B2EB27
:10439000410F02D20246084611464A0042D0C30DE0
:1043A000DDB2C1F3C752AD1A202D35DAC1F31601C3
:1043B00041F4000204B15242C5F1200602FA06F1AE
:1043C0002A411044B3EBD05F23D0C4B1012DA0EB40
:1043D000C35009DCF0BC4FF0004202EAC352DBB22A
:1043E00000F5000000F028BB400000F1807000EBF9
:1043F000C350A0F1807040EAD170490009E049083B
:1044000041EAC071A0EBC35000F50000400800EB8A
:10441000C350F0BC00F007BB6142012202EB410136
:10442000001BF6E7F0BC704781F00041AAE780F07E
:104430000040A7E780EA010210B502F00043400007
:1044400022D04A001FD0010E01EB1261C0F35600CA
:10445000C2F3560240F4000042F40002A0FB022026
:1044600000047F39140400D0401C50EA124001D4EB
:104470004000491EC2B20C0604EBD010401C40089C
:10448000802A02D003E0002010BD20F001000029A6
:1044900000DA0020184310BD30B480EA010202F0B7
:1044A000004530F0004221F0004013D090B1C30D20
:1044B000D40DC2F31601C0F31600E41A41F4000152
:1044C00040F400027D34914201D3641C00E04900B5
:1044D000002C02DA30BC002070474FF400000023AB
:1044E000914201D3891A034340084FEA4101F7D1B1
:1044F00051B1914202D14FF0004105E002D24FF09C
:10450000010101E06FF0010103EBC450284430BC0D
:1045100000F089BA2DE9FE4F804681EA0300C00F02
:104520000C46009021F0004123F00045B8EB02005A
:10453000A94105D24046214690461C460B460246FC
:1045400023F00040104347D0270DC7F30A00C3F300
:104550000A510290401A019040286BDAC3F313000D
:1045600040F4801B0098924620B10023D2EB030A4E
:1045700063EB0B0B01985946C0F14002504600F026
:1045800021FA06460D4650465946019A00F039FA7E
:1045900010EB08006141002487EA115284EAE773B6
:1045A0001A4340D0009A62B3019A012A4FEA075297
:1045B00015DC001B61EB02014FF0004202EA0752DA
:1045C000CDE90042001C41F5801132462B4600F037
:1045D00070FA03B0BDE8F08F40462146F9E7001BB2
:1045E00061EB0201001C41F5801300185B412018AB
:1045F000A2F5001747EB030140EAD570B6196D41EB
:1046000011E06D084FEA360645EAC0754FEA0752D9
:10461000001B61EB0201001C41F5801149084FEAC3
:1046200030000019514132462B4603B0BDE8F04F2F
:1046300000F030BA0098012240000023D0EB0202C3
:1046400063EBE073009821464FEAE074B8EB00009A
:1046500061EB0401E9E783F000435BE781F000418F
:1046600058E72DE9FE4F81EA030404F0004421F0ED
:10467000004100944FF0000B23F0004350EA010486
:104680005ED052EA03045BD0C3F30A54C1F30A5567
:104690002C44A4F2F3340194A0FB0254C1F313019F
:1046A00041F48011C3F3130343F4801301FB02446C
:1046B00000FB034E840A970A44EA815447EA835771
:1046C000A4FB076802958D0A05FB07854FEA932C2A
:1046D00004FB0C542705029D4FEA065847EA16379B
:1046E000B5EB08056EEB070C870E920E47EA8117B3
:1046F00042EA8312A7FB0201B6EB0B0164EB000454
:104700002B0D43EA0C335E1844EB1C50DA4651463D
:10471000E7FB0201C5F313044FEA0B3343EA1453DA
:104720004FEA0432019C43EA0603A4F10C0402940C
:10473000009CCDE900B400F0BCF903B0BDE8F08FF7
:1047400000200146F9E72DE9F04D81EA030404F069
:10475000004B21F0004514464FF0000A23F00041C1
:1047600050EA050220D054EA01021DD0C5F30A57D1
:104770000246C5F31303C1F31300C1F30A5640F414
:10478000801543F48013A7EB0608101BD64608F2E9
:10479000FD3873EB050002D308F1010801E092181F
:1047A0005B41B8F1000F03DA00200146BDE8F08D4F
:1047B00000204FF48011064684460EE0171B73EB71
:1047C000050705D3121B63EB050306434CEA010CF6
:1047D00049084FEA300092185B4150EA0107EDD1D9
:1047E00052EA030012D082EA040083EA050108437A
:1047F00005D0101BAB4106D20122002306E00022A7
:104800004FF0004302E06FF0010253101AEB060074
:104810004CEB085110EB0A0041EB0B01BDE8F04DE9
:1048200000F038B9002801DBC0F10040002901DBAD
:10483000C1F10041814201D2012070470020704740
:10484000002801DBC0F10040002901DBC1F100417B
:10485000814201D90120704700207047C10F80EAD2
:10486000E0700844CA079623002100F0E5B89623BB
:104870000022114600F0E0B80EB5C10F80EAE070EA
:104880000844CA07002140F233438DE80E000A466F
:104890000B4600F00EF903B000BD0EB540F23341F7
:1048A00002910021CDE900110A460B4600F001F902
:1048B00003B000BD00F0004220F00040C10DC0F385
:1048C000160040F400007F2901DA00207047962985
:1048D00003DCC1F19601C84001E096398840002A06
:1048E000F4D04042704710B500F0004420F0004082
:1048F000C20DC0F3160040F400007F2A02DA002047
:10490000014610BD0021962A03DCC2F19602D04078
:1049100002E0963A00F056F8002CF2D00023D0EBDB
:10492000030063EB010110BD70B5C1F30A5201F041
:1049300000450024C1F3130140F2FF3341F480111C
:104940009A4201DA002070BD40F233439A42A2F24B
:10495000334203DC524200F044F800E090402C4324
:10496000F1D0404270BD00F0004230F000400AD06B
:10497000C10D01F56071C0F3160042EA0151C20891
:1049800040071143704700200146704701F0004383
:1049900030B421F0004150EA010206D00A0DA2F520
:1049A0006072C1F31301002A02DC30BC00207047A2
:1049B000440F44EAC104C100E01830BC00EBC2500F
:1049C00000F031B8202A04DB203A00FA02F100207E
:1049D00070479140C2F1200320FA03F3194390403D
:1049E0007047202A04DB203A21FA02F000217047A8
:1049F00021FA02F3D040C2F1200291400843194647
:104A00007047202A06DBCB17203A41FA02F043EA2E
:104A1000E07306E041FA02F3D040C2F12002914077
:104A20000843194670470029A8BF7047401C490039
:104A300008BF20F00100704710B4B0FA80FC00FA03
:104A40000CF050EA010404BF10BC704749B1CCF12E
:104A5000200421FA04F411FA0CF118BF01212143BA
:104A60000843A3EB0C01CB1D4FEA00614FEA102075
:104A700042BF002010BC704700EBC3501044002917
:104A8000A4BF10BC7047401C490008BF20F00100C3
:104A900010BC704710B5141E73F1000408DA401CF6
:104AA00041F1000192185B411A4301D120F001004D
:104AB00010BD2DE9F04D92469B4611B1B1FA81F23D
:104AC00002E0B0FA80F220329046FFF77BFF044606
:104AD0000F4640EA0A0041EA0B0153465A46084392
:104AE00013D0114653EA010019D0C8F140025046D4
:104AF000FFF777FF05460E46504659464246FFF7F8
:104B000061FF084305D0012004E020463946BDE896
:104B1000F08D0020054346EAE0762C4337430A989F
:104B20006305E40AA0EB08000022FD0A44EA4754AA
:104B30000A3002D500200146E9E701051019694154
:104B4000DDE9084500196941BDE8F04DA2E7000024
:104B50001CB509480090094801900546009C06E0F4
:104B6000E06840F0010394E8070098471034AC4235
:104B7000F6D3FBF7FDFA00006851000888510008E1
:104B800002E008C8121F08C1002AFAD17047704716
:104B9000002001E001C1121F002AFBD17047000074
:104BA000FFFFFEFF000002000100000105000302FC
:104BB00004000000000001020304000305040102D8
:104BC00006000000000080BF82EC6FBF4FD160BFC5
:104BD0006E9652BFE02645BF267038BFEB612CBFF2
:104BE000AFED20BF8A0616BFF6A00BBF9EB201BF75
:104BF0007264F0BED02EDEBE32B5CCBEE2E9BBBEE2
:104C000068C0ABBE6A2D9CBE8B268DBE9C447DBE0B
:104C1000043061BE52FF45BECFA32BBEE70F12BECC
:104C20001E6EF2BD521BC2BDDB1193BD617B4ABD3E
:104C3000B430E2BCD9BECEBB639A6D3C67C10E3DB9
:104C40000A55603D211E983D1848BF3D41B4E53DE1
:104C5000E4B6053E9C3F183E47792A3EA1683C3E9B
:104C600029124E3E257A5F3EA7A4703EC9CA803EF7
:104C70004F28893EAE6C913E9A99993EB7B0A13EBD
:104C80009CB3A93ECEA3B13EC982B93EF951C13E03
:104C9000C212C93E7FC6D03E816ED83E130CE03EA4
:104CA00076A0E73EE82CEF3EA2B2F63ED832FE3EBA
:104CB0005CD7023FBA93063F194F0A3F110A0E3FD5
:104CC00035C5113F1C81153F593E193F85FD1C3FDD
:104CD00036BF203F0684243F904C283F71192C3F5B
:104CE0004AEB2F3FBEC2333F75A0373F1A853B3F8B
:104CF0005C713F3FF065433F9263473F016B4B3F21
:104D0000067D4F3F709A533F15C4573FD6FA5B3F1D
:104D10009D3F603F5D93643F17F7683FD86B6D3FE1
:104D2000B8F2713FE08C763F8A3B7B3F0000803FCA
:104D3000CF6D823FECE7843F1A6F873F2B048A3F99
:104D4000FDA78C3F7C5B8F3FA51F923F88F5943F6A
:104D500047DE973F18DB9A3F4BED9D3F4816A13F3A
:104D60009557A43FD6B2A73FD429AB3F7DBEAE3FF7
:104D7000EC72B23F6A49B63F7744BA3FD066BE3F55
:104D800076B3C23FB52DC73F30D9CB3FECB9D03F4A
:104D90005DD4D53F772DDB3FBDCAE03F5AB2E63F39
:104DA00038EBEC3F207DF33FDE70FA3F37E8004000
:104DB00094D30440090109400D780D40434112404D
:104DC000B166174010F41C4029F722404D8029405D
:104DD000F5A230408D76384085174140B7A84A404B
:104DE00055555540965361406CE86E40ED6C7E40E1
:104DF0001E2B8840C4A0924061039F4076EBAD40DB
:104E0000A037C040253AD740420FF54030A70E41A9
:104E1000C14E2B4184695741B0119241148AE5413A
:104E200022E98942907E1EC384DE10C2EBD4A1C168
:104E30004DCE5EC179D028C12A2A07C1C957E0C02A
:104E40004EE9BEC0467FA5C0A68391C0786181C0EF
:104E5000382668C00CD051C084C93EC0C5602EC081
:104E6000731220C06D7B13C07C4F08C024A6FCBF0A
:104E7000F1ADEABF886ADABF539ECBBFC316BEBF8F
:104E8000F9A9B1BFF834A6BF4A9A9BBFF3C091BF3E
:104E9000A09388BF000080BF00003C027804B306E6
:104EA000EE08280B610D990FD01106143A166C18F4
:104EB0009D1ACB1CF71E212148236C258E27AC2977
:104EC000C72BDF2DF32F0332103418361C381C3A51
:104ED000173C0E3E0040EC41D443B64593476A4927
:104EE0003C4B084DCD4E8D504652F953A5554B576E
:104EF000EA58825A135C9C5D1F5F9A600D62796369
:104F0000DD6439668D67D9681D6A596B8C6CB76D25
:104F1000D96EF36F04710C720B730174EE74D27559
:104F2000AD767F7747780679BB79677A0A7BA37B72
:104F3000327CB87C347DA67D0E7E6D7EC17E0C7F7A
:104F40004C7F837FB07FD37FEC7FFB7FFF7FFB7F36
:104F5000EC7FD37FB07F837F4C7F0C7FC17E6D7EE3
:104F60000E7EA67D347DB87C327CA37B0A7B677A7B
:104F7000BB79067947787F77AD76D275EE74017488
:104F80000B730C720471F36FD96EB76D8C6C596B27
:104F90001D6AD9688D673966DD6479630D629A6030
:104FA0001F5F9C5D135C825AEA584B57A555F95315
:104FB00046528D50CD4E084D3C4B6A499347B645FD
:104FC000D443EC4100400E3E173C1C3A1C381836C6
:104FD00010340332F32FDF2DC72BAC298E276C251D
:104FE00048232121F71ECB1C9D1A6C183A16061473
:104FF000D011990F610D280BEE08B30678043C021E
:105000000000C4FD88FB4DF912F7D8F49FF267F059
:1050100030EEFAEBC6E994E763E535E309E1DFDE5C
:10502000B8DC94DA72D854D639D421D20DD0FDCD63
:10503000F0CBE8C9E4C7E4C5E9C3F2C100C014BEBF
:105040002CBC4ABA6DB896B6C4B4F8B233B173AFDB
:10505000BAAD07AC5BAAB5A816A77EA5EDA364A25E
:10506000E1A0669FF39D879C239BC7997398279720
:10507000E395A7947493499227910D90FC8EF48D3B
:10508000F58CFF8B128B2E8A53898188B987FA861B
:1050900045869985F6845D84CE834883CC825A8286
:1050A000F28193813F81F480B4807D8050802D8097
:1050B000148005800180058014802D8050807D80C3
:1050C000B480F4803F819381F2815A82CC824883FC
:1050D000CE835D84F68499854586FA86B987818872
:1050E00053892E8A128BFF8BF58CF48DFC8E0D90DC
:1050F000279149927493A794E39527977398C7993A
:10510000239B879CF39D669FE1A064A2EDA37EA5EF
:1051100016A7B5A85BAA07ACBAAD73AF33B1F8B2A6
:10512000C4B496B66DB84ABA2CBC14BE00C0F2C165
:10513000E9C3E4C5E4C7E8C9F0CBFDCD0DD021D269
:1051400039D454D672D894DAB8DCDFDE09E135E31D
:1051500063E594E7C6E9FAEB30EE67F09FF2D8F426
:1051600012F74DF988FBC4FD8851000800000020AB
:1051700078000000804B00080052000878000020F2
:1051800000070000904B00082000E8030A0AD0073F
:10519000000010423D0AD73E00A0420000100B0064
:1051A0001000000010000000A69BC43CEC51383EEB
:1051B000CDCC0C3F0000803F0000803F000000008D
:1051C00010000000CDCC4C3E0000803F6F12033A2F
:1051D0000000803F0000803F000000000100000050
:1051E0000000804000000040CDCCCC3D0000003FDE
:1051F0000000003F1E00000000A24A042000000042
:040000050800016985
:00000001FF
