:020000040800F2
:10000000E8060020957D0008152A0008192A000836
:100010001D2A0008212A0008252A000800000000E7
:10002000000000000000000000000000292A000875
:100030002D2A000800000000312A0008F1270008DE
:10004000AF7D0008AF7D0008AF7D0008AF7D0008E0
:10005000AF7D0008AF7D0008AF7D0008AF7D0008D0
:10006000AF7D000821290008AF7D00089D29000808
:10007000AF7D00087D280008AF7D0008AF7D000837
:10008000AF7D0008AF7D00080000000011280008C7
:10009000AF7D0008AF7D0008AF7D0008AF7D000890
:1000A000AF7D0008AF7D0008AF7D0008AF7D000880
:1000B000AF7D000800000000AF7D000800000000D8
:1000C000AF7D000800000000AF7D0008AF7D000894
:1000D000AF7D0008AF7D0008AF7D00080000000084
:1000E0000000000000000000AF7D0008AF7D0008A8
:1000F000AF7D0008AF7D0008AF7D0008AF7D000830
:10010000AF7D00080000000000000000AF7D000887
:1001100000000000000000000000000000000000DF
:1001200000000000000000000000000000000000CF
:1001300000000000000000000000000000000000BF
:1001400000000000000000000000000000000000AF
:100150000000000000000000AF7D0008AF7D000837
:10016000AF7D0008AF7D0008DFF80CD008F094FBED
:10017000004800477D010008E806002080B5B0B0C7
:10018000002028902F9040F21411C2F200010120AB
:100190002790086002F0BEFA02F0ECFA40F200008C
:1001A000C2F20000006844F6D351C1F26201A0FB24
:1001B0000110800900F014FC279928988DF8BB10D5
:1001C000ADF8B800ADF8B600ADF8B4002C902B90A7
:1001D0002A9001F07BFE10B9FFE7FFE7FEE701F090
:1001E0006FFE01F09BFE01F0D7FE4FF090404FF400
:1001F00000410122269204F055FD269A40F200406B
:10020000C4F60000042104F04DFD4FF4965002F0B6
:100210000BF902F089F801F0B7FF01F00FFE40F290
:100220002C10C2F20000007801F0E8FC04F04AFB58
:1002300002F0D2FB2990FFE740F60000C4F6000070
:100240004FF4804104F04CFD012803D1FFE704F096
:1002500039FBF1E70A20259002F0C4FB4FF09040F3
:100260004FF40041002204F01DFD259840F21411C6
:10027000C2F200010860FFE702F0AEFB40F24C1151
:10028000C2F200010968884201D2FFE7F4E702F0F8
:10029000A3FB053040F24C11C2F20001086040F2AD
:1002A0008420C2F2000024900168013101600268DC
:1002B00048F21F50C5F2EB10A2FB00108009C821C4
:1002C00000FB11200022642838BF012240F6000004
:1002D000C4F600004FF4005104F0E4FC24980078C8
:1002E000C00718B9FFE702F00FFCFFE740F27C20DF
:1002F000C2F20000006840B1FFE700F09BFB40F253
:100300006821C2F200010860FFE740F22C10C2F23F
:1003100000000078002840F0DA81FFE740F2682012
:10032000C2F20000006808F058F900231A4608F0ED
:100330002BF940B9FFE740F26820C2F200000068E4
:100340004042239006E040F26820C2F200000068BC
:100350002390FFE7239808F032F908F0A8F900226B
:1003600022920023CBF6E07307F0DAFF229A44F2E0
:100370000003C4F28F0308F045F8229A0023C3F665
:10038000F07307F026FF08F0A5F92C9040F26820E2
:10039000C2F20000006831280CDCFFE740F2682060
:1003A000C2F20000006810F1310F03DBFFE700200C
:1003B00021903BE040F26820C2F20000006840F269
:1003C0007001C2F20001B1F90010884208DDFFE7B8
:1003D00040F27000C2F20000B0F90000209021E06D
:1003E00040F26820C2F20000006840F27001C2F2E0
:1003F0000001B1F900104942884209DAFFE740F2F2
:100400007000C2F20000B0F9000040421F9006E008
:1004100040F26820C2F2000000681F90FFE71F98BA
:100420002090FFE7209840422190FFE72198ADF807
:10043000B60040F28020C2F20000006831280CDCD7
:10044000FFE740F28020C2F20000006810F1310F97
:1004500003DBFFE700201E903FE040F28020C2F265
:100460000000006840F27001C2F20001B1F9001012
:10047000884208DDFFE740F27000C2F20000B0F9E8
:1004800000001D9021E040F28020C2F200000068D0
:1004900040F27001C2F20001B1F9001049428842F5
:1004A00009DAFFE740F27000C2F20000B0F9000084
:1004B00040421C9006E040F28020C2F2000000683A
:1004C0001C90FFE71C981D90FFE71D9808F077F837
:1004D0002C9907F00EFE1E90FFE71E9808F08EF88C
:1004E000ADF8B400BDF9B40008F069F80021C4F219
:1004F0007A4107F0A6FD0021CCF2343107F0F9FD76
:100500000021C4F2FA4107F026FE0021C4F2343182
:1005100007F097FD2B902B9808F070F8014648F6ED
:10052000F000C0F6000050F821002A902B9800211E
:10053000C4F2B42107F0E3FF002863D1FFE7BDF95F
:10054000B600B0F57A7F04DDFFE74FF47A701B90B8
:1005500012E0BDF9B60010F57A7F06DAFFE74FF634
:100560001840CFF6FF701A9003E0BDF9B6001A905C
:10057000FFE71A981B90FFE71B9940F25620C2F242
:1005800000000180B0F9000008F019F82A9907F07E
:10059000E2FD0021C4F27A4107F0A3FF28B9FFE78A
:1005A0000020C4F27A40199026E040F25620C2F2B0
:1005B0000000B0F9000008F002F82A9907F0CBFD1E
:1005C0000021CCF27A4107F0A8FF28B9FFE700200C
:1005D000CCF27A4018900CE040F25620C2F20000B3
:1005E000B0F9000007F0EBFF2A9907F0B4FD18906E
:1005F000FFE718981990FFE7199807F0FFFFADF88B
:10060000B80063E0BDF9B600B0F57A7F04DDFFE71E
:100610004FF47A70179012E0BDF9B60010F57A7FAA
:1006200006DAFFE74FF61840CFF6FF70169003E0AA
:10063000BDF9B6001690FFE716981790FFE71798D8
:10064000ADF8B8002A981590BDF9B80007F0B7FFCB
:100650000146159807F04DFD0021C4F27A4107F0DC
:1006600040FF28B9FFE70020C4F27A40149024E04C
:100670002A981390BDF9B80007F0A1FF014613981E
:1006800007F037FD0021CCF27A4107F046FF28B988
:10069000FFE70020CCF27A4012900BE02A981190EC
:1006A000BDF9B80007F08BFF0146119807F021FD56
:1006B0001290FFE712981490FFE7149807F09EFF3E
:1006C00040F25621C2F200010880FFE74FE040F2FD
:1006D0006820C2F200000A90006807F07EFF0890D0
:1006E000099140F28020C2F200000B90006807F0F0
:1006F00074FF00220D9244F20003C4F28F030C93A6
:1007000007F080FE0D9A0023C3F6F0730E9307F0F6
:1007100060FD024608980B46099907F001FE07F0B4
:10072000A7FF01460A98ADF8B810006807F055FF1A
:1007300002460B980F921091006807F04EFF0C9B39
:100740000D9A07F05FFE02460D980B460E9907F0D2
:10075000E1FD02460F980B46109907F0E1FD07F006
:1007600087FF40F25621C2F200010880FFE7BDF981
:10077000B80000F027FB40F25800C2F20000006809
:1007800007F095FF00220023C4F22C0307F0E1FEDE
:1007900020B9FFE7002000F0CFF92DE040F258002B
:1007A000C2F20000006807F082FF4FF0663246F2A6
:1007B0006663C4F22A0307F0CCFE20B9FFE70120EC
:1007C00000F0BAF917E040F25800C2F200000068E9
:1007D00007F06DFF00220023C4F2280307F0B9FEE2
:1007E00020B9FFE7022000F0A7F903E0032000F0A2
:1007F000A3F9FFE7FFE7FFE740F60000C4F60000BB
:100800004FF4804104F06CFA012812D1FFE7FFE7B2
:1008100040F60000C4F600004FF4804104F060FA96
:10082000012803D1FFE704F04DF8F1E700F002F9E9
:10083000FFE7BDF9B80007F0D0FE00231A4607F025
:10084000A3FE28B9FFE7BDF9B8004042079003E0D6
:10085000BDF9B8000790FFE70798322827DCFFE7CB
:1008600040F25620C2F20000B0F9000007F0B5FED9
:1008700000231A4607F088FE48B9FFE740F25620E9
:10088000C2F20000B0F900004042069007E040F2DA
:100890005620C2F20000B0F900000690FFE706986B
:1008A000322804DCFFE79DF8BB0038B9FFE740F2CF
:1008B0006011C2F200010020086007E040F2601100
:1008C000C2F20001086801300860FFE740F26010E2
:1008D000C2F20000006843F68101C0F201018842C3
:1008E00003D3FFE700F0A6F8FFE740F2F401C2F2FD
:1008F00000010120087040F28600C2F2000000787A
:1009000080B9FFE740F28700C2F20000007848B9E2
:10091000FFE740F27200C2F20000007840060028B3
:1009200007D5FFE740F2F401C2F200010020087091
:10093000FFE740F2F400C2F20000007800F036FA5F
:1009400040F27200C2F2000000788006002822D433
:10095000FFE740F27200C2F200000490007800F05D
:10096000010240F20040C4F600000590082104F0A6
:1009700099F9049905980978C1F34002202104F0FF
:1009800091F9049905980978C1F380024FF48071B8
:1009900004F088F9FFE740F27200C2F20000039011
:1009A0000078C0F3C0024FF0904001904FF4004136
:1009B000029104F077F901980299039A1278C2F330
:1009C000001204F06FF9039800780006002803D5A0
:1009D000FFE700F02FF8FFE703F074FFFFF74CBCD0
:1009E00080B582B0009000980138B0F1807F03D3C9
:1009F000FFE70120019019E0009801384EF2140140
:100A0000CEF2000108604FF0FF300F2100F076F9C0
:100A10004EF21801CEF20001002008604EF21002E2
:100A2000CEF20002072111600190FFE7019802B0A9
:100A300080BD00BF80B584B040F27C20C2F20000CF
:100A4000006880B3FFE740F27C20C2F2000001683A
:100A500005220029C8BF6FF004021144016000683C
:100A600007F0BBFD00231A4607F08EFD40B9FFE7F3
:100A700040F27C20C2F2000000684042029006E092
:100A800040F27C20C2F2000000680290FFE702986A
:100A90000B2807DBFFE740F27C20C2F20000006871
:100AA000039046E02DE040F26820C2F200000068AA
:100AB00007F093FD00231A4607F066FD40B9FFE7F3
:100AC00040F26820C2F2000000684042019006E057
:100AD00040F26820C2F2000000680190FFE7019830
:100AE0000B280DDBFFE740F26820C2F2000001682E
:100AF00040F27C20C2F2000001600068039018E020
:100B0000FFE70020009000F051F9009840F22C110E
:100B1000C2F20001087000F055F9009A40F200405E
:100B2000C4F60000042104F0BDF8FFE703F0CAFE9C
:100B3000FCE7039804B080BD80B586B08DF817003F
:100B400040F27200C2F2000000788006002801D452
:100B5000FFE7D0E000208DF807009DF80720501C2B
:100B60008DF8070002A940F20340C4F6000041F8E6
:100B700022009DF80720501C8DF8070040F2054028
:100B8000C4F6000041F822009DF80720501C8DF8A3
:100B9000070040F20840C4F6000041F822009DF82A
:100BA000070003284CD1FFE702208DF806009DF9CD
:100BB0001700032823D1FFE7049921F0FF0001F07B
:100BC0000F020121914040F28422C2F20002D2F8C9
:100BD00000C048F21F52C5F2EB12ACFB0232120900
:100BE000322302FB13C30022192B38BF012204F069
:100BF00059F89DF8060001388DF80600FFE7FFE779
:100C00009DF9060000281AD4FFE79DF9062002A8E6
:100C100050F8221021F0FF0001F00F03012199404C
:100C20009DF91730D21AB2FA82F2520904F03AF85A
:100C3000FFE79DF8060001388DF80600E0E75AE06E
:100C40009DF8070002281CD1FFE7029921F0FF0060
:100C500001F00F020121009191409DF8172002F050
:100C6000010204F01FF80099039A22F0FF0002F03D
:100C70000F0291409DF8172002F0020204F012F8D2
:100C800038E09DF80700012833D1FFE79DF91700F0
:100C900058B9FFE7029921F0FF0001F00F0101228E
:100CA00002FA01F103F0FEFF22E09DF91700410076
:100CB0004FF4967090FBF1F0ADF80400029921F02A
:100CC000FF0001F00F020121914040F28422C2F2A4
:100CD00000021368BDF804C0B3FBFCF202FB1C3336
:100CE0000022B3EB5C0F38BF012203F0DBFFFFE70C
:100CF000FFE7FFE7FFE706B080BD00BF82B08DF8D9
:100D0000070000919DF9070000280AD4FFE700982A
:100D100000019DF907104EF20042CEF20002885405
:100D20000BE0009800019DF8071001F00F014EF64E
:100D30001452CEF200028854FFE702B07047000060
:100D400081B0ADF80200ADF80010BDF90220BDF988
:100D5000001092FBF1F000FB1120421892FBF1F021
:100D600000FB112000B201B0704700BF80B584B015
:100D7000ADF80E00ADF80C100220C0F20100029098
:100D80004FF6FE7001900020CFF6FF700090BDF886
:100D90000E00BDF80C10401A00B20621FFF7D0FF7C
:100DA0000146684630F9110004B080BD81B08DF86D
:100DB00003009DF8030040F28801C2F200010870B0
:100DC00001B0704780B588B0079040F22C10C2F295
:100DD0000000007801460691032800F29C800699E5
:100DE000DFE801F002838B9240F20000C2F20000C3
:100DF00004900068400844F6D351C1F262010591A5
:100E0000A0FB011040F3CF2007F0E7FB0290039115
:100E1000079807F0E2FB002244F20003C4F28F03BC
:100E200007F0F0FA024602980B46039907F078FAA9
:100E300007F01EFC0499059A034640F21010C2F216
:100E400000000360006809684908A1FB022141F322
:100E5000CF21884210DDFFE740F20000C2F200001F
:100E60000068400844F6D351C1F26201A0FB0110B2
:100E700040F3CF20019031E040F21010C2F20000A8
:100E8000006840F20001C2F200010968490844F616
:100E9000D352C1F26202A1FB022141F3CF214942A8
:100EA000884211DAFFE740F20000C2F20000006859
:100EB000400844F6D351C1F26201A0FB011040F397
:100EC000CF204042009006E040F21010C2F2000035
:100ED00000680090FFE700980190FFE7019840F25A
:100EE0001011C2F2000108601CE00798800040F277
:100EF0001011C2F20001086014E0079840F21011CE
:100F0000C2F2000108600DE0079840F21011C2F231
:100F10000001086006E0079840F21011C2F20001DB
:100F20000860FFE708B080BD81B08DF8030040F293
:100F30006200C2F2000000789DF80310884214D0CD
:100F4000FFE79DF8030040F26201C2F20001087061
:100F500040F29000C2F2000000680978884040F238
:100F6000FC01C2F200010860FFE701B0704700BF5A
:100F700080B5A0B000201F901E901D9040F2082068
:100F8000C2F20000B0F90000B0F57A7F19DAFFE78D
:100F900040F20821C2F2000108880130088040F2C6
:100FA0008200C2F20000408840F26601C2F20001F5
:100FB000B1F90020104400EBD0704008088000F028
:100FC00096BC40F29400C2F2000000884BF650023A
:100FD000C0F21E5245F62941CCF28F2100FB0120C0
:100FE0004FEAB00045F62841C0F28F2188423DD833
:100FF000FFE740F25800C2F200001A90006807F0C4
:1010000056FB1690179140F28200C2F20000008851
:1010100007F0DEFA07F04BFB00224CF20003C3F6A8
:10102000987307F07DF94AF6FC12CDF2F12246F2F0
:101030004D23C3F6507307F073F9024616981892C1
:101040000A461799199248F22B72CDF616124FF2F2
:10105000CE73C3F6EF7307F063F9189A199B07F084
:10106000B8F807F037FB1A990860FFE740F29401DF
:10107000C2F2000108880130088040F26810C2F214
:101080000000006840F22011C2F2000109688842A5
:1010900019D9FFE740F26810C2F20000006800F5BD
:1010A0007A7040F22011C2F20001086040F218117B
:1010B000C2F20001086840F21C12C2F20002106085
:1010C0000020086007E040F21811C2F20001086831
:1010D00001300860FFE740F28200C2F20000408861
:1010E00040F26601C2F20001B1F90010401A07F0A7
:1010F00074FA48F23F02C9F6C9124CF69C13C3F6C3
:10110000C97307F00DF900231A4607F03DFAE8B954
:10111000FFE740F28200C2F20000408840F2660120
:10112000C2F20001B1F90010401A07F056FA48F275
:101130003F02C9F6C9124CF69C13C3F6C97307F0F7
:10114000EFF881F00041149015911AE040F282000E
:10115000C2F20000408840F26601C2F20001B1F91B
:101160000010401A07F039FA48F23F02C9F6C912D6
:101170004CF69C13C3F6C97307F0D2F8149015917E
:10118000FFE71498159907F0A5FA014640F25C00B4
:10119000C2F20000016000680021C4F2701107F083
:1011A000CAF978B9FFE740F28800C2F2000000787F
:1011B00040B1FFE740F28820C2F200000078012829
:1011C0003CD1FFE740F21011C2F200010020139061
:1011D000086040F28C01C2F20001086040F22D115B
:1011E000C2F2000108700E20FFF79EFE40F2900050
:1011F000C2F20000006807F0F0F9139B1A4607F0EE
:10120000C3F940B9FFE740F29000C2F20000006865
:101210004042129006E040F29000C2F200000068E6
:101220001290FFE71298632807DCFFE742F60040C0
:10123000C4F2010005F092F8FFE717E042F6004023
:10124000C4F2010005F080F840F26300C2F2000031
:101250000078FFF769FE40F22C10C2F2000000781F
:1012600040F22D11C2F200010870FFE74FF09040EC
:101270000F90012103F034FD01460F9840F2011256
:10128000C2F2000211921170022103F029FD40F216
:101290000211C2F200011091087040F20040C4F641
:1012A00000004FF4006103F01BFD109A03461198F3
:1012B00040F20311C2F200010B700078127800EBCB
:1012C0004200097800EB810140F20010C2F20000F8
:1012D0000170017848F6E600C0F60000415C40F27B
:1012E0005420C2F200000170007838B9FFE742F6DE
:1012F0000040C4F2010005F031F8F8E240F2940039
:10130000C2F20000028840F26000C2F200000188D0
:10131000B2FBF1F000FB112090B9FFE740F22D1075
:10132000C2F20000007840F21011C2F20001096818
:1013300000F0DAFC40F28C01C2F200010860FFE725
:1013400040F2FC00C2F20000026840F26201C2F208
:1013500000010B7842FA03F3D21A40F28C03C2F276
:1013600000031B681A4402600068097840FA01F122
:1013700040F29000C2F200000160006840F2542187
:10138000C2F2000109786B461DAA1A601FAA1EABA3
:1013900000F0F4FC1D9840F20001C2F2000109685F
:1013A000490844F6D352C1F26202A1FB021242F391
:1013B000CF2108446FF0090101EB9221884212D934
:1013C000FFE740F20000C2F200000068400844F667
:1013D000D351C1F26201A0FB01016FF0090000EBE3
:1013E00091200E902AE01D9840F20001C2F2000107
:1013F0000968490844F6D352C1F26202A1FB0221F6
:1014000041F3CF210844092803DCFFE70A200D90AF
:1014100011E01D9840F20001C2F20001096849087C
:1014200044F6D352C1F26202A1FB022141F3CF2163
:1014300008440D90FFE70D980E90FFE70E9A42F6D4
:101440000040C4F20100022105F0AEF91E9840F2FE
:101450000001C2F200010968490844F6D352C1F202
:101460006202A1FB021242F3CF2108446FF009018E
:1014700001EB9221884212D9FFE740F20000C2F24C
:1014800000000068400844F6D351C1F26201A0FB9D
:1014900001016FF0090000EB91200C902AE01E98EA
:1014A00040F20001C2F200010968490844F6D35233
:1014B000C1F26202A1FB022141F3CF2108440928B5
:1014C00003DCFFE70A200B9011E01E9840F20001B8
:1014D000C2F200010968490844F6D352C1F262021F
:1014E000A1FB022141F3CF2108440B90FFE70B98A9
:1014F0000C90FFE70C9A42F60040C4F20100012173
:1015000005F052F91F9840F20001C2F2000109688B
:10151000490844F6D352C1F26202A1FB021242F31F
:10152000CF2108446FF0090101EB9221884212D9C2
:10153000FFE740F20000C2F200000068400844F6F5
:10154000D351C1F26201A0FB01016FF0090000EB71
:1015500091200A902AE01F9840F20001C2F2000197
:101560000968490844F6D352C1F26202A1FB022184
:1015700041F3CF210844092803DCFFE70A20099042
:1015800011E01F9840F20001C2F200010968490809
:1015900044F6D352C1F26202A1FB022141F3CF21F2
:1015A00008440990FFE709980A90FFE70A9A42F673
:1015B0000040C4F20100002105F0F6F840F23010BE
:1015C000C2F2000007900068089040F26410C2F276
:1015D0000000007840F25421C2F200010978FFF7C0
:1015E000C5FB079902460898801A086040F27420EB
:1015F000C2F20000006840097C2808D8FFE740F2EA
:101600007421C2F20001086801300860FFE740F26F
:101610003410C2F20000006840F23011C2F2000142
:101620000968884200F0AB80FFE740F27420C2F204
:10163000000000680B28C0F09580FFE740F23010F2
:10164000C2F20000006840F23411C2F200010968E1
:10165000411A40F26C00C2F20000026840F27420AD
:10166000C2F200000368B2FBF3F251431C9140F256
:101670006022C2F200021168A1EBA1011C9B194477
:1016800011600068C0087C2808D8FFE740F260209D
:10169000C2F2000000688010069002E01C980690DC
:1016A000FFE7069840F25C21C2F20001086040F2B8
:1016B0005800C2F20000006806F0F9FF4BF65E2207
:1016C000C0F649424EF60233C4F2260306F028FE65
:1016D0000490059140F25C00C2F20000006806F040
:1016E000E6FF024604980B46059906F019FE06F03F
:1016F000BFFF800240F23011C2F20001096840F2DF
:101700003412C2F200021268891A4FF47A5251431D
:1017100090FBF1F140F27420C2F2000002685143E4
:101720001B9140F2DC22C2F200021168A1EBE10140
:101730001B9B194411600068C0087C2808D8FFE78B
:1017400040F2DC20C2F200000068C010039002E00A
:101750001B980390FFE7039840F2D821C2F20001E2
:101760000860FFE740F27421C2F20001086840F20D
:101770007822C2F200021060002008601FE040F2F0
:101780007420C2F200000068B0F57A6F16D3FFE74C
:1017900040F2DC21C2F200010020086040F2D821B2
:1017A000C2F20001086040F26021C2F2000108604C
:1017B00040F25C21C2F200010860FFE7FFE740F25F
:1017C0006C20C2F20000006880097C2808D8FFE77E
:1017D00040F26C21C2F20001086801300860FFE7A6
:1017E00040F26410C2F200000078012854D0FFE7F4
:1017F00040F25420C2F20000007801284CD1FFE7EB
:1018000040F26C20C2F200000290006806F0E0FE98
:1018100001464FF6EC10C4F2F84006F09CFC029929
:1018200040F25822C2F20002106040F26800C2F298
:10183000000000680968B0FBF1F040F26421C2F2D8
:101840000001086040F26410C2F200000078022833
:101850000DD1FFE740F25820C2F20000019001686C
:101860004FF0004006F03FFC0199086007E040F2AD
:101870006421C2F20001086840420860FFE740F2BC
:101880006C21C2F20001086840F27022C2F200022C
:1018900010600020086015E040F26C20C2F20000E9
:1018A0000068B0F5FA5F0CD3FFE740F26421C2F2A2
:1018B00000010020086040F25821C2F200010860D7
:1018C000FFE7FFE740F25420C2F20000007840F248
:1018D0006411C2F20001087040F23010C2F2000040
:1018E000006840F23411C2F200010860FFE720B046
:1018F00080BD000010B588B08C4686460D980C98C7
:101900000B980A99CDF81CE0CDF818C00592049305
:10191000ADF80E10ADF80C0006984FF08F41029113
:1019200006F0E7FB06F06AFE0299079A1060059838
:1019300006F0DFFB0021C4F27A41019106F00BFCB6
:1019400006F05CFE0299079A5060049806F0D1FBFD
:10195000019906F0CEFB06F051FE0299079A9060BD
:10196000BDF80E00079A9083BDF80C00079AD0834B
:101970000C9806F0BEFB06F05AFE0A4607994A622A
:1019800008620D98079988620799002048610861EC
:101990000799886108B010BD8CB00B900A9109922C
:1019A0000A980999401A40F2F801C2F20001086051
:1019B0000B980068096880FB0101079106900B985D
:1019C000806AA8B1FFE740F2F800C2F200000068A8
:1019D0000B99896A884243DAFFE740F2F800C2F2C5
:1019E000000000680B99896A4942884238DDFFE7A8
:1019F0000B9940F2F800C2F20000D0F800C04B682A
:101A000008694A69C3FB0C024A6108610B980369C3
:101A10004169026A406AD21A884106DAFFE70B99E7
:101A2000086A4A6A4A61086119E00B9B1A69586999
:101A3000196AD3F824C04B424FF0000161EB0C014E
:101A4000D21A88410ADAFFE70B99086A4B6A4242C8
:101A50004FF0000098410A614861FFE7FFE704E0AA
:101A60000B99002048610861FFE70B9908694969F3
:101A70000591049040F2F800C2F2000000680B9952
:101A80008969401A40F2A401C2F2000108600B9873
:101A90008068096880FB010103910290069907980C
:101AA000049B059AC9185041029B039AC9185041DA
:101AB00000910190079840F21821C2F200010860DD
:101AC000069840F21C21C2F200010860059840F21D
:101AD0005811C2F200010860049840F25C11C2F291
:101AE00000010860039840F29C01C2F20001086006
:101AF000029840F2A001C2F200010860DDF81A105D
:101B000040F21420C2F200000160DDF8121040F231
:101B10005412C2F200021160DDF80A3040F298015E
:101B2000C2F200010B6000681268104409680144A9
:101B300040F21020C2F20000016000680B99B1F978
:101B40001E10884209DDFFE70B98B0F91E0040F235
:101B50001021C2F20001086014E040F21020C2F22D
:101B6000000000680B99B1F91C10884209DAFFE700
:101B70000B98B0F91C0040F21021C2F2000108607D
:101B8000FFE7FFE7DDF8021040F20C20C2F2000090
:101B9000016000680B99B1F91E10884209DDFFE76A
:101BA0000B98B0F91E0040F20C21C2F2000108604F
:101BB00014E040F20C20C2F2000000680B99B1F969
:101BC0001C10884209DAFFE70B98B0F91C0040F2BC
:101BD0000C21C2F200010860FFE7FFE740F2F800C5
:101BE000C2F2000000680B99886140F20C20C2F23A
:101BF0000000B0F900000CB0704700BFB0B590B065
:101C00008DF83F009DF83F1040F22C10C2F200000A
:101C10000170007808B9FFE763E040F22C10C2F2CF
:101C200000000078C0EBC00140F20400C2F20000E6
:101C300000EB81001C380E900E98089041680991C5
:101C400081680A91C1680B910069069080F000409C
:101C5000059040F20000C2F200000068400844F61F
:101C6000D351C1F26201A0FB011040F3CF2006F076
:101C7000A6FC01460598079106F03BFA06F0BEFC6B
:101C80000799024606980D9206F033FA06F0B6FC64
:101C90000799024608980C92406906F02AFADDF886
:101CA00020C009990A9A0B9BDDF830E004460D9894
:101CB000DCF81850EC46CCF80C50CCF80840CCF8C6
:101CC00004E0CCF8000040F22020C2F20000FFF750
:101CD00011FE0E98008840F26001C2F200010880F7
:101CE000FFE710B0B0BD00BF80B584B08DF80D0027
:101CF00002919DF80D0001460191032835D8019904
:101D0000DFE801F0020615240298ADF80E0030E07D
:101D1000029940F25C20C2F20000026840F22020EA
:101D2000C2F20000FFF738FEADF80E0021E0029984
:101D300040F2D820C2F20000026840F22020C2F235
:101D40000000FFF729FEADF80E0012E0029940F204
:101D50003010C2F20000026840F22020C2F20000FF
:101D6000FFF71AFEADF80E0003E00020ADF80E00FC
:101D7000FFE7BDF90E0004B080BD000085B0DDF8BE
:101D800014C0049003910292019303980138014614
:101D90000091052847D80099DFE801F0030E1924C7
:101DA0002F3A02990020086004980199086004986D
:101DB0004042059908603EE004984042029908605C
:101DC00004980199086005990020086033E00498A0
:101DD0004042029908600199002008600498059922
:101DE000086028E0029900200860049840420199A8
:101DF00008600498059908601DE00498029908603D
:101E0000049840420199086005990020086012E09A
:101E100004980299086001990020086004984042E3
:101E20000599086007E002990020086001990860A0
:101E300005990860FFE705B0704700BF70470000D4
:101E400080B584B003900291039A22F0FF000299BA
:101E500002F00F030122019202FA03F30022009222
:101E600002F078FE0099019A039B23F0FF0003F033
:101E70000F0302FA03F302F0BBFE04B080BD00BF03
:101E800080B584B0039002910192039B23F0FF0080
:101E90000299019A03F00F0C0123009303FA0CF34B
:101EA00002F058FE009A039921F0FF0001F00F01A3
:101EB00002FA01F3002102F09BFE04B080BD00BFD6
:101EC00080B54FF4407002F0CDFF80BD80B582B088
:101ED00040F61D1003F0F4FA18B1FFE703F010FB11
:101EE000FFE740F6FF70022102F042FD012807D112
:101EF000FFE740F6FF7002F0F5FC012804D0FFE791
:101F000000208DF8070005E002F0E4FC01208DF8C8
:101F10000700FFE79DF8070002B080BD80B584B0E0
:101F20004FF4E16003F0E8F842F20000C4F2000070
:101F3000039003F0CFFE039840F29022C2F2000219
:101F4000019200210291918011802023538040F260
:101F50000003C2F200031B685B0844F6D35CC1F2C5
:101F6000620CA3FB0CC39B099360D180117304F036
:101F70000FF80199039803F04DFF029A13200321F3
:101F800002F07EFF0398012104F0E8F8039803F0C3
:101F9000E1FF04B080BD00BF80B58EB040F21150AB
:101FA00003F0AAF840F2125003F0A6F840F21350E2
:101FB00003F0A2F840F2165003F09EF840F2004001
:101FC000C4F6000007900221089100220D924FF400
:101FD0008053019302F0BEFD019B07980D990322E7
:101FE0000B9202F005FE019A0798089902F0B4FEE0
:101FF00008994FF090400A9001220C924FF48073A0
:10200000029302F0A7FD029B0A980D9A114602F076
:10201000EFFD029A08990A9802F09EFE0798089927
:102020000C9A4FF40053039302F094FD039B07981E
:102030000D9A114602F0DCFD039A0798089902F008
:102040008BFE08990A980C9A4FF40073049302F0DF
:1020500081FD049B0A980D9A114602F0C9FD049A6D
:1020600008990A9802F078FE079808990C9A4FF49C
:102070008043059302F06EFD059B07980D9A11466B
:1020800002F0B6FD059A0798089902F065FE0899D6
:102090000A980C9A4FF48063069302F05BFD069B4E
:1020A0000A980D9A114602F0A3FD069A08990A981B
:1020B00002F052FE079808990C9A4FF400430993D6
:1020C00002F048FD0798099B0D9A114602F090FD19
:1020D00007980899099A02F03FFE0C9940F20340D4
:1020E000C4F60000FFF7ACFE0C9940F20840C4F6BD
:1020F0000000FFF7A5FE0C9940F20540C4F6000071
:10210000FFF79EFE0C990F20C4F60000FFF798FE23
:102110000C9940F20440C4F60000FFF791FE0C99C0
:1021200040F60D00C4F60000FFF78AFE0A980D99EC
:10213000FFF786FE0D990120C4F60000FFF780FE30
:102140000D9940F20B40C4F60000FFF779FE0B99A1
:102150000420C4F60000FFF773FE0B990520C4F6B7
:102160000000FFF76DFE0C9940F20240C4F600003B
:10217000FFF766FE0D9940F60E00C4F60000FFF76B
:102180005FFE0EB080BD00BF80B588B040F20B602E
:1021900002F0B2FF42F60040C4F20100079003F0E3
:1021A00099FD079840F2C822C2F200020092002175
:1021B0000591918011806023538040F20003C2F2A8
:1021C00000031B685B0844F6D35CC1F2620CA3FBFE
:1021D0000CC39B0A9360D180117303F0D9FE009960
:1021E000079803F017FE059A07980221039104F05F
:1021F00045FB059A07980121069104F03FFB059ADB
:102200000798114604F03AFB0399059A079804F0E1
:10221000EFFA059A0699079804F0EAFA059A0798E2
:10222000114604F0E5FA039907987022019204F030
:1022300075FA019A0699079804F070FA019A0599BF
:10224000079804F06BFA0399059A079804F0ACFA22
:10225000059A0699079804F0A7FA059A0798114677
:1022600004F0A2FA0399059B079840F2B822C2F243
:1022700000020292D3804FF0080CA2F808C05381EC
:102280004FF40073938104F0D3F8029A06990798EB
:1022900004F0CEF8029A0599079804F0C9F8059A57
:1022A000079840F2A021C2F200014FF400630B60D6
:1022B0004A600A614FF48043CB604A813C230B8122
:1022C0004A6104F011F8079803F04EFE0399069A4C
:1022D000079804F0EFFB069A0798114604F0EAFB12
:1022E0000599069A079804F0E5FB039907980422DC
:1022F000049204F021FC049A0699079804F01CFC4F
:10230000049A0599079804F017FC059A0D201146C8
:1023100002F0B6FD0699079803F020FF079803F036
:1023200019FE08B080BD00BF80B586B040F20960DC
:1023300002F0E2FE4FF4A06002F0DEFE032002F0A5
:10234000BFFF0920012104910022029202F098FDB2
:10235000029801F06FFA0298049A02210191ADF8F7
:10236000161040F2AC01C2F20001886140F2820313
:10237000C2F20003CB6048614FF480630B61BDF88B
:102380001630CB6142F24C43C4F201030B608A6009
:102390004FF4807203924A604FF440520A6201F097
:1023A000A1FA029801F044FB029801F077FB019931
:1023B000029801F06BFD0298BDF8161001F0C4FB05
:1023C000029801F07DFB0498BDF8161000F044FE61
:1023D000019A0298042100F079FE019A04980521DF
:1023E00000F074FE029800F01DFE0499084600F00B
:1023F000E3FF04984FF4602101F026F800F04EFD51
:1024000000F060FD01F0F0F900F0E6FC00F000FDE6
:1024100000F026FD0398049900F0A0FD06B080BDF1
:1024200081B0009001B0704780B58AB009904FF03C
:102430009040029002210691012207920423089302
:1024400002F088FB0298089B00210491032201926C
:1024500002F0CEFB02980799089A02F07DFC0298E0
:102460000699079A0823039302F074FB019A0298D5
:10247000039B049902F0BCFB0298039A079902F0AF
:102480006BFC40F2117002F037FE4FF4A06002F0D6
:1024900033FE099944F20040C4F20000059004F0B4
:1024A00085FF0499059804F0DFFF0499059804F06E
:1024B000EFFF0499059804F0FFFF0499059805F0D3
:1024C000D1F80399059805F01FF80598089905F0CB
:1024D0002BF8059805F004F8049A06990B2002F0F1
:1024E000CFFC089801F0A6F9049A079B089840F2DF
:1024F000D001C2F200018A6140F2E02CC2F2000C6D
:10250000C1F80CC04A610A61CB6144F2244CC4F2A8
:10251000000CC1F800C08B604A604FF440520A6260
:1025200001F0E0F9089801F083FA089801F0B6FA92
:102530000598402105F02AFB0699089801F0A6FCB1
:102540000799089801F000FB089801F0B9FA0AB061
:1025500080BD00BF81B0009001B0704780B582B0EF
:10256000019001F0E9FC302002F046F9019801F0F9
:102570002FFD01F0FBFC02B080BD00BF81B00090D8
:102580000098006801B0704780B584B00390029154
:1025900000208DF8070001F0CFFC302002F02CF96C
:1025A0000398029901F09CFD20B9FFE701208DF806
:1025B0000700FFE701F0DAFC9DF8070004B080BDDA
:1025C00080B584B003900291ADF806200020ADF8EC
:1025D0000400FFE7BDF80400BDF80610884213DAD6
:1025E000FFE70298BDF80410405800900398BDF82A
:1025F000041008440099FFF7C7FFFFE7BDF8040087
:102600000430ADF80400E5E704B080BD80B584B0C7
:1026100003900291ADF806200020ADF80400FFE71A
:10262000BDF80400BDF80610884211DAFFE70398F0
:10263000BDF804100844FFF7A1FF0299BDF804207B
:102640008850FFE7BDF804000430ADF80400E7E768
:1026500004B080BD82B040F2F411C2F200010091DA
:1026600002200860002088808DF807004FF4006287
:10267000CA800A814FF480524A818881CA810882C7
:102680008DF80700FFE79DF90700012810D8FFE744
:102690009DF9071040F2F410C2F20000014400203E
:1026A0008874FFE79DF8070001308DF80700EAE71E
:1026B00002B0704780B584B000F018F8039003981A
:1026C00000F01CF8029003980299401A00F1006093
:1026D00001900198FFF742FF019840F2F411C2F215
:1026E00000011422FFF76CFF04B080BD4FF2E070D0
:1026F000C1F6FF7000888002704700BF81B0009073
:1027000000994FF40060B1F1011F38BF4FF48060B1
:1027100001B0704780B584B0FFF7E8FF03900398DD
:10272000FFF7ECFF029003980299401A00F1006055
:1027300001900198FFF722FF013028B9FFE7FFF76A
:1027400089FFFFF7B7FF12E0019840F2F411C2F2DF
:10275000000100911422FFF759FF00980068022839
:1027600005D0FFE7FFF776FFFFF7A4FFFFE704B010
:1027700080BD00BF80B542F20000CEF204000068C8
:102780006FF31F3040F2A801C2F20001086005F0AB
:102790006DFB41F20400C4F2020000680021C0F6A3
:1027A0003C010840800C40F25021C2F20001086058
:1027B00080BD00BF80B582B000F00EF901904AF2F2
:1027C0000020C0F24A400090FFE7009828B1FFE7E0
:1027D000FFE7009801380090F7E700F0FDF8019955
:1027E000401A40F24411C2F20001086002B080BDFC
:1027F00040F26811C2F200010868013008607047B9
:1028000040F28C21C2F2000100200860704700BF36
:1028100080B540F28C20C2F200000068B0F5FA6F7B
:1028200015D9FFE740F28820C2F20000007838B9DD
:10283000FFE740F26821C2F2000100200860FFE7D4
:1028400040F28821C2F20001012008700DE040F240
:102850008821C2F200010020087040F28C21C2F2EF
:102860000001086801300860FFE742F20000C4F28E
:102870000000012103F0A4FC80BD00BF80B542F63A
:102880000040C4F20100012103F07CFC002845D087
:10289000FFE740F27800C2F200000178C1F10101C7
:1028A0000170007890B3FFE740F26810C2F20000B8
:1028B000006840F24011C2F200010968884219D94B
:1028C000FFE740F26810C2F20000006800F57A707D
:1028D00040F24011C2F20001086040F23811C2F229
:1028E0000001086840F23C12C2F2000210600020B1
:1028F000086007E040F23811C2F2000108680130B8
:102900000860FFE7012000F0CBFDFFE742F6004042
:10291000C4F20100012103F053FCFFE780BD00BFBA
:1029200080B50020022101F0FBF9A8B3FFE740F2D7
:102930006810C2F20000006840F20C11C2F20001FF
:102940000968884219D9FFE740F26810C2F2000016
:10295000006800F57A7040F20C11C2F200010860C4
:1029600040F20411C2F20001086840F20812C2F2FB
:10297000000210600020086007E040F20411C2F27B
:102980000001086801300860FFE7FEF7F1FA002057
:10299000022101F069FAFFE780BD00BF80B540F277
:1029A0002811C2F2000108680130086004200221E9
:1029B00001F0B6F970B1FFE740F22411C2F2000154
:1029C00008680130086000F013F90420022101F0CA
:1029D0004BFAFFE780BD00BF40F26810C2F2000072
:1029E0000068704782B0019040F26810C2F20000A7
:1029F00000680090FFE740F26810C2F20000006833
:102A00000099401A0199884202D2FFE700BFF2E71D
:102A100002B07047704700BFFFE7FEE7FFE7FEE741
:102A2000FFE7FEE7FFE7FEE7704700BF704700BF24
:102A30007047000080B584B0039002918DF80720A4
:102A400000208DF80600FFE79DF806009DF80710AE
:102A5000884217DAFFE7039802999DF80620895CFF
:102A600004F072FDFFE7039840F2067105F0F4F8F8
:102A700008B9FFE7F7E7FFE79DF8060001308DF89A
:102A80000600E1E704B080BD83B002900191002010
:102A9000ADF80200FFE701980138019000282ED41C
:102AA000FFE7BDF8020002994A1C0292097880EA09
:102AB0000120ADF8020008208DF80100FFE7BDF805
:102AC00002000004002809D5FFE7BDF8021041F21A
:102AD000210080EA4100ADF8020005E0BDF80200E7
:102AE0004000ADF80200FFE7FFE79DF80100013864
:102AF0008DF8010000060028E1D1FFE7CBE7BDF823
:102B0000020003B07047000080B588B0FFF764FF93
:102B100040F24811C2F200010968401AB0F5FA7F8C
:102B200007D9FFE740F28701C2F2000101200870D7
:102B3000FFE7FFF751FF40F25011C2F200010968B0
:102B4000884201D2FFE751E0FFF746FF643040F2D0
:102B50005011C2F2000108604AF6CD30ADF80A000B
:102B600040F25800C2F2000000680021C4F2C821FF
:102B7000009105F0BEFA05F041FD0099ADF8100096
:102B800040F25C00C2F20000006805F0B2FA05F005
:102B900035FD0099ADF8120040F25820C2F2000055
:102BA000006805F0A6FA05F029FDADF80C0040F22A
:102BB0003010C2F200000068CDF816000020ADF819
:102BC0001400ADF80E00CDF81A000DF10A000190C6
:102BD0001421FFF759FF0199ADF81E0044F200409F
:102BE000C4F200001622FFF725FFFFE708B080BD02
:102BF00080B584B040F2E020C2F2000000788DF889
:102C00000F009DF80F0040F2EE11C2F200010B8898
:102C100040F26E12C2F20002D0540888013000F077
:102C20007F00088040F26400C2F20000B0F90000AA
:102C3000B0F1FF3F17DCFFE79DF80F002F2812D1FE
:102C4000FFE740F26403C2F20003002018809DF801
:102C50000F00B3F90020511C198040F27901C2F233
:102C600000018854AAE040F26400C2F20000B0F90A
:102C70000000002870D4FFE79DF80F1040F26400B8
:102C8000C2F20000B0F900305A1C028040F2790212
:102C9000C2F20002D154B0F9000009285BD1FFE76D
:102CA00040F27900C2F2000002900299B1F80710D8
:102CB00040F2F012C2F20002019211800721FFF7E8
:102CC000E3FE0246019840F26C11C2F200010A8054
:102CD00000880988884235D1FFE7FFF77DFE40F282
:102CE0004811C2F20001086040F28701C2F20001FF
:102CF000002008700298B0F9010040F26821C2F289
:102D0000000108600298B0F9030040F28021C2F28D
:102D1000000108600298407940F27201C2F200019D
:102D200008700298807940F27301C2F200010870C5
:102D3000FFF766FD40F26401C2F200014FF6FF703A
:102D4000088007E040F26401C2F200014FF6FE7015
:102D50000880FFE7FFE7FFE740F26400C2F20000EF
:102D6000B0F900000230C0B9FFE79DF80F002F282E
:102D700012D1FFE740F26403C2F200030020188082
:102D80009DF80F00B3F90020511C198040F2790121
:102D9000C2F200018854FFE7FFE740F26400C2F28C
:102DA0000000B0F90000092808D3FFE740F26401F1
:102DB000C2F200014FF6FF700880FFE704B080BD4B
:102DC00080B582B040F20930019002F0E5F9019837
:102DD00002F0F6F902B080BD42F20840C4F20100F0
:102DE0000068C00748B9FFE742F20841C4F2010198
:102DF000086840F001000860FFE7704742F20841B0
:102E0000C4F20101086820F001000860704700BFAB
:102E100042F20841C4F20101086840F0080008606D
:102E2000FFE742F20840C4F20100006800070028F2
:102E300001D5FFE7F5E742F20841C4F20101086855
:102E400040F004000860FFE742F20840C4F20100CD
:102E500000684007002801D5FFE7F5E7704700BF8D
:102E600042F20841C4F20101086840F48070086031
:102E7000704700BF42F20841C4F20101086820F423
:102E800080700860704700BF42F20841C4F201013F
:102E9000086840F400000860704700BF42F2084133
:102EA000C4F20101086820F400000860704700BF08
:102EB00042F20841C4F20101086840F080700860E5
:102EC000704700BF42F20841C4F20101086820F0D7
:102ED00080700860704700BF82B08DF807008DF8E1
:102EE000061042F20441C4F20101086820F4C05007
:102EF00008609DF8070001460091012808D0FFE70F
:102F0000009802281DD0FFE70098042822D022E074
:102F100042F20441C4F20101086820F460400860F4
:102F20009DF806204EF20000CFF6FF7000EB423015
:102F300082B2086810430860086840F400600860C6
:102F40000AE042F20441C4F20101086840F48050F2
:102F5000086001E0FFE7FFE702B0704782B0019030
:102F60008DF803109DF8030068B3FFE79DF8050096
:102F7000C00748B1FFE742F20441C4F2010108680A
:102F800040F480700860FFE79DF8050040070028C6
:102F900009D5FFE742F20441C4F20101086840F498
:102FA00080600860FFE79DF804008007002809D5CD
:102FB000FFE742F20841C4F20101086840F0020054
:102FC0000860FFE72CE09DF80500C00748B1FFE767
:102FD00042F20441C4F20101086820F480700860E4
:102FE000FFE79DF805004007002809D5FFE742F2FA
:102FF0000441C4F20101086820F480600860FFE722
:103000009DF804008007002809D5FFE742F2084137
:10301000C4F20101086820F002000860FFE7FFE742
:1030200002B0704781B00090009848B1FFE742F2CB
:103030000841C4F20101086840F40060086008E03B
:1030400042F20841C4F20101086820F400600860FF
:10305000FFE701B0704700BF83B08DF80B0001910E
:103060009DF80B0001460091012804D0FFE700986D
:10307000022814D027E042F22C41C4F20101086872
:1030800020F470000860019A0020CFF6F07000EB89
:10309000025000F4700208681043086014E042F225
:1030A0003841C4F20101086820F440100860019A18
:1030B0000020CFF6F07000EB025000F440120868D8
:1030C0001043086000E0FFE703B0704784B08DF85C
:1030D0000F008DF80E1002929DF80E00122804D1F8
:1030E000FFE700208DF80E00FFE79DF80F00052890
:1030F0001ED8FFE742F23441C4F201010868019092
:103100009DF80F0000EB80021F2000FA02F20198E8
:10311000904301909DF80E009DF80F2002EB820273
:1031200000FA02F2019810430190019808604EE005
:103130009DF80F000B2821D8FFE742F23041C4F27E
:103140000101086801909DF80F0000EB8000A0F1DC
:103150001E021F2000FA02F20198904301909DF890
:103160000E009DF80F2002EB82021E3A00FA02F2D6
:103170000198104301900198086027E09DF80F0026
:103180000F2821D8FFE742F22C41C4F20101086860
:1031900001909DF80F0000EB8000A0F13C021F2081
:1031A00000FA02F20198904301909DF80E009DF8FC
:1031B0000F2002EB82023C3A00FA02F2019810431F
:1031C00001900198086000E0FFE7FFE7FFE79DF846
:1031D0000E0009281DD8FFE742F21041C4F2010198
:1031E000086800909DF80E0000EB4002072000FAEE
:1031F00002F200989043009002989DF80E2002EB96
:10320000420200FA02F20098104300900098086011
:1032100026E09DF80E00112820D8FFE742F20C416D
:10322000C4F20101086800909DF80E0000EB400018
:10323000A0F11E02072000FA02F2009890430090CD
:1032400002989DF80E2002EB42021E3A00FA02F2AA
:103250000098104300900098086000E0FFE7FFE747
:1032600004B0704785B08DF813008DF812100392EA
:1032700042F23841C4F201010868C0F301508DF8F0
:103280000B00086801909DF80B009DF81320801A30
:1032900000EB8000C0F10F021F2000FA02F201983B
:1032A000904301909DF812009DF80B209DF813307B
:1032B000D21A02EB8202C2F10F0200FA02F2019866
:1032C00010430190019808609DF8120009281DD84C
:1032D000FFE742F21041C4F20101086800909DF836
:1032E000120000EB4002072000FA02F2009890431F
:1032F000009003989DF8122002EB420200FA02F2BD
:103300000098104300900098086026E09DF8120095
:10331000122820D8FFE742F20C41C4F201010868EC
:1033200000909DF8120000EB4000A0F11E02072063
:1033300000FA02F200989043009003989DF8122042
:1033400002EB42021E3A00FA02F20098104300908B
:103350000098086000E0FFE7FFE705B0704700BF96
:1033600083B08DF80B00ADF808100020009042F2F9
:103370003840C4F201000068C0F301508DF8070026
:103380009DF807109DF80B00401A0330009000983C
:1033900003280ED8FFE7009880000090BDF80800D1
:1033A0006FF31F30009942F21442C4F201028850B8
:1033B000FFE703B0704700BF81B08DF803008DF8C0
:1033C00002109DF80200F0B1FFE79DF80300C0076E
:1033D00048B1FFE742F20841C4F20101086840F435
:1033E00080100860FFE79DF803008007002809D5DA
:1033F000FFE742F20841C4F20101086840F40040CE
:103400000860FFE71DE09DF80300C00748B1FFE733
:1034100042F20841C4F20101086820F480100860FB
:10342000FFE79DF803008007002809D5FFE742F277
:103430000841C4F20101086820F400400860FFE779
:10344000FFE701B0704700BF83B08DF80B0001911A
:103450009DF80B0001460091012804D0FFE7009879
:1034600002280DD019E042F20841C4F201010868B7
:1034700020F460200860019A0868104308600DE09D
:1034800042F20841C4F20101086820F4E0400860FB
:10349000019A08681043086000E0FFE703B0704736
:1034A00081B08DF803009DF80300C00748B1FFE725
:1034B00042F20841C4F20101086840F4800008604B
:1034C000FFE79DF803008007002809D5FFE742F2D7
:1034D0000841C4F20101086840F400100860FFE7E9
:1034E00001B0704742F24C40C4F20100006880B263
:1034F000704700BF83B08DF80B009DF80B000146AC
:103500000091032820D80099DFE801F00209101784
:1035100042F23C40C4F201000068019017E042F220
:103520004040C4F201000068019010E042F24440C3
:10353000C4F201000068019009E042F24840C4F280
:1035400001000068019002E000200190FFE7BDF853
:10355000040003B0704700BF82B0019000208DF8D6
:10356000030042F20040C4F20100006801990842E1
:1035700004D0FFE701208DF80300FFE79DF803006A
:1035800002B0704781B00090009A42F20041C4F24C
:10359000010108689043086001B0704784B003904F
:1035A00000208DF80B0003980090012808D0FFE759
:1035B000009802281DD0FFE70098042832D04AE086
:1035C00042F20040C4F20100006800F001000190E6
:1035D00042F20440C4F2010000684006002807D50A
:1035E000FFE7019820B1FFE701208DF80B00FFE70E
:1035F00032E042F20040C4F20100006800F0020034
:10360000019042F20440C4F20100006880060028E4
:1036100007D5FFE7019820B1FFE701208DF80B00E7
:10362000FFE719E042F20040C4F20100006800F038
:103630000400019042F20440C4F201000068000658
:10364000002807D5FFE7019820B1FFE701208DF89A
:103650000B00FFE700E0FFE79DF80B0004B07047A8
:1036600081B00090009A42F20041C4F20101086862
:103670009043086001B0704781B000909DF8000051
:10368000C00748B1FFE742F20441C4F201010868F3
:1036900040F040000860FFE79DF800008007002828
:1036A00009D5FFE742F20441C4F20101086840F085
:1036B00020000860FFE79DF800004007002809D5BA
:1036C000FFE742F20441C4F20101086840F08000C3
:1036D0000860FFE701B0704781B000909DF80000DE
:1036E000C00748B1FFE742F20441C4F20101086893
:1036F00020F040000860FFE79DF8000080070028E8
:1037000009D5FFE742F20441C4F20101086820F044
:1037100020000860FFE79DF800004007002809D559
:10372000FFE742F20441C4F20101086820F0800082
:103730000860FFE701B0704781B08DF8030042F2E6
:103740000441C4F2010108684FF6E052CFF63F721F
:10375000104008609DF8032008681043086008685E
:1037600040F20022C0F2C0021043086001B070476E
:1037700082B08DF8070042F20441C4F201010868EA
:103780004FF6FF52CFF63F72104008609DF80700D9
:1037900001460091012808D0FFE7009802280DD0CB
:1037A000FFE70098032812D01AE042F20441C4F265
:1037B0000101086840F40000086012E042F2044190
:1037C000C4F20101086840F48000086009E042F298
:1037D0000441C4F20101086840F44000086000E0C0
:1037E000FFE702B0704700BF42F20441C4F201019A
:1037F00008684FF6E052CFF63F72104008607047FD
:1038000081B0ADF80200ADF80010BDF802006FF312
:103810001F3042F22841C4F201010860BDF80000E7
:103820006FF31F3042F22441C4F20101086001B07D
:103830007047000081B08DF803009DF8030000EB95
:1038400080020821C4F2020151F8220020F0010098
:1038500041F822009DF8030000EB8002002041F8AF
:1038600022009DF8031001EB81020C21C4F2020139
:1038700041F822009DF8031001EB81021021C4F2EF
:10388000020141F822009DF8031001EB810214218E
:10389000C4F2020141F822009DF8030081000F20CC
:1038A00000FA01F20421C4F2020108681043086022
:1038B00001B0704781B00090009900200860009925
:1038C0004860009A01219160009AD060009A1061CE
:1038D000009A5161009988610099C8610099086255
:1038E00001B0704783B08DF80B000191019800681A
:1038F0009DF80B1001EB81021021C4F2020141F886
:1039000022000198C0689DF80B1001EB8102142180
:10391000C4F2020141F822000198C0699DF80B1021
:1039200001EB81020C21C4F2020141F822009DF852
:103930000B0000EB80000821C4F2020151F82000C6
:103940000090009820F47C500090019A5068136910
:10395000126A1843024300981043009000989DF8A3
:103960000B2002EB820241F822000198806870B9B6
:10397000FFE79DF80B0000EB80020821C4F2020172
:1039800051F8220040F0400041F822000DE09DF87F
:103990000B0000EB80020821C4F2020151F8220062
:1039A00020F0400041F82200FFE70198406970B91B
:1039B000FFE79DF80B0000EB80020821C4F2020132
:1039C00051F8220040F0800041F822000DE09DF8FF
:1039D0000B0000EB80020821C4F2020151F8220022
:1039E00020F0800041F82200FFE70198806970B95B
:1039F000FFE79DF80B0000EB80020821C4F20201F2
:103A000051F8220020F0100041F822000DE09DF84E
:103A10000B0000EB80020821C4F2020151F82200E1
:103A200040F0100041F82200FFE703B0704700BFEC
:103A300081B08DF803009DF8030000EB800208219F
:103A4000C4F2020151F8220040F0200041F82200A7
:103A500001B0704781B08DF803009DF8030000EBC2
:103A600080020821C4F2020151F8220020F0200057
:103A700041F8220001B0704781B08DF803009DF835
:103A8000030000EB80020821C4F2020151F8220079
:103A900040F4804041F8220001B0704781B08DF8B9
:103AA00003009DF8030000EB80020821C4F202012C
:103AB00051F8220020F4804041F8220001B0704704
:103AC00081B08DF803009DF8030000EB800208210F
:103AD000C4F2020151F8220040F0010041F8220036
:103AE00001B0704781B08DF803009DF8030000EB32
:103AF00080020821C4F2020151F8220020F00100E6
:103B000041F8220001B0704782B08DF807000091A3
:103B100000989DF8071001EB81021021C4F2020108
:103B200041F8220002B0704782B08DF80700009182
:103B300000989DF8071001EB81021421C4F20201E4
:103B400041F8220002B0704782B08DF80700009162
:103B500000989DF8071001EB81020C21C4F20201CC
:103B600041F8220002B0704781B08DF803009DF843
:103B7000030000EB80010C20C4F2020050F8210089
:103B800001B0704783B08DF80B0001919DF80B00D8
:103B900000EB80000821C4F2020151F820000090DF
:103BA000009820F440500090019A00981043009033
:103BB00000989DF80B2002EB820241F8220003B02E
:103BC000704700BF83B08DF80B0001919DF80B008A
:103BD00000EB80000821C4F2020151F8200000909F
:103BE000009820F440600090019A009810430090E3
:103BF00000989DF80B2002EB820241F8220003B0EE
:103C0000704700BF83B08DF80B0001919DF80B0049
:103C100000EB80000821C4F2020151F8200000905E
:103C2000009820F440700090019A00981043009092
:103C300000989DF80B2002EB820241F8220003B0AD
:103C4000704700BF81B08DF803009DF8030000EBC2
:103C500080020821C4F2020151F8220040F08000E5
:103C600041F8220001B0704781B08DF803009DF843
:103C7000030000EB80020821C4F2020151F8220087
:103C800020F0800041F8220001B0704781B08DF82B
:103C900003009DF8030000EB80020821C4F202013A
:103CA00051F8220040F0400041F8220001B0704776
:103CB00081B08DF803009DF8030000EB800208211D
:103CC000C4F2020151F8220020F0400041F8220025
:103CD00001B0704782B08DF807000091009870B96C
:103CE000FFE79DF8070000EB80020821C4F2020103
:103CF00051F8220020F0100041F822000DE09DF85C
:103D0000070000EB80020821C4F2020151F82200F2
:103D100040F0100041F82200FFE702B0704700BFFA
:103D200087B08DF81A0005910020049003900F20B1
:103D300002900E2001900598013801460091072855
:103D400000F27F800099DFE801F05E047C227C7C39
:103D50007C400020C4F20200006805999DF81A20FA
:103D6000920091400840039003989DF81A10890032
:103D7000C84003909DF81A0000EB80010820C4F2AF
:103D8000020050F8210000F0020004905AE00020E8
:103D9000C4F20200006805999DF81A209200914033
:103DA0000840039003989DF81A108900C8400390BA
:103DB0009DF81A0000EB80010820C4F2020050F8C0
:103DC000210000F0040004903CE00020C4F2020056
:103DD000006805999DF81A209200914008400390D0
:103DE00003989DF81A108900C84003909DF81A00A6
:103DF00000EB80010820C4F2020050F8210000F01E
:103E0000080004901EE00020C4F20200006802993D
:103E10009DF81A20920091400840039003989DF865
:103E20001A108900C84003909DF81A0000EB800129
:103E30000820C4F2020050F82100019908400490C3
:103E400000E0FFE703980499084204D0FFE701204F
:103E50008DF81B0003E000208DF81B00FFE79DF8A4
:103E60001B0007B0704700BF82B08DF807000091BB
:103E700000989DF80710890000FA01F20421C4F2AD
:103E8000020108681043086002B0704782B08DF8E4
:103E900007000091009B9DF8070000EB80020821BD
:103EA000C4F2020151F82200184341F8220002B086
:103EB000704700BF82B08DF807000091009B9DF80D
:103EC000070000EB80020821C4F2020151F8220031
:103ED000984341F8220002B0704700BF83B08DF8CC
:103EE0000B0001910020C4F20200006801999DF8C6
:103EF0000B2092009140084204D0FFE701208DF88A
:103F0000030003E000208DF80300FFE79DF80300A5
:103F100003B0704782B08DF80700009100989DF8BB
:103F20000710890000FA01F20421C4F202010868B6
:103F30001043086002B0704742F21000C4F2020061
:103F40000068000600280FD5FFE742F20401C4F222
:103F5000020140F22310C4F26750086048F6AB102B
:103F6000CCF6EF500860FFE7704700BF42F2100147
:103F7000C4F20201086840F080000860704700BF8A
:103F800082B08DF8070042F20001C4F20201086815
:103F90000090009820F00700009000989DF80720FE
:103FA0001043086002B0704742F2FC01C4F2020103
:103FB000086840F001000860704700BF42F2FC0151
:103FC000C4F20201086820F001000860704700BFD9
:103FD00080B584B003904FF4702000F029F88DF87C
:103FE0000B009DF80B00F8B9FFE742F21001C4F294
:103FF00002010191086840F002000860039842F253
:104000001402C4F202021060086840F04000086028
:104010004FF4702000F00CF801998DF80B0008683F
:1040200020F002000860FFE79DF80B0004B080BD9F
:1040300080B584B0039001208DF80B00FFE700F0FD
:1040400009FC8DF80B00039801380390FFE79DF8F9
:104050000B1000200129019006D1FFE703980028EA
:1040600018BF01200190FFE70198C0070028E6D1A2
:10407000FFE79DF80B00012804D1FFE704208DF82D
:104080000B00FFE79DF80B0004B080BD80B582B047
:104090004FF47020FFF7CCFF8DF807009DF8070064
:1040A000C8B9FFE742F21001C4F2020100910868AA
:1040B00040F004000860086840F0400008604FF4D9
:1040C0007020FFF7B5FF00998DF80700086820F011
:1040D00004000860FFE79DF8070002B080BD00BF44
:1040E00080B584B0039002914FF47020FFF7A0FFD9
:1040F0008DF807009DF80700C0B9FFE742F21001F4
:10410000C4F202010091086840F0010008600298C2
:10411000039908604FF47020FFF78AFF00998DF82B
:104120000700086820F001000860FFE79DF807001D
:1041300004B080BD80B584B00390ADF80A104FF490
:104140007020FFF775FF8DF809009DF80900C8B9C8
:10415000FFE742F21001C4F202010191086840F049
:1041600001000860BDF80A00039908804FF4702030
:10417000FFF75EFF01998DF80900086820F0010043
:104180000860FFE79DF8090004B080BD42F210000E
:10419000C4F202000068800500280FD4FFE742F255
:1041A0000801C4F2020140F22310C4F26750086013
:1041B00048F6AB10CCF6EF500860FFE7704700BF41
:1041C00042F21001C4F20201086820F40070086095
:1041D000704700BF42F21001C4F20201086840F4C7
:1041E00000500860704700BF80B584B000F06EF8E2
:1041F00002904FF47020FFF71BFF8DF80700029824
:1042000020B9FFE7A5208DF80F000FE002980228E3
:1042100004D1FFE7BB208DF80F0006E0CC208DF81D
:104220000F0005208DF80700FFE7FFE79DF8070066
:10423000002846D1FFE742F21001C4F202010868EB
:1042400040F020000860086840F0400008604FF42B
:104250007020FFF7EDFE8DF807009DF8070000BB0A
:10426000FFE742F21001C4F202010091086820F059
:1042700020000860086840F0100008609DF80F00FA
:104280004FF60001C1F6FF7108704FF47020FFF780
:10429000CFFE00998DF80700086820F01000086034
:1042A0000EE09DF80700042809D0FFE742F2100154
:1042B000C4F20201086820F020000860FFE7FFE771
:1042C000FFE79DF8070004B080BD00BF42F21C006C
:1042D000C4F20200006800F00600704780B584B0A8
:1042E000ADF80E004FF47020FFF7A2FE8DF8060027
:1042F00000208DF80D00FFE79DF80D00052814D86B
:10430000FFE79DF80D104FF60000C1F6FF7010F8A2
:1043100011009DF80D200DF107018854FFE79DF86D
:104320000D0001308DF80D00E6E7BDF80E00C0432A
:104330008DF80B009DF80F00C0438DF80C009DF820
:10434000060000285BD1FFE742F21001C4F202012F
:10435000086840F020000860086840F040000860ED
:104360004FF47020FFF764FE8DF806009DF80600FC
:10437000D8BBFFE742F21001C4F20201086820F046
:1043800020000860086840F01000086000208DF8E8
:104390000D00FFE79DF80D0005281DD8FFE79DF8EB
:1043A0000D200DF10700805C4FF60001C1F6FF7192
:1043B00001F812004FF47020FFF73AFE8DF8060066
:1043C0009DF8060008B1FFE706E0FFE79DF80D0045
:1043D00001308DF80D00DDE742F21001C4F2020158
:1043E000086820F01000086008E042F21001C4F2F2
:1043F0000201086820F020000860FFE7FFE79DF851
:10440000060004B080BD00BF80B584B08DF80F00F9
:104410004FF47020FFF70CFE8DF8070000208DF898
:104420000E00FFE79DF80E00052813D8FFE79DF862
:104430000E104FF60000C1F6FF7010F811009DF845
:104440000E2002A98854FFE79DF80E0001308DF878
:104450000E00E7E79DF80F008DF808009DF80700B3
:1044600000285AD1FFE742F21001C4F202010868A5
:1044700040F020000860086840F0400008604FF4F9
:104480007020FFF7D5FD8DF807009DF80700D0BB21
:10449000FFE742F21001C4F20201086820F0200098
:1044A0000860086840F01000086000208DF80E00D9
:1044B000FFE79DF80E0005281CD8FFE79DF80E20A9
:1044C00002A8805C4FF60001C1F6FF7101F81200EE
:1044D0004FF47020FFF7ACFD8DF807009DF8070042
:1044E00008B1FFE706E0FFE79DF80E0001308DF808
:1044F0000E00DEE742F21001C4F20201086820F06B
:104500001000086008E042F21001C4F202010868DD
:1045100020F020000860FFE7FFE79DF8070004B0E7
:1045200080BD00BF80B584B08DF80F004FF47020BF
:10453000FFF77EFD8DF8070000208DF80E00FFE7E5
:104540009DF80E00052813D8FFE79DF80E104FF6D2
:104550000000C1F6FF7010F811009DF80E2002A9AE
:104560008854FFE79DF80E0001308DF80E00E7E754
:104570009DF80F0040F088008DF809009DF80700B5
:1045800000285AD1FFE742F21001C4F20201086884
:1045900040F020000860086840F0400008604FF4D8
:1045A0007020FFF745FD8DF807009DF80700D0BB90
:1045B000FFE742F21001C4F20201086820F0200077
:1045C0000860086840F01000086000208DF80E00B8
:1045D000FFE79DF80E0005281CD8FFE79DF80E2088
:1045E00002A8805C4FF60001C1F6FF7101F81200CD
:1045F0004FF47020FFF71CFD8DF807009DF80700B1
:1046000008B1FFE706E0FFE79DF80E0001308DF8E6
:104610000E00DEE742F21001C4F20201086820F049
:104620001000086008E042F21001C4F202010868BC
:1046300020F020000860FFE7FFE79DF8070004B0C6
:1046400080BD00BF80B584B0ADF80E004FF470207F
:10465000FFF7EEFC8DF8060000208DF80D00FFE757
:104660009DF80D00052814D8FFE79DF80D104FF6B2
:104670000000C1F6FF7010F811009DF80D200DF13B
:1046800007018854FFE79DF80D0001308DF80D00FB
:10469000E6E7BDF80E008DF809009DF80F008DF8D3
:1046A0000A009DF8060000285BD1FFE742F21001E6
:1046B000C4F20201086840F020000860086840F079
:1046C000400008604FF47020FFF7B2FC8DF8060040
:1046D0009DF80600D8BBFFE742F21001C4F20201C8
:1046E000086820F020000860086840F010000860AA
:1046F00000208DF80D00FFE79DF80D0005281DD85E
:10470000FFE79DF80D200DF10700805C4FF60001DA
:10471000C1F6FF7101F812004FF47020FFF788FC1A
:104720008DF806009DF8060008B1FFE706E0FFE7F8
:104730009DF80D0001308DF80D00DDE742F210010B
:10474000C4F20201086820F01000086008E042F29C
:104750001001C4F20201086820F020000860FFE7A1
:10476000FFE79DF8060004B080BD00BF42F21C00C8
:10477000C4F202000068C0F30720704742F21C0038
:10478000C4F202000068000C704700BF42F2200033
:10479000C4F20200006880B2704700BF81B0009090
:1047A000009A42F21001C4F2020108681043086046
:1047B00001B0704781B00090009A42F21001C4F23B
:1047C000020108689043086001B0704782B0019010
:1047D00000208DF8030042F20C00C4F202000068D1
:1047E0000199084204D0FFE701208DF80300FFE79C
:1047F0009DF8030002B0704781B00090009A42F229
:104800000C01C4F2020108681043086001B070474F
:1048100082B0019000208DF8030042F20C00C4F237
:10482000020000680199084204D0FFE701208DF8DA
:104830000300FFE79DF8030002B0704781B00090CD
:10484000009A42F20C01C4F20201086810430860A9
:1048500001B0704781B000208DF8030042F20C00D7
:10486000C4F202000068C00720B1FFE701208DF804
:1048700003001BE042F20C00C4F202000068C00614
:10488000002804D5FFE703208DF803000DE042F275
:104890000C00C4F2020000684007002804D5FFE7BE
:1048A00002208DF80300FFE7FFE7FFE79DF8030014
:1048B00001B0704743F20001C4F20001002008601B
:1048C000704700BF43F20001C4F200014AF6AA207B
:1048D0000860704743F20001C4F200014CF6CC407E
:1048E0000860704784B0ADF80C004FF6FF70C0F25E
:1048F0000F0002900020019043F20001C4F2000179
:1049000045F255500860FFE743F20C00C4F2000086
:10491000006800F004000190FFE70298411E029138
:104920000020009031B1FFE70198002818BF012056
:104930000090FFE70098C0070028E5D1FFE7019845
:1049400020B1FFE700208DF80F000CE0BDF80C004F
:104950006FF31F3043F21001C4F200010860012020
:104960008DF80F00FFE79DF80F0004B0704700BFFF
:1049700086B0ADF814008DF813104FF6FF70C0F23A
:104980000F0003900020029043F20001C4F20001E6
:1049900045F255500860FFE743F20C00C4F20000F6
:1049A000006800F001000290FFE70398411E0391A8
:1049B0000020019031B1FFE70298002818BF0120C4
:1049C0000190FFE70198C0070028E5D1FFE70298B2
:1049D00020B1FFE700208DF8170042E09DF813009A
:1049E00043F20401C4F2000108604FF6FF70C0F208
:1049F0000F000390FFE743F20C00C4F200000068D0
:104A000000F002000290FFE70398411E039100208E
:104A1000009031B1FFE70298002818BF01200090F4
:104A2000FFE70098C0070028E5D1FFE7029820B112
:104A3000FFE700208DF8170013E0BDF814006FF3B6
:104A40001F3043F20801C4F20001086043F2000184
:104A5000C4F200014AF6AA20086001208DF8170070
:104A6000FFE79DF8170006B0704700BF81B0ADF8B2
:104A7000000043F20C00C4F200000068BDF8001012
:104A8000084204D0FFE701208DF8030003E0002076
:104A90008DF80300FFE79DF8030001B070470000A8
:104AA00080B588B0079007980690B0F1904F20D05D
:104AB000FFE7069840F20041C4F60001884221D089
:104AC000FFE7069840F60001C4F60001884222D0B4
:104AD000FFE7069840F60041C4F60001884223D063
:104AE000FFE7069841F20041C4F60001884224D055
:104AF0002CE040F61120059000F04EFB059800F0E8
:104B00005FFB24E040F61220049000F045FB04987F
:104B100000F056FB1BE040F61320039000F03CFB36
:104B2000039800F04DFB12E040F61420029000F0D4
:104B300033FB029800F044FB09E040F61620019098
:104B400000F02AFB019800F03BFB00E0FFE708B013
:104B500080BD00BF87B0069005910492039306982C
:104B6000006801900698C06800900020ADF80A0027
:104B7000FFE7BDF80A000F2832D8FFE7BDF80A109A
:104B80000398C840C00720B3FFE7BDF80A00410002
:104B9000032000FA01F20199914301910599BDF8B2
:104BA0000A20520001FA02F2019911430191BDF865
:104BB0000A10490000FA01F1009888430090049817
:104BC000BDF80A10490000FA01F10098084300906E
:104BD000FFE7FFE7BDF80A000130ADF80A00C8E7BB
:104BE00001980699086000980699C86007B0704758
:104BF00086B005908DF81310039202939DF8130070
:104C0000012806D1FFE7029A0599486810434860D9
:104C100005E0029A0599486890434860FFE70598C7
:104C2000806800900020ADF80600FFE7BDF80600A0
:104C30000F2821D8FFE7BDF806100298C840C0072A
:104C400098B1FFE7BDF806004100032000FA01F12A
:104C50000098884300900398BDF80610490000FAB8
:104C600001F1009808430090FFE7FFE7BDF8060058
:104C70000130ADF80600D9E700980599886006B0C4
:104C8000704700BF82B0019000910098019988613F
:104C900002B0704782B0019000910098019988623B
:104CA00002B0704783B0029001918DF803209DF807
:104CB000030020B1FFE701980299886103E00198A1
:104CC00002998862FFE703B0704700BF82B001908D
:104CD000ADF80210BDF802000199486102B07047BA
:104CE00083B001900091019800690099084204D0B6
:104CF000FFE701208DF80B0003E000208DF80B008A
:104D0000FFE79DF80B0003B0704700BF81B0009033
:104D10000098006980B201B0704700BF83B0019075
:104D20000091019840690099084204D0FFE70120F2
:104D30008DF80B0003E000208DF80B00FFE79DF8D5
:104D40000B0003B0704700BF81B00090009840692D
:104D500080B201B0704700BF86B005900491039205
:104D60000598006A01900598406A00900020ADF80F
:104D70000A00FFE7BDF80A00072821D8FFE7BDF8C1
:104D80000A100398C840C00798B1FFE7BDF80A00B1
:104D900081000F2000FA01F10198884301900498E6
:104DA000BDF80A10890000FA01F10198084301904A
:104DB000FFE7FFE7BDF80A000130ADF80A00D9E7C8
:104DC0000820ADF80A00FFE7BDF80A000F2825D833
:104DD000FFE7BDF80A100398C840C007B8B1FFE765
:104DE000BDF80A006FF01F0101EB80020F2000FAEE
:104DF00002F20098904300900498BDF80A2001EB5D
:104E0000820100FA01F1009808430090FFE7FFE7F4
:104E1000BDF80A000130ADF80A00D5E70198059900
:104E2000086200980599486206B0704783B0029006
:104E300001914FF480300090019900980843009050
:104E400000980299C86101980299C8610098029976
:104E5000C8610298C06900900298C069009003B0D0
:104E60007047000081B0009000980021C0F2FA5114
:104E700008434EF60C51CEF20001086001B07047B5
:104E800084B08DF80F008DF80E108DF80D200020E5
:104E90000290019000904EF60C50CEF20000006897
:104EA00000F4E060B0F5E06F05D1FFE7002001906D
:104EB0000420009043E04EF60C50CEF20000006853
:104EC00000F4E060B0F5C06F05D1FFE7012001906C
:104ED0000320009032E04EF60C50CEF20000006845
:104EE00000F4E060B0F5A06F04D1FFE7022001906C
:104EF000009022E04EF60C50CEF20000006800F464
:104F0000E060B0F5806F05D1FFE70320019001203C
:104F1000009011E04EF60C50CEF20000006800F454
:104F2000E060B0F5407F05D1FFE70420019000204C
:104F3000009000E0FFE7FFE7FFE7FFE7FFE79DF8EE
:104F40000E000199C1F10401884002909DF80D0006
:104F50000099C1F104020F21D14001400298084399
:104F6000029002980001029002989DF80F104EF2F4
:104F70000042CEF2000288549DF80F2002F01F017B
:104F8000012088401C2101EAD2014EF20012CEF22B
:104F90000002885004B0704781B08DF803009DF87E
:104FA000032002F01F01012088401C2101EAD201E8
:104FB0004EF28012CEF20002885001B0704700BF5E
:104FC00082B001900091019800994FF68072C1F66D
:104FD000FF72114008434EF60851CEF200010860FE
:104FE00002B0704781B08DF803009DF803204EF6A3
:104FF0001051CEF2000108681043086001B07047FC
:1050000081B08DF803009DF803204EF61051CEF2CA
:10501000000108689043086001B0704781B00090BB
:105020000098042809D1FFE74EF21001CEF20001EA
:10503000086840F00400086008E04EF21001CEF26B
:105040000001086820F004000860FFE701B0704725
:1050500041F20001C4F20201086840F0010008605A
:10506000FFE741F20000C4F2020000688007002858
:1050700001D4FFE7F5E741F20401C4F20201086838
:105080000C22C0F6FF021040086008684FF6FF725D
:10509000CFF2C07210400860086820F44000086039
:1050A00041F20001C4F2020108684FF6FF72CFF628
:1050B000F2621040086041F22C01C4F2020108685B
:1050C00020F00F00086041F23001C4F202010868CC
:1050D00040F243129043086041F23401C4F20201ED
:1050E000086820F00100086041F20801C4F20201E2
:1050F00000200860704700BF81B0ADF80200BDF825
:10510000020000F01F02012101FA02F3810941F2BD
:105110000002C4F2020288581843885001B0704758
:1051200081B0ADF80200BDF8020000F01F020121BD
:1051300001FA02F3810941F20002C4F20202885826
:105140009843885001B0704781B0ADF80200BDF8B7
:10515000020000F01F02012101FA02F3810941F26D
:105160000002C4F2020288581843885001B0704708
:1051700081B0ADF80200BDF8020000F01F0201216D
:1051800001FA02F3810941F20002C4F202028858D6
:105190009843885001B0704781B0ADF80200BDF867
:1051A000020000F01F02012101FA02F3810941F21D
:1051B0000002C4F2020288581843885001B07047B8
:1051C00081B0ADF80200BDF8020000F01F0201211D
:1051D00001FA02F3810941F20002C4F20202885886
:1051E0009843885001B0704741F22001C4F2020197
:1051F000086840F480300860704700BF41F2200129
:10520000C4F20201086820F480300860704700BFD3
:1052100082B001900020009041F20401C4F202012A
:1052200008680090009820F0030000900198009A10
:105230001043086002B0704741F20400C4F202005B
:10524000006800F00C00704782B0019000200090D0
:1052500041F20401C4F2020108680090009820F0B5
:10526000F00000900198009A1043086002B0704767
:1052700082B001900020009041F20401C4F20201CA
:1052800008680090009820F4E06000900198009A6F
:105290001043086002B0704782B001900020009077
:1052A00041F20401C4F2020108680090009820F461
:1052B000605000900198009A1043086002B0704757
:1052C00082B08DF8070041F20401C4F202010868BF
:1052D00020F44040086041F23001C4F20201086845
:1052E00020F4807008609DF80700014600910428B2
:1052F00050D80099DFE801F0030C1B2C3D0041F26F
:105300003001C4F20201086820F48070086042E0B5
:1053100041F20401C4F202010868086041F2300160
:10532000C4F20201086840F48070086033E041F282
:105330000401C4F20201086840F48040086041F2B0
:105340003001C4F20201086840F48070086022E075
:1053500041F20401C4F20201086840F40040086010
:1053600041F23001C4F20201086840F48070086024
:1053700011E041F20401C4F20201086840F4404027
:10538000086041F23001C4F20201086840F4807004
:10539000086000E0FFE702B0704700BF81B00090F6
:1053A00041F20401C4F20201086820F440000860E0
:1053B000009A08681043086001B0704783B00290FB
:1053C00001910020009041F20401C4F2020108683A
:1053D0000090009820F0774000900098029A1043C7
:1053E000019A1043086003B0704700BF82B001907B
:1053F000009141F20401C4F2020108684FF6FF7205
:10540000CFF2C272104008600198009A0243086807
:105410001043086002B0704781B0009041F2300143
:10542000C4F20201086820F003000860009A0868CE
:105430001043086001B0704781B0009041F2300124
:10544000C4F20201086820F040000860009A086871
:105450001043086001B0704781B0009041F2200114
:10546000C4F20201086820F440700860009A0868DD
:105470001043086001B0704782B001900020009096
:1054800041F22C01C4F2020108680090009820F05B
:105490000F0000900098019A1043086002B0704716
:1054A00081B0009041F22001C4F20201086820F0AE
:1054B00018000860009A08681043086001B070473F
:1054C00081B0ADF80000BDF80000800941F2000194
:1054D000C4F202014058BDF8001001F01F01C8409D
:1054E000C00720B1FFE701208DF8030003E0002092
:1054F0008DF80300FFE79DF8030001B0704700BF7F
:1055000041F22401C4F20201086840F08070086092
:10551000704700BF81B08DF8020041F20800C4F26C
:10552000020000689DF80210084204D0FFE7012045
:105530008DF8030003E000208DF80300FFE79DF8DD
:10554000030001B0704700BF81B00090009A41F2A3
:105550000801C4F2020108681043086001B07047F6
:1055600081B0ADF80200BDF8022041F20801C4F29A
:10557000020108681043086001B0704781B0ADF8BF
:105580000200BDF8022041F20801C4F202010868DD
:105590009043086001B0704780B58AB0ADF826002E
:1055A000002008908DF81F008DF81E00BDF8260021
:1055B00001460691002866D0FFE70698102815D00E
:1055C000FFE70698182800F0D780FFE70698B0F5A7
:1055D000006F30D0FFE70698B0F5106F00F0A280A2
:1055E000FFE70698B0F5506F72D0EDE0FFE79DF849
:1055F0001E100020059039B9FFE70898B0F500604B
:1056000018BF01200590FFE70598C00748B1FFE7E4
:105610001120FFF755FF8DF81E0008980130089003
:10562000E5E71120FFF74CFF20B1FFE701208DF8DF
:105630001F00FFE7C9E0FFE79DF81E10002004905F
:1056400041B9FFE708986FF07C41401A18BF01206C
:105650000490FFE70498C00750B1FFE740F601004F
:10566000FFF72EFF8DF81E00089801300890E3E741
:1056700040F60100FFF724FF20B1FFE701208DF87D
:105680001F00FFE7A1E0FFE79DF81E100020039038
:1056900039B9FFE70898B0F5A06018BF0120039062
:1056A000FFE70398C00748B1FFE70120FFF708FFB5
:1056B0008DF81E00089801300890E5E70120FFF7FB
:1056C000FFFE20B1FFE701208DF81F00FFE77CE01F
:1056D000FFE79DF81E100020029051B9FFE70898DF
:1056E0004FF6FF71C0F20F01401A18BF012002905F
:1056F000FFE70298C00750B1FFE740F60150FFF7FF
:10570000DFFE8DF81E00089801300890E1E740F6B2
:105710000150FFF7D5FE20B1FFE701208DF81F00F3
:10572000FFE752E0FFE79DF81E100020019051B9FD
:10573000FFE708984FF6FF71C0F20F01401A18BF3B
:1057400001200190FFE70198C00750B1FFE740F644
:105750000110FFF7B5FE8DF81E0008980130089083
:10576000E1E740F60110FFF7ABFE20B1FFE70120B3
:105770008DF81F00FFE728E0FFE79DF81E100020CE
:10578000009051B9FFE708984FF6FF71C0F20F0182
:10579000401A18BF01200090FFE70098C00748B1E9
:1057A000FFE71920FFF78CFE8DF81E0008980130E6
:1057B0000890E2E71920FFF783FE20B1FFE7012000
:1057C0008DF81F00FFE700E0FFE79DF81F000AB01B
:1057D00080BD00BF81B0ADF80200BDF8020000F04E
:1057E0001F02012101FA02F3810941F20002C4F211
:1057F000020288581843885001B0704781B0ADF854
:105800000200BDF8020000F01F02012101FA02F3BC
:10581000810941F20002C4F202028858984388507C
:1058200001B0704783B0ADF80A00BDF80A00014628
:105830000091A8B3FFE70098102813D0FFE7009865
:1058400018282DD0FFE70098B0F5006F19D0FFE7BA
:105850000098B0F5106F23D0FFE70098B0F5506FB7
:105860001ED01EE041F20001C4F20201086801905E
:10587000086820F480300860019840F480200860B7
:1058800010E041F22001C4F20201086801900868AA
:1058900020F001000860019840F00400086001E079
:1058A00000E0FFE703B0704783B0ADF80A00BDF831
:1058B0000A0001460091A8B3FFE70098102813D012
:1058C000FFE7009818282DD0FFE70098B0F5006F8B
:1058D00019D0FFE70098B0F5106F23D0FFE70098CC
:1058E000B0F5506F1ED01EE041F20001C4F202017B
:1058F00008680190086820F480300860019820F45E
:105900008020086010E041F22001C4F20201086822
:105910000190086820F001000860019820F0040060
:10592000086001E000E0FFE703B0704741F20001CA
:10593000C4F20201086840F400200860704700BF0C
:1059400041F20001C4F20201086820F4002008605E
:10595000704700BF82B08DF807000020009041F230
:105960000001C4F2020108680090009820F0F800DD
:10597000009000989DF8072040EAC200086002B03D
:10598000704700BF82B08DF807000020009041F200
:105990003401C4F2020108680090009820F0F80079
:1059A000009000989DF8072040EAC200086002B00D
:1059B000704700BF41F20011C4F2020108680020E4
:1059C0000860086843F64D42C1F62B221043086078
:1059D000704700BF81B0009041F23411C4F202015F
:1059E000086820F007000860009A08681043086003
:1059F00001B0704781B0009041F23811C4F2020149
:105A0000086820F001000860009A086810430860E8
:105A100001B070479DB08DF87300002002901B907C
:105A20001A90199018901790169015901490139042
:105A30001290119010900F900E900D900C9040F2DB
:105A40000671C0F608110B9140F20121C0F203412A
:105A50000A9109900890079106900591049041F2EF
:105A60000400C4F202000068C0F381001B901B9880
:105A7000039040B1FFE7039801280AD0FFE703989D
:105A800002280CD04BE041F20020C0F27A001890BE
:105A90004BE041F20020C0F27A00189045E041F25C
:105AA0000400C4F202000168C1F38341119100684F
:105AB000C0F3C06010901098012804D1FFE711983E
:105AC0001130119003E0119802301190FFE741F27C
:105AD0000400C4F202000068C0F300400F900F9869
