:020000040800F2
:1000000090070020A9860008BD2E0008C12E000818
:10001000C52E0008C92E0008CD2E000800000000E3
:10002000000000000000000000000000D12E0008C9
:10003000D52E000800000000D92E0008992C0008D9
:10004000C3860008C3860008C3860008C38600086C
:10005000C3860008851F00088D1F0008951F000833
:10006000C3860008C92D0008C3860008452E000875
:10007000C3860008252D0008C3860008C386000833
:10008000C3860008C386000800000000B92C0008E1
:10009000C3860008C3860008C3860008C38600081C
:1000A000C3860008C3860008C3860008C38600080C
:1000B000C386000800000000C3860008000000009E
:1000C000C386000800000000C3860008C38600083D
:1000D000C3860008C3860008C3860008000000002D
:1000E0000000000000000000C3860008C38600086E
:1000F000C3860008C3860008C3860008C3860008BC
:10010000C38600080000000000000000C38600084D
:1001100000000000000000000000000000000000DF
:1001200000000000000000000000000000000000CF
:1001300000000000000000000000000000000000BF
:1001400000000000000000000000000000000000AF
:100150000000000000000000C3860008C3860008FD
:10016000C3860008C3860008DFF80CD009F01EF82B
:10017000004800477D0100089007002080B5B0B01E
:10018000002028902F9040F23821C2F20001012077
:100190002790086002F012FD02F040FD40F20000DE
:1001A000C2F20000006844F6D351C1F26201A0FB24
:1001B0000110800900F014FC279928988DF8BB10D5
:1001C000ADF8B800ADF8B600ADF8B4002C902B90A7
:1001D0002A9002F0CFF810B9FFE7FFE7FEE702F040
:1001E000C3F802F0EFF802F02BF94FF090404FF413
:1001F00000410122269205F027F9269A40F200409C
:10020000C4F60000042105F01FF94FF4964002F0F7
:100210005FFB02F0DDFA02F00BFA01F0F1FD40F2B3
:100220005220C2F20000007801F0E8FC04F01CFF4C
:1002300002F026FE2990FFE740F60000C4F6000019
:100240004FF4804105F01EF9012803D1FFE704F0C7
:100250000BFFF1E70A20259002F018FE4FF09040C6
:100260004FF40041002205F0EFF8259840F23821C4
:10027000C2F200010860FFE702F002FE40F27421C2
:10028000C2F200010968884201D2FFE7F4E702F0F8
:10029000F7FD053040F27421C2F20001086040F21F
:1002A0003030C2F200002490016801310160026820
:1002B00048F21F50C5F2EB10A2FB00108009C821C4
:1002C00000FB11200022642838BF012240F6000004
:1002D000C4F600004FF4005105F0B6F824980078F9
:1002E000C00718B9FFE702F063FEFFE740F22830CD
:1002F000C2F20000006840B1FFE700F09BFB40F253
:100300001431C2F200010860FFE740F25220C2F24D
:1003100000000078002840F0DA81FFE740F2143056
:10032000C2F20000006808F0E2FD00231A4608F05F
:10033000B5FD40B9FFE740F21430C2F2000000689A
:100340004042239006E040F21430C2F20000006800
:100350002390FFE7239808F0BCFD08F032FE00224E
:1003600022920023CBF6E07308F064FC229A44F258
:100370000003C4F28F0308F0CFFC229A0023C3F6D7
:10038000F07308F0B0FB08F02FFE2C9040F2143010
:10039000C2F20000006831280CDCFFE740F21430A4
:1003A000C2F20000006810F1310F03DBFFE700200C
:1003B00021903BE040F21430C2F20000006840F2AD
:1003C0007001C2F20001B1F90010884208DDFFE7B8
:1003D00040F27000C2F20000B0F90000209021E06D
:1003E00040F21430C2F20000006840F27001C2F224
:1003F0000001B1F900104942884209DAFFE740F2F2
:100400007000C2F20000B0F9000040421F9006E008
:1004100040F21430C2F2000000681F90FFE71F98FE
:100420002090FFE7209840422190FFE72198ADF807
:10043000B60040F22C30C2F20000006831280CDC1B
:10044000FFE740F22C30C2F20000006810F1310FDB
:1004500003DBFFE700201E903FE040F22C30C2F2A9
:100460000000006840F27001C2F20001B1F9001012
:10047000884208DDFFE740F27000C2F20000B0F9E8
:1004800000001D9021E040F22C30C2F20000006814
:1004900040F27001C2F20001B1F9001049428842F5
:1004A00009DAFFE740F27000C2F20000B0F9000084
:1004B00040421C9006E040F22C30C2F2000000687E
:1004C0001C90FFE71C981D90FFE71D9808F001FDA8
:1004D0002C9908F098FA1E90FFE71E9808F018FD76
:1004E000ADF8B400BDF9B40008F0F3FC0021C4F28B
:1004F0007A4108F030FA0021CCF2343108F083FA66
:100500000021C4F2FA4108F0B0FA0021C4F23431FB
:1005100008F021FA2B902B9808F0FAFC014649F2DA
:100520000C20C0F6000050F821002A902B980021E2
:10053000C4F2B42108F06DFC002863D1FFE7BDF9D7
:10054000B600B0F57A7F04DDFFE74FF47A701B90B8
:1005500012E0BDF9B60010F57A7F06DAFFE74FF634
:100560001840CFF6FF701A9003E0BDF9B6001A905C
:10057000FFE71A981B90FFE71B9940F2FC20C2F29C
:1005800000000180B0F9000008F0A3FC2A9908F0EF
:100590006CFA0021C4F27A4108F02DFC28B9FFE77B
:1005A0000020C4F27A40199026E040F2FC20C2F20A
:1005B0000000B0F9000008F08CFC2A9908F055FA08
:1005C0000021CCF27A4108F032FC28B9FFE7002084
:1005D000CCF27A4018900CE040F2FC20C2F200000D
:1005E000B0F9000008F075FC2A9908F03EFA18905E
:1005F000FFE718981990FFE7199808F089FCADF803
:10060000B80063E0BDF9B600B0F57A7F04DDFFE71E
:100610004FF47A70179012E0BDF9B60010F57A7FAA
:1006200006DAFFE74FF61840CFF6FF70169003E0AA
:10063000BDF9B6001690FFE716981790FFE71798D8
:10064000ADF8B8002A981590BDF9B80008F041FC43
:100650000146159808F0D7F90021C4F27A4108F054
:10066000CAFB28B9FFE70020C4F27A40149024E0C6
:100670002A981390BDF9B80008F02BFC0146139896
:1006800008F0C1F90021CCF27A4108F0D0FB28B97A
:10069000FFE70020CCF27A4012900BE02A981190EC
:1006A000BDF9B80008F015FC0146119808F0ABF947
:1006B0001290FFE712981490FFE7149808F028FCB6
:1006C00040F2FC21C2F200010880FFE74FE040F257
:1006D0001430C2F200000A90006808F008FC08908C
:1006E000099140F22C30C2F200000B90006808F033
:1006F000FEFB00220D9244F20003C4F28F030C9320
:1007000008F00AFB0D9A0023C3F6F0730E9308F06D
:10071000EAF9024608980B46099908F08BFA08F0A6
:1007200031FC01460A98ADF8B810006808F0DFFB0C
:1007300002460B980F921091006808F0D8FB0C9BB2
:100740000D9A08F0E9FA02460D980B460E9908F04A
:100750006BFA02460F980B46109908F06BFA08F0F6
:1007600011FC40F2FC21C2F200010880FFE7BDF954
:10077000B80000F027FB40F25800C2F20000006809
:1007800008F01FFC00220023C4F22C0308F06BFBCE
:1007900020B9FFE7002000F0CFF92DE040F258002B
:1007A000C2F20000006808F00CFC4FF0663246F21E
:1007B0006663C4F22A0308F056FB20B9FFE7012064
:1007C00000F0BAF917E040F25800C2F200000068E9
:1007D00008F0F7FB00220023C4F2280308F043FBD3
:1007E00020B9FFE7022000F0A7F903E0032000F0A2
:1007F000A3F9FFE7FFE7FFE740F60000C4F60000BB
:100800004FF4804104F03EFE012812D1FFE7FFE7DC
:1008100040F60000C4F600004FF4804104F032FEC0
:10082000012803D1FFE704F01FFCF1E700F002F913
:10083000FFE7BDF9B80008F05AFB00231A4608F09C
:100840002DFB28B9FFE7BDF9B8004042079003E04F
:10085000BDF9B8000790FFE70798322827DCFFE7CB
:1008600040F2FC20C2F20000B0F9000008F03FFBAB
:1008700000231A4608F012FB48B9FFE740F2FC20BB
:10088000C2F20000B0F900004042069007E040F2DA
:10089000FC20C2F20000B0F900000690FFE70698C5
:1008A000322804DCFFE79DF8BB0038B9FFE740F2CF
:1008B0008421C2F200010020086007E040F2842198
:1008C000C2F20001086801300860FFE740F28420AE
:1008D000C2F20000006843F68101C0F201018842C3
:1008E00003D3FFE700F0A6F8FFE740F20021C2F2D1
:1008F00000010120087040F29510C2F2000000785B
:1009000080B9FFE740F29610C2F20000007848B9C3
:10091000FFE740F27200C2F20000007840060028B3
:1009200007D5FFE740F20021C2F200010020087065
:10093000FFE740F20020C2F20000007800F036FA33
:1009400040F27200C2F2000000788006002822D433
:10095000FFE740F27200C2F200000490007800F05D
:10096000010240F20040C4F600000590082104F0A6
:100970006BFD049905980978C1F34002202104F029
:1009800063FD049905980978C1F380024FF48071E2
:1009900004F05AFDFFE740F27200C2F2000003903B
:1009A0000078C0F3C0024FF0904001904FF4004136
:1009B000029104F049FD01980299039A1278C2F35A
:1009C000001204F041FD039800780006002803D5CA
:1009D000FFE700F02FF8FFE704F046FBFFF74CBC01
:1009E00080B582B0009000980138B0F1807F03D3C9
:1009F000FFE70120019019E0009801384EF2140140
:100A0000CEF2000108604FF0FF300F2100F076F9C0
:100A10004EF21801CEF20001002008604EF21002E2
:100A2000CEF20002072111600190FFE7019802B0A9
:100A300080BD00BF80B584B040F22830C2F2000013
:100A4000006880B3FFE740F22830C2F2000001687E
:100A500005220029C8BF6FF004021144016000683C
:100A600008F045FA00231A4608F018FA40B9FFE7E3
:100A700040F22830C2F2000000684042029006E0D6
:100A800040F22830C2F2000000680290FFE70298AE
:100A90000B2807DBFFE740F22830C2F200000068B5
:100AA000039046E02DE040F21430C2F200000068EE
:100AB00008F01DFA00231A4608F0F0F940B9FFE7E4
:100AC00040F21430C2F2000000684042019006E09B
:100AD00040F21430C2F2000000680190FFE7019874
:100AE0000B280DDBFFE740F21430C2F20000016872
:100AF00040F22830C2F2000001600068039018E064
:100B0000FFE70020009000F051F9009840F25221D8
:100B1000C2F20001087000F055F9009A40F200405E
:100B2000C4F60000042104F08FFCFFE704F09CFAF7
:100B3000FCE7039804B080BD80B586B08DF817003F
:100B400040F27200C2F2000000788006002801D452
:100B5000FFE7D0E000208DF807009DF80720501C2B
:100B60008DF8070002A940F20340C4F6000041F8E6
:100B700022009DF80720501C8DF8070040F2054028
:100B8000C4F6000041F822009DF80720501C8DF8A3
:100B9000070040F20840C4F6000041F822009DF82A
:100BA000070003284CD1FFE702208DF806009DF9CD
:100BB0001700032823D1FFE7049921F0FF0001F07B
:100BC0000F020121914040F23032C2F20002D2F80D
:100BD00000C048F21F52C5F2EB12ACFB0232120900
:100BE000322302FB13C30022192B38BF012204F069
:100BF0002BFC9DF8060001388DF80600FFE7FFE7A3
:100C00009DF9060000281AD4FFE79DF9062002A8E6
:100C100050F8221021F0FF0001F00F03012199404C
:100C20009DF91730D21AB2FA82F2520904F00CFC84
:100C3000FFE79DF8060001388DF80600E0E75AE06E
:100C40009DF8070002281CD1FFE7029921F0FF0060
:100C500001F00F020121009191409DF8172002F050
:100C6000010204F0F1FB0099039A22F0FF0002F068
:100C70000F0291409DF8172002F0020204F0E4FBFD
:100C800038E09DF80700012833D1FFE79DF91700F0
:100C900058B9FFE7029921F0FF0001F00F0101228E
:100CA00002FA01F104F0D0FB22E09DF917004100A7
:100CB0004FF4967090FBF1F0ADF80400029921F02A
:100CC000FF0001F00F020121914040F23032C2F2E8
:100CD00000021368BDF804C0B3FBFCF202FB1C3336
:100CE0000022B3EB5C0F38BF012204F0ADFBFFE73D
:100CF000FFE7FFE7FFE706B080BD00BF82B08DF8D9
:100D0000070000919DF9070000280AD4FFE700982A
:100D100000019DF907104EF20042CEF20002885405
:100D20000BE0009800019DF8071001F00F014EF64E
:100D30001452CEF200028854FFE702B07047000060
:100D400081B0ADF80200ADF80010BDF90220BDF988
:100D5000001092FBF1F000FB1120421892FBF1F021
:100D600000FB112000B201B0704700BF80B584B015
:100D7000ADF80E00ADF80C100220C0F20100029098
:100D80004FF6FE7001900020CFF6FF700090BDF886
:100D90000E00BDF80C10401A00B20621FFF7D0FF7C
:100DA0000146684630F9110004B080BD81B08DF86D
:100DB00003009DF8030040F29711C2F20001087091
:100DC00001B0704780B588B0079040F25220C2F25F
:100DD0000000007801460691032800F29C800699E5
:100DE000DFE801F002838B9240F20000C2F20000C3
:100DF00004900068400844F6D351C1F262010591A5
:100E0000A0FB011040F3CF2008F071F8029003918D
:100E1000079808F06CF8002244F20003C4F28F0334
:100E200007F07AFF024602980B46039907F002FF8B
:100E300008F0A8F80499059A034640F23420C2F25B
:100E400000000360006809684908A1FB022141F322
:100E5000CF21884210DDFFE740F20000C2F200001F
:100E60000068400844F6D351C1F26201A0FB0110B2
:100E700040F3CF20019031E040F23420C2F2000074
:100E8000006840F20001C2F200010968490844F616
:100E9000D352C1F26202A1FB022141F3CF214942A8
:100EA000884211DAFFE740F20000C2F20000006859
:100EB000400844F6D351C1F26201A0FB011040F397
:100EC000CF204042009006E040F23420C2F2000001
:100ED00000680090FFE700980190FFE7019840F25A
:100EE0003421C2F2000108601CE00798800040F243
:100EF0003421C2F20001086014E0079840F2342166
:100F0000C2F2000108600DE0079840F23421C2F2FD
:100F10000001086006E0079840F23421C2F20001A7
:100F20000860FFE708B080BD81B08DF8030040F293
:100F30006200C2F2000000789DF80310884214D0CD
:100F4000FFE79DF8030040F26201C2F20001087061
:100F500040F29C10C2F2000000680978884040F21C
:100F60000821C2F200010860FFE701B0704700BF2E
:100F700080B5A0B000201F901E901D9040F2A420CC
:100F8000C2F20000B0F90000B0F57A7F19DAFFE78D
:100F900040F2A421C2F2000108880130088040F22A
:100FA0008810C2F20000408840F26401C2F20001E1
:100FB000B1F90020104400EBD0704008088000F028
:100FC00096BC40F2A010C2F2000000884BF650021E
:100FD000C0F21E5245F62941CCF28F2100FB0120C0
:100FE0004FEAB00045F62841C0F28F2188423DD833
:100FF000FFE740F25800C2F200001A90006807F0C4
:10100000E0FF1690179140F28810C2F200000088AD
:1010100007F068FF07F0D5FF00224CF20003C3F68B
:10102000987307F007FE4AF6FC12CDF2F12246F261
:101030004D23C3F6507307F0FDFD02461698189233
:101040000A461799199248F22B72CDF616124FF2F2
:10105000CE73C3F6EF7307F0EDFD189A199B07F0F6
:1010600042FD07F0C1FF1A990860FFE740F2A011A6
:10107000C2F2000108880130088040F28C20C2F2E0
:101080000000006840F24421C2F200010968884271
:1010900019D9FFE740F28C20C2F20000006800F589
:1010A0007A7040F24421C2F20001086040F23C2113
:1010B000C2F20001086840F24022C2F20002106051
:1010C0000020086007E040F23C21C2F200010868FD
:1010D00001300860FFE740F28810C2F2000040884B
:1010E00040F26401C2F20001B1F90010401A07F0A9
:1010F000FEFE48F23F02C9F6C9124CF69C13C3F635
:10110000C97307F097FD00231A4607F0C7FEE8B938
:10111000FFE740F28810C2F20000408840F264010C
:10112000C2F20001B1F90010401A07F0E0FE48F2E7
:101130003F02C9F6C9124CF69C13C3F6C97307F0F7
:1011400079FD81F00041149015911AE040F2881069
:10115000C2F20000408840F26401C2F20001B1F91D
:101160000010401A07F0C3FE48F23F02C9F6C91248
:101170004CF69C13C3F6C97307F05CFD14901591EF
:10118000FFE71498159907F02FFF014640F25C0025
:10119000C2F20000016000680021C4F2701107F083
:1011A00054FE78B9FFE740F29710C2F200000078D1
:1011B00040B1FFE740F23430C2F20000007801286D
:1011C0003CD1FFE740F23421C2F20001002013902D
:1011D000086040F29811C2F20001086040F2532109
:1011E000C2F2000108700E20FFF79EFE40F29C1034
:1011F000C2F20000006807F07AFE139B1A4607F05F
:101200004DFE40B9FFE740F29C10C2F200000068BA
:101210004042129006E040F29C10C2F200000068CA
:101220001290FFE71298632807DCFFE742F60040C0
:10123000C4F2010005F01CFDFFE717E042F6004094
:10124000C4F2010005F00AFD40F26300C2F20000A2
:101250000078FFF769FE40F25220C2F200000078E9
:1012600040F25321C2F200010870FFE74FF09040B6
:101270000F90012104F006F901460F9840F20D226B
:10128000C2F2000211921170022104F0FBF840F248
:101290000E21C2F200011091087040F20040C4F625
:1012A00000004FF4006104F0EDF8109A0346119825
:1012B00040F20F21C2F200010B700078127800EBAF
:1012C0004200097800EB810140F20C20C2F20000DC
:1012D0000170017849F2FA10C0F60000415C40F25A
:1012E000F420C2F200000170007838B9FFE742F63E
:1012F0000040C4F2010005F0BBFCF8E240F2A0108F
:10130000C2F20000028840F26000C2F200000188D0
:10131000B2FBF1F000FB112090B9FFE740F253203F
:10132000C2F20000007840F23421C2F200010968E4
:1013300000F0DAFC40F29811C2F200010860FFE709
:1013400040F20820C2F20000026840F26201C2F2DC
:1013500000010B7842FA03F3D21A40F29813C2F25A
:1013600000031B681A4402600068097840FA01F122
:1013700040F29C10C2F200000160006840F2F421CB
:10138000C2F2000109786B461DAA1A601FAA1EABA3
:1013900000F004FE1D9840F20001C2F2000109684D
:1013A000490844F6D352C1F26202A1FB021242F391
:1013B000CF2108446FF0090101EB9221884212D934
:1013C000FFE740F20000C2F200000068400844F667
:1013D000D351C1F26201A0FB01016FF0090000EBE3
:1013E00091200E902AE01D9840F20001C2F2000107
:1013F0000968490844F6D352C1F26202A1FB0221F6
:1014000041F3CF210844092803DCFFE70A200D90AF
:1014100011E01D9840F20001C2F20001096849087C
:1014200044F6D352C1F26202A1FB022141F3CF2163
:1014300008440D90FFE70D980E90FFE70E9A42F6D4
:101440000040C4F20100022105F038FE1E9840F26F
:101450000001C2F200010968490844F6D352C1F202
:101460006202A1FB021242F3CF2108446FF009018E
:1014700001EB9221884212D9FFE740F20000C2F24C
:1014800000000068400844F6D351C1F26201A0FB9D
:1014900001016FF0090000EB91200C902AE01E98EA
:1014A00040F20001C2F200010968490844F6D35233
:1014B000C1F26202A1FB022141F3CF2108440928B5
:1014C00003DCFFE70A200B9011E01E9840F20001B8
:1014D000C2F200010968490844F6D352C1F262021F
:1014E000A1FB022141F3CF2108440B90FFE70B98A9
:1014F0000C90FFE70C9A42F60040C4F20100012173
:1015000005F0DCFD1F9840F20001C2F200010968FD
:10151000490844F6D352C1F26202A1FB021242F31F
:10152000CF2108446FF0090101EB9221884212D9C2
:10153000FFE740F20000C2F200000068400844F6F5
:10154000D351C1F26201A0FB01016FF0090000EB71
:1015500091200A902AE01F9840F20001C2F2000197
:101560000968490844F6D352C1F26202A1FB022184
:1015700041F3CF210844092803DCFFE70A20099042
:1015800011E01F9840F20001C2F200010968490809
:1015900044F6D352C1F26202A1FB022141F3CF21F2
:1015A00008440990FFE709980A90FFE70A9A42F673
:1015B0000040C4F20100002105F080FD40F25420FB
:1015C000C2F2000007900068089040F28820C2F242
:1015D0000000007840F2F421C2F200010978FFF720
:1015E000C5FB079902460898801A086040F220302F
:1015F000C2F20000006840097C2808D8FFE740F2EA
:101600002031C2F20001086801300860FFE740F2B3
:101610005820C2F20000006840F25421C2F20001DA
:101620000968884200F0AB80FFE740F22030C2F248
:10163000000000680B28C0F09580FFE740F25420BE
:10164000C2F20000006840F25821C2F200010968AD
:10165000411A40F26C00C2F20000026840F22030F1
:10166000C2F200000368B2FBF3F251431C9140F256
:101670000832C2F200021168A1EBA1011C9B1944BF
:1016800011600068C0087C2808D8FFE740F20830E5
:10169000C2F2000000688010069002E01C980690DC
:1016A000FFE7069840F20431C2F20001086040F200
:1016B0005800C2F20000006807F083FC4BF65E227F
:1016C000C0F649424EF60233C4F2260307F0B2FADE
:1016D0000490059140F25C00C2F20000006807F03F
:1016E00070FC024604980B46059907F0A3FA07F030
:1016F00049FC800240F25421C2F20001096840F224
:101700005822C2F200021268891A4FF47A525143E9
:1017100090FBF1F140F22030C2F200000268514328
:101720001B9140F28832C2F200021168A1EBE10184
:101730001B9B194411600068C0087C2808D8FFE78B
:1017400040F28830C2F200000068C010039002E04E
:101750001B980390FFE7039840F28431C2F2000126
:101760000860FFE740F22031C2F20001086840F251
:101770002432C2F200021060002008601FE040F234
:101780002030C2F200000068B0F57A6F16D3FFE790
:1017900040F28831C2F200010020086040F284313A
:1017A000C2F20001086040F20831C2F20001086094
:1017B00040F20431C2F200010860FFE7FFE740F2A7
:1017C0001830C2F20000006880097C2808D8FFE7C2
:1017D00040F21831C2F20001086801300860FFE7EA
:1017E00040F28820C2F200000078012854D0FFE7C0
:1017F00040F2F420C2F20000007801284CD1FFE74B
:1018000040F21830C2F200000290006807F06AFB54
:1018100001464FF6EC10C4F2F84007F026F90299A1
:1018200040F20032C2F20002106040F26800C2F2E0
:10183000000000680968B0FBF1F040F20C31C2F220
:101840000001086040F28820C2F2000000780228FF
:101850000DD1FFE740F20030C2F2000001900168B4
:101860004FF0004007F0C9F80199086007E040F226
:101870000C31C2F20001086840420860FFE740F204
:101880001831C2F20001086840F21C32C2F20002B4
:1018900010600020086015E040F21830C2F200002D
:1018A0000068B0F5FA5F0CD3FFE740F20C31C2F2EA
:1018B00000010020086040F20031C2F2000108601F
:1018C000FFE7FFE740F2F420C2F20000007840F2A8
:1018D0008821C2F20001087040F25420C2F20000D8
:1018E000006840F25821C2F200010860FFE720B012
:1018F00080BD000010B588B08C4686460D980C98C7
:101900000B980A99CDF81CE0CDF818C00592049305
:10191000ADF80E10ADF80C0006984FF08F41029113
:1019200007F071F807F0F4FA0299079A1060059829
:1019300007F069F80021C4F27A41019107F095F8A7
:1019400007F0E6FA0299079A5060049807F05BF8EE
:10195000019907F058F807F0DBFA0299079A9060AE
:10196000BDF80E00079A9083BDF80C00079AD0834B
:101970000C9807F048F807F0E4FA0A4607994A621B
:1019800008620D98079988620799002048610861EC
:101990000799886108B010BD8CB00B900A9109922C
:1019A0000A980999401A40F20421C2F20001086025
:1019B0000B980068096880FB0101079106900B985D
:1019C000806AA8B1FFE740F20420C2F2000000687C
:1019D0000B99896A884243DAFFE740F20420C2F299
:1019E000000000680B99896A4942884238DDFFE7A8
:1019F0000B9940F20420C2F20000D0F800C04B68FE
:101A000008694A69C3FB0C024A6108610B980369C3
:101A10004169026A406AD21A884106DAFFE70B99E7
:101A2000086A4A6A4A61086119E00B9B1A69586999
:101A3000196AD3F824C04B424FF0000161EB0C014E
:101A4000D21A88410ADAFFE70B99086A4B6A4242C8
:101A50004FF0000098410A614861FFE7FFE704E0AA
:101A60000B99002048610861FFE70B9908694969F3
:101A70000591049040F20420C2F2000000680B9926
:101A80008969401A40F2B011C2F2000108600B9857
:101A90008068096880FB010103910290069907980C
:101AA000049B059AC9185041029B039AC9185041DA
:101AB00000910190079840F2B421C2F20001086041
:101AC000069840F2B821C2F200010860059840F281
:101AD0007C21C2F200010860049840F28021C2F229
:101AE00000010860039840F2A811C2F200010860EA
:101AF000029840F2AC11C2F200010860DDF81A1041
:101B000040F2B020C2F200000160DDF8121040F295
:101B10007822C2F200021160DDF80A3040F2A4110E
:101B2000C2F200010B6000681268104409680144A9
:101B300040F2AC20C2F20000016000680B99B1F9DC
:101B40001E10884209DDFFE70B98B0F91E0040F235
:101B5000AC21C2F20001086014E040F2AC20C2F2F5
:101B6000000000680B99B1F91C10884209DAFFE700
:101B70000B98B0F91C0040F2AC21C2F200010860E1
:101B8000FFE7FFE7DDF8021040F2A820C2F20000F4
:101B9000016000680B99B1F91E10884209DDFFE76A
:101BA0000B98B0F91E0040F2A821C2F200010860B3
:101BB00014E040F2A820C2F2000000680B99B1F9CD
:101BC0001C10884209DAFFE70B98B0F91C0040F2BC
:101BD000A821C2F200010860FFE7FFE740F20420FD
:101BE000C2F2000000680B99886140F2A820C2F29E
:101BF0000000B0F900000CB0704700BFB0B590B065
:101C00008DF83F009DF83F1040F25220C2F20000D4
:101C10000170007808B9FFE763E040F25220C2F299
:101C200000000078C0EBC00140F20400C2F20000E6
:101C300000EB81001C380E900E98089041680991C5
:101C400081680A91C1680B910069069080F000409C
:101C5000059040F20000C2F200000068400844F61F
:101C6000D351C1F26201A0FB011040F3CF2007F075
:101C700030F901460598079106F0C5FE07F048F9CE
:101C80000799024606980D9206F0BDFE07F040F94E
:101C90000799024608980C92406906F0B4FEDDF8F8
:101CA00020C009990A9A0B9BDDF830E004460D9894
:101CB000DCF81850EC46CCF80C50CCF80840CCF8C6
:101CC00004E0CCF8000040F2C020C2F20000FFF7B0
:101CD00011FE0E98008840F26001C2F200010880F7
:101CE000FFE710B0B0BD00BF80B584B08DF80D0027
:101CF00002919DF80D0001460191032835D8019904
:101D0000DFE801F0020615240298ADF80E0030E07D
:101D1000029940F20430C2F20000026840F2C02092
:101D2000C2F20000FFF738FEADF80E0021E0029984
:101D300040F28430C2F20000026840F2C020C2F2D9
:101D40000000FFF729FEADF80E0012E0029940F204
:101D50005420C2F20000026840F2C020C2F200002B
:101D6000FFF71AFEADF80E0003E00020ADF80E00FC
:101D7000FFE7BDF90E0004B080BD000080B586B05D
:101D8000059005988DF81300059820F0FF0003904A
:101D90009DF81310012088400290BDF80C00800AC5
:101DA0008DF807009DF807009DF8131004F098FBCC
:101DB00002980021022202F071FB029802F03EFC20
:101DC0009DF81300012806DCFFE705200021012211
:101DD00003F028FC11E09DF81300032806DCFFE760
:101DE00006200021012203F01DFC05E00720002150
:101DF000012203F017FCFFE7FFE7029806B080BD61
:101E000080B582B04FF4C06003F048FD4FF09040C1
:101E1000FFF7B4FF40F27C01C2F2000101910860BB
:101E20000120C4F60000FFF7A9FF0199486040F2C5
:101E30000B40C4F60000FFF7A1FF0199886002B0D3
:101E400080BD00BF80B586B000208DF81700FFE789
:101E50009DF81700022800F39380FFE79DF8171004
:101E600040F27C00C2F2000050F8210002F0F0FBCA
:101E700000287ED0FFE740F29411C2F20001012059
:101E8000087040F2A010C2F20000008840F2122157
:101E9000C2F20001098888420DDDFFE740F2A01080
:101EA000C2F20000008840F21221C2F2000109884B
:101EB000401A04900EE040F2A010C2F20000008828
:101EC00040F21221C2F200010988401A00F5803068
:101ED0000490FFE70498ADF81400BDF814000B2837
:101EE0003CDBFFE7BDF8140040F21421C2F2000110
:101EF000088040F2A010C2F20000008840F21221D7
:101F0000C2F20001088040F20C20C2F200000290F0
:101F1000007840F21021C2F2000108704FF09040AA
:101F20000090012103F0AEFA0146009801910221D0
:101F300003F0A8FA0146019800EB4100039040F23B
:101F40000040C4F600004FF4006103F09BFA0299D0
:101F50000246039800EB82000870FFE79DF8171017
:101F600040F27C00C2F2000050F8210002F066FB53
:101F7000FFE7FFE79DF8170001308DF8170067E7CE
:101F800006B080BD80B5FFF75DFF80BD80B5FFF76F
:101F900059FF80BD80B5FFF755FF80BD80B58CB07F
:101FA000DDF838C00B900A91099208930B984042D3
:101FB00040F2F821C2F2000108600A208DF81700F3
:101FC000FFE740F29411C2F200010020087040F2D5
:101FD0000C20C2F20000017849F20220C0F6000095
:101FE000415C40F21032C2F20002117040F2102146
:101FF000C2F200010978405C40F21331C2F20001E4
:10200000087040F21220C2F200000088079040F2EF
:102010001420C2F2000000880690FFE740F29410FE
:10202000C2F2000001780020039051B1FFE79DF853
:102030001700411E8DF81710002818BF01200390CB
:10204000FFE70398C0070028BBD1FFE740F210303C
:10205000C2F20000017801EB8101490040F2113227
:10206000C2F20002117090F90000C0EB0010800075
:1020700040F28C11C2F20001088040F28E11C2F2CF
:102080000001002002900880ADF8140040F21C21ED
:10209000C2F200010868A0EB5020069A10440860C4
:1020A00040F2F820C2F20000006806F020FF029B18
:1020B0001A4606F0F3FE40B9FFE740F2F820C2F2FC
:1020C000000000684042019006E040F2F820C2F2B1
:1020D000000000680190FFE701983328C0F2AC804F
:1020E000FFE740F21030C2F2000090F9000040F229
:1020F0001331C2F2000191F9001088422DD0FFE7A0
:1021000040F21030C2F2000090F9000040F21331AA
:10211000C2F2000191F90010401A06304AF6AB21D4
:10212000C2F6AA2180FB012101EBD17101EB410133
:10213000A0EB410140F21230C2F20000017090F9B0
:102140000000042808DBFFE740F21231C2F2000170
:10215000087806380870FFE7FFE740F21C20C2F25B
:1021600000000068410A40F21820C2F2000001603D
:10217000006800285FD0FFE740F21820C2F200009C
:1021800000684009182856D8FFE740F2A010C2F2B4
:10219000000000880799884209D9FFE740F2A010A3
:1021A000C2F2000000880799401A00900AE040F24D
:1021B000A010C2F2000000880799401A00F5803094
:1021C0000090FFE7009940F25020C2F20000018029
:1021D0000088C0EB0010800040F21821C2F200011C
:1021E000096800EB5100B0FBF1F140F22C20C2F283
:1021F00000000180008859281CDCFFE740F2123003
:10220000C2F2000090F9001040F22C22C2F200024B
:102210001288514340F28E12C2F20002118090F9EE
:1022200000104FF4A570002948BF4FF4C370ADF8FB
:102230001400FFE7FFE7FFE740F28C10C2F2000056
:10224000008840F28E11C2F2000109880844BDF8EE
:102250001410014440F29010C2F200000180038883
:1022600040F66130C0F2B600A3FB00214FF4B47217
:1022700001FB123340F29211C2F200010B800B8875
:1022800003F1780CACFB00E303FB12C3ADF8123092
:102290000B88F033A3FB00C000FB1230ADF8100038
:1022A00040F2F820C2F2000002680B8849F2E041D7
:1022B000C0F6000131F913305A43D213099B1A605A
:1022C0000268BDF8123031F913305A43D213089B1B
:1022D0001A600068BDF8102031F912104843C0138D
:1022E0000E9908600CB080BD80B584B00390029157
:1022F000039A22F0FF00029902F00F0301220192DB
:1023000002FA03F30022009202F0F6FF0099019A0C
:10231000039B23F0FF0003F00F0302FA03F303F023
:1023200039F804B080BD00BF80B584B0039002913D
:102330000192039B23F0FF000299019A03F00F0C16
:102340000123009303FA0CF302F0D6FF009A0399DD
:1023500021F0FF0001F00F0102FA01F3002103F068
:1023600019F804B080BD00BF80B54FF4407003F091
:102370004BF980BD80B582B040F61D1003F072FCB1
:1023800018B1FFE703F08EFCFFE740F6FF70022173
:1023900002F0C0FE012807D1FFE740F6FF7002F00F
:1023A00073FE012804D0FFE700208DF8070005E048
:1023B00002F062FE01208DF80700FFE79DF807009C
:1023C00002B080BD80B584B04FF4E16003F066FADE
:1023D00042F20000C4F20000039004F005F90398F3
:1023E00040F23C32C2F2000201920021029191803F
:1023F00011802023538040F20003C2F200031B68C7
:102400005B0844F6D35CC1F2620CA3FB0CC39B09CE
:102410009360D180117304F045FA0199039804F098
:1024200083F9029A1320032103F0FCF80398012199
:1024300004F01EFB039804F017FA04B080BD00BF3F
:1024400080B58EB040F2115003F028FA40F21250DD
:1024500003F024FA40F2135003F020FA40F2165031
:1024600003F01CFA40F20040C4F60000079002217D
:10247000089100220D924FF48053019302F03CFF2B
:10248000019B07980D9903220B9202F083FF019A9A
:102490000798089903F032F808994FF090400A9095
:1024A00001220C924FF48073029302F025FF029BED
:1024B0000A980D9A114602F06DFF029A08990A983F
:1024C00003F01CF8079808990C9A4FF400530393F3
:1024D00002F012FF039B07980D9A114602F05AFF73
:1024E000039A0798089903F009F808990A980C9A32
:1024F0004FF40073049302F0FFFE049B0A980D9AB8
:10250000114602F047FF049A08990A9802F0F6FF74
:10251000079808990C9A4FF48043059302F0ECFE5B
:10252000059B07980D9A114602F034FF059A07980B
:10253000089902F0E3FF08990A980C9A4FF4806317
:10254000069302F0D9FE069B0A980D9A114602F0F6
:1025500021FF069A08990A9802F0D0FF0798089977
:102560000C9A4FF40043099302F0C6FE0798099BAA
:102570000D9A114602F00EFF07980899099A02F089
:10258000BDFF0C9940F20340C4F60000FFF7ACFE1B
:102590000C9940F20840C4F60000FFF7A5FE0C9924
:1025A00040F20540C4F60000FFF79EFE0C990F2094
:1025B000C4F60000FFF798FE0C9940F20440C4F600
:1025C0000000FFF791FE0C9940F60D00C4F60000E4
:1025D000FFF78AFE0A980D99FFF786FE0D990120F4
:1025E000C4F60000FFF780FE0D9940F20B40C4F6E0
:1025F0000000FFF779FE0B990420C4F60000FFF7F6
:1026000073FE0B990520C4F60000FFF76DFE0C99D0
:1026100040F20240C4F60000FFF766FE0D9940F656
:102620000E00C4F60000FFF75FFE0EB080BD00BFD5
:1026300080B588B040F20B6003F030F942F60040FC
:10264000C4F20100079003F0CFFF079840F2743204
:10265000C2F2000200920021059191801180602356
:10266000538040F20003C2F200031B685B0844F68B
:10267000D35CC1F2620CA3FB0CC39B0A9360D180B4
:10268000117304F00FF90099079804F04DF8059ABA
:1026900007980221039104F07BFD059A0798012118
:1026A000069104F075FD059A0798114604F070FD37
:1026B0000399059A079804F025FD059A069907984D
:1026C00004F020FD059A0798114604F01BFD0399BC
:1026D00007987022019204F0ABFC019A06990798C2
:1026E00004F0A6FC019A0599079804F0A1FC03994F
:1026F000059A079804F0E2FC059A0699079804F0F9
:10270000DDFC059A0798114604F0D8FC0399059B57
:10271000079840F26432C2F200020292D3804FF076
:10272000080CA2F808C053814FF40073938104F0A1
:1027300009FB029A0699079804F004FB029A05998E
:10274000079804F0FFFA059A079840F24C31C2F25C
:1027500000014FF400630B604A600A614FF480434C
:10276000CB604A813C230B814A6104F047FA079809
:1027700004F084F80399069A079804F025FE069A57
:102780000798114604F020FE0599069A079804F070
:102790001BFE039907980422049204F057FE049A42
:1027A0000699079804F052FE049A0599079804F0D8
:1027B0004DFE059A0D20114602F034FF0699079848
:1027C00004F056F9079804F04FF808B080BD00BF38
:1027D00080B586B040F2096003F060F84FF4A06065
:1027E00003F05CF8032003F03DF909200121049176
:1027F0000022029202F016FF029801F0AFFA02984E
:10280000049A02210191ADF8161040F2B811C2F2FB
:102810000001886140F28813C2F20003CB60486176
:102820004FF480630B61BDF81630CB6142F24C432C
:10283000C4F201030B608A604FF4807203924A6015
:102840004FF440520A6201F0E1FA029801F084FB71
:10285000029801F0B7FB0199029801F0ABFD0298D4
:10286000BDF8161001F004FC029801F0BDFB0498BD
:10287000BDF8161000F084FE019A0298042100F0C1
:10288000B9FE019A0498052100F0B4FE029800F008
:102890005DFE0499084601F023F804984FF4602186
:1028A00001F066F800F08EFD00F0A0FD01F030FAB6
:1028B00000F026FD00F040FD00F066FD039804994D
:1028C00000F0E0FD06B080BD81B0009001B070471F
:1028D00080B58AB009904FF0904002900221069195
:1028E000002204920423089302F006FD0298049942
:1028F000089B0322019202F04DFD0298089A0121E3
:10290000079102F0FBFD0298049A069908230393AD
:1029100002F0F2FC019A0298039B049902F03AFD3E
:102920000298039A079902F0E9FD40F2117002F053
:10293000B5FF4FF4A06002F0B1FF099944F20040E6
:10294000C4F20000059005F0BBF90499059805F064
:1029500015FA0499059805F025FA0499059805F0EB
:1029600035FA0499059805F007FB0399059805F0D9
:1029700055FA0598089905F061FA059805F03AFAB4
:10298000049A06990B2002F04DFE089801F0E6F932
:10299000049A079B089840F2DC11C2F200018A6198
:1029A00040F28C3CC2F2000CC1F80CC04A610A61D2
:1029B000CB6144F2244CC4F2000CC1F800C08B601F
:1029C0004A604FF440520A6201F020FA089801F080
:1029D000C3FA089801F0F6FA0598402105F060FD69
:1029E0000699089801F0E6FC0799089801F040FB69
:1029F000089801F0F9FA0AB080BD00BF81B00090DC
:102A000001B0704780B582B0019001F067FE3020C0
:102A100002F0C4FA019801F0ADFE01F079FE02B0B7
:102A200080BD00BF81B000900098006801B0704781
:102A300080B584B00390029100208DF8070001F06A
:102A40004DFE302002F0AAFA0398029901F01AFF15
:102A500020B9FFE701208DF80700FFE701F058FEDD
:102A60009DF8070004B080BD80B584B0039002914A
:102A7000ADF806200020ADF80400FFE7BDF8040023
:102A8000BDF80610884213DAFFE70298BDF804107B
:102A9000405800900398BDF8041008440099FFF7CF
:102AA000C7FFFFE7BDF804000430ADF80400E5E718
:102AB00004B080BD80B584B003900291ADF80620CB
:102AC0000020ADF80400FFE7BDF80400BDF80610D3
:102AD000884211DAFFE70398BDF804100844FFF7B5
:102AE000A1FF0299BDF804208850FFE7BDF804005B
:102AF0000430ADF80400E7E704B080BD82B040F2D6
:102B00009021C2F20001009102200860002088801C
:102B10008DF807004FF40062CA800A814FF480529A
:102B20004A818881CA8108828DF80700FFE79DF9F4
:102B30000700012810D8FFE79DF9071040F2902008
:102B4000C2F20000014400208874FFE79DF80700EE
:102B500001308DF80700EAE702B0704780B584B015
:102B600000F018F80390039800F01CF80290039806
:102B70000299401A00F1006001900198FFF742FFAE
:102B8000019840F29021C2F200011422FFF76CFF7D
:102B900004B080BD4FF2E070C1F6FF700088800283
:102BA000704700BF81B0009000994FF40060B1F110
:102BB000011F38BF4FF4806001B0704780B584B00A
:102BC000FFF7E8FF03900398FFF7ECFF02900398EC
:102BD0000299401A00F1006001900198FFF722FF6E
:102BE000013028B9FFE7FFF789FFFFF7B7FF12E0D1
:102BF000019840F29021C2F2000100911422FFF7E7
:102C000059FF00980068022805D0FFE7FFF776FF1C
:102C1000FFF7A4FFFFE704B080BD00BF80B542F21C
:102C20000000CEF2040000686FF31F3040F2B411D0
:102C3000C2F20001086005F0A3FD41F20400C4F2F5
:102C4000020000680021C0F63C010840800C40F200
:102C5000F021C2F20001086080BD00BF80B582B0E3
:102C600000F00EF901904AF20020C0F24A400090B4
:102C7000FFE7009828B1FFE7FFE7009801380090D0
:102C8000F7E700F0FDF80199401A40F26C21C2F21A
:102C90000001086002B080BD40F28C21C2F2000148
:102CA000086801300860704740F23831C2F2000114
:102CB00000200860704700BF80B540F23830C2F293
:102CC00000000068B0F5FA6F15D9FFE740F2343024
:102CD000C2F20000007838B9FFE740F21431C2F2C6
:102CE000000100200860FFE740F23431C2F2000129
:102CF000012008700DE040F23431C2F200010020E2
:102D0000087040F23831C2F20001086801300860F2
:102D1000FFE742F20000C4F20000012103F0DAFEF6
:102D200080BD00BF80B542F60040C4F20100012121
:102D300003F0B2FE002845D0FFE740F27800C2F26F
:102D400000000178C1F101010170007890B3FFE744
:102D500040F28C20C2F20000006840F26421C2F20E
:102D600000010968884219D9FFE740F28C20C2F2BD
:102D70000000006800F57A7040F26421C2F20001A0
:102D8000086040F25C21C2F20001086840F2602253
:102D9000C2F2000210600020086007E040F25C21EF
:102DA000C2F20001086801300860FFE7012000F06E
:102DB0000BFEFFE742F60040C4F20100012103F0E0
:102DC00089FEFFE780BD00BF80B50020022101F031
:102DD0003BFAA8B3FFE740F28C20C2F20000006883
:102DE00040F22821C2F200010968884219D9FFE7A0
:102DF00040F28C20C2F20000006800F57A7040F2C8
:102E00002821C2F20001086040F22021C2F2000134
:102E1000086840F22422C2F200021060002008601C
:102E200007E040F22021C2F200010868013008608A
:102E3000FFE7FEF79DF80020022101F0A9FAFFE765
:102E400080BD00BF80B540F24C21C2F2000108688D
:102E5000013008600420022101F0F6F970B1FFE7AB
:102E600040F24821C2F2000108680130086000F019
:102E70000FF90420022101F08BFAFFE780BD00BFAB
:102E800040F28C20C2F200000068704782B00190CE
:102E900040F28C20C2F2000000680090FFE740F290
:102EA0008C20C2F2000000680099401A0199884203
:102EB00002D2FFE700BFF2E702B07047704700BFE1
:102EC000FFE7FEE7FFE7FEE7FFE7FEE7FFE7FEE7D6
:102ED000704700BF704700BF7047000080B584B0E6
:102EE000039002918DF8072000208DF80600FFE77F
:102EF0009DF806009DF80710884217DAFFE703984F
:102F000002999DF80620895C04F0A8FFFFE703986A
:102F100040F2067105F02AFB08B9FFE7F7E7FFE783
:102F20009DF8060001308DF80600E1E704B080BD91
:102F300083B0029001910020ADF80200FFE70198F4
:102F40000138019000282ED4FFE7BDF80200029955
:102F50004A1C0292097880EA0120ADF8020008209C
:102F60008DF80100FFE7BDF802000004002809D534
:102F7000FFE7BDF8021041F2210080EA4100ADF800
:102F8000020005E0BDF802004000ADF80200FFE7D6
:102F9000FFE79DF8010001388DF8010000060028C8
:102FA000E1D1FFE7CBE7BDF8020003B070470000B6
:102FB00080B5FFF765FF40F27021C2F20001096899
:102FC000401AB0F5FA7F07D9FFE740F29611C2F236
:102FD000000101200870FFE780BD00BF80B586B00A
:102FE00040F23821C2F200010868013008604AF658
:102FF000CD30ADF8090000208DF80B0040F25800EC
:10300000C2F2000000680021C4F2C821009105F05E
:10301000FAFC05F07DFF0099ADF80E0040F25C006F
:10302000C2F20000006805F0EEFC05F071FF0099A7
:10303000ADF8100040F20030C2F20000006805F068
:10304000E2FC05F065FFADF80C0040F25420C2F23E
:1030500000000068CDF8120040F23022C2F20002F7
:103060001068411C1160CDF812000DF109000190AB
:103070000D21FFF75DFF0199ADF8160044F2004005
:10308000C4F200000F22FFF729FF06B080BD00BF89
:1030900080B588B040F28C30C2F2000000788DF824
:1030A0001F0040F26820C2F20000B0F90000B0F149
:1030B000FF3F15DCFFE79DF81F002F280ED1FFE72B
:1030C00040F26821C2F2000108880130088000B295
:1030D000B0F1FF3F01DCFFE703E100E001E1FFE7C2
:1030E0009DF81F1040F26820C2F20000B0F90030D5
:1030F0005A1C028040F28802C2F20002D154B0F998
:103100000000012801D1FFE7EBE040F26820C2F2A5
:103110000000B0F9000002282DD1FFE740F288003E
:10312000C2F20000417840F26B20C2F20000017050
:1031300000780146039140B1FFE7039801280BD0C6
:10314000FFE7039802280ED014E040F26A21C2F291
:103150000001082008700DE040F26A21C2F200016F
:103160000B20087006E040F26A21C2F200010F2035
:103170000870FFE7B5E040F26820C2F20000B0F945
:10318000000040F26A21C2F200010978884201DAA7
:10319000FFE7A6E040F26820C2F20000B0F900109C
:1031A00040F28800C2F200000A1812F8021C12F85D
:1031B000012C41EA0221ADF81C10BDF81C1002914F
:1031C00040F26A21C2F2000109780239FFF7B0FE2D
:1031D00001460298884208D0FFE740F26821C2F217
:1031E00000014FF6FE7008807BE040F26821C2F2D9
:1031F00000014FF6FF70088040F28800C2F2000024
:10320000807800286CD1FFE7FFF73AFE40F270218A
:10321000C2F20001086040F26B20C2F200000078A8
:103220000146019140B1FFE7019801281FD0FFE757
:103230000198022845D04EE040F28800C2F200001A
:1032400006900698B0F9030040F21431C2F2000172
:1032500008600698407940F27201C2F200010870DD
:1032600040F29611C2F200010020087033E040F2F3
:103270008800C2F2000005900598B0F9030040F202
:103280001431C2F2000108600598B0F9050040F25F
:103290002C31C2F2000108600598C07940F2720139
:1032A000C2F2000108700598007A40F27301C2F280
:1032B0000001087040F29611C2F20001002008706F
:1032C00009E040F28800C2F2000004900498C07A3D
:1032D000FEF794FCFFE7FFF781FEFFF7E5FCFFE751
:1032E000FFE708B080BD000080B582B040F2093031
:1032F000019002F023FB019802F034FB02B080BD84
:1033000042F20840C4F201000068C00748B9FFE774
:1033100042F20841C4F20101086840F0010008606F
:10332000FFE7704742F20841C4F20101086820F04B
:1033300001000860704700BF42F20841C4F2010179
:10334000086840F008000860FFE742F20840C4F255
:10335000010000680007002801D5FFE7F5E742F209
:103360000841C4F20101086840F004000860FFE76A
:1033700042F20840C4F2010000684007002801D56D
:10338000FFE7F5E7704700BF42F20841C4F20101D0
:10339000086840F480700860704700BF42F208413E
:1033A000C4F20101086820F480700860704700BF13
:1033B00042F20841C4F20101086840F400000860CC
:1033C000704700BF42F20841C4F20101086820F4CE
:1033D00000000860704700BF42F20841C4F20101DA
:1033E000086840F080700860704700BF42F20841F2
:1033F000C4F20101086820F080700860704700BFC7
:1034000082B08DF807008DF8061042F20441C4F234
:103410000101086820F4C05008609DF807000146CB
:103420000091012808D0FFE7009802281DD0FFE78F
:103430000098042822D022E042F20441C4F20101A3
:10344000086820F4604008609DF806204EF20000F5
:10345000CFF6FF7000EB423082B20868104308607C
:10346000086840F4006008600AE042F20441C4F2D7
:103470000101086840F48050086001E0FFE7FFE7C1
:1034800002B0704782B001908DF803109DF80300E0
:1034900068B3FFE79DF80500C00748B1FFE742F2B7
:1034A0000441C4F20101086840F480700860FFE73D
:1034B0009DF805004007002809D5FFE742F20441C6
:1034C000C4F20101086840F480600860FFE79DF8DD
:1034D00004008007002809D5FFE742F20841C4F242
:1034E0000101086840F002000860FFE72CE09DF849
:1034F0000500C00748B1FFE742F20441C4F20101F0
:10350000086820F480700860FFE79DF80500400718
:10351000002809D5FFE742F20441C4F2010108681E
:1035200020F480600860FFE79DF804008007002811
:1035300009D5FFE742F20841C4F20101086820F012
:1035400002000860FFE7FFE702B0704781B000901B
:10355000009848B1FFE742F20841C4F2010108684F
:1035600040F40060086008E042F20841C4F2010142
:10357000086820F400600860FFE701B0704700BFF2
:1035800083B08DF80B0001919DF80B00014600916E
:10359000012804D0FFE70098022814D027E042F267
:1035A0002C41C4F20101086820F470000860019AFF
:1035B0000020CFF6F07000EB025000F470020868B3
:1035C0001043086014E042F23841C4F20101086877
:1035D00020F440100860019A0020CFF6F07000EB54
:1035E000025000F4401208681043086000E0FFE752
:1035F00003B0704784B08DF80F008DF80E10029262
:103600009DF80E00122804D1FFE700208DF80E006F
:10361000FFE79DF80F0005281ED8FFE742F234416E
:10362000C4F20101086801909DF80F0000EB8002D0
:103630001F2000FA02F20198904301909DF80E00BD
:103640009DF80F2002EB820200FA02F2019810436B
:103650000190019808604EE09DF80F000B2821D8DA
:10366000FFE742F23041C4F20101086801909DF881
:103670000F0000EB8000A0F11E021F2000FA02F2F2
:103680000198904301909DF80E009DF80F2002EBE9
:1036900082021E3A00FA02F201981043019001984A
:1036A000086027E09DF80F000F2821D8FFE742F2BD
:1036B0002C41C4F20101086801909DF80F0000EB55
:1036C0008000A0F13C021F2000FA02F20198904312
:1036D00001909DF80E009DF80F2002EB82023C3A0B
:1036E00000FA02F20198104301900198086000E08E
:1036F000FFE7FFE7FFE79DF80E0009281DD8FFE769
:1037000042F21041C4F20101086800909DF80E00D9
:1037100000EB4002072000FA02F20098904300906C
:1037200002989DF80E2002EB420200FA02F2009885
:10373000104300900098086026E09DF80E001128C4
:1037400020D8FFE742F20C41C4F201010868009062
:103750009DF80E0000EB4000A0F11E02072000FAC9
:1037600002F200989043009002989DF80E2002EB20
:1037700042021E3A00FA02F20098104300900098AC
:10378000086000E0FFE7FFE704B0704785B08DF800
:1037900013008DF81210039242F23841C4F2010175
:1037A0000868C0F301508DF80B00086801909DF87F
:1037B0000B009DF81320801A00EB8000C0F10F026F
:1037C0001F2000FA02F20198904301909DF8120028
:1037D0009DF80B209DF81330D21A02EB8202C2F141
:1037E0000F0200FA02F2019810430190019808605C
:1037F0009DF8120009281DD8FFE742F21041C4F2DB
:103800000101086800909DF8120000EB40020720BB
:1038100000FA02F200989043009003989DF812205D
:1038200002EB420200FA02F2009810430090009866
:10383000086026E09DF81200122820D8FFE742F227
:103840000C41C4F20101086800909DF8120000EBE1
:103850004000A0F11E02072000FA02F200989043F7
:10386000009003989DF8122002EB42021E3A00FAE3
:1038700002F20098104300900098086000E0FFE713
:10388000FFE705B0704700BF83B08DF80B00ADF8BF
:1038900008100020009042F23840C4F20100006895
:1038A000C0F301508DF807009DF807109DF80B003C
:1038B000401A03300090009803280ED8FFE70098C4
:1038C00080000090BDF808006FF31F30009942F2AD
:1038D0001442C4F201028850FFE703B0704700BFF2
:1038E00081B08DF803008DF802109DF80200F0B150
:1038F000FFE79DF80300C00748B1FFE742F2084127
:10390000C4F20101086840F480100860FFE79DF8E8
:1039100003008007002809D5FFE742F20841C4F2FE
:103920000101086840F400400860FFE71DE09DF8D1
:103930000300C00748B1FFE742F20841C4F20101A9
:10394000086820F480100860FFE79DF803008007F6
:10395000002809D5FFE742F20841C4F201010868D6
:1039600020F400400860FFE7FFE701B0704700BFA8
:1039700083B08DF80B0001919DF80B00014600917A
:10398000012804D0FFE7009802280DD019E042F288
:103990000841C4F20101086820F460200860019A1F
:1039A0000868104308600DE042F20841C4F20101CA
:1039B000086820F4E0400860019A08681043086035
:1039C00000E0FFE703B0704781B08DF803009DF879
:1039D0000300C00748B1FFE742F20841C4F2010109
:1039E000086840F480000860FFE79DF80300800746
:1039F000002809D5FFE742F20841C4F20101086836
:103A000040F400100860FFE701B0704742F24C40FC
:103A1000C4F20100006880B2704700BF83B08DF827
:103A20000B009DF80B0001460091032820D8009957
:103A3000DFE801F00209101742F23C40C4F2010035
:103A40000068019017E042F24040C4F201000068B3
:103A5000019010E042F24440C4F20100006801907D
:103A600009E042F24840C4F201000068019002E01F
:103A700000200190FFE7BDF8040003B0704700BFCD
:103A800082B0019000208DF8030042F20040C4F2A1
:103A9000010000680199084204D0FFE701208DF879
:103AA0000300FFE79DF8030002B0704781B000906B
:103AB000009A42F20041C4F2010108689043086094
:103AC00001B0704784B0039000208DF80B0003987C
:103AD0000090012808D0FFE7009802281DD0FFE7DA
:103AE0000098042832D04AE042F20040C4F20100BB
:103AF000006800F00100019042F20440C4F20100AD
:103B000000684006002807D5FFE7019820B1FFE7CD
:103B100001208DF80B00FFE732E042F20040C4F2D2
:103B20000100006800F00200019042F20440C4F27B
:103B3000010000688006002807D5FFE7019820B142
:103B4000FFE701208DF80B00FFE719E042F200408B
:103B5000C4F20100006800F00400019042F2044049
:103B6000C4F2010000680006002807D5FFE70198AD
:103B700020B1FFE701208DF80B00FFE700E0FFE731
:103B80009DF80B0004B0704781B00090009A42F29B
:103B90000041C4F2010108689043086001B0704719
:103BA00081B000909DF80000C00748B1FFE742F2E5
:103BB0000441C4F20101086840F040000860FFE7DA
:103BC0009DF800008007002809D5FFE742F2044174
:103BD000C4F20101086840F020000860FFE79DF88A
:103BE00000004007002809D5FFE742F20441C4F273
:103BF0000101086840F080000860FFE701B07047ED
:103C000081B000909DF80000C00748B1FFE742F284
:103C10000441C4F20101086820F040000860FFE799
:103C20009DF800008007002809D5FFE742F2044113
:103C3000C4F20101086820F020000860FFE79DF849
:103C400000004007002809D5FFE742F20441C4F212
:103C50000101086820F080000860FFE701B07047AC
:103C600081B08DF8030042F20441C4F201010868FA
:103C70004FF6E052CFF63F72104008609DF80320E7
:103C8000086810430860086840F20022C0F2C002D1
:103C90001043086001B0704782B08DF8070042F20F
:103CA0000441C4F2010108684FF6FF52CFF63F729B
:103CB000104008609DF8070001460091012808D0D7
:103CC000FFE7009802280DD0FFE70098032812D0E4
:103CD0001AE042F20441C4F20101086840F4000015
:103CE000086012E042F20441C4F20101086840F4A5
:103CF0008000086009E042F20441C4F20101086852
:103D000040F44000086000E0FFE702B0704700BFE9
:103D100042F20441C4F2010108684FF6E052CFF6C6
:103D20003F7210400860704781B0ADF80200ADF8F6
:103D30000010BDF802006FF31F3042F22841C4F2B8
:103D400001010860BDF800006FF31F3042F224410A
:103D5000C4F20101086001B07047000081B08DF825
:103D600003009DF8030000EB80020821C4F2020169
:103D700051F8220020F0010041F822009DF80300D4
:103D800000EB8002002041F822009DF8031001EBB7
:103D900081020C21C4F2020141F822009DF80310B7
:103DA00001EB81021021C4F2020141F822009DF8CA
:103DB000031001EB81021421C4F2020141F8220038
:103DC0009DF8030081000F2000FA01F20421C4F2E3
:103DD000020108681043086001B0704781B000908C
:103DE00000990020086000994860009A01219160C4
:103DF000009AD060009A1061009A51610099886120
:103E00000099C8610099086201B0704783B08DF8CD
:103E10000B000191019800689DF80B1001EB8102E5
:103E20001021C4F2020141F822000198C0689DF8F7
:103E30000B1001EB81021421C4F2020141F82200AF
:103E40000198C0699DF80B1001EB81020C21C4F2AE
:103E5000020141F822009DF80B0000EB80000821D0
:103E6000C4F2020151F820000090009820F47C5028
:103E70000090019A50681369126A1843024300982F
:103E80001043009000989DF80B2002EB820241F84D
:103E900022000198806870B9FFE79DF80B0000EBE5
:103EA00080020821C4F2020151F8220040F04000D3
:103EB00041F822000DE09DF80B0000EB8002082184
:103EC000C4F2020151F8220020F0400041F8220023
:103ED000FFE70198406970B9FFE79DF80B0000EB20
:103EE00080020821C4F2020151F8220040F0800053
:103EF00041F822000DE09DF80B0000EB8002082144
:103F0000C4F2020151F8220020F0800041F82200A2
:103F1000FFE70198806970B9FFE79DF80B0000EB9F
:103F200080020821C4F2020151F8220020F01000A2
:103F300041F822000DE09DF80B0000EB8002082103
:103F4000C4F2020151F8220040F0100041F82200B2
:103F5000FFE703B0704700BF81B08DF803009DF804
:103F6000030000EB80020821C4F2020151F8220094
:103F700040F0200041F8220001B0704781B08DF878
:103F800003009DF8030000EB80020821C4F2020147
:103F900051F8220020F0200041F8220001B07047C3
:103FA00081B08DF803009DF8030000EB800208212A
:103FB000C4F2020151F8220040F4804041F822008E
:103FC00001B0704781B08DF803009DF8030000EB4D
:103FD00080020821C4F2020151F8220020F480403E
:103FE00041F8220001B0704781B08DF803009DF8C0
:103FF000030000EB80020821C4F2020151F8220004
:1040000040F0010041F8220001B0704781B08DF806
:1040100003009DF8030000EB80020821C4F20201B6
:1040200051F8220020F0010041F8220001B0704751
:1040300082B08DF80700009100989DF8071001EB01
:1040400081021021C4F2020141F8220002B070473F
:1040500082B08DF80700009100989DF8071001EBE1
:1040600081021421C4F2020141F8220002B070471B
:1040700082B08DF80700009100989DF8071001EBC1
:1040800081020C21C4F2020141F8220002B0704703
:1040900081B08DF803009DF8030000EB80010C2037
:1040A000C4F2020050F8210001B0704783B08DF8CF
:1040B0000B0001919DF80B0000EB80000821C4F279
:1040C000020151F820000090009820F44050009028
:1040D000019A00981043009000989DF80B2002EB85
:1040E000820241F8220003B0704700BF83B08DF810
:1040F0000B0001919DF80B0000EB80000821C4F239
:10410000020151F820000090009820F440600090D7
:10411000019A00981043009000989DF80B2002EB44
:10412000820241F8220003B0704700BF83B08DF8CF
:104130000B0001919DF80B0000EB80000821C4F2F8
:10414000020151F820000090009820F44070009087
:10415000019A00981043009000989DF80B2002EB04
:10416000820241F8220003B0704700BF81B08DF891
:1041700003009DF8030000EB80020821C4F2020155
:1041800051F8220040F0800041F8220001B0704751
:1041900081B08DF803009DF8030000EB8002082138
:1041A000C4F2020151F8220020F0800041F8220000
:1041B00001B0704781B08DF803009DF8030000EB5B
:1041C00080020821C4F2020151F8220040F04000B0
:1041D00041F8220001B0704781B08DF803009DF8CE
:1041E000030000EB80020821C4F2020151F8220012
:1041F00020F0400041F8220001B0704782B08DF8F5
:1042000007000091009870B9FFE79DF8070000EBE8
:1042100080020821C4F2020151F8220020F01000AF
:1042200041F822000DE09DF8070000EB8002082114
:10423000C4F2020151F8220040F0100041F82200BF
:10424000FFE702B0704700BF87B08DF81A000591F4
:104250000020049003900F2002900E2001900598FA
:10426000013801460091072800F27F800099DFE8BD
:1042700001F05E047C227C7C7C400020C4F20200C1
:10428000006805999DF81A2092009140084003901B
:1042900003989DF81A108900C84003909DF81A00F1
:1042A00000EB80010820C4F2020050F8210000F069
:1042B000020004905AE00020C4F202000068059950
:1042C0009DF81A20920091400840039003989DF8B1
:1042D0001A108900C84003909DF81A0000EB800175
:1042E0000820C4F2020050F8210000F004000490FD
:1042F0003CE00020C4F20200006805999DF81A20F5
:10430000920091400840039003989DF81A1089008C
:10431000C84003909DF81A0000EB80010820C4F209
:10432000020050F8210000F0080004901EE0002078
:10433000C4F20200006802999DF81A209200914090
:104340000840039003989DF81A108900C840039014
:104350009DF81A0000EB80010820C4F2020050F81A
:10436000210001990840049000E0FFE703980499B8
:10437000084204D0FFE701208DF81B0003E0002075
:104380008DF81B00FFE79DF81B0007B0704700BFCA
:1043900082B08DF80700009100989DF80710890001
:1043A00000FA01F20421C4F2020108681043086017
:1043B00002B0704782B08DF807000091009B9DF815
:1043C000070000EB80020821C4F2020151F822002C
:1043D000184341F8220002B0704700BF82B08DF848
:1043E00007000091009B9DF8070000EB8002082168
:1043F000C4F2020151F82200984341F8220002B0B1
:10440000704700BF83B08DF80B0001910020C4F20B
:104410000200006801999DF80B209200914008422B
:1044200004D0FFE701208DF8030003E000208DF8A1
:104430000300FFE79DF8030003B0704782B08DF8DA
:104440000700009100989DF80710890000FA01F21A
:104450000421C4F2020108681043086002B07047EA
:1044600040F20041C4F201014FF07960086040F26F
:104470000441C4F201010020086040F20841C4F286
:104480000101086040F20C41C4F20101086040F2F1
:104490001041C4F201010860704700BF84B003906E
:1044A0008DF80B108DF80A20039A40F20041C4F2F7
:1044B0000101086890430860039A40F20441C4F285
:1044C0000101086890430860039A40F20841C4F271
:1044D0000101086890430860039A40F20C41C4F25D
:1044E00001010868904308609DF80B0001460191A6
:1044F00020B1FFE70198012809D011E0039A40F2AA
:104500000041C4F2010108681043086009E0039A01
:1045100040F20441C4F2010108681043086000E061
:10452000FFE79DF80A000146009140B1FFE70098BF
:10453000012815D0FFE70098022822D032E0039A24
:1045400040F20841C4F20101086810430860039A70
:1045500040F20C41C4F2010108689043086022E077
:10456000039A40F20841C4F20101086890430860D0
:10457000039A40F20C41C4F201010868104308603C
:1045800011E0039A40F20841C4F2010108681043A7
:104590000860039A40F20C41C4F20101086810431C
:1045A000086000E0FFE704B0704700BF81B00090F2
:1045B000009A40F20041C4F201010868104308600B
:1045C00001B0704781B00090009A40F20441C4F2FB
:1045D000010108681043086001B0704781B0009085
:1045E000009A40F20041C4F201010868904308605B
:1045F00001B0704781B00090009A40F20441C4F2CB
:10460000010108689043086001B0704782B00090D3
:1046100040F21440C4F2010000680099084204D03E
:10462000FFE701208DF8070003E000208DF8070068
:10463000FFE79DF8070002B0704700BF81B000900F
:10464000009840F21441C4F20101086001B07047C3
:1046500084B0029040F21440C4F201000068029954
:104660000840019040F20040C4F201000068029945
:1046700008400090019838B1FFE7009820B1FFE7AB
:1046800001208DF80F0003E000208DF80F00FFE7F8
:104690009DF80F0004B0704781B00090009840F280
:1046A0001441C4F20101086001B0704781B000906C
:1046B000009A40F21041C4F20101086810430860FA
:1046C00001B0704781B00090009A40F21041C4F2EE
:1046D000010108689043086001B0704742F2100081
:1046E000C4F202000068000600280FD5FFE742F27E
:1046F0000401C4F2020140F22310C4F267500860C2
:1047000048F6AB10CCF6EF500860FFE7704700BFEB
:1047100042F21001C4F20201086840F08000086013
:10472000704700BF82B08DF8070042F20001C4F26A
:10473000020108680090009820F00700009000989F
:104740009DF807201043086002B0704742F2FC0158
:10475000C4F20201086840F001000860704700BF21
:1047600042F2FC01C4F20201086820F00100086076
:10477000704700BF80B584B003904FF4702000F004
:1047800029F88DF80B009DF80B00F8B9FFE742F20D
:104790001001C4F202010191086840F002000860B3
:1047A000039842F21402C4F202021060086840F05A
:1047B000400008604FF4702000F00CF801998DF86B
:1047C0000B00086820F002000860FFE79DF80B006E
:1047D00004B080BD80B584B0039001208DF80B003B
:1047E000FFE700F009FC8DF80B00039801380390F7
:1047F000FFE79DF80B1000200129019006D1FFE78B
:104800000398002818BF01200190FFE70198C00716
:104810000028E6D1FFE79DF80B00012804D1FFE74F
:1048200004208DF80B00FFE79DF80B0004B080BD5D
:1048300080B582B04FF47020FFF7CCFF8DF80700F1
:104840009DF80700C8B9FFE742F21001C4F2020167
:104850000091086840F004000860086840F04000DB
:1048600008604FF47020FFF7B5FF00998DF807003E
:10487000086820F004000860FFE79DF8070002B018
:1048800080BD00BF80B584B0039002914FF47020CA
:10489000FFF7A0FF8DF807009DF80700C0B9FFE7FC
:1048A00042F21001C4F202010091086840F00100D8
:1048B00008600298039908604FF47020FFF78AFFA0
:1048C00000998DF80700086820F001000860FFE7F4
:1048D0009DF8070004B080BD80B584B00390ADF8AA
:1048E0000A104FF47020FFF775FF8DF809009DF84E
:1048F0000900C8B9FFE742F21001C4F202010191B8
:10490000086840F001000860BDF80A0003990880BB
:104910004FF47020FFF75EFF01998DF809000868D9
:1049200020F001000860FFE79DF8090004B080BD99
:1049300042F21000C4F202000068800500280FD483
:10494000FFE742F20801C4F2020140F22310C4F270
:104950006750086048F6AB10CCF6EF500860FFE7F0
:10496000704700BF42F21001C4F20201086820F44F
:1049700000700860704700BF42F21001C4F20201EB
:10498000086840F400500860704700BF80B584B0EC
:1049900000F06EF802904FF47020FFF71BFF8DF8C7
:1049A0000700029820B9FFE7A5208DF80F000FE05F
:1049B0000298022804D1FFE7BB208DF80F0006E023
:1049C000CC208DF80F0005208DF80700FFE7FFE7EA
:1049D0009DF80700002846D1FFE742F21001C4F21B
:1049E0000201086840F020000860086840F04000BC
:1049F00008604FF47020FFF7EDFE8DF807009DF87A
:104A0000070000BBFFE742F21001C4F2020100916F
:104A1000086820F020000860086840F01000086076
:104A20009DF80F004FF60001C1F6FF7108704FF4BA
:104A30007020FFF7CFFE00998DF80700086820F07E
:104A4000100008600EE09DF80700042809D0FFE779
:104A500042F21001C4F20201086820F02000086050
:104A6000FFE7FFE7FFE79DF8070004B080BD00BF48
:104A700042F21C00C4F20200006800F00600704719
:104A800080B584B0ADF80E004FF47020FFF7A2FEA1
:104A90008DF8060000208DF80D00FFE79DF80D0051
:104AA000052814D8FFE79DF80D104FF60000C1F659
:104AB000FF7010F811009DF80D200DF107018854CA
:104AC000FFE79DF80D0001308DF80D00E6E7BDF819
:104AD0000E00C0438DF80B009DF80F00C0438DF809
:104AE0000C009DF8060000285BD1FFE742F21001A0
:104AF000C4F20201086840F020000860086840F035
:104B0000400008604FF47020FFF764FE8DF8060047
:104B10009DF80600D8BBFFE742F21001C4F2020183
:104B2000086820F020000860086840F01000086065
:104B300000208DF80D00FFE79DF80D0005281DD819
:104B4000FFE79DF80D200DF10700805C4FF6000196
:104B5000C1F6FF7101F812004FF47020FFF73AFE22
:104B60008DF806009DF8060008B1FFE706E0FFE7B4
:104B70009DF80D0001308DF80D00DDE742F21001C7
:104B8000C4F20201086820F01000086008E042F258
:104B90001001C4F20201086820F020000860FFE75D
:104BA000FFE79DF8060004B080BD00BF80B584B06B
:104BB0008DF80F004FF47020FFF70CFE8DF8070002
:104BC00000208DF80E00FFE79DF80E00052813D891
:104BD000FFE79DF80E104FF60000C1F6FF7010F8C9
:104BE00011009DF80E2002A98854FFE79DF80E00E1
:104BF00001308DF80E00E7E79DF80F008DF80800F2
:104C00009DF8070000285AD1FFE742F21001C4F2D4
:104C10000201086840F020000860086840F0400089
:104C200008604FF47020FFF7D5FD8DF807009DF860
:104C30000700D0BBFFE742F21001C4F2020108688E
:104C400020F020000860086840F010000860002094
:104C50008DF80E00FFE79DF80E0005281CD8FFE731
:104C60009DF80E2002A8805C4FF60001C1F6FF718E
:104C700001F812004FF47020FFF7ACFD8DF807002B
:104C80009DF8070008B1FFE706E0FFE79DF80E007A
:104C900001308DF80E00DEE742F21001C4F202018D
:104CA000086820F01000086008E042F21001C4F229
:104CB0000201086820F020000860FFE7FFE79DF888
:104CC000070004B080BD00BF80B584B08DF80F0030
:104CD0004FF47020FFF77EFD8DF8070000208DF85F
:104CE0000E00FFE79DF80E00052813D8FFE79DF89A
:104CF0000E104FF60000C1F6FF7010F811009DF87D
:104D00000E2002A98854FFE79DF80E0001308DF8AF
:104D10000E00E7E79DF80F0040F088008DF80900CD
:104D20009DF8070000285AD1FFE742F21001C4F2B3
:104D30000201086840F020000860086840F0400068
:104D400008604FF47020FFF745FD8DF807009DF8CF
:104D50000700D0BBFFE742F21001C4F2020108686D
:104D600020F020000860086840F010000860002073
:104D70008DF80E00FFE79DF80E0005281CD8FFE710
:104D80009DF80E2002A8805C4FF60001C1F6FF716D
:104D900001F812004FF47020FFF71CFD8DF807009A
:104DA0009DF8070008B1FFE706E0FFE79DF80E0059
:104DB00001308DF80E00DEE742F21001C4F202016C
:104DC000086820F01000086008E042F21001C4F208
:104DD0000201086820F020000860FFE7FFE79DF867
:104DE000070004B080BD00BF80B584B0ADF80E00F0
:104DF0004FF47020FFF7EEFC8DF8060000208DF8D0
:104E00000D00FFE79DF80D00052814D8FFE79DF879
:104E10000D104FF60000C1F6FF7010F811009DF85C
:104E20000D200DF107018854FFE79DF80D000130BA
:104E30008DF80D00E6E7BDF80E008DF809009DF82D
:104E40000F008DF80A009DF8060000285BD1FFE7EF
:104E500042F21001C4F20201086840F0200008602C
:104E6000086840F0400008604FF47020FFF7B2FC83
:104E70008DF806009DF80600D8BBFFE742F210014E
:104E8000C4F20201086820F020000860086840F0C1
:104E90001000086000208DF80D00FFE79DF80D0060
:104EA00005281DD8FFE79DF80D200DF10700805C57
:104EB0004FF60001C1F6FF7101F812004FF47020A7
:104EC000FFF788FC8DF806009DF8060008B1FFE7A3
:104ED00006E0FFE79DF80D0001308DF80D00DDE7DD
:104EE00042F21001C4F20201086820F010000860CC
:104EF00008E042F21001C4F20201086820F020002C
:104F00000860FFE7FFE79DF8060004B080BD00BF22
:104F100042F21C00C4F202000068C0F30720704790
:104F200042F21C00C4F202000068000C704700BF8F
:104F300042F22000C4F20200006880B2704700BF55
:104F400081B00090009A42F21001C4F20201086898
:104F50001043086001B0704781B00090009A42F29F
:104F60001001C4F2020108689043086001B0704764
:104F700082B0019000208DF8030042F20C00C4F2D0
:104F8000020000680199084204D0FFE701208DF873
:104F90000300FFE79DF8030002B0704781B0009066
:104FA000009A42F20C01C4F2020108681043086042
:104FB00001B0704782B0019000208DF8030042F2EA
:104FC0000C00C4F2020000680199084204D0FFE717
:104FD00001208DF80300FFE79DF8030002B0704741
:104FE00081B00090009A42F20C01C4F202010868FC
:104FF0001043086001B0704781B000208DF80300B5
:1050000042F20C00C4F202000068C00720B1FFE7C2
:1050100001208DF803001BE042F20C00C4F20200F4
:105020000068C006002804D5FFE703208DF80300C0
:105030000DE042F20C00C4F20200006840070028B4
:1050400004D5FFE702208DF80300FFE7FFE7FFE745
:105050009DF8030001B0704743F20001C4F2000163
:1050600000200860704700BF43F20001C4F2000155
:105070004AF6AA200860704743F20001C4F200011A
:105080004CF6CC400860704784B0ADF80C004FF689
:10509000FF70C0F20F0002900020019043F2000167
:1050A000C4F2000145F255500860FFE743F20C00DE
:1050B000C4F20000006800F004000190FFE70298CD
:1050C000411E02910020009031B1FFE701980028B5
:1050D00018BF01200090FFE70098C0070028E5D125
:1050E000FFE7019820B1FFE700208DF80F000CE0EA
:1050F000BDF80C006FF31F3043F21001C4F2000141
:10510000086001208DF80F00FFE79DF80F0004B044
:10511000704700BF86B0ADF814008DF813104FF63D
:10512000FF70C0F20F0003900020029043F20001D4
:10513000C4F2000145F255500860FFE743F20C004D
:10514000C4F20000006800F001000290FFE703983D
:10515000411E03910020019031B1FFE70298002821
:1051600018BF01200190FFE70198C0070028E5D192
:10517000FFE7029820B1FFE700208DF8170042E01A
:105180009DF8130043F20401C4F2000108604FF6D9
:10519000FF70C0F20F000390FFE743F20C00C4F26F
:1051A0000000006800F002000290FFE70398411E33
:1051B00003910020009031B1FFE70298002818BF4A
:1051C00001200090FFE70098C0070028E5D1FFE725
:1051D000029820B1FFE700208DF8170013E0BDF81A
:1051E00014006FF31F3043F20801C4F2000108609D
:1051F00043F20001C4F200014AF6AA20086001202F
:105200008DF81700FFE79DF8170006B0704700BF44
:1052100081B0ADF8000043F20C00C4F20000006859
:10522000BDF80010084204D0FFE701208DF803000C
:1052300003E000208DF80300FFE79DF8030001B0B4
:105240007047000080B588B0079007980690B0F1CD
:10525000904F20D0FFE7069840F20041C4F60001CD
:10526000884221D0FFE7069840F60001C4F600010D
:10527000884222D0FFE7069840F60041C4F60001BC
:10528000884223D0FFE7069841F20041C4F60001AE
:10529000884224D02CE040F61120059000F04EFB0F
:1052A000059800F05FFB24E040F61220049000F027
:1052B00045FB049800F056FB1BE040F613200390DA
:1052C00000F03CFB039800F04DFB12E040F6142088
:1052D000029000F033FB029800F044FB09E040F636
:1052E0001620019000F02AFB019800F03BFB00E043
:1052F000FFE708B080BD00BF87B00690059104921B
:1053000003930698006801900698C06800900020FA
:10531000ADF80A00FFE7BDF80A000F2832D8FFE712
:10532000BDF80A100398C840C00720B3FFE7BDF8D6
:105330000A004100032000FA01F201999143019112
:105340000599BDF80A20520001FA02F201991143B1
:105350000191BDF80A10490000FA01F10098884354
:1053600000900498BDF80A10490000FA01F1009875
:1053700008430090FFE7FFE7BDF80A000130ADF8F1
:105380000A00C8E701980699086000980699C86065
:1053900007B0704786B005908DF813100392029302
:1053A0009DF81300012806D1FFE7029A0599486885
:1053B0001043486005E0029A0599486890434860A8
:1053C000FFE70598806800900020ADF80600FFE731
:1053D000BDF806000F2821D8FFE7BDF80610029897
:1053E000C840C00798B1FFE7BDF8060041000320A0
:1053F00000FA01F10098884300900398BDF8061068
:10540000490000FA01F1009808430090FFE7FFE728
:10541000BDF806000130ADF80600D9E700980599FF
:10542000886006B0704700BF82B00190009100987C
:105430000199886102B0704782B001900091009894
:105440000199886202B0704783B0029001918DF893
:1054500003209DF8030020B1FFE7019802998861BD
:1054600003E0019802998862FFE703B0704700BF2C
:1054700082B00190ADF80210BDF8020001994861B8
:1054800002B0704783B001900091019800690099C3
:10549000084204D0FFE701208DF80B0003E0002054
:1054A0008DF80B00FFE79DF80B0003B0704700BFBD
:1054B00081B000900098006980B201B0704700BFD1
:1054C00083B001900091019840690099084204D08E
:1054D000FFE701208DF80B0003E000208DF80B00A2
:1054E000FFE79DF80B0003B0704700BF81B000904C
:1054F0000098406980B201B0704700BF86B0059047
:10550000049103920598006A01900598406A009002
:105510000020ADF80A00FFE7BDF80A00072821D8EF
:10552000FFE7BDF80A100398C840C00798B1FFE72D
:10553000BDF80A0081000F2000FA01F101988843AC
:1055400001900498BDF80A10890000FA01F1019851
:1055500008430190FFE7FFE7BDF80A000130ADF80E
:105560000A00D9E70820ADF80A00FFE7BDF80A00F5
:105570000F2825D8FFE7BDF80A100398C840C007D8
:10558000B8B1FFE7BDF80A006FF01F0101EB800220
:105590000F2000FA02F20098904300900498BDF8A2
:1055A0000A2001EB820100FA01F100980843009003
:1055B000FFE7FFE7BDF80A000130ADF80A00D5E7C4
:1055C00001980599086200980599486206B07047ED
:1055D00083B0029001914FF48030009001990098BF
:1055E0000843009000980299C86101980299C86127
:1055F00000980299C8610298C06900900298C06939
:10560000009003B07047000081B000900098002126
:10561000C0F2FA5108434EF60C51CEF20001086078
:1056200001B0704784B08DF80F008DF80E108DF822
:105630000D2000200290019000904EF60C50CEF20A
:105640000000006800F4E060B0F5E06F05D1FFE70E
:10565000002001900420009043E04EF60C50CEF262
:105660000000006800F4E060B0F5C06F05D1FFE70E
:10567000012001900320009032E04EF60C50CEF253
:105680000000006800F4E060B0F5A06F04D1FFE70F
:1056900002200190009022E04EF60C50CEF2000065
:1056A000006800F4E060B0F5806F05D1FFE70320EB
:1056B00001900120009011E04EF60C50CEF2000057
:1056C000006800F4E060B0F5407F05D1FFE70420FA
:1056D00001900020009000E0FFE7FFE7FFE7FFE711
:1056E000FFE79DF80E000199C1F104018840029086
:1056F0009DF80D000099C1F104020F21D140014035
:1057000002980843029002980001029002989DF8C6
:105710000F104EF20042CEF2000288549DF80F2086
:1057200002F01F01012088401C2101EAD2014EF243
:105730000012CEF20002885004B0704781B08DF89C
:1057400003009DF8032002F01F01012088401C2166
:1057500001EAD2014EF28012CEF20002885001B06E
:10576000704700BF82B001900091019800994FF6F8
:105770008072C1F6FF72114008434EF60851CEF216
:105780000001086002B0704781B08DF803009DF8F9
:1057900003204EF61051CEF2000108681043086055
:1057A00001B0704781B08DF803009DF803204EF6DC
:1057B0001051CEF2000108689043086001B07047B4
:1057C00081B000900098042809D1FFE74EF2100143
:1057D000CEF20001086840F00400086008E04EF2D4
:1057E0001001CEF20001086820F004000860FFE715
:1057F00001B0704741F20001C4F20201086840F0B4
:1058000001000860FFE741F20000C4F202000068F6
:105810008007002801D4FFE7F5E741F20401C4F254
:10582000020108680C22C0F6FF02104008600868F8
:105830004FF6FF72CFF2C07210400860086820F483
:105840004000086041F20001C4F2020108684FF60E
:10585000FF72CFF6F2621040086041F22C01C4F2F0
:105860000201086820F00F00086041F23001C4F224
:105870000201086840F243129043086041F234018B
:10588000C4F20201086820F00100086041F208013A
:10589000C4F2020100200860704700BF81B0ADF87B
:1058A0000200BDF8020000F01F02012101FA02F31C
:1058B000810941F20002C4F202028858184388505C
:1058C00001B0704781B0ADF80200BDF8020000F0F1
:1058D0001F02012101FA02F3810941F20002C4F220
:1058E000020288589843885001B0704781B0ADF8E3
:1058F0000200BDF8020000F01F02012101FA02F3CC
:10590000810941F20002C4F202028858184388500B
:1059100001B0704781B0ADF80200BDF8020000F0A0
:105920001F02012101FA02F3810941F20002C4F2CF
:10593000020288589843885001B0704781B0ADF892
:105940000200BDF8020000F01F02012101FA02F37B
:10595000810941F20002C4F20202885818438850BB
:1059600001B0704781B0ADF80200BDF8020000F050
:105970001F02012101FA02F3810941F20002C4F27F
:10598000020288589843885001B0704741F22001C4
:10599000C4F20201086840F480300860704700BF1C
:1059A00041F22001C4F20201086820F4803008604E
:1059B000704700BF82B001900020009041F20401C6
:1059C000C4F2020108680090009820F003000090E3
:1059D0000198009A1043086002B0704741F2040039
:1059E000C4F20200006800F00C00704782B0019021
:1059F0000020009041F20401C4F202010868009006
:105A0000009820F0F00000900198009A1043086080
:105A100002B0704782B001900020009041F2040172
:105A2000C4F2020108680090009820F4E060009041
:105A30000198009A1043086002B0704782B001904C
:105A40000020009041F20401C4F2020108680090B5
:105A5000009820F4605000900198009A104308606C
:105A600002B0704782B08DF8070041F20401C4F221
:105A70000201086820F44040086041F23001C4F29D
:105A80000201086820F4807008609DF80700014654
:105A90000091042850D80099DFE801F0030C1B2C7A
:105AA0003D0041F23001C4F20201086820F4807028
:105AB000086042E041F20401C4F202010868086093
:105AC00041F23001C4F20201086840F480700860BD
:105AD00033E041F20401C4F20201086840F480405E
