:020000040800F2
:10000000D80A00208D4B0008C9100008CB1000084A
:10001000CD100008CF100008D1100008000000002B
:10002000000000000000000000000000D3100008E5
:10003000D510000800000000D71000088D0F000840
:10004000A74B0008A74B0008A74B0008A74B0008C8
:10005000A74B0008A74B0008A74B0008A74B0008B8
:10006000A74B000835100008A74B000875100008C2
:10007000A74B0008E10F0008A74B0008A74B00089A
:10008000A74B0008A74B000800000000A90F0008BC
:10009000A74B0008A74B0008A74B0008A74B000878
:1000A000A74B0008A74B0008A74B0008A74B000868
:1000B000A74B000800000000A74B0008000000004C
:1000C000A74B000800000000A74B0008A74B000842
:1000D000A74B0008A74B0008A74B00080000000032
:1000E0000000000000000000A74B0008A74B00081C
:1000F000A74B0008A74B0008A74B0008A74B000818
:10010000A74B00080000000000000000A74B0008FB
:1001100000000000000000000000000000000000DF
:1001200000000000000000000000000000000000CF
:1001300000000000000000000000000000000000BF
:1001400000000000000000000000000000000000AF
:100150000000000000000000A74B0008A74B0008AB
:10016000A74B0008A74B0008DFF80CD005F058FAA1
:10017000004800477D010008D80A0020234C0120D8
:10018000606000F069FE00F08FFE4D484FF47A7118
:100190000068B0FBF1F0411E0020B0EB116F07D1F9
:1001A0001B4AF02351601B490B70906007201060C0
:1001B00000F074FB40B300F06DFB00F08BFB00F02F
:1001C000BBFB4FF4964000F053FD00F0E5FC00F05F
:1001D00037FC00F036FB207800F0A0FA03F00AF8B4
:1001E00000F060FFE1688842FAD300F05BFF053061
:1001F000E060A068411CC007A16018BF01F07EF854
:10020000012000F029F8E9E7FEE700BFA002002086
:1002100010E000E023ED00E090FBF1F202FB1100A2
:10022000084490FBF1F202FB110000B2704700BFDE
:10023000401A062100B290FBF1F101EB4101A0EB65
:1002400041000449002848BF063080B231F910004F
:10025000704700BFAC5F000801490870704700BFDD
:1002600044030020F8B5054614480078012821D041
:1002700008BB13484FF47A410068B0FBF1F004B2B8
:10028000204604F0EAFF064628460F4604F0E5FF44
:100290000C4B002204F02CFF32463B4604F0B6FE25
:1002A00005F033F86542A842C8BF05468442B8BF8E
:1002B000254600E0AD0004484562F8BDA0020020DC
:1002C000E400002000408F404403002005490A78E4
:1002D000824205D008700449CA6A02FA00F08864B4
:1002E000704700BF00000020440300202DE9F04FBC
:1002F00085B09B4E3089316D0130308100200490F3
:10030000CDE9020097480068884206D9F16C00F5F3
:100310007A70C6E91401002001E0F06C0130DFF8CA
:100320004882F0649149D8F8040004F06CFF904FC3
:1003300028B9307818B18F480078012816D10020EC
:1003400098F80010C6E90900B070F06A0E2904D0D0
:100350000E2188F800108103B164002800D54042C6
:1003600063280DD8384603F022FD09E0384603F033
:1003700019FD98F80100FFF7A9FF7F480078B070D9
:100380007E4801247E4D00F00DF9F0707D4800F0AC
:1003900009F930717C4800F005F9F178327901EB08
:1003A000800101EB42017170707178497078085CCE
:1003B000318901F053FFB071308901F0D7F8B1797C
:1003C00049B1734832890088B2FBF0F303FB102077
:1003D00038B1B06A0BE0384605B0BDE8F04F03F025
:1003E000E6BC716AB07800F0E5F9B179B06298F8CE
:1003F0000020B36C43FA02F41B1B1844B064104194
:10040000F06202AA009204AA03AB00F0F1F9DFF84F
:1004100084914FF47A4A029A4FF4FA440A25DFF89D
:1004200078B1D9F8000000F0C5F80A220A29C8BF3F
:100430000A460A38814288BF024638460221D84718
:10044000D9F80000039A00F0B5F80A220A29C8BFBB
:100450000A460A38814288BF024638460121D847F9
:10046000D9F80000049A00F0A5F80A29C8BF0D4683
:100470000A38814288BF054638462A460021D847B7
:1004800096F80690F5790621A5EB090090FBF1F1AD
:1004900001EB4101A0EB41004049002848BF063074
:1004A00080B231F91000316C0F1A706B376441095A
:1004B0007C299CBF01307063716C8F4209D1B0F50B
:1004C0007A6F1ED30020C6E90500F06106F1100026
:1004D00015E00B2810D3D8F80C20B369791AB2FBB9
:1004E000F0F2A3EBA30302FB01335143B0F57A7F93
:1004F000B36138BF99103161F06306F13400002117
:100500000160346BA0097C289CBF01343463012D49
:100510001AD0B9F1010F17D1204604F099FE014617
:100520001F4804F08EFCD8F80810F060022DB1FBD3
:10053000F4F1316219BF4842306280F00040F0604F
:10054000B4630020306305E0B4F5FA5F22BF0020F9
:10055000F0603062776486F8079005B0BDE8F08FF0
:100560004403002020030020000000200000704110
:10057000002C014018030020A00200207800002079
:10058000813300087C00002080000020C05F00084C
:1005900010000020E40000203F400008AC5F00088D
:1005A000ECF9F844006800F00F0120F0FF0004FAB5
:1005B00001F12847B0FBFAF1B0FBF4F009B21144A5
:1005C00070470000F8B50F460999044600201E4602
:1005D0001546C4E90400A0610898A1620799E18367
:1005E0000699A18300F000F904F06EFEC4E9080149
:1005F000384600F0F9F804F04EFE2060304600F076
:10060000F3F8084E314604F0EAFB04F044FEA06023
:10061000284600F0E9F8314604F013FC04F03BFEF4
:100620006060F8BD00007A442DE9F047DFF8E890FB
:10063000A1EB0208C9F80080036883FB08EC836A19
:1006400023B198451ADA5B42984517DD4468D0E932
:100650000457D0E90836C4FB08575C1BC0E90457AF
:1006600076EB070407DB00245B4264EB0606EC1A1A
:1006700077EB060407DAC0E9043606E0002300261B
:10068000C0E9043301E02B463E468469D0F808A057
:100690004FEA1E45C9E90463C9F808C0C9F80CE06F
:1006A00045EA0C45A8EB04021C0CC9F820508AFB53
:1006B000027144EA0644C9F80420C9E906173F0C50
:1006C000254447EA01416F18C9E9094113EB0E04BB
:1006D000B0F91E30C9F82C7046EB0C05CAFB024578
:1006E0009F421E4603DCB0F91C60B74201DAC9F82C
:1006F0002C60210C41EA05449C42C9F8304003DCDF
:10070000B0F91C309C4202DA1C46C9F83030C0F8FF
:10071000188020B2BDE8F0879C0300202DE9F04F3F
:1007200085B004461F480470C4B31F484FF47A4193
:100730000068B0FBF1F000B204F081FD07461B48F1
:10074000C4EBC40A394600EB8A0656F8084CA6F1F9
:10075000140B9BE8000B84F0004004F040FB04F015
:100760009AFD05462046394604F039FB04F093FD16
:10077000044656F8040C394604F031FB0B4F4A4648
:100780005B46CDE9005457F82A10CDE9020108482C
:100790004146FFF717FF36F8180C388005B0BDE862
:1007A000F08F00BFA0020020E40000201000002015
:1007B0009004002003280CD8DFE800F00C020406A7
:1007C000084802E0064800E0034802680348FFF7D3
:1007D0002BBF002108B27047840300209004002042
:1007E00058030020540300204FF08F4104F0F7BA63
:1007F000B0B54C1E0499052C1ED8DFE804F0031395
:100800000B0F0818002414601860404217E01060B5
:10081000404209E04442146000220BE000241460CE
:10082000424207E0444214601860002007E0106074
:10083000002240421A6002E0002010601860086048
:10084000B0BD7047B0B500F00F02012320F0FF05E6
:1008500003FA02F428460022234602F041FD28460E
:10086000002101222346BDE8B04002F060BDB0B5D2
:1008700000F00F03012420F0FF059C40284623468A
:1008800002F02EFD2846002101222346BDE8B0409B
:1008900002F04DBD4FF4407002F0BABD80B540F695
:1008A0001D1002F047FF08B102F050FF40F6FF7044
:1008B000022102F0C7FC012809D140F6FF7002F0C6
:1008C000A9FC012803D102F09DFC012080BD00207D
:1008D00080BD00BFB0B54FF4E16002F051FE134C93
:1008E000204603F0EDF8134A114D4FF400104FF479
:1008F000FA63002112682973B2FBF3F285E807005E
:10090000204603F09CF92046294603F029F91320DC
:100910000321002202F086FD2046012103F0E7F9C1
:100920002046BDE8B04003F07BB900BF0020004086
:10093000C8060020E4000020F8B53C4C40F21150FD
:10094000A04740F21250A04740F21350A04740F297
:100950001650A047364D00F003FB00224FF4806391
:10096000A847344E00F00CFB4FF48063B047324F81
:1009700000F0F6FA4FF48062B847304C02210022B2
:100980004FF400432046A8472046002100224FF4A0
:100990000043B047204602214FF40042B84700F020
:1009A000DFFA00224FF40073A84700F0E9FA4FF491
:1009B0000073B04700F0D4FA4FF40072B8472046F5
:1009C000022100224FF48043A84720460021002244
:1009D0004FF48043B047204602214FF48042B8478D
:1009E00000F0BEFA00224FF48073A84700F0C8FA66
:1009F0004FF48073B04700F0B3FA4FF48072B847F9
:100A00002046022100224FF40053A847204600212F
:100A100000224FF40053B047204602214FF4005209
:100A20003B4601B0BDE8F040184700BF81350008E3
:100A3000E13200082F330008A13300080004004809
:100A40002DE9F04140F20B6002F09AFD484C20463F
:100A500003F036F848484FF4FA41464D4FF000088D
:100A600000682E4685F81880B0FBF1F0C5E90480D7
:100A70004FF4C00046F80C0F204603F0E0F8204683
:100A8000314603F06DF83D4E00F072FA00F074FA52
:100A900000F06AFA3A4E00F06BFA00F06DFA00F0DE
:100AA00063FA384E204602217022B04720460121C9
:100AB0007022B047204600217022B047324E00F02D
:100AC00057FA00F059FA00F04FFA4FF0007005F1B4
:100AD0001C062E4F0221C5F826004FF40020324696
:100AE000C5F822002046B847204601213246B847C3
:100AF000204600213246B8474FF400603C2145F8BB
:100B00002C0F4FF48040C5E90181C5E90308204658
:100B10002946C5F8148003F02BF9204603F085F828
:100B20001B4D204602210122A84720460121012217
:100B3000A847204600210122A847164D2046022141
:100B40000422A847204601210422A847204600216C
:100B50000422A8470D200021002202F063FC204659
:100B6000012103F0C4F82046BDE8F04103F058B875
:100B7000002C0140B0020020E40000208540000865
:100B80004D400008094000083F400008013E0008B1
:100B90007D410008BF410008F8B540F2096002F04D
:100BA000EFFC4FF4A06002F0EBFC032002F050FDDC
:100BB0000920012100220124002502F033FC00203D
:100BC00001F084FF264927484FF44057264E022261
:100BD0004FF480630F624FF48077C1E90240002038
:100BE000C1E90435C1E90652C1E9006701F092FF8D
:100BF000002001F0C9FF002001F0E4FF00200221E5
:100C000002F0B8F80020022102F002F8002001F002
:100C1000E3FF0120012101F0BBFD00200C21022295
:100C200001F0D4FD002001F0A7FD0120012101F019
:100C30004FFE01204FF4602101F068FE01F03AFD03
:100C400001F026FF01F0F8FC01F00AFD01F01AFDA9
:100C50004FF480700121BDE8F84001F063BD00BF92
:100C60004C040020480400204C240140704700BF81
:100C7000F8B5054600F074F901220423012602F0BC
:100C80002FFB4FF09040002103220423002702F0A5
:100C90004EFB4FF090400121042202F081FB00F056
:100CA0005FF90122082302F01BFB4FF09040002166
:100CB0000322082302F03BFB4FF090400121082261
:100CC00002F06EFB40F2117002F05AFC4FF4A0608B
:100CD00002F056FC284C2946204603F0CFFC204663
:100CE000002103F0F5FC2046002103F0F9FC20462A
:100CF000002103F0FDFC2046002103F062FD2046A8
:100D0000082103F007FD2046042103F007FD2046DB
:100D100003F0F6FC0B200221002202F083FB0420EA
:100D200001F0D4FE15494FF44050C1E9186004F1B8
:100D30002400C1E91276C1E91417C1E9167741F818
:100D4000440F042001F0E6FE042001F01DFF042002
:100D500001F038FF2046402103F08FFE04200221DD
:100D600002F008F80420012101F052FF0420BDE840
:100D7000F84001F031BF00BF00440040B002002045
:100D8000704710B5044602F02BF8302002F0ECF961
:100D9000204602F057F8BDE8104002F031B8006874
:100DA0007047B0B50C46054602F01AF8302002F044
:100DB000DBF92846214602F095F8B0FA80F04409A4
:100DC00002F01EF82046B0BDF8B5064614460D46A2
:100DD000002087B2A74228BFF8BDE959B819FFF72C
:100DE000E0FF381DF5E710B500239BB2934228BF02
:100DF00010BD1C58CC500433F7E700BF0748002152
:100E0000FF2281804FF47A7101600621182902D0F7
:100E100042540131FAE70021017670477404002042
:100E200010B50A480A490088412838BF01F5806199
:100E300001EB802000F100642046FFF7A2FF054986
:100E400020461922BDE81040FFF7BEBFE0F7FF1FA4
:100E500000F8FFFF7404002010B510481049008806
:100E6000412838BF01F5806101EB80204FF000611F
:100E7000415801310BD00B4C00F100601922214682
:100E8000FFF7B1FF2068B0F57A7F08BF10BDFFF70C
:100E9000B5FFBDE81040FFF7C3BF00BFE0F7FF1F7D
:100EA00000F8FFFF7404002010B50848084C0068E3
:100EB0006FF31F30606003F0D7FE064840F20F2149
:100EC000006801EA9040A06010BD00BF002004E06F
:100ED000B0020020041002401CB500F0E3F8044604
:100EE00006480190019810B101980138F9E700F027
:100EF000D9F80349001B08601CBD00BF00A24A04CA
:100F00007004002098B191B1F0B5002200240023B4
:100F1000C55C0A2D01D00DB903E001340132013363
:100F2000F6E7E5186E1C8E4202D9BDE8F040704726
:100F300001190024CC5491B26C1E0A220D230139F0
:100F40000DB2002DF1D4475D651E26B20A2F19BFE0
:100F500087552C4682552DB204BF4355023CEEE71F
:100F60004FF0904002217047204600210022304778
:100F7000204602210022304720460121002230472E
:100F80004FF0904000210022704700000248816825
:100F900001318160704700BF180300200148002123
:100FA00041607047180300200A484168B1F5FA6FA4
:100FB00007D9017811B9084900220A60012101709E
:100FC00003E000220131027041600448012102F077
:100FD0009EBE00BF18030020C00600200020004075
:100FE00010B5124C0121204602F087FE88B110484E
:100FF0004178C1F101020129427011D08168026972
:10100000914207D9C26801F57A71C0E90412002142
:1010100002E010BDC1680131C160012001F08AFC0D
:1010200020460121BDE8104002F071BE002C0140B5
:101030001803002080B50020022101F04BFE58B1BA
:101040000B488168C269914207D9826901F57A71BA
:10105000C0E90712002102E080BD81690131816190
:10106000FFF744F900200221BDE8804001F078BE7E
:101070001803002010B50A4C0221606A013060623A
:10108000042001F027FE50B1A06A0130A06200F0F8
:1010900059F904200221BDE8104001F061BE10BDE5
:1010A0001803002001488068704700BF1803002023
:1010B00004498A6813469B1A834228BF704700BFC1
:1010C0008B68F8E7180300207047FEE7FEE7FEE7AD
:1010D000FEE7704770477047F8B514460D46064660
:1010E0000027A74208BFF8BDE95D304603F01AFBB0
:1010F000304640F2067103F0ECFC0028F8D00137CE
:10110000EFE770B5002341F221020129BCBF98B27C
:1011100070BD0478013983EA042508242EB26B00DF
:10112000002E48BF82EA4503013C25061D46F5D145
:101130000130EAE719B1134A02EB80000163F0B510
:10114000DFF844C00F4B114900204FF0FF0E12286A
:1011500013D003EB80040CEB00050026276B0C4634
:1011600085F806E01F2E06D02268974202D00B3485
:101170000136F7E7AE710130E9E7BDE8F040FFF76F
:101180004FBE00BFD003002074040020E800002000
:10119000F8B5FFF761FE13486FF4AA7121B1421848
:1011A0000B3101F029FAF9E70F4A104B00210B240B
:1011B000122913D0551895F90650002D08D405FBB7
:1011C000040665434559377A47F00207377200E055
:1011D000002503EB810601313563E9E7BDE8F840FE
:1011E00000F0B6B8E800002074040020D00300200E
:1011F00098B10B49002202F10B03B3F5B07F0CD07C
:101200008A5882421A46F6D1C81810F8031C41F0D9
:10121000020100F8031C012070470020704700BF46
:10122000E800002010B50849084BCA1F20210139E9
:1012300007D002F10B04D2F8072082422246F6D1F1
:1012400000E01C46206810BDE80000209802002045
:101250002DE9FE4F164E0C4605460A201549DFF8CB
:1012600060900FF2580B0FF25C083080012008707C
:10127000A54218D2104800EB8500D0F834A00D48E4
:1012800000EB8500076B3846FFF7CCFFCDE900A0E7
:101290004B46304641463246002F08BF5B4604F0BD
:1012A00003FA0135E4E7034900200870BDE8FE8F2A
:1012B000C0040020D0030020680000202F2F000071
:1012C000996200082573257323646566696E65203D
:1012D000257309095025730A000000000D2801D06C
:1012E0000A2804D10348044900784870704701492E
:1012F0000870704768000020D003002010B5FFF789
:101300004DFE0C480D4C00210160207888B10A4840
:10131000007870B920464FF40071FFF7F3FD2046C6
:1013200003F0FEFCC2B206482146FFF7D5FE0020BE
:10133000207010BDC4060020D0030020C00400208F
:101340000044004001480078FFF7C8BFB002002009
:1013500010B5044C2046FFF74BFF601CBDE8104061
:10136000FFF746BF0200004805490022C1F80220ED
:10137000044AD0800448006800F596700861704700
:10138000D003002068000020200300200948C18805
:101390000948B1F5806F03D301218171022005E076
:1013A000807900064FF0020008BF480080B2FFF7C6
:1013B000DBBF00BF68000020D0030020F0B512485A
:1013C000DFF848C0124C1F230B25C2889CF802008E
:1013D00002F078060246013292B2B2FBF3F7C7EB95
:1013E0004717D21B82420BD097B207FB05473F7AC3
:1013F000B907F0D407F001018919ECD0012000E011
:1014000000208CF80220F0BD68000020D0030020EE
:10141000E8000020F8B5504D504EA870F088012823
:1014200000F09980082819D0102852D1E86E0021C8
:101430000122FFF71CFA4B4F6FF4AA7474B301F04A
:10144000D6F809D429790122C90708BF0222D0F8A9
:1014500055010021FFF70BFA0B34EFE7F08940F656
:10146000B831884203D13E480068643028613D4F5E
:101470006FF4AA7454B101F0BAF805D4D0F855014C
:1014800000210122FFF7F3F90B34F3E74FF6FF7069
:101490000C210222B081002001F098F94FF47A70FB
:1014A0006861F088082827D0102822D0A9780B225C
:1014B000202801FB02F32B4AD45826D1287A002891
:1014C00047D0204601F0ECFE20460121FFF7BAF993
:1014D0003FE0244F6FF4AA74002CDFD001F087F8AE
:1014E00005D4D0F8550100210022FFF7C0F90B34D4
:1014F000F2E7142068612CE0F08940F6B8316422EC
:10150000884208BFFA226A6123E00B2001FB002019
:10151000007AC00702D1FFF751FFE0B12046032156
:10152000FFF790F924F0FF0004F00F01B0F1904FA5
:1015300018BF083100200222002401F047F9F0888A
:101540004FF47A61AC812C71042808BF4FF4FA6122
:1015500069610548A861F8BDD0030020680000203B
:1015600020030020E8000020000028C22DE9F04FF1
:1015700087B0DFF844ABBAF8064014F0C00F40F073
:10158000EB82DFF83C7BDFF8349B0646D9F800009D
:101590003969814200F2E0820020FEF763FEB4F573
:1015A000806F28D0B4F5007F09D1387903282CD872
:1015B000DFE800F002271A1D0020062123E0BAF818
:1015C0000600B0F5807F00F06B80042831D0082839
:1015D00023D010282AD0202825D0022807BF002495
:1015E00012250025002426E00D2012210BE04FF0EB
:1015F000FF30AAF80800022007B0BDE8F04FFFF75F
:10160000B3BE06200D21FFF723FED9F80000C83035
:1016100038613879013038719EE2BAF80E100F2423
:10162000102561B907E006240D2504E012251024D9
:1016300005E00D240E25D9F800103231F96197F834
:1016400001800021B8F1000F17D020227970A8F195
:101650006C010C298AF8002012D8DFE801F0073469
:10166000C7C7C750C7243DC7C7C75A002046294629
:10167000FFF7EEFD4FF06C08B8E04FF00008B5E062
:10168000B8F1200F59D0B8F1630F40F0AF800020BF
:101690002146A9425BD207EB810201311063F8E7D2
:1016A0000F250E24CBE720462946FFF7D1FDAC429B
:1016B00006D207EB8400006BFFF79AFD0134F6E7D2
:1016C000FFF764FE22E0F879002800F08580B87802
:1016D00000228AF8010080E0082865D1BAF80E00DF
:1016E00000220FF610210028DFF8D80908BF642275
:1016F000AAF80E2003F0D8FF4FF0740876E04FF000
:10170000FF30AAF808000220FFF72EFE00207872B2
:1017100022E2B8780B214843DFF8E8190858FFF7B0
:1017200067FD9AF90100B9784FF07808814204BF4B
:10173000FF208AF80100002034E0797A00296FD078
:1017400000217A697972D9F80010114469E0DFF854
:10175000B4196FF4AA7020B10A180B3000F04CFFD6
:10176000F9E7FFF7F5FD00200021FFF7E3FC40F269
:101770006E20AAF804000020FFF74CFE0FF6881236
:10178000DFF84009DFF880C94FF06308D2E9013182
:10179000D2F80CE0C0E9021E118AC0E900C3018240
:1017A00000F031FFF86121E0387A0FF63012B0FA1C
:1017B00080F149090028DFF80C0939720FF624116D
:1017C00008BF114603F070FF00204FF07408F86165
:1017D000B8780138B87009E00122DFF8E8080FF6A0
:1017E000E801FA7103F060FF4FF06D08787A022883
:1017F00009D0012805D0002840F0AE81BAF80600D3
:1018000012E0022007E0DFF8BC080FF610113322C7
:1018100003F062FA03207872D9F8000064309AE18C
:101820000021F9614FF02008BAF80810814221D157
:10183000411ED9F8002007294BD8DFE811F0080035
:101840008600D102E100D102D102D102C2004FF4E0
:101850007A5000F0C0FE40F049823879411E0028DD
:10186000397100F03B82DFF85C0800210171E64924
:1018700001603BE2AAF808000020FFF7CBFDBAF8B0
:101880000600411E07294ED8DFE811F00800740059
:101890000901FD00090109010901B400FFF778FC05
:1018A000386B60B1786B50B1B86B40B1BAF80400D6
:1018B00040F4C070AAF80400002000F08DFCDFF8AE
:1018C0000408DFF8AC180FF6A802936852680EC03F
:1018D000F1E0102800F01681202800F0F380B0F528
:1018E000807F40F07D82F869801A1FFA80FB40F605
:1018F000B9308345C0F0338100200026FEF7B2FCEA
:1019000040F6AD5083452FBF4FF4FA60BE81DFF83B
:10191000780800883FBFB7F90E100844022190FBF9
:10192000F1F0F8812FE2102800F00581B0F5807FFA
:1019300000F0E080202840F0B280DFF88807DFF870
:101940004018612203F0C8F9A9E0A8F13000092885
:1019500000F20281B8F1300018BF0120B8710121F6
:101960000422A8F12F00B8F1300F18BF01FA00F2DD
:1019700090B241E6F86E28B1BAF8040040F01000C9
:10198000AAF80400DFF83C47DFF8D0171E222046F3
:1019900003F0A2F9DFF8C86700250FF2C878092D17
:1019A00000F08980BAF80400E840800706D5204698
:1019B000414622462B46009603F076FE0A36013554
:1019C000EDE7BAF80E00002800F0FC80DFF8B81749
:1019D000BAF80C2009888A4288BFAAF80C1040F691
:1019E000B831B6FBF1F202FB11610126814238BF2A
:1019F0000226E8E0DFF8CC06DFF85C1750227EE034
:101A00004FF47A60B2FBF0F101FB1020B0F5FA6FF1
:101A10004FF000003CBF4FF6D460CFF6FF70FEF7EA
:101A200021FC386A03F090FCCDE90510DFF8580777
:101A3000008803F023FC754B002203F0E7FA744A98
:101A4000744B03F0E3FA04918346734A734BDDE968
:101A5000051003F0DBFA049B5A4603F030FA03F05A
:101A600086FC834638624FF47A5000F0B4FD40F0B3
:101A70006F81BE696A49304603F0D3FB002800F04D
:101A80003E81002646E10120DFF838567872DFF803
:101A9000EC0690E81E00006985E81E002861B87811
:101AA000DFF8601600F0B7FDDFF8D8164368DFF8FE
:101AB000140600F0ADFD787A002845D100F0A3FDB2
:101AC000F86141E0B8780B23397A5843DFF83436AF
:101AD0000029185800F0AC8000F00F01012320F01D
:101AE000FF0012F0030203FA01F118BF012201F016
:101AF0003FFCA5E0DFF8CC05DFF85416622203F0C6
:101B0000EBF81FE00020FEF7ADFBB8780B24DFF800
:101B1000F4550122604300F055FDB9783A79042369
:101B200001FB045103FA02F250430B7A23EA02024A
:101B30001043087254E1DFF88C05DFF818162F22E5
:101B400003F0CAF801207872B8788AF80100D9F851
:101B5000000000F59670386107B0BDE8F08FDFF83F
:101B60002816B7F90E000988081A03F076FB2D4AEB
:101B70002D4B03F04BFA03F0FAFB7862F87900285A
:101B800000F07C802948BBF5FA6F88BF0020FEF783
:101B900069FB4FF4486000F01EFD40F0F480B87817
:101BA000DFF8601500F037FD4668786A03F0CCFB7B
:101BB000CDE90001DFF80C05DFF8D015324603F05F
:101BC00073FDE0E00226B8780B21DFF838B5484312
:101BD0005BF80010F86E884207D00F20FFF7AAFAD2
:101BE000B8780B2148435BF80000002132464FF0E3
:101BF000000BFEF73CFEB8F1660F40F0F180C7F82D
:101C00001CB04FF00F08C5E0203A2D2900C0983FC6
:101C10009A9999999999B93FCDCCCCCCCCCCEC3F41
:101C2000000028C23F80C9999CC9C93FD4FEFFFF6C
:101C300091074FF0020208BF01220021FEF717FEB4
:101C4000A8F16F0006280AD84FF00608DFE800F078
:101C5000048CC8A2C8C889004FF007089AE0B8F100
:101C6000620F00F08780B8F1640F00F08080B8F157
:101C7000670F40F0B5804FF008088BE04FF4FA7022
:101C8000BBFBF0F101FB10B64FF42F70D649FA2ED2
:101C900088BFA1F5C870FEF7E5FAC6F5FA70FA211B
:101CA000B0FBF1F202FB1100153826286BD87E6AD2
:101CB0000021304603F099FAB7F90CB000285CD146
:101CC00030464FF03F4103F082FA002855D147F6E5
:101CD000FF70834557D00BF1010053E0DFF8E403B8
:101CE000C24901601421397100210171B8F1000F5E
:101CF0003FF432AF07B0BDE8F04FFFF747BB3046C7
:101D0000594603F066F80021064603F06EFA08B95A
:101D100086F00046B878DFF8EC1300F07CFC4068F1
:101D20000690584603F010FB834630460E4603F0FB
:101D30000BFBCDE90201CDE900B6DFF88803DFF83F
:101D40005014069A03F0B0FCD7F820B0C7F818B0CA
:101D5000B8F1660F44D10020CAF81CB04FF00D084E
:101D600017E04FF0090815E04FF00B0812E04FF0B4
:101D70000A080FE04FF00C080CE09D48834502DB99
:101D8000ABF10100B881B8F1660F29D100204FF006
:101D90000E08F8610AEB88000B21DFF868B3466B88
:101DA000B87848435BF80000FFF73CFA0346C548A3
:101DB000DFF8E013324603F077FC00200B21F861D6
:101DC000B87848435BF800104046FFF7B3F9AC42DF
:101DD00006D207EB8400006BFFF70AFA0134F6E73E
:101DE000F869D9F8001081427FF6B6AEBAF806005D
:101DF00008280FD0B0F5807F2FD1F87968BBB7F9EC
:101E00000C00BAF90A10814227DAAAF80A00B87859
:101E1000F87022E0BAF80E00F8B13879BAF80C2060
:101E200078B1B878B7490B2300FB0310B0F809105C
:101E3000891AA0F809100BB2A248D74903F034FC64
:101E40000BE0A048D5A103F02FFCB878AD4900F015
:101E5000E2FBBAF80C10A0F80910FFF7AFFAE8B3EC
:101E60009AF90100B0F1FF3F02DCB8788AF801006E
:101E7000BAF80610B1F5807F00F08180102938D0C3
:101E8000082940F0A480B97840B23B79814240F003
:101E9000B180002B00F0D6809A48002100243971CF
:101EA00000F108021F2900F0B18013789B0712D4BB
:101EB000B2F801301DB283EAE533A3EBE533A3F1B9
:101EC0000B05ADB2B5F5777F05D89DB2A6B2AE428F
:101ED0003CBFF9701C460B320131E3E7FFF756FABD
:101EE000BAF806207748BB4907B0BDE8F04F03F0C9
:101EF000DBBBB97840B2814270D13879421C0128ED
:101F00003A7100F0B180032840F0B9806D487D4CF3
:101F100000266FF4AA750670002D00F09B8004EB7C
:101F2000050898F85D01810727D4C1064FF010011C
:101F300058BF4FF0FF31420748BF4FF0FF318206D4
:101F40008B4648BF4FF0110B000748BF8B46BBF1D3
:101F5000000F12D4D8F855114FFA8BF0FFF7EAF8BA
:101F60005FFA8BF090490AEB8000436BD8F8590177
:101F70000090544800F04CFB01360B35CCE7F97962
:101F8000002940F09180B97840B2B7F90C20814225
:101F900050D1F9785B4C0B2500FB054001FB054156
:101FA0004B684068BAF90A10CDE9001045488249EB
:101FB00003F07AFBF878684321580E20FFF7BAF84F
:101FC0000020F870B8817D48AAF80A006CE0B87863
:101FD0004C4900F020FB7E49436812E049480B223F
:101FE00001FB02006EA14FE0D4FEFFFF3A2D290A4B
:101FF0000280FFFF43480B2201FB0200704940684A
:1020000000903048024603F04FFB4DE0210440D0E1
:10201000F9780B22514341580F20FFF78BF8F86EE7
:10202000FFF700F90346A0B266490090254800F08A
:10203000EFFA37E033480B2301FB03005D494368A7
:102040002048E0E70120614938711E48024603F04C
:102050002BFB27E01B485549F3B200F0D9FA0120C9
:102060007872002038711FE00120164E78724D48BA
:1020700090E83E00007D86E83E00307514E021487F
:102080000B2201FB02004AA142680E4803F00CFB40
:102090000AE00C484C49024603F006FB40F6B83013
:1020A000AAF80E0001207872B878FFF7B3F900F0B3
:1020B000AAFAF86150E500BF680000202003002064
:1020C000D0030020C00400206D616E75616C206D2E
:1020D0006F64653A2025690A000000004F5554508E
:1020E00055540A00494E5055545F50554C4C55506C
:1020F0000A0000006175746F2066696E643A2025DD
:10210000690A0000E8000020616C6C2070696E7341
:1021100020636C65617265642E0000000A454E54B0
:10212000455220746F20626567696E2C20277327E3
:1021300020666F72206E6578742073746167652CF9
:102140002027712720666F72206D656E750A00006A
:10215000D46200081864000838630008B4620008FC
:102160003D020020257325693A2025730A000000EE
:1021700068697420454E5445523A0A00EC630008E1
:10218000886300082560000848040020E25F00081A
:10219000CD5F00081C600008F061000825690000A0
:1021A0002025730000640008626200083B6200089A
:1021B0000A2573006B620008786200080180FFFF47
:1021C00091600008F9610008A66000082362000819
:1021D00087600008FA5F000810B50F490022CA6244
:1021E0000A710E4A887000EB4000126802F57A729C
:1021F000CA610B4A3031104490F8203090F82140E9
:1022000090F8220051F8200051F8233051F8244072
:10221000C2E90434906110BDD003002020030020E7
:1022200068000020B0B50A4C0B210025A078484377
:10223000084908580021FEF705FB07482571E562AB
:10224000006800F21A413230E1612061B0BD00BF88
:10225000D0030020E8000020200300202DE9FC41ED
:10226000AA4E0446F08810F0C50F00F03381A84F45
:10227000DFF8A0820D46BA6AD8F800108A1A0F2A31
:1022800007D3B962F1780131CAB2072A08BF012128
:10229000F170042800F01D81F06902F0FCFF9E49F6
:1022A00001EB8000FDF7DEFFD8F8000039698142BC
:1022B00000F20F81F088802823D0402840F0098167
:1022C0003089402812D0FFF7ADFF1E20B870FFF70D
:1022D00075F8BA78A1480B2102FB0100A0A1727029
:1022E00043688E4803F0E0F9F088308178787328ED
:1022F00054D072285CD1012030814020FFF734F89F
:1023000055E03089802804D00020FFF765FFF08871
:102310003081B87A844200F0DC8040F6B831B5FBF9
:10232000F1F202FB115169B9F96AD8F8002023468D
:10233000511AF27889B2CDE90001784878A103F00A
:10234000B3F9B87AF17888425DD1012C08BF06282C
:1023500002D00130A04256D13879411C152839717C
:10236000C0F0B38006F1100207F13003002507CA60
:1023700007C300200021FEF7DDFE00200621FEF746
:1023800067FF7979E8B20331814240F2868007EB3A
:102390008000006BFEF72CFF0135F2E7F878032888
:1023A00007D100200321FEF753FF00F01AF97878D7
:1023B00018B12020307000207870B8780B21674D5C
:1023C0000122484300F0FEF8B278D8F80010734CB0
:1023D000904202D058B3F962B070F869814278D95E
:1023E000FEF7ECFF002874D0BB7896F90100984204
:1023F00039D1F878032857D100200321FEF728FFB0
:1024000000F0EFF865E00020D8F800103871F869A6
:1024100081425AD9BA784148042A50D84BA103F0D6
:1024200043F9B8780130C0B2FFF7D6FE4DE0FA6A42
:102430008A1A92B2931F2B2B22D83A79531C052A61
:102440003B71C8D1FA78022A07D8BC780B2307EB76
:10245000820C6343EB58CCF830300023013252A495
:10246000FB61FA70B7E70B2051A1224603FB005035
:1024700040680090294803F017F9FFF7D3FE28E0E1
:10248000022A07D897F802C00B230CFB03531B7AD0
:10249000DB0722D100223A719DE7B08840F48070BA
:1024A000B080FEF773FF10E045481C4F90E83E00F7
:1024B0004069786102203EC7FEF756FF09E01DA182
:1024C00003F0F2F80220FEF74FFFD8F80000BC72CC
:1024D000F862F4782046BDE8FC813B795A1C052B54
:1024E0003A717FF478AF7B79022B08D80B22DC1C81
:1024F0000CFB02F2E4B2AA5807EB84042263002228
:1025000027A4FA615A1C7A7165E700BF68000020B1
:10251000D003002020030020E0FEFFFFC0040020C5
:1025200025693A202569202D3E2025692009256945
:102530000A0000006E6F2068616C6C206F64657229
:1025400020666F756E643A2025690A0077726F6E97
:1025500067206F6465722025690A0000E80000208A
:102560000A68616C6C20616E64207068617365201C
:1025700063757272656E74733A202772273D7265B7
:102580007374617274092773273D736176650A74E9
:102590007279202569203D20257309009962000881
:1025A000504841534500000048414C4C0000000099
:1025B00025730A747279202569203D20257309004E
:1025C0009C620008285800F00F0120F0FF0002FA7A
:1025D00001F100F0D5BEB6FBF0F101FB1060002860
:1025E0007047B08840F08000B080FEF7CFBE381949
:1025F00090F85D118907704792F85D3103F0FD0393
:1026000082F85D317047D9F8000079690844704755
:10261000024603F049B80B2200FB0210704700008D
:1026200080B540F2093000F0CBFF40F20930BDE840
:10263000804000F0CDBF00BF04480168C90703D146
:10264000016841F001010160704700BF08240140AA
:102650000248016821F0010101607047082401402F
:102660000748016841F00801016001680907FCD4CE
:10267000016841F00401016001684907FCD470471A
:10268000082401400248016841F4807101607047EC
:10269000082401400248016821F4807101607047FC
:1026A000082401400248016841F4000101607047BC
:1026B000082401400248016821F4000101607047CC
:1026C000082401400248016841F0807101607047B0
:1026D000082401400248016821F0807101607047C0
:1026E000082401400E4A0228136823F4C0531360E3
:1026F00010D0012813D1106820F4604010604FF40E
:10270000604000EB4130116880B2084310604FF424
:10271000006001E04FF4805011680843106070477A
:1027200004240140134A89B1C10503D5116841F45D
:1027300080711160410503D5116841F48061116019
:10274000800715D5506840F0020010E0C10503D5A0
:10275000116821F480711160410503D5116821F4DD
:1027600080611160800703D5506820F0020050603E
:10277000704700BF04240140044900280A6822F47D
:10278000006218BF02F500620A6070470824014029
:102790000D4A012807D0022815D10C324FF4401001
:1027A0006FF4401303E04FF470006FF4700310B542
:1027B000146800EB0151084023401360116808437E
:1027C0001060BDE8104070472C240140B0B5B1F155
:1027D000120318BF0B461F4905280AD800EB8000DA
:1027E0001F2500F06EF98D6A25EA000020438862FB
:1027F0001AE00B280BD800EB80001F251E3800F0D4
:1028000060F94D6A25EA0000204348620CE00F2879
:102810000AD800EB80001F253C3800F052F90D6A01
:1028200025EA000020430862092B03D8043103EB9A
:10283000430004E0112B0BD803EB43001E380723A1
:10284000824003FA00F00B6823EA0000104308609E
:10285000B0BD00BF0C240140B0B5144B1F25DC6A8D
:10286000C4F30154201A00EB8000C0F10F0001FAFC
:1028700000F405FA00F0DD6A25EA0000204309298A
:10288000D86203D8043301EB410004E012290CD8CC
:1028900001EB41001E3802FA00F1072202FA00F0B3
:1028A0001A6822EA000008431860B0BD0C240140F9
:1028B000064A536AC3F30153C01A033003289CBF6E
:1028C0006FF31F3142F82010704700BF14240140FD
:1028D0000D4A59B1C10703D0116841F4801111604C
:1028E00080070FD5106840F400400AE0C10703D00C
:1028F000116821F480111160800703D5106820F45D
:1029000000401060704700BF08240140012804D037
:1029100002280BD16FF4E04001E06FF46020044A1C
:10292000136818401060106808431060704700BFBB
:1029300008240140C107064903D00A6842F4800216
:102940000A60800703D5086840F4001008607047EB
:10295000082401400148006880B270474C240140BF
:1029600003280CD80749DFE800F007020406043109
:1029700002E0083100E00C31086880B270470020A6
:10298000FBE700BF3C24014002490968084018BF2A
:10299000012070470024014000498DE000240140DF
:1029A000012809D0042805D002281CBF0020704748
:1029B000202102E0802100E04021054A13681840F0
:1029C00018BF01205268114018BF0121084070470C
:1029D0000024014000496FE000240140C10709497B
:1029E00003D00A6842F040020A60820703D50A68F1
:1029F00042F020020A60400703D5086840F08000DA
:102A00000860704704240140C107094903D00A68DF
:102A100022F040020A60820703D50A6822F02002F1
:102A20000A60400703D5086820F0800008607047FE
:102A3000042401400649074B0A681A400A600A68E4
:102A40001043054A0860086810430860704700BFDB
:102A500004240140E0FD3FFF0002C0000749084B8D
:102A60000138C0B20A681A4002280A6005D805A2D7
:102A700052F820000A68104308607047042401409F
:102A8000FFFD3FFF00008000000040000000C0008C
:102A90000248034A01681140016070470424014064
:102AA000E0FD3FFF034A6FF31F306FF31F315060AB
:102AB00011607047242401400A6822EA000008607F
:102AC000704703FA00F405FA00F070470A4A00EB79
:102AD0008001800002EB81014B6823F001034B6011
:102AE00000234B608B60CB600B610F2101FA00F07B
:102AF0001168084310607047040002400021012261
:102B00000162C0E90011C0E90221C0E90412C0E974
:102B10000611704770B51B4A00EB80000C6802EB91
:102B200080039C60CC68DC60CC695C6052F820302B
:102B30004C680D690E6A23F47C5323432B433343C3
:102B400042F820308B6852F8204024F04004002BDB
:102B500008BF403442F820404B6952F8204024F02E
:102B60008004002B08BF803442F82040896952F865
:102B7000203023F01003002918BF103342F8203012
:102B800070BD00BF08000240034900EB800051F80F
:102B9000202042F0200220E108000240034900EB1F
:102BA000800051F8202022F0200216E108000240A7
:102BB000034900EB800051F8202042F480420CE1F0
:102BC00008000240034900EB800051F8202022F465
:102BD000804202E108000240034900EB800051F806
:102BE000202042F00102F8E008000240034900EB17
:102BF000800051F8202022F00102EEE0080002409F
:102C0000004AE1E010000240004ADDE0140002400A
:102C1000004AD9E00C000240024900EB800051F864
:102C2000200070470C000240034A00EB800052F87D
:102C3000203023F44053CCE008000240034A00EB6C
:102C4000800052F8203023F44063C2E008000240C4
:102C5000034A00EB800052F8203023F44073B8E0C0
:102C600008000240034900EB800051F8202042F0A8
:102C70008002B2E008000240034900EB800051F8F6
:102C8000202022F08002A8E008000240034900EB67
:102C9000800051F8202042F040029EE008000240EF
:102CA000034900EB800051F8202022F0400294E01C
:102CB00008000240064A00EB8000002952F820304C
:102CC00023F0100318BF103342F82030704700BFC4
:102CD00008000240013907291DD8CAB28B2323FA04
:102CE00002F2D20717D010B5144C00EB80030BA2F0
:102CF000800052F8212044EA830324689B681A402C
:102D00000FA353F821108140214021FA00F0104018
:102D100018BF012010BD0020704700BF0E0000004A
:102D20000200000002000000040000000200000099
:102D30000200000002000000080000000000024045
:102D40000F0000000200000002000000040000006C
:102D50000200000002000000020000000800000065
:102D6000800001FA00F002490A68104308607047C9
:102D700004000240024A00EB800052F8203028E0B4
:102D800008000240044A00EB800052F8203023EA99
:102D9000010142F82010704708000240800001FA4B
:102DA00000F003490968084018BF0120704700BFC0
:102DB00000000240800001FA00F002490A68104356
:102DC000086070470400024000EB800042F82010C9
:102DD0007047194342F82010704741F8202070478F
:102DE0000448C168090603D503490160034901602D
:102DF000704700BF0420024023016745AB89EFCD37
:102E00000248016841F080010160704710200240D3
:102E100003490A6822F0070210430860704700BFA8
:102E2000002002400248016841F001010160704742
:102E3000FC2002400248016821F001010160704756
:102E4000FC200240B0B5044600F016F800B1B0BD59
:102E5000084D286840F0020028606C60286840F047
:102E60004000286000F008F8296821F0020129607C
:102E7000B0BD00BF1020024010B50C490C4A02231F
:102E80001068C00707D11068C0065ABF106803EA6F
:102E90005000032000E00120012803D14C1C002930
:102EA0002146EDD1012808BF042010BD0100F1FF2B
:102EB0000C20024010B5FFF7DFFF00B110BD084C39
:102EC000206840F004002060206840F0400020604E
:102ED000FFF7D2FF216821F00401216010BD00BF7F
:102EE0001020024070B50C460546FFF7C5FF00B143
:102EF00070BD044E306840F0010030602C60FFF778
:102F0000BBFF6CE11020024070B50C460546FFF790
:102F1000B3FF00B170BD044E306840F00100306076
:102F20002C80FFF7A9FF5AE1102002400448816875
:102F3000890503D40349016003490160704700BF5C
:102F40000820024023016745AB89EFCD02480168A4
:102F500021F40071016070471020024002480168AE
:102F600041F400510160704710200240B0B5154C8B
:102F7000E06800F00605FFF77FFF2DB1022D1CBFB2
:102F80000520B0BDBB2500E0A52500B1B0BD00F017
:102F9000FBF80428FAD070B9206820F020002060E7
:102FA000206840F010002060074805706FF01005A1
:102FB000FFF762FF01E06FF02005216829402160E2
:102FC000B0BD00BF1020024000F8FF1F024800689B
:102FD00000F00600704700BF1C200240FEB5124DF5
:102FE00000F0F1F80DF106062946062F02D000F098
:102FF000EDF8FAE76FEA14218DF80B10E1438DF834
:103000000A1000B1FEBD094C00F0BEF800F0CFF888
:10301000F8D100F0D2F8062F04D000F0BEF8002856
:10302000F9D000E00020BDE000F8FF1F10200240B2
:10303000FEB5104D00F0C7F80DF106062946062F23
:1030400002D000F0C3F8FAE78DF8064000B1FEBDEB
:10305000094C00F099F800F0AAF8F8D100F0ADF8AA
:10306000062F04D000F099F80028F9D000E00020E5
:1030700098E000BF00F8FF1F10200240FEB5114D80
:1030800000F0A1F80DF106062946062F02D000F047
:103090009DF8FAE744F088018DF8071000B1FEBDF5
:1030A000094C00F071F800F082F8F8D100F085F8D2
:1030B000062F04D000F071F80028F9D000E00020BD
:1030C00070E000BF00F8FF1F10200240FEB5104D59
:1030D00000F079F80DF106062946062F02D000F01F
:1030E00075F8FAE7ADF8084000B1FEBD094C00F0F4
:1030F0004BF800F05CF8F8D100F05FF8062F04D030
:1031000000F04BF80028F9D000E000204AE000BFB2
:1031100000F8FF1F1020024002480068C0F307209B
:10312000704700BF1C20024001480068000C704737
:103130001C2002400148006880B2704720200240F5
:10314000004948E01020024002490A6822EA0000D3
:10315000086070471020024002490968084018BF03
:10316000012070470C200240004934E00C2002404E
:1031700002490968084018BF012070470C2002402E
:10318000004928E00C200240206840F02000206028
:10319000206840F0400020606EE6F05D013705F8E1
:1031A000020B69E6216821F010012160FEBD216853
:1031B000002821F02001216070472068002740F09E
:1031C0001000206070470446002755E611F8022BD6
:1031D000F255013770470A6810430860704731683C
:1031E00021F00101316070BD01480021016070478C
:1031F0000030004002484AF6AA210160704700BF33
:103200000030004002484CF6CC410160704700BFDE
:103210000030004010B5094945F255520A60084A8D
:10322000CB681AB1013213F00404F9D15A074FBF29
:1032300000206FF31F300861012010BD00300040F6
:103240000200F0FF70B5104A45F2555313600F4B62
:103250001C46D5681CB1013415F00106F9D1EC0704
:1032600008D15160D1681BB1013311F00204F9D1CA
:10327000890701D5002070BD6FF31F3090604AF6BA
:10328000AA201060012070BD003000400200F0FF55
:1032900002490968084018BF012070470C300040FF
:1032A00000F138404FEAB020052811D8C1B22F22D2
:1032B00022FA01F1C9070BD010B506A131F8104070
:1032C000204600F07DF92046BDE8104000F080B9AE
:1032D000704700BF110A120A130A140A110A160ACB
:1032E0002DE9F043D0F800E0D0F80C8000264FF034
:1032F000030C0027102F14D023FA07F4E4070DD095
:103300000CFA06F502FA06F928EA05042EEA050584
:1033100044EA090801FA06F445EA040E02360137C8
:10332000E8E7C0F800E0C0F80C80BDE8F0830129B0
:10333000416814BF994319434160F0B58168002486
:103340004FF0030C0026102E04BF8160F0BD23FA5D
:1033500006F7FF0705D00CFA04F502FA04F7A943B3
:10336000394302340136EEE781617047816270476C
:103370001823002A08BF2823C150704741617047B5
:103380000069084018BF01207047006980B270478B
:103390004069084018BF01207047406980B27047FB
:1033A000F0B5D0F820E0446A00254FF00F0C00275C
:1033B000082F0ED022FA07F6F60707D00CFA05F30D
:1033C00001FA05F62EEA030343EA060E0435013737
:1033D000EEE7082500264FF00F0C102D0CD022FA36
:1033E00005F3DB0705D00CFA06F701FA06F3BC4338
:1033F0001C4304360135F0E7C0F820E04462F0BD1C
:1034000041F48032C261C161C261C169C069704763
:103410000249084302490860704700BF0000FA05EE
:103420000CED00E010B5224B1C6804F4E064B4F528
:10343000E06F02D10023042423E01C6804F4E0645C
:10344000B4F5C06F02D1012303241AE01C6804F410
:10345000E064B4F5A06F02D10224022311E01C68DD
:1034600004F4E064B4F5806F02D10323012408E082
:103470001B6803F4E063B3F5407318BF01239C009D
:103480000423A1400F2424FA03F31A401143094AEC
:10349000090140EA020383F800131C21012301EA19
:1034A000D00100F01F0003FA00F0885010BD00BFEB
:1034B0000CED00E000E100E01C21012201EAD00156
:1034C00000F01F0002FA00F0014A8850704700BF68
:1034D00080E100E0024A1140084302490860704759
:1034E00080FFFF1F08ED00E002490A6810430860F2
:1034F000704700BF10ED00E002490A6822EA0000B0
:103500000860704710ED00E0044904280A6822F0C2
:10351000040208BF04320A60704700BF10E000E0F8
:103520001348016841F00101016001688907FCD579
:103530004168104A1140104A4160416811400F4AE9
:103540004160416821F4400141600168114040F24E
:1035500043120160C16A21F00F01C162016B914306
:103560000163416B21F001014163002181607047DB
:10357000001002400C00FF08FFFFC0F7FFFFF2FE43
:10358000734600F096FA9E46004A87E20010024019
:10359000734600F08EFA9E46004A77E20010024021
:1035A000734600F086FA9E46004A77E20010024019
:1035B000734600F07EFA9E46004A67E20010024021
:1035C000734600F076FA9E46004A67E20010024019
:1035D000734600F06EFA9E46004A57E20010024021
:1035E0000248016841F480310160704720100240B8
:1035F0000248016821F480310160704720100240C8
:1036000002490A6822F0030245E200BF04100240AA
:103610000248006800F00C00704700BF0410024030
:1036200002490A6822F0F00235E200BF04100240AD
:1036300002490A6822F4E0622DE200BF0410024051
:1036400002490A6822F4605225E200BF04100240D9
:10365000134904280A6822F440420A60CA6A22F424
:103660008072CA621AD8DFE800F003130B0F07005C
:10367000C86A20F4807010E0086840F4404008E018
:10368000086840F4804004E0086840F4004000E02E
:1036900008680860C86A40F48070C862704700BF5C
:1036A0000410024002490A6822F44002E2E100BF2D
:1036B00004100240084302490A6822F07742EAE116
:1036C0000410024010B5054A054C08431368234016
:1036D000136011680843106010BD00BF0410024061
:1036E000FFFFC2F702490A6822F00302C2E100BFED
:1036F0003010024002490A6822F04002BAE100BFDD
:103700003010024002490A6822F44072B2E100BF60
:103710002010024002490A6822F00F02BBE100BFFC
:103720002C10024002490A6822F01802A2E100BFF0
:1037300020100240044A810900F01F00895821FA34
:1037400000F000F0010070470010024002480168DC
:1037500041F08071016070472410024002490968FD
:10376000084018BF012070470810024001490A684C
:1037700091E100BF0810024001490A688BE100BFD7
:103780000810024002490A6822EA000008607047F7
:1037900008100240B0B5002100284ED010283DD0BE
:1037A000B0F5506F18D0B0F5006F2BD0B0F5106F9A
:1037B0001DD018284FF000004AD1264A264B00247D
:1037C0001868013A41F10005002CC0F340603FD178
:1037D000002D0446F4D13BE01E4A1F4B0024586BD9
:1037E00000F04DF934D1002D0446F8D130E0194AEB
:1037F000194B0024586A00F042F929D1002D0446E3
:10380000F8D125E0144B6FF07C420024186A00F0D8
:1038100036F91DD1002D0446F8D119E00E4B4FF4B6
:10382000006200241868013A41F10005C0F34040ED
:1038300074B9002D0446F5D10AE0074B4FF4A0629D
:103840000024186800F01BF902D1002D0446F8D1BD
:10385000B0BD00BFFFFF0F0000100240734600F034
:1038600028F99E46004A19E100100240734600F014
:1038700020F99E46004A09E1001002400C49102838
:1038800007D0B0F5006F11D1203104206FF0010294
:1038900003E04FF480206FF4803210B50B680C68A1
:1038A000224018430A600860BDE81040704700BF1E
:1038B000001002400C49102808D0B0F5006F12D15A
:1038C00020316FF004006FF0010203E06FF48020FC
:1038D0006FF4803210B50B680C68224018400A6003
:1038E0000860BDE8104070470010024002480168BF
:1038F00041F4002101607047001002400248016855
:1039000021F4002101607047001002400049C9E025
:10391000001002400049C5E0341002400448054A46
:10392000016800210160016811430160704700BF18
:10393000001102404D3C2B1A02490A6822F007028E
:1039400098E000BF3411024002490A6822F00102E7
:1039500090E000BF38110240F0B53D4A01463D4BB2
:1039600010681C4600F00C00082815D11068146877
:103970002401C0F383404FF0110458BF02242044B7
:103980001468E40301D4344C05E0946A04F00F0495
:103990000134B3FBF4F44443106830A50629C0F3A6
:1039A0000310285C1568176884BF0020F0BD24FA56
:1039B00000F6C7F3C2202D4F9C46385C26FA00F073
:1039C000DFE801F0041A143D061C24002046F0BD77
:1039D000D16AC9055CBF2648F0BD1168C1F38131C9
:1039E000DFE801F002342E324008F0BDC5F30220BA
:1039F000385C26FA00F0F0BD3046F0BDD06A4006D3
:103A00004FF4004058BF48F21200F0BDD16A890758
:103A100015D0D06A00F00300012820460FD0D06AEC
:103A200000F00300022804BF4FF40040F0BDD06A4C
:103A3000614600F00300032818BF00210846F0BDCE
:103A40000621B0FBF1F0F0BDC008F0BD8008F0BD6C
:103A50000410024000127A0000093D00000000003E
:103A6000000000000102030406070809B85F00080F
:103A7000809FD5000A600A68104308607047013AC9
:103A800041F10005002CC0F340007047835823EA41
:103A900001018150704710430860704783581943F3
:103AA000815070470A6822F0F80242EAC0000860BC
:103AB000704700F01F010122800902FA01F17047EE
:103AC00010B51C4988422AD01B4988421ED01B4988
:103AD000884221D01A4988421BD01A4988420CD00A
:103AE000194988420FD01949884209D0B0F1804F56
:103AF00018BF10BD4FF4806413E040F20B3410E0A7
:103B000040F211340DE04FF444740AE040F20144F5
:103B100007E04FF4816404E040F2044401E040F225
:103B200012342046FFF74CFD2046BDE81040FFF759
:103B30004FBD00BF0048014000040040001000409D
:103B400000200040002C01400040014000440140A2
:103B500000224FF6FF710273C0E9002281607047B6
:103B600010B50A888262284A904204D0274C40F45B
:103B70008063A34218D1036823F0700303604B886D
:103B80000468234303608B880468234303609042E6
:103B90008B68C3620AD1136823F440731360CB8827
:103BA0001468234313601DE08B68C362B0F1804F3B
:103BB0000ED0164B98420BD0154B984208D0154B9F
:103BC000984205D0144B984202D0144B98420BD126
:103BD000036823F440730360CB8804682343904256
:103BE000036006D1097B0163416941F00101416134
:103BF00010BD084A9042F5D0084A9042F2D0064AD9
:103C00009042EFD0F0E700BF002C014000040040DC
:103C100000200040004001400048014000440140B5
:103C2000016841F0010101607047016821F0010164
:103C300001607047016841F08001016070470168D0
:103C400021F0800101607047016821F002010160EC
:103C50007047016841F0020101607047026822F07C
:103C6000600202600268114301607047016821F040
:103C7000100101607047016841F010010160704758
:103C8000816202B17047416941F0010141617047B1
:103C900001637047C162704741627047406A704774
:103CA000806A80B27047012904D039B9016841F0B7
:103CB000080102E0016821F0080101607047012954
:103CC00004D039B9016841F0040102E0016821F033
:103CD00004010160704729B1012907D1816841F0D1
:103CE000080102E0816821F0080181607047C26824
:103CF0001143C160704700F09DBCC2680A4018BF04
:103D000001220069084018BF012010407047C943D4
:103D1000016170470069084018BF01207047C9431E
:103D200001617047C2681143C160704700F082BCF6
:103D3000012904D039B9416841F0080102E0416825
:103D400021F008014160704710B5836C41F61F7483
:103D50001143A3438364826C1143816410BD4269A3
:103D600011434161704780B5182100F0CEFF80BD3E
:103D7000F0B5D1E900340A8901F10C074989E0CF97
:103D800023431A4311432943314339434164F0BD6E
:103D9000416C41F4805141647047416C21F4805181
:103DA00041647047416C41F4804141647047416C0B
:103DB00021F4804141647047426C012922F40042A1
:103DC00008BF02F50042426470474268012922F0B0
:103DD000010208BF013242607047012904D039B99D
:103DE000416821F0040102E0416841F004014160B2
:103DF000704700218181C0E900118160704700BFD8
:103E0000032900F2EA80DFE801F002AA4586016A90
:103E100021F001010162816921F0030181611168D2
:103E2000036A19430162016A21F002010162D1882B
:103E3000036A19430162734901444FEAB12107291A
:103E400000F2CB80012303FA01F111F0E10F00F041
:103E5000C480016A21F0040101629188036A194358
:103E60000162016A21F0080101621189036A1943A4
:103E70000162416821F480714160518943681943AE
:103E80004160416821F400714160918942681143A9
:103E900041607047016A21F480710162C16921F0BB
:103EA0000301C1611168036A43EA01210162016AE9
:103EB00021F400710162D188036A43EA01210162A1
:103EC0004C490B1F984240F0888010B5036A23F4D8
:103ED000806303629388046A44EA03230362036AEB
:103EE00023F4006303621389046A44EA0323036230
:103EF000086820F48050086050890B6843EA00107D
:103F00000860086820F40050086090890A6842EA56
:103F10000010086010BD016A21F480510162C1697E
:103F200021F44071C1611168036A43EA0131016201
:103F3000016A21F400510162D188036A43EA013128
:103F400001622C490B1F984247D1086820F4804039
:103F5000086050890A6842EA801008603DE0016A02
:103F600021F010010162816921F4407181611168C1
:103F7000036A43EA01110162016A21F02001016232
:103F8000D188036A43EA011101621B49884225D0A6
:103F90001A49884221D1016A21F0400101629188C9
:103FA000036A43EA01110162016A21F080010162A2
:103FB0001189036A43EA011101620E48016821F484
:103FC000806101605189036843EA810101600168F1
:103FD00021F400610160918906E07047084801689A
:103FE00021F4806101605189026842EA8101016027
:103FF000704700BF042C014000400140002C0140EC
:104000000440014000D4FEBF032917D8DFE801F0C7
:10401000020D050A50F8181F01E050F81C1F21F08E
:10402000700107E050F81C1F01E050F8181F21F440
:10403000E0411202016001681143016070470329E9
:1040400003D8890089B2084442637047032917D80E
:10405000DFE801F0020D050A50F8181F01E050F8E2
:104060001C1F21F0080107E050F81C1F01E050F868
:10407000181F21F400611202016001681143016000
:10408000704700BF032917D8DFE801F0020D050AC9
:1040900050F8181F01E050F81C1F21F0040107E040
:1040A00050F81C1F01E050F8181F21F48061120223
:1040B0000160016811430160704700BF032917D8F0
:1040C000DFE801F0020D050A50F8181F01E050F872
:1040D0001C1F21F0800107E050F81C1F01E050F880
:1040E000181F21F4004112020160016811430160B0
:1040F000704700BF03291DD8DFE801F00213070D48
:1041000050F8201F21F0020110E050F8201F120289
:1041100021F400710AE050F8201F120321F400512D
:1041200004E050F8201F120121F020010160016815
:1041300011430160704700BF03291DD8DFE801F07B
:104140000213070D50F8201F21F0080110E050F86D
:10415000201F120221F400610AE050F8201F120310
:1041600021F4004104E050F8201F120121F08001E9
:104170000160016811430160704700BF03291DD829
:10418000DFE801F00213070D50F8201F21F00101B4
:1041900010E050F8201F120221F480710AE050F85C
:1041A000201F120321F4805104E050F8201F120157
:1041B00021F010010160016811430160704702297C
:1041C0000DD0012905D099B950F8201F21F0040124
:1041D0000AE050F8201F120121F0400104E050F8DD
:1041E000201F120221F48061016001681143016007
:1041F0007047002141604FF480310160704700BF7B
:10420000032900F27A80F0B5DFE801F0024A1635A2
:1042100003464FF0010C53F8204F24F001041C60BA
:104220001C6824F00A041C6014881D682C431C6060
:10423000044654F8185F13E003464FF4807C53F8AB
:10424000204F24F480741C601C6824F420641C60DB
:1042500014881D6845EA04241C60044654F81C5F59
:1042600025F003052560558826683543256004261A
:104270006FF0F00733E003464FF4805C53F8204FB3
:1042800024F480541C601C6824F420441C601488AE
:104290001D6845EA04341C60044654F81C5F13E0B2
:1042A00003464FF0100C53F8204F24F010041C600C
:1042B0001C6824F0A0041C6014881D6845EA0414DE
:1042C0001C60044654F8185F25F440752560558835
:1042D000266846EA052525600C266FF47047256898
:1042E0003D402560D588B5402668354325601C686B
:1042F00044EA0C041C60BDE8F0409288AFF30080F3
:10430000032917D8DFE801F0020D050A50F8181F3D
:1043100001E050F81C1F21F00C0107E050F81C1FB1
:1043200001E050F8181F21F4406112020160016899
:10433000114301607047032984BF00207047890042
:1043400089B20844406B7047F0B555880123012DB0
:1043500008BF0223076A1688B6FA86F46409640067
:1043600000294CD027F010010162016A21F0A00160
:104370000162016A41EA06110162014651F8186FB3
:1043800026F440760E600E6846EA05250D600D683D
:1043900025F470450D60D5880E6846EA05360E6036
:1043A000066A46F0100606620E6826F440660E6045
:1043B00092880E6846EA02260E60066A26F001061A
:1043C0000662066A26F00A060662066A344304623A
:1043D0000C6824F003040C600C6823430B600B682A
:1043E00023F0F0030B600B6843EA05130B60036ACC
:1043F00043F001030362086820F00C004BE027F053
:1044000001010162016A21F00A010162016A31437E
:104410000162014651F8186F26F003060E600E681F
:1044200035430D600D6825F0F0050D60D5880E68E8
:1044300046EA05160E60066A46F0010606620E6838
:1044400026F00C060E6092880E68164312020E606B
:10445000066A26F010060662066A26F0A0060662C4
:10446000066A46EA041404620C6824F440740C6082
:104470000C6844EA03230B600B6823F470430B6061
:104480000B6843EA05330B60036A43F010030362D1
:10449000086820F440600860086810430860F0BDB8
:1044A000012904D039B9416841F0800102E0416836
:1044B00021F0800141607047826822F07002BEE006
:1044C000426822F0700242604268114341607047C6
:1044D000826822F00702B2E0012904D039B981686C
:1044E00041F0800102E0816821F080018160704725
:1044F00010B58468114324F43F44846082681143FA
:104500008160816841EA0321816010BD10B5846833
:1045100024F0070484608468214340F203348160FE
:104520008169A14340F20114816181692143816164
:10453000016A21F00A010162016A21F0A001016211
:1045400042EA0311026A1143016210BD816821F041
:10455000070181607047734600F05CF89E46704723
:10456000F0B5046A602911D124F01004120110265C
:104570004FF00C0C6FF4704E4FF480770462046AB5
:1045800024F0A00404626FF440740EE024F00104EF
:104590004FF0040C6FF0F00E012701260462046A4C
:1045A00024F00A0404626FF00304056A2A430262DD
:1045B00082692240826182693A438261826902EAA9
:1045C0000E02826103FA0CF283691A438261026A65
:1045D0003243026200F01EF8F0BD10B50446FFF74A
:1045E00087FFA06820F07700A060A06840F0770007
:1045F000A06010BD10B50446FFF77AFFA06840F434
:104600008040A06010BD816821F4804181607047C6
:1046100001657047826822F07002826082681143EF
:104620008160816821F007018160816841F00701A4
:1046300081607047C26822EA0101C16070478260F0
:10464000826811438160704710B50A49884206D0DC
:104650000949884218BF10BD40F2114401E040F200
:104660000E342046FEF7ACFF2046BDE81040FEF7B2
:10467000AFBF00BF0038014000440040B0B5044661
:1046800011480D46844204D01048844205D10220CE
:1046900000E00620FFF760F900E00020216809042F
:1046A00005D400EB5500B0FBF5F080B20AE0400005
:1046B0004FF6F07100EB5500B0FBF5F00140C0F390
:1046C00042000844E060B0BD0038014000440040B2
:1046D000026822F001020260026822F4C06238E23D
:1046E000026822F001020260026822F4805230E285
:1046F000026822F001020260426822F440522DE278
:10470000016841F0010101607047016821F0010179
:1047100001607047026822F008021AE2026822F083
:10472000040216E26FF35F2181627047406A6FF303
:104730005F207047026801F4002122F0010202604C
:10474000426822F4002209E20268072922F00102ED
:10475000026025D8DFE801F004180C10081C2014B2
:10476000416841F480211AE0416841F4803116E04B
:10477000416841F4003112E0416821F400310EE05B
:10478000416821F400410AE0416821F4802106E0FB
:10479000416821F4803102E0416841F40041416008
:1047A0007047724600F0E6F9964621F48051816028
:1047B0007047724600F0DEF9964641F48051816000
:1047C0007047026822F001020260026822F400428F
:1047D000BFE1026822F001020260826822F40062F6
:1047E000B2E1416841F4801141607047416821F4B1
:1047F000801141607047426822F4C002AEE1016856
:1048000041F4005101607047016821F400510160DA
:104810007047026822F001020260026822F400621E
:1048200097E1026801F0100122F001020260426883
:1048300022F0100292E1026822F001020260426856
:1048400022F07F424260426842EA01614160704763
:10485000416841F4000141607047416821F4000162
:1048600041607047426902F07F42426142691143F0
:1048700041617047016821F001010160416841F424
:10488000804141607047016821F001010160416889
:1048900021F4804141607047026801F0200122F05C
:1048A000010202604268114341607047724600F0A5
:1048B00061F9964641F0080181607047724600F048
:1048C00059F9964621F0080181607047016821F08E
:1048D00001010160416841F4006141607047016875
:1048E00021F001010160416821F4006141607047DD
:1048F00010B5046801F4807124F001040460446878
:1049000024F4E064446044682143416002F400718F
:1049100042681143416003F4806142681143416081
:1049200010BD724600F026F9964641F020018160E4
:104930007047724600F01EF9964621F02001816012
:104940007047724600F016F9964641F010018160FA
:104950007047724600F00EF9964621F01001816012
:1049600070470268090289B222F0010202600269FE
:1049700022F47F4204E1426922F07F4242614269AF
:1049800042EA016141617047026801F0070122F0CB
:1049900001020260826822F460228260826842EA38
:1049A000414181607047724600F0E4F8964641F05C
:1049B000020181607047724600F0DCF8964621F0F3
:1049C000020181607047026801F0040122F00102D7
:1049D00002608268114381607047026822F0010220
:1049E0000260026922F0FF02CAE0026822F00102BE
:1049F0000260826822F48072A6E0026822F001025E
:104A00000260826822F400729EE0724600F0B2F802
:104A1000964641F4804181607047724600F0AAF8E2
:104A2000964621F4804181607047026801F01F01C1
:104A300022F001020260026822F0787202600268CD
:104A400042EA415101607047026801F01F0122F003
:104A500001020260026822F4F8120260026842EA6F
:104A6000014101607047026801F4004122F0010237
:104A70000260826822F4004266E0826822F040020E
:104A800062E0826822F080025EE0724600F072F816
:104A9000964641F4005181607047724600F06AF812
:104AA000964621F4005181607047016841F002018F
:104AB00001607047016821F00201016070470268DF
:104AC00001F4401122F001020260826822F44012D7
:104AD0003AE08A0901F01F011058C84000F00100B7
:104AE000704701F01F013EE001F01F020123C1F3F6
:104AF000891103FA02F20B581A430A50704701F069
:104B00001F020123C1F3891103FA02F20B5823EAB1
:104B100002020A507047826911438161704701F0B7
:104B20001F02012303FA02F2C1F389131B581A4032
:104B300018BF01228B0DC1F304411858C840104022
:104B40007047C1F304410EE08260826811438160C6
:104B5000704702600268114301607047426042681A
:104B6000114341607047012202FA01F1026A1143C8
:104B700001627047016821F001010160816870479E
:104B800002610269114301617047000006488047D5
:104B900006480047FEE7FEE7FEE7FEE7FEE7FEE722
:104BA000FEE7FEE7FEE7FEE7B14B000869010008FB
:104BB000284850F8041C41F0010140F8041C50F84A
:104BC000041C8907FBD50168234A254B114001606D
:104BD000224902680A4001F500310260026822F4AD
:104BE0004002026050F8042C1A4040F2431340F88F
:104BF000042C826A22F00F028262C26A9A43C26265
:104C0000026B22F00102026300224260026802602D
:104C1000026802600268026002681140114A016085
:104C200001681143016050F8041C41F0807140F8A4
:104C3000041C50F8041C8901FBD5016821F0030114
:104C40000160016841F00201016001680907FCD5BB
:104C5000704700BF041002400C00FF08FFFFC0F7C0
:104C6000FFFFF2FE000004081348016801F00C0287
:104C70001249082A15D1026803681B01C2F3834256
:104C80004FF0110358BF02231A440368DB0301D419
:104C90000B4905E0836A03F00F030133B1FBF3F125
:104CA0005143084A08A311600068C0F30310185C60
:104CB00021FA00F0106070470410024000127A00E0
:104CC00000093D00E400002000000000000000009A
:104CD000010203040607080940EA01039B0703D009
:104CE00009E008C9121F08C0042AFAD203E011F82B
:104CF000013B00F8013B521EF9D27047D2B201E0ED
:104D000000F8012B491EFBD270470022F6E710B5D0
:104D100013460A4604461946FFF7F0FF204610BD29
:104D2000421C10F8011B0029FBD1801A7047F0B417
:104D300080EA0102D40F4200B2EB410F02D20246D8
:104D4000084611464A0042D0C30DDDB2C1F3C75236
:104D5000AD1A202D35DAC1F3160141F4000204B179
:104D60005242C5F1200602FA06F12A411044B3EB83
:104D7000D05F23D0C4B1012DA0EBC35009DCF0BC3F
:104D80004FF0004202EAC352DBB200F5000000F02F
:104D90008BBB400000F1807000EBC350A0F180702D
:104DA00040EAD170490009E0490841EAC071A0EB2E
:104DB000C35000F50000400800EBC350F0BC00F009
:104DC0006ABB6142012202EB4101001BF6E7F0BC25
:104DD000704781F00041AAE780F00040A7E780EA31
:104DE000010210B502F00043400022D04A001FD05B
:104DF000010E01EB1261C0F35600C2F3560240F4FB
:104E0000000042F40002A0FB022000047F391404D9
:104E100000D0401C50EA124001D44000491EC2B2EA
:104E20000C0604EBD010401C4008802A02D003E09E
:104E3000002010BD20F00100002900DA00201843F6
:104E400010BD30B480EA010202F0004530F00042AB
:104E500021F0004013D090B1C30DD40DC2F3160160
:104E6000C0F31600E41A41F4000140F400027D345E
:104E7000914201D3641C00E04900002C02DA30BCEE
:104E8000002070474FF400000023914201D3891A9B
:104E9000034340084FEA4101F7D151B1914202D199
:104EA0004FF0004105E002D24FF0010101E06FF048
:104EB000010103EBC450284430BC00F0ECBA2DE9EA
:104EC000FE4F804681EA0300C00F0C46009021F09F
:104ED000004123F00045B8EB0200A94105D240464D
:104EE000214690461C460B46024623F000401043E4
:104EF00047D0270DC7F30A00C3F30A510290401AA6
:104F0000019040286BDAC3F3130040F4801B009833
:104F1000924620B10023D2EB030A63EB0B0B0198FE
:104F20005946C0F14002504600F084FA06460D464C
:104F300050465946019A00F09CFA10EB0800614176
:104F4000002487EA115284EAE7731A4340D0009A9A
:104F500062B3019A012A4FEA075215DC001B61EB8C
:104F600002014FF0004202EA0752CDE90042001C64
:104F700041F5801132462B4600F0D3FA03B0BDE86C
:104F8000F08F40462146F9E7001B61EB0201001C4F
:104F900041F5801300185B412018A2F5001747EB7C
:104FA000030140EAD570B6196D4111E06D084FEA72
:104FB000360645EAC0754FEA0752001B61EB020155
:104FC000001C41F5801149084FEA30000019514199
:104FD00032462B4603B0BDE8F04F00F093BA00987C
:104FE000012240000023D0EB020263EBE073009843
:104FF00021464FEAE074B8EB000061EB0401E9E7F9
:1050000083F000435BE781F0004158E72DE9FE4F54
:1050100081EA030404F0004421F0004100944FF0C1
:10502000000B23F0004350EA01045ED052EA03046F
:105030005BD0C3F30A54C1F30A552C44A4F2F334F1
:105040000194A0FB0254C1F3130141F48011C3F396
:10505000130343F4801301FB024400FB034E840A54
:10506000970A44EA815447EA8357A4FB07680295EC
:105070008D0A05FB07854FEA932C04FB0C5427058A
:10508000029D4FEA065847EA1637B5EB08056EEB66
:10509000070C870E920E47EA811742EA8312A7FB9C
:1050A0000201B6EB0B0164EB00042B0D43EA0C3359
:1050B0005E1844EB1C50DA465146E7FB0201C5F38B
:1050C00013044FEA0B3343EA14534FEA0432019CB2
:1050D00043EA0603A4F10C040294009CCDE900B459
:1050E00000F01FFA03B0BDE8F08F00200146F9E799
:1050F0002DE9F04D81EA030404F0004B21F0004556
:1051000014464FF0000A23F0004150EA050220D077
:1051100054EA01021DD0C5F30A570246C5F3130332
:10512000C1F31300C1F30A5640F4801543F4801311
:10513000A7EB0608101BD64608F2FD3873EB0500F6
:1051400002D308F1010801E092185B41B8F1000FA9
:1051500003DA00200146BDE8F08D00204FF48011F5
:10516000064684460EE0171B73EB050705D3121B9A
:1051700063EB050306434CEA010C49084FEA300093
:1051800092185B4150EA0107EDD152EA030012D0B8
:1051900082EA040083EA0501084305D0101BAB41F5
:1051A00006D20122002306E000224FF0004302E075
:1051B0006FF0010253101AEB06004CEB085110EB94
:1051C0000A0041EB0B01BDE8F04D00F09BB900284F
:1051D00001DBC0F10040002901DBC1F10041814247
:1051E00001D80120704700207047002801DBC0F182
:1051F0000040002901DBC1F10041814201D30120BF
:10520000704700207047002801DBC0F100400029F2
:1052100001DBC1F10041814201D90120704700202A
:105220007047002801DBC0F10040002901DBC1F11B
:105230000041814201D10120704700207047C10F19
:1052400080EAE0700844CA079623002100F02CB9D8
:1052500096230022114600F027B90EB5C10F80EA4F
:10526000E0700844CA07002140F233438DE80E0085
:105270000A460B4600F055F903B000BD0EB540F2EA
:10528000334102910021CDE900110A460B4600F09E
:1052900048F903B000BD00F0004220F00040C10D0D
:1052A000C0F3160040F400007F2901DA00207047A7
:1052B000962903DCC1F19601C84001E09639884087
:1052C000002AF4D04042704710B500F0004420F0AE
:1052D0000040C20DC0F3160040F400007F2A02DA3D
:1052E0000020014610BD0021962A03DCC2F196027F
:1052F000D04002E0963A00F09DF8002CF2D0002356
:10530000D0EB030063EB010110BD70B5C1F30A528D
:1053100001F000450024C1F3130140F2FF3341F4D2
:1053200080119A4201DA002070BD40F233439A4264
:10533000A2F2334203DC524200F08BF800E09040CE
:105340002C43F1D0404270BD00F0004230F00040EC
:105350000AD0C10D01F56071C0F3160042EA015197
:10536000C20840071143704700200146704701F012
:10537000004330B421F0004150EA010206D00A0D8A
:10538000A2F56072C1F31301002A02DC30BC0020D8
:105390007047440F44EAC104C100E01830BC00EB80
:1053A000C25000F078B830B50B46014600202022EC
:1053B000012409E021FA02F59D4205D303FA02F522
:1053C000491B04FA02F52844151EA2F10102F1DC82
:1053D00030BD2DE9F05F0546002092469B46884689
:1053E0000646814640241BE0284641464746224661
:1053F00000F02FF853465A46C01A914110D3114677
:105400001846224600F016F82D1A67EB01084F46A1
:1054100022460120002100F00DF817EB00094E4153
:10542000201EA4F10104DFDC484631462A464346EB
:10543000BDE8F09F202A04DB203A00FA02F10020A8
:1054400070479140C2F1200320FA03F319439040C2
:105450007047202A04DB203A21FA02F0002170472D
:1054600021FA02F3D040C2F12002914008431946CC
:105470007047202A06DBCB17203A41FA02F043EAB4
:10548000E07306E041FA02F3D040C2F120029140FD
:105490000843194670470029A8BF7047401C4900BF
:1054A00008BF20F00100704710B4B0FA80FC00FA89
:1054B0000CF050EA010404BF10BC704749B1CCF1B4
:1054C000200421FA04F411FA0CF118BF0121214340
:1054D0000843A3EB0C01CB1D4FEA00614FEA1020FB
:1054E00042BF002010BC704700EBC350104400299D
:1054F000A4BF10BC7047401C490008BF20F0010049
:1055000010BC704710B5141E73F1000408DA401C7B
:1055100041F1000192185B411A4301D120F00100D2
:1055200010BD2DE9F04D92469B4611B1B1FA81F2C2
:1055300002E0B0FA80F220329046FFF77BFF04468B
:105540000F4640EA0A0041EA0B0153465A46084317
:1055500013D0114653EA010019D0C8F14002504659
:10556000FFF777FF05460E46504659464246FFF77D
:1055700061FF084305D0012004E020463946BDE81C
:10558000F08D0020054346EAE0762C4337430A9825
:105590006305E40AA0EB08000022FD0A44EA475430
:1055A0000A3002D500200146E9E7010510196941DA
:1055B000DDE9084500196941BDE8F04DA2E7C1F3F6
:1055C0000A52C1F3130140F2FF3341F480119A42B1
:1055D00002DA00200146704740F233439A42A2F2B9
:1055E000334202DC5242FFF734BFFFF723BF000013
:1055F00030B5041E71F1000404DB4FF0004440425A
:1056000064EB0101141E73F1000405DB1C464FF02E
:105610000043524263EB0403994208BF904230BDFD
:105620001CB509480090094801900546009C06E019
:10563000E06840F0010394E8070098471034AC425A
:10564000F6D3FAF795FD0000486400086864000886
:1056500070B58C1810F8015B15F0070301D110F834
:10566000013B2A1106D110F8012B03E010F8016B61
:1056700001F8016B5B1EF9D12B0705D40023521EE4
:105680000DD401F8013BFAE710F8013BCB1A921C4C
:1056900003E013F8015B01F8015B521EF9D5A1424A
:1056A000D8D3002070BD00000FB4084B10B504A97A
:1056B00002AA039800F0DEF8044602A9002000F0D8
:1056C00070FC204610BC5DF814FB0000A35F0008CE
:1056D00002E008C8121F08C1002AFAD170477047BB
:1056E000002001E001C1121F002AFBD17047000019
:1056F0002DE9FF5F82B00021DDE90430020DDDF805
:1057000040B0034318D044F61050A2F2FF32424397
:105710001514119801281FD0A5EB0B00401C5FEA5F
:10572000000A4FF000064E4FDFF83891B046504661
:1057300015D5CAF1000413E0119801244AA30128E9
:1057400001D16FEA0B010298119AC0E90031C0E95A
:10575000024206B0BDE8F09FCBF10000DFE704464F
:105760000021404A491842EB0450CDE9001012E0F4
:10577000E00707D032463B4640464946FFF746FC25
:105780008046894632463B4610461946FFF73EFCA6
:1057900006460F466410002CEAD1DDE90401DDE97C
:1057A0000023BAF1000F06DAFFF730FC42464B4601
:1057B000FFF72CFC05E0FFF79BFC42464B46FFF74A
:1057C00097FC04460E460022284BFFF711FF03D832
:1057D0004FF0FF30014607E00022254B20463146BE
:1057E000FFF76DFBFFF7EBFE102409E0002C0ADB4E
:1057F0000A220023FFF7EDFD039B30321A55641E89
:1058000050EA0102F2D1641C039AC4F1110314445A
:10581000119A012A03D0012208430DD10AE008435E
:1058200004D000204FF0110B119072E7A3EB0B0591
:105830006D1E0DE05B4504DD4FF0000205F1010532
:1058400004E003DA4FF00002A5F10105002AECD0D4
:1058500002981199C0E90231C0E9004579E70000DA
:10586000000014400000F03F300000000000F04352
:105870000000E03F2DE9FF4F95B09B468946064664
:1058800000250FE2252877D100242746F84A012178
:10589000059400E0044316F8013F203B01FA03F0B1
:1058A0001042F7D130782A2811D06FF02F033078CA
:1058B000A0F13002092A16D8059A44F0020402EB3E
:1058C000820203EB42021044761C0590EFE759F880
:1058D000042B0592002A03DA504244F40054059048
:1058E00044F00204761C30782E2816D116F8010FE9
:1058F00044F004042A280DD06FF02F023078A0F174
:105900003003092B09D807EB870302EB4303C718C1
:10591000761CF3E759F8047B761C30786C280FD09E
:1059200006DC4C2817D068280DD06A2814D104E072
:10593000742810D07A280FD10DE044F400140AE046
:1059400044F4801401E044F440147278824202D19D
:1059500004F58014761C761C307866280BD013DC96
:10596000582877D009DC002875D04528F6D046287D
:10597000F4D047281AD19DE118E0632835D0642877
:1059800079D0652812D195E1702873D008DC67289A
:10599000F1D069286FD06E280DD06F2806D1B5E000
:1059A00073282CD0752875D0782874D05A4617994A
:1059B00090476D1C75E1C4F30250022809D00328FA
:1059C0000DD0D9F8001004280DD00D6009F104099C
:1059D00067E1D9F80010EA17C1E90052F6E7D9F8F3
:1059E00000100D80F2E70D70F0E719F8041B8DF838
:1059F000001000208DF80100EA46012003E059F86C
:105A000004AB4FF0FF3061074FF0000102D40DE00E
:105A100008F101018846B9420FDA8045F8DB1AF82F
:105A200008100029F4D108E008F1010188468142FC
:105A3000FADB1AF808100029F6D105985B46A0EBAE
:105A4000080721463846179A00F094FA284400EBDC
:105A5000080507E04DE029E10DE01AF8010B5A4670
:105A600017999047B8F10108F7D25B4621463846AE
:105A7000179A13E142E00A220092C4F302524FF057
:105A8000000A022A08D059F804CB032A4FEAEC7125
:105A90000AD00DE029E02AE009F1070121F0070210
:105AA000F2E802C1914609E00FFA8CFC4FEAEC7172
:105AB000042A03D14FFA8CFC4FEAEC71002907DA73
:105AC0000A460021DCF1000C61EB02012D2202E00C
:105AD000220504D52B228DF80420012203E0E207E1
